:020000040800F2
:100000000000022009E40008596700085B67000847
:100010005D6700085F670008616700080000000076
:1000200000000000000000000000000063670008FE
:10003000656700080000000067670008696700083E
:100040004DE400084DE400084DE400084DE40008CC
:100050004DE400084DE40008116300086B670008D8
:100060004DE400084DE400084DE400087910000854
:100070004DE400084DE400084DE400084DE400089C
:100080004DE400084DE400084DE400084DE400088C
:100090004DE400084DE400084DE40008017000083C
:1000A0004DE400084DE400084DE400084DE400086C
:1000B000916700084DE400084DE400084DE4000895
:1000C0004DE400084DE400084DE400084DE400084C
:1000D0004DE400084DE40008E97100084DE4000813
:1000E0004DE400084DE400084DE400084DE400082C
:1000F0004DE400084DE400084DE400084DE400081C
:100100004DE400084DE400084DE400084DE400080B
:100110004DE400084DE400084DE400084DE40008FB
:100120004DE400084DE400084DE400084DE40008EB
:100130004DE400084DE400084DE400084DE40008DB
:100140004DE400084DE400084DE400089567000800
:100150004DE400084DE400084DE400084DE40008BB
:100160004DE400084DE400084DE400084DE40008AB
:100170004DE400084DE400084DE400084DE400089B
:080180004DE400084DE4000805
:10018800409D010800000020BC080020C008002095
:1001980004790020034B203903EBC10108220FF03A
:1001A800ADBA00BF18F80008034B0C2202FB01315E
:1001B800A1F5C0710FF0A2BA10FB0008034B18227A
:1001C80002FB0131A1F540710FF098BA84FF0008D5
:1001D800034B203903EB011110220FF08FBA00BF37
:1001E8006C080108034B302202FB0131A1F5C06104
:1001F8000FF084BA5C0E010807B5042001210BF04A
:1002080057FA01214FF480400BF082FA002302A92B
:100218008DF8043001238DF807304FF4007341F84E
:10022800083D024869460AF09BFE0EBD00080240E0
:1002380038B500F0C7F900F0C7F90E4B0E4D0F485E
:1002480000241C80082101220AF0FFFE00F09FF91B
:1002580000F0BCF9B5F9000000F01EF9B5F902008C
:1002680000F0F6F8204600F042F90620BDE83840D4
:1002780000F0B4B8A0090020300A0020000C0240A9
:1002880008B500F09FF900F09FF9104B01221A8081
:1002980000F07DF9002000F0FFF8002000F027F9B9
:1002A80000F0AFF90A4BB3F9040000F0D1F80821C7
:1002B800002208480AF0C9FE4FF47A7002F016FFCF
:1002C8001820BDE8084000F0A6B800BFA00900202B
:1002D800300A0020000C0240114B002210B51A60B1
:1002E80000F070F900F070F90E4B0F4C01221A80E3
:1002F80000F04DF9B4F9060000F0CEF8082100220C
:100308000A480AF0A2FE4FF47A7002F0EFFE1420B9
:1003180000F081F8B4F90A00BDE8104000F05EB8BA
:10032800C8090020A0090020300A0020000C024063
:1003380010B500F047F900F047F90E4B0E4C0122BA
:100348001A8000F024F9B4F9080000F0A5F8082193
:1003580000220A480AF079FE4FF47A7002F0C6FECD
:10036800142000F058F8B4F90A00BDE8104000F075
:1003780035B800BFA0090020300A0020000C024058
:100388002DE9F341144F0820012102AC0BF090F93C
:100398000026012504234FF002083846694644F830
:1003A800083D8DF804608DF805808DF806608DF89D
:1003B80007500AF0D5FD0823384669468DF80450E1
:1003C8008DF805808DF806608DF8075000930AF0C7
:1003D800C7FDBDE8FC8100BF000C024010B500213C
:1003E80001220446302002F09DFBE4B2012002F015
:1003F8007DFE10212246302002F094FB012002F0FD
:1004080075FE30201121224602F08CFB0120BDE848
:10041800104002F06BBE10B50021012204463020C6
:1004280002F080FBE4B2012002F060FE12212246B5
:10043800302002F077FB012002F058FE3020132113
:10044800224602F06FFB0120BDE8104002F04EBECC
:10045800002810B5044603DB5F2CA8BF5F2400E02A
:10046800002400210122302002F05CFBE4B20120CC
:1004780002F03CFE3B212246302002F053FB0120D3
:1004880002F034FE30203C21224602F04BFB0120D2
:10049800BDE8104002F02ABE302810B504460ADC38
:1004A80010F17F0F02DB002802DB05E06FF07E040D
:1004B80004F5807400E0302400210A46302002F060
:1004C80031FBE4B2012002F011FE41212246302026
:1004D80002F028FB012002F009FE302042212246CA
:1004E80002F020FB0120BDE8104002F0FFBD2828E3
:1004F80010B5044609DC10F1180F02DB002802DBF6
:1005080004E06FF017047F3400E0282400210A4635
:10051800302002F007FBE4B2012002F0E7FD53218E
:100528002246302002F0FEFA012002F0DFFD3020E2
:100538005421224602F0F6FA0120BDE8104002F0EC
:10054800D5BD08B500210122302002F0EBFA0120C8
:1005580002F0CCFD30203321402202F0E3FA0120E2
:10056800BDE8084002F0C2BD08B5002101223020D4
:1005780002F0D8FA012002F0B9FD30203321002220
:1005880002F0D0FA0120BDE8084002F0AFBD08B57E
:1005980000210122302002F0C5FA012002F0A6FD58
:1005A80034210022302002F0BDFA012002F09EFD25
:1005B80030203721002202F0B5FA0120BDE80840BA
:1005C80002F094BD402009E7402024E708B5002147
:1005D8000122302002F0A6FA012002F087FD302027
:1005E8003421024602F09EFA012002F07FFD3020FD
:1005F8003721024602F096FA0120BDE8084002F0D1
:1006080075BD08B500210122302002F08BFA0120C7
:1006180002F06CFD302034210C2202F083FA012014
:10062800BDE8084002F062BDF8B56A4B6A486B49FC
:100638006B4A1B6890ED006AD1ED006A92ED007A72
:10064800002B61D16748684E684D19461A4640F23A
:10065800FF1432F900E005EE10EA1718F8EEC57A33
:10066800B7F9027067EE865A05EE107AFDEEE55A84
:1006780067EEA67A15EE90EAF8EEC55A013375EEE4
:10068800A75A9BB265EE875A21F806E0FDEEE55AB7
:10069800043215EE907A4F531FB20231A742D8DDCB
:1006A800534B5448504D514CC3ED007A0023194622
:1006B8001A46575B0E180F520133175B9BB27780AF
:1006C8001EB202320431FF2EF3DD4B4A4B4E13802B
:1006D80000F050FD00F05CFD00F068FD04F0F4F857
:1006E80000F084FD002346481A46194640F2FF15DB
:1006F8008C5B171801339BB214527C801CB20231F8
:100708000432AC42F4DD61E000233E48364E374DFA
:1007180019461A4640F2FF1432F900E005EE90EA55
:100728001718F8EEE57AB7F9027067EE865A05EE03
:10073800107AFDEEE55A67EEA67A15EE90EAF8EE25
:10074800C55A013375EEA75A9BB265EE875A21F850
:1007580006E0FDEEE55A043215EE907A4F531FB2CB
:100768000231A742D8DD224B22481F4D1F4CC3ED52
:10077800007A002319461A46575B0E180F520133A8
:10078800175B9BB277801EB202320431FF2EF3DD75
:10079800194A1A4E138000F0EDFC00F0F9FC00F045
:1007A80005FD04F091F800F021FD002316481A46D3
:1007B800194640F2FF158C5B171801339BB214528F
:1007C8007C801CB202310432AC42F4DD0A4A138048
:1007D800F8BD00BF50270020F80900201C0A00209F
:1007E800780900204C380020841A00209A2B002019
:1007F8009C090020D4560020982B00208416002045
:100808004C300020C04E0020E8400020F8B5624B74
:1008180062481A686249634BD0ED005A91ED006A4C
:10082800D3ED006A002A59D15F4D604C60481346E9
:1008380040F2FF1135F9136007EE106AF8EEC77A37
:10084800013227EEA57A92B2BDEEC77A17EE106A8A
:1008580027EE867A1E5377EE877A67EEA67AFDEE44
:10086800E77A17EE906A1E5216B202338E42E1DD25
:10087800504B51484D4D4E4C83ED007A002319469C
:100888001A46575B0E180F520133175B9BB27780DD
:100898001EB202320431FF2EF3DD484A484E13805F
:1008A80000F068FC474D00F073FC00F09FFC00234B
:1008B800454819461A4640F2FF1432F806C00F1888
:1008C80021F800C0013332F805C09BB2A7F802C076
:1008D8001FB202320431A742EFDD59E000223B4D3E
:1008E800324C3348134640F2FF1135F9136007EED6
:1008F800106AF8EEC77A013227EEA57A92B2BDEEF9
:10090800C77A17EE106A27EE867A1E5377EE877A33
:1009180067EEA67AFDEEE77A17EE906A1E5216B2D7
:1009280002338E42E1DD234B2348204D204C83EDDA
:10093800007A002319461A46575B0E180F520133E6
:10094800175B9BB277801EB202320431FF2EF3DDB3
:100958001A4A1B4E138000F00DFC1A4D00F018FCCB
:1009680000F044FC00231A4819461A4640F2FF14C6
:1009780032F806C00F1821F800C0013332F805C05C
:100988009BB2A7F802C01FB202320431A742EFDDC2
:100998000A4A1380F8BD00BF50270020CC09002068
:1009A8002C0A0020780900204C380020841A0020E6
:1009B8009A2B00209C090020D4560020982B002058
:1009C800880B0020F44800204C300020C04E002046
:1009D800E84000202DE9F0472DED088BA64B82B0AA
:1009E800D3E90001A0A3D3E900230DF0D7F9A34B65
:1009F800044618680D460DF07DF902460B46204660
:100A080029460DF0F5FA9E4B9E4AC3E900019E4B1C
:100A18001C689E4B93ED00BA9D4BCDE90001D3EDC8
:100A280000BA9C499C4BDFED9D9A9FED9D9ADFEDA6
:100A38009D8A91ED00AAD2ED00AA1E6893ED018A65
:100A4800002C40F08680984FDFF86882DFF86892C3
:100A5800254640F2FF1A86A3D3E90023DDE9000109
:100A68000DF09CF90DF034FC7AEE487A28EE098AEC
:100A780007EEA98A3618C8EE287A331103F5806381
:100A88001B051B0D013437F8232013B2A4B206EE60
:100A9800903AB8EEE67A67EE2A6A66EEA76AFDEE45
:100AA800E66A16EE903A67EE0B6A25F8083037EEDC
:100AB800267A27EE277A27EE2B7ABDEEC77A17EE2D
:100AC800103A25F8093023B202355345C3DD724B7D
:100AD80076481E601A8183ED018A83ED038A744B80
:100AE800744D754CC3ED007A744BC3ED006A002356
:100AF80019461A46575B0E180F520133175B9BB203
:100B080077801EB202320431FF2EF3DD6C4A6D4E3F
:100B1800138000F02FFB6C4D00F03AFB00F066FBF1
:100B280000236A4819461A4640F2FF1432F806C0F4
:100B38000F1821F800C0013332F805C09BB2A7F89E
:100B480002C01FB202320431A742EFDD5C4A1380B3
:100B580085E00024544FDFF85C81DFF85C9125467E
:100B680040F2FF1A42A3D3E90023DDE900010DF0AA
:100B780015F90DF0ADFB7AEE487A28EE098A07EEF2
:100B8800A98A3618C8EE287A331103F580631B0545
:100B98001B0D013437F8232013B2A4B206EE903AA5
:100BA800B8EEE67A67EE2A6A66EEA76AFDEEE66AAE
:100BB80016EE903A67EE0B6A25F8083037EE267A7B
:100BC80027EE2B7A27EE277ABDEEC77A17EE103A72
:100BD80025F8093023B202355345C3DD2E4B33487F
:100BE8001E601A8183ED018A83ED038A304B314DF3
:100BF800314CC3ED007A314BC3ED006A002319462E
:100C08001A46575B0E180F520133175B9BB2778059
:100C18001EB202320431FF2EF3DD294A294E138019
:100C280000F0A8FA284D00F0B3FA00F0DFFA00232C
:100C380027481A46194640F2FF1431F806C01F1813
:100C480023F800C0013231F805C092B2A7F802C0FB
:100C580017B202310433A742EFDD194B1A8002B0F4
:100C6800BDEC088BBDE8F087182D4454FB211940D2
:100C780039D6C56D305FC44078160020980F002023
:100C8800D8090020CC090020502700202C0A002079
:100C980078090020104D0020C0080020CDCCCC3CA5
:100CA8009A99793F00FCFF461C450108D45600205C
:100CB800C8090020841A00209A2B00209C090020D3
:100CC800982B0020880B0020F44800204C3000208E
:100CD800E8400020F8B56C4B2DED028BD3E90001FC
:100CE80065A3D3E900230DF059F8684B044618684A
:100CF8000D460CF0FFFF0B460246294620460DF034
:100D080077F9634B634DC3E90001634B1B68002B04
:100D180040F0A9802B8040F2FF169FED608A6BE0BF
:100D28005B4B5F4CD3E9000155A3D3E900230DF0D9
:100D380035F80DF0CDFA2369C018021102F580626A
:100D48001205120D2061574BC0F30B1053F82010F9
:100D580053F82230A182E38202F090FB52492B889B
:100D6800D1ED007AB4F9141006EE901A67EE887A7D
:100D7800B8EEE67A4D4967EE877A1AB2FDEEE77A61
:100D8800013317EE900AD1ED007AB4F916102B80D2
:100D980006EE901A67EE887AB8EEE67A67EE877AFA
:100DA800FDEEE77A17EE901A411809B207EE101A0D
:100DB8003F49F8EEC77A91ED007A27EE877A3D49E8
:100DC800BDEEC77A17EE100A21F812003A4991EDE4
:100DD800007A3A4927EE877A81ED007A384977EE2A
:100DE800877AD1ED006A67EEA67A3649FDEEE77A92
:100DF80017EE900A21F81200B5F90030B3428FDDE2
:100E0800002331482B4D2F4C19461A46575B0E18B4
:100E18000F520133175B9BB277801EB20232043146
:100E2800FF2EF3DD1B4A294E138000F0A3F9284D4D
:100E380000F0AEF900F0DAF90023264819461A4600
:100E480040F2FF1432F806C00F1821F800C0013331
:100E580032F805C09BB2A7F802C01FB202320431B3
:100E6800A742EFDDDAE000232B8040F2FF169FED6A
:100E78000B8A9DE0AFF30080182D4454FB211940E4
:100E880039D6C56D305FC44078160020980F002011
:100E9800D8090020982B0020502700208FC2F53C4D
:100EA800C00800201C450108240A0020C4090020AD
:100EB800CC090020841A00202C0A00209C0900205C
:100EC800780900209A2B0020D4560020880B002097
:100ED800F44800204C300020554B564CD3E9000113
:100EE80051A3D3E900230CF059FF0DF0F1F9236960
:100EF800C018021102F580621205120D20614E4BD6
:100F0800C0F30B1053F8201053F82230A182E3826B
:100F180002F0B4FA49492B88D1ED007AB4F91410DB
:100F280006EE901A67EE887AB8EEE67A444967EEDC
:100F3800877A1AB2FDEEE77A013317EE900AD1EDFF
:100F4800007AB4F916102B8006EE901A67EE887AAC
:100F5800B8EEE67A67EE877AFDEEE77A17EE901A32
:100F6800411809B207EE101A3649F8EEC77A91ED22
:100F7800007A27EE877A3449BDEEC77A17EE100A51
:100F880021F81200314991ED007A314927EE877A2C
:100F980081ED007A2F4977EE877AD1ED006A67EE06
:100FA800A67A2D49FDEEE77A17EE900A21F812008D
:100FB800B5F90030B3428FDD00232848224D264C76
:100FC80019461A46575B0E180F520133175B9BB22E
:100FD80077801EB202320431FF2EF3DD204A214E03
:100FE800138000F0C7F8204D00F0D2F800F0FEF8AA
:100FF80000231E4819461A4640F2FF1432F806C06C
:101008000F1821F800C0013332F805C09BB2A7F8C9
:1010180002C01FB202320431A742EFDD104A13802A
:10102800BDEC028BF8BD00BF39D6C56D305FC4403A
:10103800D8090020C00800201C450108240A002007
:10104800C4090020CC090020841A00202C0A0020A2
:101058009C090020780900209A2B0020D4560020F3
:10106800982B0020880B0020F4480020E84000203E
:1010780008B5244809F0C1FB234B1860234809F040
:10108800BCFB234B4FF4805118600122214809F022
:10109800DCFF214BB3F9003013B9FFF7C5FA21E0A3
:1010A8001E4B1B88012B06D002D3022B1AD117E046
:1010B800FFF7ACFB16E04FF40071194809F0AFFFD9
:1010C800184B9FED197ADFED197A18700028184B24
:1010D80018BFF0EE477AC3ED007AFFF77BFC01E01A
:1010E800FFF7F8FD00220B484FF4805109F0ADFFDF
:1010F800104B0448104901221A80BDE8084009F045
:10110800FDBB00BF106002405027002088600240ED
:1011180044300020000C0240A0090020DC08002018
:1011280000080240280A00200000000000FCFF46DA
:10113800104D0020E809002020800010AFF3008047
:1011480007B5082001210AF0B3FA4FF44053009381
:1011580001238DF804300222002305488DF806305B
:1011680069468DF805208DF8073009F0F9FE0EBDA7
:10117800000C024003480449044A4FF400730BF082
:1011880085BE00BF00000020841A0020880B0020C4
:1011980003480449044A4FF400730BF077BE00BFBC
:1011A8000C0000209A2B0020F4480020F0B5DFF84E
:1011B80038C0094F094E0A4D0A4C002333F80C1069
:1011C800D85B0A1A92B241189A5359531A530233E8
:1011D800B3F5806FF2D1F0BDF448002084160020EA
:1011E80054270020C80F0020880B002070B50F4C32
:1011F8000F4D104E298B0022012320460CF0E0FBF6
:101208000D4B187020460D4C31460CF0BFFB304694
:10121800062122464FF480730BF006FD2A8B0849FD
:101228002046BDE870400BF091BC00BFE46C002084
:1012380000000020D4560020E2670020E26300206E
:10124800D8130020000000007FB5042001210AF017
:101258002FFA04AD01214FF480400AF059FA4FF4F7
:10126800B07345F80C3D0124002629461A488DF82C
:1012780008608DF80B4009F073FE102021460AF033
:1012880017FA78232946154801938DF808608DF8D8
:101298000B4009F065FE21464FF480400AF038FA09
:1012A800022008210AF0C2FC0D484FF48073036045
:1012B8000C2306714371847109F046FB172303A8B8
:1012C8008DF80C308DF80D408DF80E408DF80F40DC
:1012D80006F078FA7FBD00BF000802400010024007
:1012E800A06D0020104B114A11481249DFF874C054
:1012F80083E80710104A1A61104A5A61104A9A6125
:10130800104ADA61104A1A62104A5A62104A9A62FE
:10131800104ADA62104A1A63104A5A63104A9A63EA
:101328000422DA63704700BF5C6D0020203D6B002B
:10133800F0B0D60060A0360030E16B0080969800CF
:1013480090B19A00C0ACD800C0E1E400202F14018D
:10135800B0804101C03F7C01C013AD0110C1FE0245
:1013680000605B03006C6B0008B5044809F05DFE83
:10137800034BC043C0F3C300188008BD00100240EF
:101388004C6D00200E4B1A68642A10D004D8012A2C
:1013980013D00A2A13D10DE0B2F57A7F42F2107108
:1013A80003D08A420BD1074A05E0196070474FF411
:1013B8007A7200E064221A6070470A221A60704745
:1013C8007C000020A08601000F4B1A68B2F57A7FD6
:1013D80011D004D80A2A13D0642A13D10DE042F29E
:1013E80010718A4204D0094882420BD119607047B3
:1013F8004FF47A7202E0642200E00A221A60704711
:1014080001221A60704700BF7C000020A0860100FE
:10141800034B1868034B1B68EA21002204F0FABE4C
:10142800086D00207C000020904BB3F9003010B507
:101438000F2B00F29981DFE813F01000280040001C
:10144800580070008800A000B800D000E800000133
:101458003B0153016B0183018E01854B854C1B7841
:1014680020685843844B1860844B1B78032B01D0A9
:1014780003F0B0FD7D4BB3F9003054F82320804BC6
:10148800EA201A6014217F4A6CE1794B794C1B7869
:1014980060685843784B1860784B1B78032B01D051
:1014A80003F098FD714BB3F9003054F82320744BC6
:1014B800EA201A601421744A54E16D4B6D4C1B7874
:1014C800A06858436C4B18606C4B1B78032B01D0F9
:1014D80003F080FD654BB3F9003054F82320684BC6
:1014E800EA201A601421694A3CE1614B614C1B787F
:1014F800E0685843604B1860604B1B78032B01D0A1
:1015080003F068FD594BB3F9003054F823205C4BC5
:10151800EA201A6014215E4A24E1554B554C1B7889
:1015280020695843544B1860544B1B78032B01D047
:1015380003F050FD4D4BB3F9003054F82320504BC5
:10154800EA201A601421534A0CE1494B494C1B7894
:1015580060695843484B1860484B1B78032B01D0EF
:1015680003F038FD414BB3F9003054F82320444BC5
:10157800EA201A601421484AF4E03D4B3D4C1B78A0
:10158800A06958433C4B18603C4B1B78032B01D097
:1015980003F020FD354BB3F9003054F82320384BC5
:1015A800EA201A6014213D4ADCE0314B314C1B78AB
:1015B800E0695843304B1860304B1B78032B01D03F
:1015C80003F008FD294BB3F9003054F823202C4BC5
:1015D800EA201A601421324AC4E0254B254C1B78B6
:1015E800206A5843244B1860244B1B78032B01D0E6
:1015F80003F0F0FC1D4BB3F9003054F82320204BC6
:10160800EA201A601421274AACE0194B194C1B78C0
:10161800606A5843184B1860184B1B78032B01D08D
:1016280003F0D8FC114BB3F9003054F82320144BC5
:10163800EA201A6014211C4A94E00D4B0D4C1B78CB
:10164800A06A58430C4B18600C4B1B78032B01D035
:1016580003F0C0FC054BB3F9003054F82320084BC5
:10166800EA201A601421114A7CE000BF4C6D00206A
:101678009C6D00205C6D0020286D0020406D0020CE
:10168800086D0020CC9A0108D79A0108E29A01084F
:10169800ED9A0108F89A0108039B01080E9B0108BE
:1016A800199B0108249B01082F9B01083A9B0108FC
:1016B8002F4B304C1B78E06A58432F4B18602F4B48
:1016C8001B78032B01D003F085FC2D4BB3F90030B8
:1016D80054F823202B4BEA201A6014212A4A41E0AF
:1016E800234B244C1B78206B5843234B1860234B07
:1016F8001B78032B01D003F06DFC214BB3F90030AC
:1017080054F823201F4BEA201A6014211F4A29E0AD
:10171800174B184C1B78606B5843174B1860174BC6
:101728001B78032B01D003F055FC154BB3F900309F
:1017380054F82320134BEA201A601421144A11E0AC
:10174800144BD3E900010CF0EBFD0E4B124A186064
:101758001421EA2006E0064B1A780A4B1A600F4A51
:10176800EA20142103F04AFEBDE8104050E600BF0D
:101778009C6D00205C6D0020286D0020406D0020CD
:101788004C6D0020086D0020459B0108509B010806
:101798005B9B0108306D0020669B0108719B010866
:1017A80038B59D4C642001F0A1FC25789B48AD001C
:1017B800EDB2257009F039FCC0F341100543984B90
:1017C800257005F00F05974A595D6378C918964B3F
:1017D8001B88C9B2617018B249B2814205DA404229
:1017E800814206DD0021117003E001211170002201
:1017F800627094F901201BB25B429A42894B04DC67
:10180800FF221A70844A0021517093F90030002B8E
:1018180000F09181FFF7A8FD844BB3F900300F2B3E
:1018280000F28681DFE813F0100025003A004F002F
:10183800640079008E00A300B800CD00E2000C011E
:101848001F01320158017901794A7A4913680968F8
:101858008B4280F06D81784909688B4240F268813B
:101868007049764891F90010006800FB0133136055
:101878001EE16F4A6F49536809688B4280F05881AE
:101888006D4909688B4240F2538166496B4891F96A
:101898000010006800FB0133536009E1644A6549A0
:1018A800936809688B4280F04381634909688B42D9
:1018B80040F23E815B49614891F90010006800FBE5
:1018C80001339360F4E05A4A5A49D36809688B4255
:1018D80080F02E81584909688B4240F2298151498C
:1018E800564891F90010006800FB0133D360DFE02F
:1018F8004F4A5049136909688B4280F019814E4953
:1019080009688B4240F2148146494C4891F900100D
:10191800006800FB01331361CAE0454A4549536931
:1019280009688B4280F00481434909688B4240F280
:10193800FF803C49414891F90010006800FB0133E1
:101948005361B5E03A4A3B49936909688B4280F094
:10195800EF80394909688B4240F2EA8031493748BB
:1019680091F90010006800FB01339361A0E0304A50
:101978003049D36909688B4280F0DA802E490968BA
:101988008B4240F2D58027492C4891F90010006815
:1019980000FB0133D3618BE0254A2649136A0968A5
:1019A8008B4280F0C580244909688B4240F2C08090
:1019B8001C49224891F90010006800FB01331362AA
:1019C80076E01B4A1B49536A09688B4280F0B08055
:1019D800194909688B4240F2AB801249174891F9BE
:1019E8000010006800FB0133536261E0104A11499E
:1019F800936A09688B4280F09B800F4909688B4283
:101A080040F2968007490D4891F90010006800FBE4
:101A1800013393624CE000BFD80800200008024060
:101A280038200108A86D0020486D00204C6D00206A
:101A38005C6D0020FC6C0020586D00207C000020AC
:101A4800414A4249D36A09688B4271D240490968C0
:101A58008B426DD93F49404891F90010006800FB5E
:101A68000133D36224E0384A3849136B09688B4242
:101A78005ED2374909688B425AD93649364891F9B6
:101A88000010006800FB0133136311E02E4A2F4950
:101A9800536B09688B424BD22D4909688B4247D951
:101AA8002C492D4891F90010006800FB013353635D
:101AB8002A4A107858432A4B18602A4B1B78032B64
:101AC80001D003F087FA284BB3F900201E4B53F8D6
:101AD8002220264B1A602BE0254C17A3D3E90023BC
:101AE800D4E900010CF0C2FB18B115A3D3E9002317
:101AF80002E011A3D3E90023C4E90023194B1B78A2
:101B0800032B01D003F0C6F9D4E900010CF008FC5E
:101B1800164B18600C4B98630AE0104A1378042B94
:101B280014BF042302231370104A1360064AD363B8
:101B3800BDE838406CE438BD0000000000DB8A4195
:101B480000000000D01263415C6D0020FC6C002096
:101B5800586D0020A86D00207C0000209C6D00209E
:101B6800286D0020406D00204C6D0020086D00207D
:101B7800306D002038B5002004F010FC40F2D2444B
:101B8800264BA042186007D0FFF7ACFB04F022FCFC
:101B98000020214604F0E9FB04F02CFC204B214CEA
:101BA800214DA06B02221A80204A214B1A60214A3B
:101BB800214B1A600CF07CF8204BC3E90001E36B61
:101BC8002B7003F04FF91E4B1B78032B05D1EA202D
:101BD8003C211C4A03F012FC1CE003F05BF9FFF700
:101BE800C3FB194BB3F900300D2B02DCFFF71CFCCB
:101BF80010E02B7820685843144B186003F0EAF97A
:101C08002268134BEA201A601421124A03F0F6FBEB
:101C1800FFF7FEFB104B64221A6038BD0C6D0020E4
:101C2800486D00205C6D00209C6D002080841E00A3
:101C3800586D00200065CD1DFC6C0020306D002023
:101C4800406D00207C9B01084C6D0020286D002011
:101C5800086D0020CC9A01087C000020AFF30080BA
:101C680073B50420012109F023FD02AD01214FF4D1
:101C7800804009F04DFD01241E23002669461548C1
:101C880045F8083D8DF804608DF8074009F068F9BB
:101C98000220214609F00CFDB02369460E48009346
:101CA8008DF804608DF8074009F05AF921464FF481
:101CB800804009F02DFD2046072109F0B7FF0748AD
:101CC800802303600C2306714371847108F03CFE85
:101CD8007CBD00BF0008024000040240A06D002047
:101CE8000A4B142100225980998041F288311A80C8
:101CF800DA801A815A819981DA8119825A829A8204
:101D0800DA821A835A839A83DA837047300A00206A
:101D18000C4B4FF6817100224FF47A701980D980EC
:101D280019814DF6F0015A809A805A819881D9819B
:101D3800188259829A82DA821A835A839A83DA83BA
:101D4800704700BFFC0900200C4B30221A8050223B
:101D58005A809A801D22DA801A815A8142F21072C2
:101D68009A81DA811A825A8201229A826422DA825C
:101D78001A835A839A83DA83704700BF7C0900204C
:101D88000A4B04220A211A8001225A809A80DA809A
:101D98001A815A819981D981198259829A82DA8263
:101DA8001A835A839A83DA83704700BFA2090020F6
:101DB80008B5044809F039F9034BC043C0F34300A0
:101DC800188008BD00080240220A002038B5854C5A
:101DD800642001F08BF925788348AD00EDB22570B9
:101DE80009F023F9C0F301100543804B257005F075
:101DF8000F057F4A595D6378C9187E4B1B88C9B2A5
:101E0800617018B249B2814205DA4042814206DD6A
:101E18000021117003E0012111700022627094F911
:101E280001201BB25B429A42714B04DCFF221A70FC
:101E38006C4A0021517093F90030002B00F0688241
:101E4800FFF7B6FF6C4BB3F900300A2B00F2608243
:101E5800DFE813F00B00380062009700E20017017A
:101E68004C017D01AE01F8012B02614B634A1B78DE
:101E78001188D8090BD06248B0F9004008B28442F2
:101E880005DA604800885CB204FB001111805B4AE7
:101E98005BB2002B11880ADD5B48B0F9004008B23C
:101EA800844204DD5748008803FB00131380534B1A
:101EB8001888564B1880564BB3F90030002B40F069
:101EC8002782DAE04A4B4D4A1B785188D8090BD053
:101ED8004B48B0F9024008B2844205DA49484088C4
:101EE8005CB204FB00115180444A5BB2002B51885C
:101EF8000ADD4548B0F9024008B2844204DD414891
:101F0800408803FB001353803C4B58883F4B188094
:101F18003F4BB3F900302DE0354B384A1B78918898
:101F2800D8090BD03648B0F9044008B2844205DA23
:101F3800344880885CB204FB001191802F4A5BB260
:101F4800002B91880ADD3048B0F9044008B2844279
:101F580004DD2C48808803FB00139380274B988866
:101F68002A4B18802A4BB3F90030012B40F0D0815E
:101F7800284B1B88002B40F0CB8100B2FEF768FA93
:101F8800C6E11B4B1D4A1B78D188D8090BD01C48C9
:101F9800B0F9064008B2844205DA1A48C0885CB233
:101FA80004FB0011D180154A5BB2002BD1880ADDF1
:101FB8001548B0F9064008B2844204DD1148C088CB
:101FC80003FB0013D3800D4BD888104B1880104B9F
:101FD800B3F90030012B40F09B810E4B1B88012B7D
:101FE80049E000BFDA080020000402404820010848
:101FF800AA6D0020AC6D0020220A0020300A0020C3
:10200800FC090020A20900207C090020F00900201A
:10201800A0090020DC0800207E4B7F4A1B7811892C
:10202800D8090BD07D48B0F9084008B2844205DAD7
:102038007B4800895CB204FB00111181764A5BB2CF
:10204800002B11890ADD7748B0F9084008B28442AC
:1020580004DD7348008903FB001313816E4B188954
:10206800714B1880714BB3F90030012B40F050814F
:102078006F4B1B88022B40F04B8100B2FEF70CFA25
:1020880046E1644B644A1B785189D8090BD06348F0
:10209800B0F90A4008B2844205DA614840895CB266
:1020A80004FB001151815C4A5BB2002B51890ADDA7
:1020B8005C48B0F90A4008B2844204DD58484089B7
:1020C80003FB00135381544B5889574B1880574BC7
:1020D800B3F90030012B40F01B81554B1B88012BB5
:1020E80040F0168100B2FEF779F911E1494B4A4AEE
:1020F8001B789189D8090BD04848B0F90C4008B230
:10210800844205DA464880895CB204FB001191815B
:10211800414A5BB2002B91890ADD4248B0F90C4074
:1021280008B2844204DD3E48808903FB0013938192
:10213800394B3D4A9B8913801BB207EE903AB8EEA3
:10214800E77ADFED3C7A3C4BC7EE277AAAE0314BC1
:10215800314A1B78D189D8090BD03048B0F90E40E4
:1021680008B2844205DA2E48C0895CB204FB00112B
:10217800D181294A5BB2002BD1890ADD2948B0F9FF
:102188000E4008B2844204DD2548C08903FB0013D1
:10219800D381214B244ADB8913801BB207EE903A86
:1021A800B8EEE77ADFED237A244BC7EE277A79E099
:1021B800184B194A1B78118AD8090BD01748B0F95F
:1021C800104008B2844205DA1548008A5CB204FB64
:1021D80000111182104A5BB2002B118A0ADD1148E6
:1021E800B0F9104008B2844204DD0D48008A03FBB0
:1021F80000131382084B0C4A1B8A13801BB207EE8C
:10220800903AB8EEE77ADFED0B7A0D4BC7EE277AF6
:1022180048E000BFAA6D0020300A0020FC09002019
:10222800A20900207C090020F0090020A009002054
:10223800DC08002000401C46F80900201C0A002089
:10224800CC090020374B384A1B78518AD8090BD063
:102258003648B0F9124008B2844205DA3448408A58
:102268005CB204FB001151822F4A5BB2002B518AE9
:102278000ADD3048B0F9124008B2844204DD2C4827
:10228800408A03FB00135382274B2B4A5B8A138037
:102298001BB207EE903AB8EEE77ADFED287AC7EE80
:1022A800277A274BC3ED007A32E01E4B1E4A1B7873
:1022B800918AD8090BD01D48B0F9144008B284425D
:1022C80005DA1B48808A5CB204FB00119182164A29
:1022D8005BB2002B918A0ADD1648B0F9144008B2A7
:1022E800844204DD1248808A03FB001393820E4A5D
:1022F8001149938A14460B800BB9FEF735F9114B37
:10230800B3F9003034F91330012B01D1FEF719F974
:10231800094B0021B3F900000A46BDE8384003F034
:1023280017BF00BFAA6D0020300A0020FC0900205A
:10233800A20900207C090020F009002000401C466A
:102348002C0A0020220A002008B5454BB3F90020CA
:10235800444B0F2A7AD8DFE802F0080F161D242B09
:10236800323940474E555C636A713F4A12880020F3
:102378001A8014213D4A67E03B4A528800201A809F
:1023880014213B4A60E0384A928800201A801421C0
:10239800384A59E0344AD28800201A801421364A33
:1023A80052E0314A128900201A801421334A4BE046
:1023B8002D4A528900201A801421314A44E02A4AC1
:1023C800928900201A8014212E4A3DE0264AD2899B
:1023D80000201A8014212C4A36E0234A128A002051
:1023E8001A801421294A2FE01F4A528A00201A8095
:1023F8001421274A28E01C4A928A00201A801421B6
:10240800244A21E0184AD28A00201A801421224A3C
:102418001AE0154A128B00201A8014211F4A13E073
:10242800114A528B00201A8014211D4A0CE00E4AD2
:10243800928B00201A8014211A4A05E00A4AD28B8E
:102448001A80194A0020142102F0D8FF054B0021F8
:10245800B3F900000A46BDE8084003F079BE00BFA2
:10246800220A0020F0090020300A0020879B01087A
:10247800929B01089D9B0108A89B0108B39B01083A
:10248800BE9B0108C99B0108D49B0108DF9B01087A
:10249800EA9B0108F59B0108009C01080B9C0108B8
:1024A800169C0108219C01082C9C010810B53220BB
:1024B80003F04CFF41F22E64314BA042188007D044
:1024C800FFF70EFC03F0A6FF3220214603F030FF91
:1024D8002C4C03F0AFFFFFF71BFCFFF735FCFFF7B1
:1024E8004FFCB4F90C3006EE103ADFED277AB8EE5F
:1024F800C67A264B87EE277A4FF07C520020DC21E3
:1025080083ED007AB4F90E3006EE103AF8EEC66A9A
:102518001F4BC6EEA77AC3ED007A1E4B83ED007AF7
:102528001D4BC3ED007A1D4B1A601D4A02F066FF71
:102538001C4B0022DC214FF494701A801A4A02F0D6
:102548005DFFFDF775FE194B02221A80FFF730FC7C
:10255800FFF7FAFEB4F90000FDF79EFFB4F9020098
:10256800FDF776FFB4F914300BB9FDF7FDFFB4F9A8
:102578001430012B03D1BDE81040FDF7E2BF10BDB8
:10258800200A0020300A002000401C46F8090020DC
:102598001C0A0020CC0900202C0A00207809002001
:1025A800379C0108A00900203B9C0108AC6D002065
:1025B80010B50E4CEA202821224602F01FFFFEF734
:1025C80091FE03F007FFFEF7CFFEFEF72DFF002078
:1025D8002821224602F012FFFFF782FB03F01AFFC0
:1025E800FFF7E6FBBDE81040AEE600BF3E9C0108E1
:1025F80007B50220012109F05BF8012300938DF84B
:10260800043002238DF805300448002369468DF80C
:1026180006308DF8073008F0A3FC0EBD0004024018
:1026280010B5084C01210022204608F00EFD40F2AA
:10263800FF4000F05BFD012120460A46BDE810403E
:1026480008F003BD0004024008B5FFF7E9FF0021C8
:102658000A46302000F066FA012000F047FD01210B
:102668000A46302000F05EFA012000F03FFD00210C
:102678000122302000F056FA012000F037FD012138
:102688000822302000F04EFA012000F02FFD022130
:102698000122302000F046FA012000F027FD002139
:1026A8000A46302000F03EFA012000F01FFD1B21F1
:1026B800CD22302000F036FA012000F017FD042169
:1026C8000322302000F02EFA012000F00FFD062131
:1026D8000822302000F026FA012000F007FD07212B
:1026E8000A46302000F01EFA012000F0FFFC082105
:1026F8008022302000F016FA012000F0F7FC1E219D
:10270800B022302000F00EFA012000F0EFFC052185
:102718009122302000F006FA012000F0E7FC0D219C
:102728000322302000F0FEF9012000F0DFFC0E212A
:102738000022302000F0F6F9012000F0D7FC142127
:102748008022302000F0EEF9012000F0CFFC0B21B0
:102758008822302000F0E6F9012000F0C7FC302084
:102768000C21822200F0DEF9012000F0BFFC1221CA
:102778008822302000F0D6F9012000F0B7FC1321A0
:102788008C22302000F0CEF9012000F0AFFC0021AF
:102798000122302000F0C6F9012000F0A7FC0C212E
:1027A8000822302000F0BEF9012000F09FFC0D2126
:1027B8000822302000F0B6F9012000F097FC0E2125
:1027C8000822302000F0AEF9012000F08FFC0F2124
:1027D8000822302000F0A6F9012000F087FC002133
:1027E8000A46302000F09EF9012000F07FFC4021CD
:1027F8000222302000F096F9012000F077FC002238
:102808004121302000F08EF9012000F06FFC3020CB
:102818003F21D42200F086F9012000F067FC002156
:102828000122302000F07EF9012000F05FFC102129
:102838000F22302000F076F9012000F057FC11211A
:102848000F22302000F06EF9012000F04FFC122119
:102858000022302000F066F9012000F047FC132127
:102868000022302000F05EF9012000F03FFC092131
:102878003C22302000F056F9012000F037FC0021FE
:102888000122302000F04EF9012000F02FFC30200A
:102898003421024600F046F9012000F027FC3020E0
:1028A8003721024600F03EF9012000F01FFC3621D6
:1028B8000322302000F036F9012000F017FC3921FE
:1028C8000322302000F02EF9012000F00FFC3B21FC
:1028D8003C22302000F026F9012000F007FC3C21C2
:1028E8000A46302000F01EF9012000F0FFFB00210D
:1028F8000A46302000F016F9012000F0F7FB5121BC
:10290800C022302000F00EF9012000F0EFFB30204B
:102918005221002200F006F90120BDE8084000F02D
:10292800E5BB00BF2DE9F04F464D474E91B0012160
:102938004FF4001008F0BCFE284607F05FFE434B3A
:102948004FF0C0628DE80C00414B00244FF48067C3
:102958004FF400694FF400584FF4807A4FF4003B6D
:1029680028466946029304970394059406970B94A6
:10297800CDF81C90CDF82080CDF824A0CDF828B053
:1029880007F0C8FE22462846324907F01EFF2846AF
:10299800012107F024FF01210A464FF0402009F0E9
:1029A800F5F8304607F02AFE2B4B009401932B4B89
:1029B800049702933046402369460393059406978B
:1029C8000B94CDF81C90CDF82080CDF824A0CDF83C
:1029D80028B007F09FFE22463046214907F0F5FE51
:1029E8003046012107F0FBFE42F210770122022156
:1029F8001C4809F0CBF8384600F078FB284601213E
:102A080007F0C3FE0121304607F0BFFE384600F04C
:102A18006DFB0B238DF83D408DF83E400FA8012437
:102A28008DF83C308DF83F4004F0CCFE384600F07D
:102A38005DFB28461021224607F01EFF11B0BDE8B5
:102A4800F08F00BF10600240886002400C400040D8
:102A5800C04E00204C3800200C3C0040E8400020CC
:102A68004C300020003C004002481021012207F0B1
:102A780003BF00BF1060024013B50220012108F017
:102A880017FE4FF410730E4C009302238DF8043098
:102A98008DF8053001238DF806302046002369465D
:102AA8008DF8073008F05CFA20460621042208F069
:102AB800D7FA20460921042208F0D2FA1CBD00BF2B
:102AC8000004024030B5154D85B001214FF40010C7
:102AD80008F012FE284608F0D9FA0023ADF80430B1
:102AE8004BF6FF73ADF806303323ADF808304FF4DA
:102AF8008063ADF80A304FF48043ADF80C3004AC75
:102B0800074B2846012144F8103D08F061FB284690
:102B1800694608F0E9FA05B030BD00BF005400402E
:102B2800801A0600414B2DE9F04115464FF49612E4
:102B380007460E461A60984606E0D8F800305A1E36
:102B4800C8F80020002B61D03948384C4FF40031C8
:102B580008F056FC0028F0D13548012108F044FB64
:102B68004FF480532360A04606E0D8F800305A1E80
:102B7800C8F80020002B4CD02D482E492B4C08F0CB
:102B88002AFC0028F1D02A483946002208F044FBE4
:102B98004FF48053236004E023685A1E2260002B00
:102BA8003AD023482449214F08F015FC0028F3D0D7
:102BB80031461F4808F0B3FB4FF480533B603E4654
:102BC80004E033685A1E3260002B28D018481B498D
:102BD800164C08F000FC0028F3D01548294608F0E8
:102BE8009EFB4FF49613236003E023685A1E22606D
:102BF800C3B10F48124908F003FC0028F5D00C486F
:102C0800012108F0FDFA0020BDE8F0810120BDE8AF
:102C1800F0810220BDE8F0810320BDE8F0810420A6
:102C2800BDE8F0810520BDE8F08100BFCC0300209D
:102C380000540040010003008200070080000700E4
:102C4800040000102DE9F8439846434B14464FF40E
:102C5800961206460D461A60994606E0D9F80030E5
:102C68005A1EC9F80020002B67D03C483A4F4FF451
:102C7800003108F0C5FB0028F0D13848012108F0E0
:102C8800B3FA4FF480533B60B94606E0D9F80030F8
:102C98005A1EC9F80020002B52D0304830492E4F18
:102CA80008F099FB0028F1D02C483146002208F0A2
:102CB800B3FA4FF480533B6004E03B685A1E3A6015
:102CC800002B40D025482749234E08F084FB0028D4
:102CD800F3D02946214808F022FB4FF48053336093
:102CE800354604E02B685A1E2A60002B2ED01B485C
:102CF8001D4908F070FB0028F4D00025164E12E09C
:102D0800615D164808F00BFB4FF49613336003E03F
:102D180033685A1E3260E3B11048144908F070FB5A
:102D28000028F5D00135EBB24345E9D30B48012122
:102D380008F066FA0020BDE8F8830120BDE8F883B2
:102D48000220BDE8F8830320BDE8F8830420BDE82D
:102D5800F8830520BDE8F883CC0300200054004028
:102D68000100030082000700800007000400001033
:102D7800F8B5614C4FF4961305460E46236005E0FE
:102D880023685A1E2260002B00F0A4805B485A4F2B
:102D98004FF4003108F034FB0028F1D157480121E5
:102DA80008F022FA4FF480533B6005E03B685A1E56
:102DB8003A60002B00F09080504851494E4C08F082
:102DC8000AFB0028F2D04D482946002208F024FAD0
:102DD8004FF480532360274604E03B685A1E3A604C
:102DE800002B7BD045484749434C08F0F4FA0028AB
:102DF800F3D04248314608F092FA4FF480532360EA
:102E080004E023685A1E2260002B69D03B483E49E3
:102E1800394E08F0F5FA0028F3D03848012108F0B7
:102E2800E3F94FF48053336004E033685A1E32608C
:102E3800002B57D0314832492F4C08F0CCFA0028E3
:102E4800F3D02E482946012208F0E6F94FF48053C2
:102E58002360264604E033685A1E3260002B43D0B4
:102E6800264D2A49244C284608F0CAFA0028F2D0F0
:102E78002846002108F0D8F9284601212B8B08F0B4
:102E8800BFF94FF48053236004E023685A1E226080
:102E9800002B2BD019481E49174D08F0B1FA00280D
:102EA800F3D0164808F03DFA4FF480532B60134ACC
:102EB80003E02B68591E2960D3B113889B05F8D409
:102EC800012104460D4808F0AFF90C48114908F0F3
:102ED800B1FA0EE001240CE002240AE0032408E021
:102EE800042406E0052404E0062402E0072400E0A8
:102EF80008242046F8BD00BFCC0300200054004041
:102F08000100030082000700040000100200001006
:102F1800400000100004001070B56C4D4FF496137B
:102F280004462B6005E02B685A1E2A60002B00F02F
:102F3800BA806748654E4FF4003108F061FA0028FE
:102F4800F1D16348012108F04FF94FF48053336001
:102F580005E033685A1E3260002B00F0A6805C48FA
:102F68005C495A4D08F037FA0028F2D05848A02199
:102F7800002208F051F94FF480532B6005E02B68CC
:102F88005A1E2A60002B00F09280514852494F4E39
:102F980008F021FA0028F2D0C4F305214C4808F0C3
:102FA800BEF94FF48053336004E033685A1E326030
:102FB800002B7ED046484949444D08F021FA0028A4
:102FC800F3D0E1B2424808F0AAF94FF480532B60DD
:102FD8002C4604E023685A1E2260002B6BD03C4824
:102FE8003E493A4D08F00CFA0028F3D03848012140
:102FF80008F0FAF84FF480532B6004E02B685A1E4F
:103008002A60002B59D032483249304C08F0E3F995
:103018000028F3D02E48A121012208F0FDF84FF432
:1030280080532360264604E033685A1E3260002B22
:1030380045D0274D2A49254C284608F0E1F90028B3
:10304800F2D02846002108F0EFF8284601212B8B02
:1030580008F0D6F84FF48053236004E023685A1E22
:103068002260002B2DD01A481E49184D08F0C8F9C7
:103078000028F3D0164808F054F94FF480532B6019
:10308800134A03E02B68591E2960E3B11388990598
:10309800F8D4012104460E4808F0C6F80C48124935
:1030A80008F0C8F910E001240EE002240CE0032423
:1030B8000AE0042408E0052406E0062404E00724C6
:1030C80002E0082400E00924204670BDCC0300205B
:1030D80000540040010003008200070004000010B3
:1030E80002000010400000100004001082B000230D
:1030F80004E0019B01330193009B01330093009B83
:103108008342F6D302B07047F8B5464D4FF480536A
:1031180004460E462B6004E02B685A1E2A60002BDA
:1031280074D041483F4F4FF4003108F069F9002846
:10313800F2D13D48012108F057F84FF480533B6025
:1031480004E03B685A1E3A60002B61D03648374984
:10315800344D08F040F90028F3D03348A02100226C
:1031680008F05AF84FF480532B6004E02B685A1E7D
:103178002A60002B4ED02C482D492A4F08F02BF9F5
:103188000028F3D0C4F30521274808F0C8F84FF405
:1031980080533B6004E03B685A1E3A60002B3BD0EA
:1031A800214824491F4D08F016F90028F3D0E1B250
:1031B8001D4808F0B4F84FF480532B6004E02B68E6
:1031C8005A1E2A60002B29D017481A49154C08F0B6
:1031D80002F90028F3D01448314608F0A0F84FF45B
:1031E8009613236003E023685A1E2260C3B10E4879
:1031F800114908F005F90028F5D00B48012107F01E
:10320800FFFF0E48FFF772FF0020F8BD0120F8BD50
:103218000220F8BD0320F8BD0420F8BD0520F8BD44
:103228000620F8BDCC030020005400400100030034
:10323800820007008000070004000010A08601003B
:1032480013B50520012108F033FA184C4FF4E05368
:10325800009302238DF804308DF8053020460023B2
:1032680069468DF806308DF8073007F079FE20465C
:103278000A21062207F0F4FE20460C21062207F058
:10328800EFFE062220460B21A4F5006407F0E8FEB5
:103298004FF4004320466946009307F061FE20463C
:1032A8000F21062207F0DCFE1CBD00BF000802400B
:1032B8001FB50446FFF79CF9FFF704FCFFF7C4F9B4
:1032C800FFF7BEFF01214FF4004008F015FA029401
:1032D8000F4C1023ADF80230204600236946ADF8A4
:1032E8000430ADF80C30ADF80030ADF8063008F019
:1032F80032FB69464FF0402008F001FC20460121CE
:1033080008F0B1FB4FF04020012108F0ACFB1FBDD5
:10331800003C004008B54FF6E07001F011FF4FF493
:10332800784001F001FF582000210E4A02F066F8AB
:10333800902000210C4A02F061F800210B4ABC20C1
:1033480002F05CF8002001F0EFFE4FF6FF7001F08C
:10335800F7FE074B074A0020C8211880BDE808403F
:1033680002F04CB81E9B0108499C0108559B0108B6
:10337800DC0800204E9C01080C4B1B88012B07D051
:1033880002D3022B0CD107E00020C821084A0AE02A
:103398000020C821074A06E00020C821064A02E0AA
:1033A800064A0020C82102F029B800BFDC08002026
:1033B8004E9C01084A9C0108529C0108569C010831
:1033C8000F4B00221A605A609A600E4A612302F875
:1033D800013F0133DBB27B2BF9D10B4B012206A154
:1033E800D1E900011A60094BC3E90001084B00222A
:1033F8001A807047AFF300800000000000403F4093
:10340800E0080020AD6D0020EC090020D009002064
:10341800500A0020054B06495A68885C0132192A6F
:103428005A6001DD00225A60704700BFE0080020A2
:10343800AE6D002010B50E4C238863B90D4A116893
:1034480009B1136005E0FFF7E5FF0B4B53F8203097
:103458002380022010BD13F4004F0CBF022000206F
:103468005B009BB2238013B9024B01221A6010BD86
:10347800500A0020EC090020D440010810B5184C6F
:10348800184A2368E16803EB012102EB81014868CF
:1034980015490860216903EB012102EB8102013320
:1034A8005168124A2360B3F5807F116016D100235A
:1034B8002360FFF7BFFFA3692075052202FB0030D8
:1034C8000B4B03EB8000D0F80C3FC3F30222E26001
:1034D800C3F3021203F007032261A36110BD00BF0A
:1034E800E008002058200108C4090020240A002010
:1034F80050310108064B99685B6801311A2291FB2B
:10350800F2F002FB1012D31A584240EB0300704746
:10351800E008002010B50446FFF7ECFF60B9074B40
:10352800074A9968545401311A2291FBF2F002FBC0
:1035380010129A60012010BD002010BDE008002084
:10354800AE6D0020034B98685B68C21A504240EB8E
:1035580002007047E008002038B506EE900A1E4BBE
:10356800B8EEE67AD3ED007ADFED1C6A27EE877AAB
:103578001B4B87EE267ABDEEC77A83ED007AB8EE4C
:10358800C77A77EE877A17EE900A0AF0B3FB154BE5
:1035980004460D46C3E9004522462B460CA1D1E955
:1035A80000010AF025FD104BD3E900230AF0F6FBD1
:1035B8000E4B2246C3E900012B4600200C490AF0B5
:1035C80017FD0C4BC3E9000138BD00BFAFF3008005
:1035D800182D4454FB211940980F002000247449E9
:1035E800044E0020902B002078160020682B002025
:1035F80000003040D01300201F4B002030B5186069
:103608001E4B18601E4B00240025186045EC174B14
:103618001C4B83ED007B1C4B4B221A601B4B322248
:103628000DA5D5E900451A60194BC3E900450CA55D
:10363800D5E90045174BC3E900450BA5D5E9004579
:10364800154BC3E900450AA5D5E90045134BC3E965
:103658000045BDE830407FE7182D4454FB21F93F71
:10366800E0F09C762F1BA43F9F14F9CFD4C2F93FFA
:1036780091458FD82181F83F044E00209C0F0020EF
:1036880074160020D85A002080160020381F002009
:10369800682B0020702B0020104E0020F84D0020D1
:1036A8002DE9F843284B294C294D012251EC100BE8
:1036B8001A6023A3D3E900230AF070FB254BD3E952
:1036C80000230AF095FC244B06460F4600200021F3
:1036D800C3E9006741EC170B204B83ED007B204BBF
:1036E8001A68204B002A0CBF142204221A601E4BB1
:1036F800D3E90089304642464B46394684ED007B83
:103708000AF09AF9194B4246C3E900014B46304684
:1037180039460AF08FF900220023C5E900010AF0B2
:10372800B9FD18B194ED007B85ED007B104A0023AC
:103738001360104A1360BDE8F88300BFAFF3008040
:10374800182D4454FB211940841E0020784D002078
:10375800F84D0020902B0020682B0020684D002099
:10376800782B0020A04D0020702B0020104E002048
:10377800144D0020704D00202DE9F843284B08B95E
:10378800186005E001241C6040F6B833984200D068
:103798000024244B244D1C600AF09AFA1EA3D3E996
:1037A80000230AF0FBFA214BD3E900230AF020FC9E
:1037B8001F4B06460F46C3E900671E4BD3E90001BD
:1037C8001D4BD3E900230AF037F932463B468046C1
:1037D80089460AF031F9194B3246C3E900013B46E4
:1037E800404649460AF026F900220023C5E90001AF
:1037F8000AF050FD28B10022002343EC172B85ED79
:10380800007B00220CB10E4B00E00E4B0E49C1E9C3
:103818000023BDE8F88300BF182D4454FB2119404C
:10382800184D0020782B0020F84D0020902B002008
:10383800702B0020682B0020D85A0020104E002042
:1038480000003E4000005940904D002012490023DE
:1038580001225A500433402BFBD1104B03F1A8022C
:1038680000200021E3E902019342F9D10C4B0A221E
:103878001A600C4A002313600B4A13600B4A04A118
:10388800D1E9000113600A4BC3E90001704700BF8A
:103898000000000000805640A82F0020881E00204D
:1038A800A42F0020CC130020644E0020D056002006
:1038B800984D002007EE100A414B4248F8EEC77AAF
:1038C80070B5C3ED007A00231D461D543E4C0022FE
:1038D800C61854F8041F090911F0010F4FEA5101E5
:1038E800FAD0994208BF32700132B2F5807FF0D128
:1038F8000133B3F5006FE8D1FFF7A8FF0020FFF709
:103908002BFE324B32220020002141EC170B1A60AB
:103918002F4B304A83ED007B002313602E4A13603F
:103928002E4A13602E4A13602E4A13602E4A82EDE7
:10393800007B2E4A82ED007B2D4A13602D4A05211B
:1039480011602D4A13602D4A82ED007B2C4A82EDCE
:10395800007B2C4A82ED007B2B4A17A1D1E900019C
:1039680082ED007B294AC2E900010020002141ECD8
:10397800170B274A82ED007B82ED027B254A82EDF8
:10398800007B82ED027B244A82ED007B234A82ED94
:10399800007B234A1360234A1360234A1360234A97
:1039A80001211160224A234913600020224B41EC77
:1039B800170B83ED007B70BD9A9999999999D93F16
:1039C800980F0020501F0020D0400108A42F00208D
:1039D800084E002048300020A02F00209C2F0020F7
:1039E800F0480020542B0020084D0020D815002056
:1039F800602B0020F04D0020004E00205040002099
:103A0800E8480020684E0020884D0020984D00208E
:103A1800880F0020780B0020784D0020E04000201F
:103A28005C2B0020804D0020A04D0020841E00202B
:103A3800782B002000005940904D00200C4908B513
:103A4800202200235A540133282BFBD1084A002393
:103A580082F82730074A1360074A4FF4FA50136078
:103A6800FFF728FFFFF7C8FDBDE80840FFF7A8BC2F
:103A7800A00F0020D46D0020D06D00202DE9F04F5C
:103A8800814B1B6889B08DED000B8DED021B6BB966
:103A98000020002141EC170B7C4B83ED007B7C4B15
:103AA80083ED007B7B4B83ED007BD1E07A4D7B4C33
:103AB800D5E902ABD4E90023DDE9000109F0BAFF3A
:103AC80052465B460AF06AF9D5E90067D4E9022351
:103AD80080468946DDE9020109F0ACFF32463B46E3
:103AE8000AF05CF902460B464046494609F0A2FF37
:103AF8009DED007B85ED007B9DED027BC4E90067B1
:103B0800C4E902AB85ED027B53A3D3E900238046C9
:103B180089460AF0D3FB18B10FF23C19D9E900899C
:103B2800404649464EA3D3E900230AF0A9FB18B141
:103B38000FF22C19D9E90089544E4BA3D3E900237D
:103B4800D6E900010AF02AF949A3D3E9002304467B
:103B58000D46404649460AF021F902460B462046E2
:103B6800294609F069FF04460D46C6E900450022CA
:103B78004B4B0AF0A3FB30B9204629460022494B9B
:103B88000AF07EFB80B13CA3D3E9002320462946F6
:103B98000AF004F9444E02460B46D6E9000109F042
:103BA8004BFFC6E900012FE0394BD3E900672046F7
:103BB80032463B4629460AF0F1F8002200230AF073
:103BC8007DFB08B9002600273046394622A3D3E9F1
:103BD80000230AF073FB38B93046394620A3D3E9ED
:103BE80000230AF04DFB78B125A3D3E90023304622
:103BF80039460AF0D3F82C4C02460B46D4E90001AA
:103C080009F01AFFC4E90001274C224DD4E900014C
:103C1800D5E9002309F010FF244BD3E900673246A9
:103C28003B46804689460AF049FB48B9204BD3E910
:103C380000674046494632463B460AF021FB38B108
:103C48000020002141EC170BC4E9006785ED007BDB
:103C580009B0BDE8F08F00BF333333333333D33F7C
:103C6800333333333333D3BFE5174B7EB1E4EF3F00
:103C7800555555555555C53F691D554D1075EF3E60
:103C8800691D554D1075FF3E184D0020784D0020D8
:103C9800684D0020D85A0020880F0020780B00209B
:103CA80000001840000018C0682B0020104E0020AB
:103CB800F84D00202DE9F04F8B4B1B6889B08DED36
:103CC800000B8DED021B6BB90020002141EC170B96
:103CD800864B83ED007B864B83ED007B854B83ED24
:103CE800007BE2E0844D854CD5E902ABD4E90023A2
:103CF800DDE9000109F09EFE52465B460AF04EF8E7
:103D0800D5E90089D4E9022306460F46DDE9020118
:103D180009F090FE42464B460AF040F802460B4630
:103D28003046394609F086FE9DED007B85ED007B27
:103D38009DED027BC4E90089C4E902AB85ED027BF5
:103D48005BA3D3E9002306460F460AF0B7FA10B181
:103D580057A7D7E900673046394657A3D3E9002368
:103D68000AF08EFA10B154A7D7E900675F4C54A344
:103D7800D3E90023D4E900010AF010F800228046B4
:103D88008946304639465E4B0AF008F80B4602462B
:103D98004946404609F050FE5A4B1B6806460F46F6
:103DA800C4E900671BB342A3D3E900230AF086FAEB
:103DB80038B93046394640A3D3E900230AF060FAFF
:103DC80078B141A3D3E900233046394609F0E6FF2C
:103DD8004D4C02460B46D4E9000109F02DFEC4E91A
:103DE8000001304639463AA3D3E9002334E0404B7A
:103DF800D3E9008942464B4609F0D0FF0022002350
:103E08000AF05CFA18B94FF000084FF00009404674
:103E1800494627A3D3E900230AF050FA38B94046A7
:103E2800494625A3D3E900230AF02AFA78B12AA340
:103E3800D3E900234046494609F0B0FF324C024618
:103E48000B46D4E9000109F0F7FDC4E9000124A3F9
:103E5800D3E900234046494609F0A0FF254B2A4CE8
:103E6800244DC3E90001D4E90001D5E9002309F094
:103E7800E3FD264BD3E9006732463B468046894638
:103E88000AF01CFA48B9224BD3E900674046494674
:103E980032463B460AF0F4F938B10020002141ECE3
:103EA800170BC4E9006785ED007B09B0BDE8F08F0A
:103EB800333333333333D33F333333333333D3BFF2
:103EC800D7A3703D0AD7EF3F54E41071732AC93E57
:103ED8002D431CEBE2363A3F54E41071732AB93E85
:103EE800FCA9F1D24D62503F184D0020784D0020BA
:103EF800684D0020D85A0020880F0020780B002039
:103F08000000D03F841E0020682B0020104E0020A7
:103F1800F84D00202DE9F04351EC100B85B0024616
:103F28000B4655EC114B8DED000B8DED021B09F086
:103F380035FF224606462B460F462046294609F0FD
:103F48002DFF02460B463046394609F075FD41EC17
:103F5800100B0AF00BFC3A4ED6E9004559EC108BD1
:103F68002246404649462B460AF0A8F970B1204639
:103F780029462BA3D3E9002309F010FF2AA3D3E98C
:103F8800002304460D46404649460DE02046294692
:103F980027A3D3E9002309F001FF27A3D3E90023CE
:103FA80004460D464046494609F0F8FE02460B46CF
:103FB8002046294609F040FDC6E90001204BD3E917
:103FC80000670022304639461E4B0AF06DF908B3E7
:103FD8001D4C3246D4E900013B460AF009F8324646
:103FE800C4E900013B46D4E902010AF001F8C4E93A
:103FF8000201164C3246D4E900013B4609F0F8FFAD
:104008003246C4E900013B46D4E9020109F0F0FF59
:10401800C4E9020105B0BDE8F08300BFAFF300803A
:10402800D7A3703D0AD7EF3F7B14AE47E17A743FC0
:10403800560E2DB29DEFEF3FFCA9F1D24D62603FC5
:10404800084D00200000F03FE0150020E00A0020A5
:104058002DE9F04F7A4B1D6885B00F2D51EC100BF0
:1040680057EC116B8DED000B8DED021B5CDC0246ED
:104078000B4609F093FE32463B4680468946304659
:10408800394609F08BFE02460B464046494609F080
:10409800D3FC00226B4B06460F460AF00FF908B115
:1040A800694F0026694C04EBC504D4E9000158A304
:1040B800D3E9002309F072FE57A3D3E90023804611
:1040C80089463046394609F069FE0B46024649469C
:1040D800404609F0B1FC5E4B1B689D42C4E90001F3
:1040E8005C4C0AD14EA3D3E9002309F057FE0AF02D
:1040F800EFF844F82500012409E04BA3D3E9002395
:1041080009F04CFE0AF0E4F844F825000024524B6C
:10411800524A1B6802EB8302D2F80024954204BF7E
:104128004B4A1360013500E000244D4E4D4BD6E953
:104138000001D3E9002309F07FFC80468946C6E9DF
:1041480000893BA3D3E900230AF0AEF8002858D031
:1041580049EC108B9FED361B0AF01AFA0F2D86EDED
:10416800000B04D13A4B1B680F2B08BF01243A4BB4
:104178003D4E1F680FF2C00BDBE900AB0025F6E9E6
:1041880002895246404649465B460AF097F810B104
:104198002F46C246CB460135102DF0D12E4B1F605D
:1041A800324B1B6813B3324A294B12681B68511CE7
:1041B8008B4203D12F4B1A68013205E0013A934232
:1041C80003D12C4B1A68013A1A602B4B1A68511C00
:1041D800B2F59D7F19600FDB26490A68C820504355
:1041E800264A106000220A601A6005E0234A13601C
:1041F800204A1360204A1360154B1A681C4B00258F
:104208001A600F4B20461D6005B0BDE8F08F00BF57
:104218009C8FC1F9189CEF3FFA189C8FC1F9883F11
:104228000000000000208C40000000000070874063
:10423800FCA9F1D24D62A03F000000205FA002C29D
:10424800004E0020000010400000F03F901E0020AB
:10425800602B0020704E0020F04D0020D440010853
:10426800084E0020D0130020881E0020804D00201A
:104278005C2B0020CC130020644E0020D056002078
:10428800894B2DE9F74F1868884B1B6855EC104B84
:10429800002B40F0318109F01BFD00228046894641
:1042A80020462946002309F0FFFF002866D0204653
:1042B800294673A3D3E9002309F0ECFF00285DD059
:1042C80071A3D3E900232046294609F0B3FB0B4626
:1042D8000E467749774C02460546C1E90023284631
:1042E8006BA3D3E9002326F0004109F057FDD4E978
:1042F80000AB52465B46CDE9000109F0C1FF20B191
:1043080000206D4942464B4609E042464B4640462E
:10431800494609F091FB0B4667490246002009F01F
:1043280067FE80468946002042464B46624909F0AE
:1043380081FB52465B4609F031FDDDE900238246E8
:104348008B464046494609F029FD02460B46504631
:10435800594609F071FB594B1A68142AC4E900013F
:1043680007DD5749534B002041EC170B83ED007BC9
:1043780001E001321A600024524B70E020462946C1
:104388003FA3D3E9002309F08FFF002800F0B48091
:104398002046294640A3D3E9002309F07BFF0028E3
:1043A80000F0AA803EA3D3E900232046294609F05D
:1043B80041FB0B460E463E493E4C02460546C1E9C6
:1043C8000023284632A3D3E9002326F0004109F050
:1043D800E5FCD4E900AB52465B46CDE9000109F0A3
:1043E8004FFF20B10020344942464B4609E042467F
:1043F8004B464046494609F01FFB0B462E490246EC
:10440800002009F0F5FD80468946002042464B46CB
:10441800294909F00FFB52465B4609F0BFFCDDE96C
:10442800002382468B464046494609F0B7FC0246BF
:104438000B465046594609F0FFFA224B1A68142ACF
:10444800C4E9000107DD20491A4B002041EC170B95
:1044580083ED007B01E001321A60184B00241C60D8
:10446800002200232846314609F01EFF174B184A40
:1044780080B319681460013119602FE0AFF3008030
:10448800182D4454FB210940182D4454FB21F93FB1
:104498000000000000C06240182D4454FB21194060
:1044A800D221337F7CD9124080160020C813002007
:1044B800E0400020984D00200000F03FF048002028
:1044C80000003940542B002000005940144D0020B2
:1044D800704D002011681860013111601B68042BB1
:1044E8000ADC4F4B1B68042B06DC002000214D4BD7
:1044F80041EC170B83ED007B4B4B4C4C1A684C4B33
:10450800022AD4BF002201221A604A4B0022D3E9B2
:104518000001494B09F0D2FE98B1484BD3E900019C
:1045280009F0D6FE414BC0F1640020601A68444B84
:104538001B689A42434B01DB012200E000221A600B
:1045480003E0404A0023236013603F4B354C1B684F
:10455800D4E90001BBB12EA3D3E9002309F0AEFED4
:1045680020B12BA1D1E90001C4E900012D4C2AA3F7
:10457800D3E90023D4E9000109F082FED0B126A1D5
:10458800D1E9000114E00022304B09F097FE28B170
:104598002E49002041EC170B84ED007B214C2C4B5D
:1045A800D4E90001002209F06BFE18B12849002067
:1045B800C4E90001274B2549274CD3E900670020AF
:1045C80032463B4609F014FD02460B4600201F49BF
:1045D80009F030FAD4E9002309F0E0FB32468046BE
:1045E80089463B4600201D4909F002FD0D4BD3E9E1
:1045F800002309F0D3FB02460B464046494609F022
:104608001BFAC4E90001BDE8FE8F00BFAFF30080CC
:10461800333333333333E33F333333333333E3BF6A
:10462800704D0020E0400020F0480020A42F00201A
:1046380074160020084D002000002440984D0020EA
:10464800381F0020804D0020C81300200000F03FD4
:104658000000F0BF904D0020684D0020000014407D
:10466800894A8A4B8A492DE9F04FD2E90089C3E982
:104678000089884BD3E900AB57EC106B87B083ED0A
:10468800001B82ED000BC1E900AB32463B464046B9
:10469800494655EC114B8DED041B8DED020B09F0CD
:1046A8007DFB2246CDE900012B465046594609F0CC
:1046B80075FB02460B46DDE9000109F0BDF922460B
:1046C800CDE900012B464046494609F067FB5246B2
:1046D80004460D465B463046394609F05FFB024604
:1046E8000B462046294609F0A5F982468B465246D4
:1046F8005B4609F053FB04460D46DDE9000102461E
:104708000B4609F04BFB02460B462046294609F0AA
:1047180093F941EC100B0AF029F85F4B5F4C604DA0
:10472800D3E9000100225F4B57EC106B09F0C6FD7E
:1047380008B351A3D3E900233046394609F058FCA1
:104748008046894642464B465046594609F050FC39
:1047580009F0BEFD2668424645F826004B46DDE9CD
:10476800000109F045FC09F0B3FD771C023645F855
:104778002700266008E02368591C022245F82320F8
:104788009B1845F821202360444B1A6802F00F0259
:104798004BEC11AB1A609DED000B09F0F7FE38A346
:1047A800D3E9002351EC100B09F046F941EC100B4A
:1047B800FFF766FD354BD3E90001334BD3E90023FE
:1047C80009F0ECFA324B04460D46D3E90001314BAF
:1047D800D3E9002309F0E2FA02460B4620462946AF
:1047E80009F02AF90023002209F068FD01242E4B64
:1047F80068B92E4A126800244AB11A68002A35D0CE
:10480800C2F38A022A491C60885C58B92EE01A68EB
:1048180044EA42021A60254B0CB9012200E000224A
:104828001A6023E0234B1B68002B1FD0224A136811
:10483800252B04DC2149C8540133136016E01F4AB4
:10484800012399189C5C0133252B01F8014CF8DDF4
:104858001B4A1360194B83F825001A4B1B78012B50
:1048680004D107B0BDE8F04F02F006BC07B0BDE8C0
:10487800F08F00BFAFF300800000000000408F40C1
:10488800182D4454FB210940E848002050400020DE
:10489800684E0020884D0020084D00209C0F002005
:1048A800A82F00200000244048300020A02F00201E
:1048B800501F0020804D0020D06D0020A00F002048
:1048C800FC0800203C0900202DE9F04F984B1A689D
:1048D8008BB0002A40D0013A002A1A60954A41DC80
:1048E80000211960944B1160D3E90067934BD3E919
:1048F8000045304622462B46394609F09DF8904B34
:104908002246C3E900012B463046394609F092F8A1
:104918008C4C8D4B804689461868C4E9008909F09B
:10492800E9F902460B463046394609F037FA7CA3C6
:10493800D3E9002309F05CFB844B0022C3E90001A2
:1049480040464946002309F0A5FC28B1002200236F
:1049580043EC172B84ED007B7D4CDFF84082002769
:10496800A14602E001231360F6E7734B37F80850BD
:10497800D3E90001774BA580D3E9002309F05CF85F
:1049880069A3D3E9002309F009FA09F0A1FCA36897
:10499800714AC018011101F580610905090DA0606F
:1049A800C0F30B1032F8211032F82030E181A381D6
:1049B80015FB01F115FB03F5E36921610AA800EB7A
:1049C8004302C1F3CF316561C5F3CF3522F8201C0E
:1049D80022F8105C5A1C614B21831340002B65831D
:1049E80003DA013B63F003030133C9F81C30002BE1
:1049F80040F08D80226A5A4804AB03EB420202A9B8
:104A0800042308F091F9226A08A800EB4202042363
:104A1800544806A908F088F9226A504B013213401D
:104A2800002B03DA013B63F0030301332362002BFD
:104A38006DD14D484D4A4E4D4E4E04A9042308F001
:104A480073F94D484D4A08A9042308F06DF9A38C61
:104A580046492385E38C4A48638501F1080201230E
:104A680008F014FA4549474801F10802012308F003
:104A78000DFA4549454801F10802012308F006FAF4
:104A88004349444801F10802012308F0FFF9B4F949
:104A9800300009F01DF982468B46B4F93200C5E9A9
:104AA80000AB09F015F902460B46C5E90223B4F933
:104AB8002C000192009109F00BF9C6E90001B4F944
:104AC8002E0009F005F9009B019A4BEC10AB43EC62
:104AD800112BC6E90201FFF71DFA2F4B1B6895ED54
:104AE800000B95ED021B13B1FEF7C8FF01E0FFF7BD
:104AF800E1F896ED000B96ED021B1E4DFFF7A8FAA4
:104B080028B195ED000B95ED021BFFF7A9FD0237C3
:104B1800B7F5806F7FF429AF0BB0BDE8F08F00BF09
:104B2800182D4454FB21194039D6C56D305FC44057
:104B3800A04D0020841E0020682B0020702B002030
:104B4800104E0020F84D0020980F00207816002005
:104B5800FC080020D85A00201C45010803000080EA
:104B68007000002040000020640000202009002080
:104B7800E00A0020E015002034000020220900206F
:104B88005800002028000020240900204C000020A4
:104B9800260900201C000020782B0020C80F0020C8
:104BA80010B58721AA20FEF7E3F840F00102D2B23F
:104BB800AA208721FDF7B6FF092401E0013C05D0B2
:104BC800AA208721FEF7D4F8C307F7D410BD0A231B
:104BD80090FBF3F0364B98422DE9F04F4ADC354C08
:104BE800354ADFF8E090DFF8E080830094FBF3F4C7
:104BF800E10748BF01340B23434392FBF3F3802CB6
:104C0800A8BF8024DA0748BF013B23EAE37A0023E0
:104C180019461A4614E0002515F80970DFF8ACC0EB
:104C280007FB04F64643B444C44505D80BB19E427D
:104C380002DC3346394622460135062DECD1023CCA
:104C48005445E8DC24E015F809C0DFF880800CFB47
:104C580007F64643B044D84505D80CB1A64202DC55
:104C6800344661463A460135062DECD10133022B14
:104C78000AD10DE0DFF858A0DFF84CB000231C463D
:104C880019461A46AAF1060913F80A700025DAE748
:104C980007EE101A094BF8EEC77A07EE102AC3ED93
:104CA800007AF8EEC77A064BC3ED007ABDE8F08FBC
:104CB8001CC6A002C0BBCB214083E81C386D002075
:104CC800106D0020144501088038E304C07C17E308
:104CD8001A450108F8B52E4B2E4C0546186809F000
:104CE80009F800222C4B08F0A5FE00222B4B09F0F6
:104CF80055F8064620680F4608F0FCFF0022284BAE
:104D080008F098FE0022274B09F048F802460B46A7
:104D18003046394608F090FE09F002FB28702068FA
:104D2800214E224C08F0E6FF00221D4B08F082FEBF
:104D380009F0F6FAC0B280016870D6E9000109F0FE
:104D4800EFFA20606B7843EA10106870206808F06A
:104D5800AFFF02460B46D6E9000108F06BFE0022C1
:104D6800134B09F01BF809F0B3FA124B687118607D
:104D7800020A000CE8702A71DB7803F00F03AB70AD
:104D880023681B01DBB22360AA781343AB70F8BD1C
:104D9800386D0020106D00200000104000004040D9
:104DA8000000F03F0000D03F206D0020446D00203F
:104DB8000000B041F86C002070B502785209043246
:104DC80007EE102A214AF8EEC77A0346C2ED007AA8
:104DD800017842781C7901F01F01920902EB8102E7
:104DE800013207EE102A1A4AF8EEC77AC2ED007AA5
:104DF8004178184A01F03F0111608078000900EB02
:104E0800011010609978144A01F00F011160DE78E2
:104E18005B7906EB012604EB062603EB06261660F3
:104E280008F046FF044630460D4608F041FF0022D0
:104E38000A4B08F0B3FF0B4602462946204608F005
:104E4800FBFD074BC3E9000170BD00BF386D0020B2
:104E5800106D0020446D0020F86C00200000303EEA
:104E6800206D002008B5AA208721FDF781FF014B9E
:104E7800187008BD406D002038B505460724AA20E3
:104E88002146FDF775FF0134E4B20D2C05F8010B3E
:104E9800F5D138BD38B5134CFFF782FE2046FFF731
:104EA800EBFF2046FFF788FF0F4B186808F022FF3A
:104EB8000E4BD3E9002308F071FF0D4B0446186828
:104EC8000D4608F017FF02460B462046294608F013
:104ED80065FF084BD3E9002309F08AF8064BC3E9BC
:104EE800000138BD006D0020386D0020306D0020B5
:104EF800106D0020206D0020186D0020F8B51A4BA9
:104F0800D3E90067194BD3E90045304639462246B4
:104F18002B4609F0ABF908BB3046394622462B46EA
:104F280009F0AEF920B12046294632463B4603E057
:104F38003046394622462B4608F07CFD32463B4631
:104F480009F056F806A3D3E90023012409F0A2F9D1
:104F580000B9002484F00104E0B2F8BD0020F8BDD7
:104F680079E9263108AC6C3F506D0020206D002097
:104F780010B589210446AA20FDF7FAFE40F0100278
:104F8800D2B28921AA20FDF7CDFD224606230721AA
:104F9800AA20FDF757FE8921AA20FDF7E9FE8921FD
:104FA80000F0EF02AA20FDF7BDFDFFF7A7FF80B1D3
:104FB8008721AA20FDF7DCFE40F04002D2B2AA20E9
:104FC8008721FDF7AFFDAA208721FDF7D1FE400616
:104FD800F9D410BDF8B580EAE075A5EBE075284670
:104FE800FFF7F5FD284608F073FE164B164C174DD3
:104FF800064618680F4608F07DFE02460B46304606
:10500800394608F0CBFE124B064618680F4608F0E2
:1050180071FE02460B463046394608F0BFFE0D4B7E
:10502800D3E9002308F0E4FFC4E900012846FFF7AC
:1050380051FE2846FFF79CFF94ED007B064B83ED5D
:10504800007BF8BD386D0020206D0020006D002029
:10505800106D0020186D0020506D00200BA1D1E9C3
:105068000001074B10B5C3E90001064C064B23604D
:10507800FFF710FF2068BDE81040ABE7AFF30080F2
:10508800306D0020286D002040085A030000000001
:1050980000DB8A41AFF300804FF0C04322221A8020
:1050A8007047014B18807047000002604FF0C04302
:1050B800188003F50033198070474FF0C04307226A
:1050C8001A8003F5003302F5B6721A8070474FF064
:1050D800C04307221A8003F5003300221A80704764
:1050E80082B0084BADF80600ADF80410BDF80620F4
:1050F80092B21A80BDF80420034B92B21A8002B013
:10510800704700BF30090020D0030020044B1B88E3
:105118009BB20380034B1B889BB20B80704700BF78
:1051280030090020D003002082B0044BADF80600FF
:10513800BDF8062092B21A8002B0704730090020EC
:1051480082B0044BADF80600BDF8062092B21A8072
:1051580002B07047D003002082B0044BADF80600BF
:10516800BDF8062092B25A8002B07047D0030020E2
:105178004FF0C04220231380024B1880212010805A
:105188001980704700000260B0F5A07F08B503469B
:105198000EDAEF290CDC88B299B2FFF7E9FF4FF07D
:1051A800C04322221A80034B1A88034B92B21A80FA
:1051B80008BD00BF3009002000000260B0F5A07FE4
:1051C80010B5034614460DDAEF290BDC88B299B204
:1051D800FFF7CEFF4FF0C04322221A8003F50033B9
:1051E800A4B21C8010BD2DE9F04F824E73888FB099
:1051F8009BB2082B01908A4614462CD102A811466E
:10520800FAF7C8FF0AF10707BFB2002505F108033E
:105218006A46072613F802B0019B0FFA87F91FFAAE
:1052280083F84BFA06F313F0010F14BF724B714B5E
:105238001A880FFA88F012B24946013EFFF7BEFFFE
:1052480008F10108701C1FFA88F8EAD10135013FFE
:10525800082DBFB2DAD1674E73889BB20C2B2CD1C4
:1052680002A82146FAF7A0FF0AF10B07BFB20025F2
:1052780005F108036A46072613F802B0019B0FFAE6
:1052880087F91FFA83F84BFA06F313F0010F14BFDE
:10529800594B584B1A880FFA88F0494612B2013E0A
:1052A800FFF78CFF08F10108711C1FFA88F8EAD192
:1052B8000135013F0C2DBFB2DAD14E4E73889BB237
:1052C800102B2CD102A82146FAF782FF0AF10F070A
:1052D800BFB2002505F108036A46072613F802B095
:1052E800019B0FFA87F91FFA83F84BFA06F313F0BC
:1052F800010F14BF404B3F4B1A880FFA88F012B2C7
:105308004946013EFFF75AFF08F10108721C1FFACF
:1053180088F8EAD10135013F102DBFB2DAD1354EF8
:1053280073889BB20E2B2CD102A82146FAF746FFB0
:105338000AF10B07BFB2002505F108036A460B26E0
:1053480033F802B0019B0FFA87F91FFA83F84BFA7A
:1053580006F313F0010F14BF274B264B1A880FFAD8
:1053680088F012B24946013EFFF728FF08F101080C
:10537800731C1FFA88F8EAD10235013F182DBFB215
:10538800DAD11C4D6B889BB2182B2FD1214602A86D
:10539800FAF728FF0AF1170ADFF85CB01FFA8AFA51
:1053A8000024A94604F108036A46002533F8028060
:1053B800019B0FFA8AF79EB248FA05F313F0010F22
:1053C80014BFBBF80020B9F8002030B212B2394639
:1053D80001350136FFF7F2FE102DB6B2ECD10234DA
:1053E8000AF1FF3A302C1FFA8AFADBD10FB0BDE878
:1053F800F08F00BFD003002030090020F8B5044624
:105408000D46164640F2371716F8012B20B229B27E
:10541800FFF7E9FEBC420FD80D4B5A8892B2182A02
:1054280001D1103404E05B889BB20E2B02D0083403
:10543800A4B209E00C34FBE7DF2D03D81035ADB278
:10544800002401E000252C463378002BDCD1F8BD80
:10545800D00300202DE9F047294B2DED028B824621
:10546800D3E9000124A3D3E9002308F0E3FA08F004
:1054780077FFDFED247A08EE100A88EE278A2826BF
:10548800002407EE104AF8EE477AF4EE487AF1EE77
:1054980010FA16D0AF2700250AEB04090FFA86F890
:1054A80099F808309D42404639B201D21F2201E0E6
:1054B8004FF0FF3201350137FFF780FE402DBFB2B4
:1054C800EED101340136F02CB6B2DAD1BDEEC88A7D
:1054D800B32418EE105A28352DB221B201342846CB
:1054E800094AA4B2FFF76AFEEF2CF6D1BDEC028B95
:1054F800BDE8F087AFF300800000000000405F4087
:105508007816002000007A4100F8FFFF2DE9F047E7
:105518001F4604460D461646FFF72AFEFFB94FF010
:10552800C04322221A80134A03F5003303E011888E
:1055380089B219800137B742F9D3BDE8F087222331
:10554800AAF80030B9F8003001349BB2A4B2A8F828
:10555800003020462946FFF70BFE013706E0DFF84A
:105568001490DFF8148000274FF0C04AB742E6D302
:10557800BDE8F08730090020000002602DE9F74FF0
:1055880099465B181BB205460C461646804600270E
:105598000FFA81FB01930EE00FFA88FA504659463C
:1055A800FFF7F2FD50460199FFF7EEFD08F10108FB
:1055B80001371FFA88F8BE42EEDA0FFA85FA751934
:1055C80000272DB20CE00FFA84F850464146FFF749
:1055D800DBFD28464146FFF7D7FD01340137A4B269
:1055E800B945F0DABDE8FE8F2DE9F84F02EB010A64
:1055F80005460C461646804600270FFA81FB0FFA2F
:105608008AFA0EE00FFA88F948465946FFF7BCFDBA
:1056180048465146FFF7B8FD08F1010801371FFA5F
:1056280088F8BE42EEDA0FFA85F9751900272DB20F
:105638000FFA84F848464146FFF7A6FD0137284689
:1056480041460134FFF7A0FDBE42A4B2F0DABDE83E
:10565800F88F2DE9F84F4FEA4208C8F103080546CC
:105668000C461FFA88F81746002606EB050A07EBD2
:10567800040B0FFA8AFA0FFA8BFB50465946C7EB10
:105688000409FFF781FD0FFA89F95046C6EB050AB0
:1056980049460FFA8AFAFFF777FD50465946FFF751
:1056A80073FD06EB040B504607EB050A49460FFA53
:1056B8008AFA0FFA8BFBFFF767FDC6EB0409504621
:1056C8005946FFF761FD0FFA89F95046C7EB050AFD
:1056D80049460FFA8AFAFFF757FD50465946FFF731
:1056E80053FD50464946FFF74FFD18F4004F06D0CA
:1056F80008EB860808F106081FFA88F808E0F31B8B
:1057080008F10A0808EB8308013F1FFA88F8BFB2BE
:105718000136B6B2BE42A8D9BDE8F88F2DE9F84FD8
:1057280004460D4616469A46002715E00FFA89F1F9
:10573800584609F10109FFF727FD08F101081FFA8A
:1057480089F904E0A9464FF000080FFA84FBD04518
:10575800ECDB01340137A4B2B742F3DBBDE8F88FC4
:105768002DE9F04704460D469146002612E0A8466A
:1057780000270FFA84FA0FFA88F150460137FFF72D
:1057880003FD08F101084F451FFA88F8F3DB0134DF
:105798000136A4B24E45EADBBDE8F0872DE9F04FAB
:1057A800C1EB030CC0EB0209B9F1000FB8BFC9F196
:1057B8000009BCF1000FB8BFCCF1000C4FF6FF7622
:1057C8001FFA89F91FFA8CFC824234BF3746012739
:1057D8008B4234BFB0464FF001080FFA8CF20FFA33
:1057E80089F6964285B084B28DB24FF0020307DB8A
:1057F80096FBF3F63A460027B6B2E3463B4608E086
:1058080092FBF3F643464FF00008CB46B6B2E146AA
:1058180042464FF0000A0FFA89FC20E020B229B274
:105828005E4403920293CDF804C0FFF7ADFCB1B219
:105838008EB2DDF804C0039A029B30B2604506DBE5
:10584800C9EB0106E4194544B6B2A4B2ADB2A41836
:10585800ED180AF1010AA4B2ADB21FFA8AFA0FFADA
:105868008AF16145DADD05B0BDE8F08F2DE9F74F23
:10587800012904460D46019234D9B0F80080B0F8E9
:1058880002A08346061D1DE0C4EB0B0707EB0609C3
:10589800BA5BB9F802301FFA88F81FFA8AFA42444C
:1058A800534492B29BB240465146FFF777FFBA5B2A
:1058B800B9F8023090449A441FFA88F81FFA8AFA15
:1058C8000BF1040B013DADB2002DDDD1019B4BB1B5
:1058D800208861881FFA88F21FFA8AF303B0BDE8AE
:1058E800F04F5BE703B0BDE8F08F2DE9F0475600B5
:1058F800C6F1030607468846B6B21546002405EBEE
:105908000809E019C5EB080A1FFA89F980B21FFADD
:105918008AFA494602465346FFF740FF381B80B2D1
:10592800494602465346FFF739FF04EB0809E819D0
:10593800C4EB080A80B21FFA89F91FFA8AFA0246EC
:1059480049465346FFF72AFF781B80B2534649461B
:105958000246FFF723FF330404D506EB8406063618
:10596800B6B206E0631B0A3606EB8306013DB6B203
:10597800ADB20134A4B2AC42C1D9BDE8F0872DE97B
:10598800F3410220012105F093FE0026012502279C
:1059980069464E484E4C8DF8045000978DF80570B6
:1059A8008DF806608DF8076005F0DAFA18202946A8
:1059B80005F07EFE2846294605F092FE204631462F
:1059C8000C2205F04DFB204629460C2205F048FB29
:1059D800204604210C2205F043FB204605210C2219
:1059E80005F03EFB204607210C2205F039FB204636
:1059F80008210C2205F034FB204609210C2205F071
:105A08002FFB20460A210C2205F02AFB20460B21F9
:105A18000C22304D05F024FB20460E210C2205F007
:105A28001FFB20460F210C2205F01AFB28460721F0
:105A38000C2205F015FB284608210C2205F010FB66
:105A4800284609210C2205F00BFB28460A210C22C6
:105A580005F006FB28460B210C2205F001FB0C2162
:105A680028460A4605F0FCFA28460D210C2205F0C6
:105A7800F7FA28460E210C2205F0F2FA28460C22E5
:105A88000F2105F0EDFA4FF003084CF6B3732046EA
:105A9800694600938DF804708DF805808DF80660CE
:105AA8008DF8076005F05CFA4FF680732846694662
:105AB80000938DF804708DF805808DF806608DF8D8
:105AC800076005F04DFABDE8FC8100BF0004024004
