:020000040800F2
:1000000000000220152F020865D1000869D1000800
:100010006DD1000871D1000875D100080000000002
:1000200000000000000000000000000079D100087E
:100030007DD100080000000081D1000885D10008B2
:10004000592F0208592F0208592F0208592F020868
:10005000592F0208592F020859C9000889D10008F0
:10006000592F0208592F0208592F02088907000842
:10007000592F0208592F0208592F0208592F020838
:10008000592F0208592F0208592F0208592F020828
:10009000592F0208592F0208592F0208C9E20008F7
:1000A000592F0208592F0208592F0208592F020808
:1000B000B5D10008592F0208592F0208592F0208FC
:1000C000592F0208592F0208592F0208592F0208E8
:1000D000592F0208592F0208BDE50008592F0208C0
:1000E000592F0208592F0208592F0208592F0208C8
:1000F000592F0208592F0208592F0208592F0208B8
:10010000592F0208592F0208592F0208592F0208A7
:10011000592F0208592F0208592F0208592F020897
:10012000592F0208592F0208592F0208592F020887
:10013000592F0208592F0208592F0208592F020877
:10014000592F0208592F0208592F0208BDD1000863
:10015000592F0208592F0208592F0208592F020857
:10016000592F0208592F0208592F0208592F020847
:10017000592F0208592F0208592F0208592F020837
:08018000592F0208592F020853
:10018800B4E2050800000020D80D0020D80D00209A
:100198006481002000B583B04FF004004FF00101E6
:1001A8001FF01AFD4FF480404FF001011FF044FD8D
:1001B8004FF000038DF804304FF001038DF807303D
:1001C8004FF4007300936B464FF40060C4F20200D2
:1001D80019461FF059F903B000BD00BF08B500F07B
:1001E80081FA00F085FA40F66873C2F200034FF016
:1001F80000021A804FF44060C4F202004FF0080178
:100208004FF001021FF0B5F900F046FA00F076FA57
:1002180040F6F873C2F200031B881BB2184600F0C0
:1002280087F940F6F873C2F200035B881BB21846E0
:1002380000F046F94FF0000000F0BAF94FF0060060
:1002480000F0E6F808BD00BF08B500F04BFA00F072
:100258004FFA40F66873C2F200034FF001021A80A9
:1002680000F01AFA4FF0000000F062F94FF00000B9
:1002780000F09EF900F068FA40F6F873C2F2000345
:100288009B881BB2184600F01BF94FF44060C4F27B
:1002980002004FF008014FF000021FF06AF94FF416
:1002A8007A7007F06BFC4FF0180000F0DDF808BD1D
:1002B80008B540F69073C2F200031A4A1A6000F0BB
:1002C80011FA00F015FA40F66873C2F200034FF015
:1002D80001021A8000F0E0F940F6F873C2F2000358
:1002E800DB881BB2184600F023F94FF44060C4F2D3
:1002F80002004FF008014FF000021FF03AF94FF4E6
:100308007A7007F03BFC4FF0140000F0ADF840F6AF
:10031800F873C2F200035B891BB2184600F078F844
:1003280008BD00BF0000000008B500F0DBF900F0D0
:10033800DFF940F66873C2F200034FF001021A8039
:1003480000F0AAF940F6F873C2F200031B891BB249
:10035800184600F0EDF84FF44060C4F202004FF088
:1003680008014FF000021FF004F94FF47A7007F00B
:1003780005FC4FF0140000F077F840F6F873C2F26D
:1003880000035B891BB2184600F042F808BD00BFA5
:1003980000B583B04FF008004FF001011FF01CFCBE
:1003A8004FF000038DF804304FF002038DF805304C
:1003B8004FF000038DF806304FF001038DF8073039
:1003C8004FF0040300936B464FF44060C4F2020000
:1003D80019461FF059F84FF001038DF804304FF01B
:1003E80002038DF805304FF000038DF806304FF00A
:1003F80001038DF807304FF0080300936B464FF464
:100408004060C4F2020019461FF03EF803B000BD78
:1004180000B583B001904FF030004FF000014FF06D
:10042800010206F065FC4FF0010007F0A7FB019BF5
:10043800DBB24FF030004FF010011A4606F058FCBE
:100448004FF0010007F09AFB019BDBB24FF0300040
:100458004FF011011A4606F04BFC4FF0010007F06F
:100468008DFB03B000BD00BF00B583B001904FF015
:1004780030004FF000014FF0010206F039FC4FF058
:10048800010007F07BFB019BDBB24FF030004FF01F
:1004980012011A4606F02CFC4FF0010007F06EFB23
:1004A800019BDBB24FF030004FF013011A4606F003
:1004B8001FFC4FF0010007F061FB03B000BD00BF57
:1004C80000B583B00190019B002B02DA4FF00003C6
:1004D8000193019B5F2B02DD4FF05F0301934FF007
:1004E80030004FF000014FF0010206F001FC4FF020
:1004F800010007F043FB019BDBB24FF030004FF0E7
:100508003B011A4606F0F4FB4FF0010007F036FBFA
:10051800019BDBB24FF030004FF03C011A4606F069
:10052800E7FB4FF0010007F029FB03B000BD00BF57
:1005380000B583B00190019B302B02DD4FF03003F2
:100548000193019B13F17F0F02DA6FF07E03019391
:10055800019B002B03DA019B03F5807301934FF095
:1005680030004FF000014FF0000206F0C1FB4FF0E1
:10057800010007F003FB019BDBB24FF030004FF0A6
:1005880041011A4606F0B4FB4FF0010007F0F6FAF5
:10059800019BDBB24FF030004FF042011A4606F0E3
:1005A800A7FB4FF0010007F0E9FA03B000BD00BF58
:1005B80000B583B00190019B282B02DD4FF0280382
:1005C8000193019B13F1180F02DA6FF017030193DF
:1005D800019B002B03DA019B03F17F0301934FF08A
:1005E80030004FF000014FF0000206F081FB4FF0A1
:1005F800010007F0C3FA019BDBB24FF030004FF067
:1006080053011A4606F074FB4FF0010007F0B6FAE2
:10061800019BDBB24FF030004FF054011A4606F050
:1006280067FB4FF0010007F0A9FA03B000BD00BF57
:1006380008B54FF030004FF000014FF0010206F00E
:1006480057FB4FF0010007F099FA4FF030004FF0D8
:1006580033014FF0400206F04BFB4FF0010007F06A
:100668008DFA08BD08B54FF030004FF000014FF08B
:10067800010206F03DFB4FF0010007F07FFA4FF052
:1006880030004FF033014FF0000206F031FB4FF01D
:10069800010007F073FA08BD08B54FF030004FF0BD
:1006A80000014FF0010206F023FB4FF0010007F0B4
:1006B80065FA4FF030004FF034014FF0000206F0B9
:1006C80017FB4FF0010007F059FA4FF030004FF0D8
:1006D80037014FF0000206F00BFB4FF0010007F066
:1006E8004DFA08BD08B54FF04000FFF791FE08BD70
:1006F80008B54FF04000FFF7B7FE08BD08B54FF04A
:1007080030004FF000014FF0010206F0F1FA4FF00F
:10071800010007F033FA4FF030004FF034014FF08A
:10072800300206F0E5FA4FF0010007F027FA4FF023
:1007380030004FF037014FF0300206F0D9FA4FF091
:10074800010007F01BFA08BD08B54FF030004FF064
:1007580000014FF0010206F0CBFA4FF0010007F05C
:100768000DFA4FF030004FF034014FF00C0206F054
:10077800BFFA4FF0010007F001FA08BD00000000C1
:1007880008B546F21000C4F202001EF0DAF802467C
:1007980042F61853C2F200031A6046F28800C4F207
:1007A80002001EF0CEF8024643F20C63C2F20003C8
:1007B8001A604FF44060C4F202004FF480514FF0C9
:1007C80001021EF0D6FE40F66873C2F200031B88D1
:1007D800002B02D100F05AF83AE040F6F453C2F286
:1007E80000031B88012B06D0022B2ED0002B2FD103
:1007F80000F002FB2CE04FF40060C4F202004FF45A
:1008080000711EF0A0FE03461A4640F6F073C2F2CD
:1008180000031A7040F6F073C2F200031B78002B35
:100828000AD148F28863C0F602031A6845F2D82351
:10083800C2F200031A6005E045F2D823C2F20003B1
:10084800114A1A6000F082FD02E001F049F900BF88
:100858004FF44060C4F202004FF480514FF00002A0
:100868001EF087FE40F6B073C2F200034FF001029B
:100878001A8046F21000C4F2020048F22001C1F2C8
:1008880000011EF0DFF808BD0000000008B542F6C0
:100898001853C2F200031B68002B40F0568143F244
:1008A8006013C2F200034FF000021A808FE043F297
:1008B8006013C2F200031B881AB243F26013C2F23B
:1008C80000031B881BB24FEA430143F61463C2F2CC
:1008D800000333F811301BB207EE903AB8EEE77A0E
:1008E80040F6C073C2F20003D3ED007A67EE277AB0
:1008F800FDEEE77A17EE903A99B242F24C03C2F253
:10090800000323F8121043F26013C2F200031B889D
:100918001BB24FEA430243F61463C2F2000333F8F2
:1009280012301BB207EE903AB8EEE77A40F6E4735D
:10093800C2F20003D3ED007A67EE277A40F66473BB
:10094800C2F20003C3ED007A43F26013C2F200035F
:100958001B881AB243F26013C2F200031B881BB251
:100968004FEA430303F1010143F61463C2F20003A3
:1009780033F811301BB207EE903AB8EEE77A40F63A
:100988006473C2F20003D3ED007A37EE277A40F69B
:100998004073C2F20003D3ED007A67EE277AFDEECA
:1009A800E77A17EE903A99B243F26413C2F2000361
:1009B80023F8121043F26013C2F200031B8803F1FC
:1009C80001039AB243F26013C2F200031A8043F2A1
:1009D8006013C2F200031B881AB240F2FF139A4256
:1009E8007FF765AF43F26013C2F200034FF00002D5
:1009F8001A8042E043F26013C2F200031B881BB264
:100A08004FEA430243F26013C2F200031B8819B293
:100A180042F24C03C2F2000333F8111045F69C432E
:100A2800C2F2000323F8121043F26013C2F200036B
:100A38001B881BB24FEA430303F1010243F2601320
:100A4800C2F200031B8819B243F26413C2F2000316
:100A580033F8111045F69C43C2F2000323F8121034
:100A680043F26013C2F200031B8803F101039AB238
:100A780043F26013C2F200031A8043F26013C2F219
:100A880000031B881BB2FF2BB4DD01F00BFC01F047
:100A98001BFC01F02BFC08F047F801F085FC43F241
:100AA8006013C2F200034FF000021A8042E043F2E2
:100AB8006013C2F200031B881BB24FEA430243F2E1
:100AC8006013C2F200031B8819B241F64C43C2F20C
:100AD800000333F8111043F21463C2F2000323F841
:100AE800121043F26013C2F200031B881BB24FEAD4
:100AF800430303F1010243F26013C2F200031B88AF
:100B080019B241F64C43C2F2000333F8111043F214
:100B18001463C2F2000323F8121043F26013C2F206
:100B280000031B8803F101039AB243F26013C2F277
:100B380000031A8043F26013C2F200031B881AB242
:100B480040F2FF139A42B2DD54E143F26013C2F25D
:100B580000034FF000021A808FE043F26013C2F2E4
:100B680000031B881AB243F26013C2F200031B8809
:100B78001BB24FEA430145F28843C2F2000333F83F
:100B880011301BB207EE903AB8EEE77A40F6C07320
:100B9800C2F20003D3ED007A67EE277AFDEEE77A1A
:100BA80017EE903A99B242F24C03C2F2000323F8CE
:100BB800121043F26013C2F200031B881BB24FEA03
:100BC800430245F28843C2F2000333F812301BB2E5
:100BD80007EE903AB8EEE77A40F6E473C2F2000303
:100BE800D3ED007A67EE277A40F66473C2F2000309
:100BF800C3ED007A43F26013C2F200031B881AB2F5
:100C080043F26013C2F200031B881BB24FEA43038E
:100C180003F1010145F28843C2F2000333F81130B1
:100C28001BB207EE903AB8EEE77A40F66473C2F268
:100C38000003D3ED007A37EE277A40F64073C2F20C
:100C48000003D3ED007A67EE277AFDEEE77A17EE18
:100C5800903A99B243F26413C2F2000323F81210D7
:100C680043F26013C2F200031B8803F101039AB236
:100C780043F26013C2F200031A8043F26013C2F217
:100C880000031B881AB240F2FF139A427FF765AF40
:100C980043F26013C2F200034FF000021A8042E0F0
:100CA80043F26013C2F200031B881BB24FEA4302EF
:100CB80043F26013C2F200031B8819B242F24C03DC
:100CC800C2F2000333F8111045F69C43C2F2000348
:100CD80023F8121043F26013C2F200031B881BB200
:100CE8004FEA430303F1010243F26013C2F2000327
:100CF8001B8819B243F26413C2F2000333F81110CF
:100D080045F69C43C2F2000323F8121043F2601325
:100D1800C2F200031B8803F101039AB243F2601385
:100D2800C2F200031A8043F26013C2F200031B8868
:100D38001BB2FF2BB4DD01F0B5FA01F0C5FA01F0E2
:100D4800D5FA07F0F1FE01F02FFB43F26013C2F26F
:100D580000034FF000021A8042E043F26013C2F22F
:100D680000031B881BB24FEA430243F26013C2F22E
:100D780000031B8819B241F64C43C2F2000333F852
:100D8800111044F2B063C2F2000323F8121043F2C8
:100D98006013C2F200031B881BB24FEA430303F13E
:100DA800010243F26013C2F200031B8819B241F634
:100DB8004C43C2F2000333F8111044F2B063C2F29C
:100DC800000323F8121043F26013C2F200031B88D9
:100DD80003F101039AB243F26013C2F200031A80CE
:100DE80043F26013C2F200031B881AB240F2FF13E9
:100DF8009A42B2DD08BD00BF08B542F61853C2F2E8
:100E080000031B68002B40F0508143F26013C2F2CC
:100E180000034FF000021A808DE043F26013C2F223
:100E280000031B881AB243F26013C2F200031B8846
:100E38001BB24FEA430143F61463C2F2000333F8CE
:100E480011301BB207EE903AB8EEE77A40F6947389
:100E5800C2F20003D3ED007A67EE277AFDEEE77A57
:100E680017EE903A99B242F24C03C2F2000323F80B
:100E7800121043F26013C2F200031B881BB24FEA40
:100E8800430243F61463C2F2000333F812301BB274
:100E980007EE903AB8EEE77A40F6F473C2F2000330
:100EA800D3ED007A67EE277A40F66473C2F2000346
:100EB800C3ED007A43F26013C2F200031B881AB232
:100EC80043F26013C2F200031B881BB24FEA4301CE
:100ED80043F61463C2F2000333F811301BB207EE75
:100EE800903AB8EEE77A40F66473C2F20003D3EDA5
:100EF800007A37EE277A40F64073C2F20003D3ED4A
:100F0800007A67EE277AFDEEE77A17EE903A99B203
:100F180043F26413C2F2000323F8121043F2601381
:100F2800C2F200031B8803F101039AB243F2601373
:100F3800C2F200031A8043F26013C2F200031B8856
:100F48001AB240F2FF139A427FF767AF43F2601379
:100F5800C2F200034FF000021A8042E043F260132D
:100F6800C2F200031B881BB24FEA430243F260132C
:100F7800C2F200031B8819B242F24C03C2F200030A
:100F880033F8111045F69C43C2F2000323F81210FF
:100F980043F26013C2F200031B881BB24FEA4303FB
:100FA80003F1010243F26013C2F200031B8819B275
:100FB80043F26413C2F2000333F8111045F69C4360
:100FC800C2F2000323F8121043F26013C2F20003C6
:100FD8001B8803F101039AB243F26013C2F20003C3
:100FE8001A8043F26013C2F200031B881BB2FF2B66
:100FF800B4DD01F057F901F067F901F0D5F943F2D2
:101008006013C2F200034FF000021A8042E043F27C
:101018006013C2F200031B881BB24FEA430243F27B
:101028006013C2F200031B8819B241F23C13C2F2EA
:10103800000333F8111043F21463C2F2000323F8DB
:10104800121043F26013C2F200031B881BB24FEA6E
:10105800430303F1010243F26013C2F200031B8849
:1010680019B244F6BC63C2F2000333F8111043F21C
:101078001463C2F2000323F8121043F26013C2F2A1
:1010880000031B8803F101039AB243F26013C2F212
:1010980000031A8043F26013C2F200031B881AB2DD
:1010A80040F2FF139A42B2DD4EE143F26013C2F2FE
:1010B80000034FF000021A808DE043F26013C2F281
:1010C80000031B881AB243F26013C2F200031B88A4
:1010D8001BB24FEA430145F28843C2F2000333F8DA
:1010E80011301BB207EE903AB8EEE77A40F69473E7
:1010F800C2F20003D3ED007A67EE277AFDEEE77AB5
:1011080017EE903A99B242F24C03C2F2000323F868
:10111800121043F26013C2F200031B881BB24FEA9D
:10112800430245F28843C2F2000333F812301BB27F
:1011380007EE903AB8EEE77A40F6F473C2F200038D
:10114800D3ED007A67EE277A40F66473C2F20003A3
:10115800C3ED007A43F26013C2F200031B881AB28F
:1011680043F26013C2F200031B881BB24FEA43012B
:1011780045F28843C2F2000333F811301BB207EE80
:10118800903AB8EEE77A40F66473C2F20003D3ED02
:10119800007A37EE277A40F64073C2F20003D3EDA7
:1011A800007A67EE277AFDEEE77A17EE903A99B261
:1011B80043F26413C2F2000323F8121043F26013DF
:1011C800C2F200031B8803F101039AB243F26013D1
:1011D800C2F200031A8043F26013C2F200031B88B4
:1011E8001AB240F2FF139A427FF767AF43F26013D7
:1011F800C2F200034FF000021A8042E043F260138B
:10120800C2F200031B881BB24FEA430243F2601389
:10121800C2F200031B8819B242F24C03C2F2000367
:1012280033F8111045F69C43C2F2000323F812105C
:1012380043F26013C2F200031B881BB24FEA430358
:1012480003F1010243F26013C2F200031B8819B2D2
:1012580043F26413C2F2000333F8111045F69C43BD
:10126800C2F2000323F8121043F26013C2F2000323
:101278001B8803F101039AB243F26013C2F2000320
:101288001A8043F26013C2F200031B881BB2FF2BC3
:10129800B4DD01F007F801F017F801F085F843F222
:1012A8006013C2F200034FF000021A8042E043F2DA
:1012B8006013C2F200031B881BB24FEA430243F2D9
:1012C8006013C2F200031B8819B241F23C13C2F248
:1012D800000333F8111044F2B063C2F2000323F89C
:1012E800121043F26013C2F200031B881BB24FEACC
:1012F800430303F1010243F26013C2F200031B88A7
:1013080019B244F6BC63C2F2000333F8111044F278
:10131800B063C2F2000323F8121043F26013C2F262
:1013280000031B8803F101039AB243F26013C2F26F
:1013380000031A8043F26013C2F200031B881AB23A
:1013480040F2FF139A42B2DD08BD00BF38B541F63E
:101358004043C2F20003D3E90023104619460FF2B6
:101368007073D3E9002320F0ADFF02460B46144604
:101378001D4641F26053C2F200031B68184620F074
:101388004DFF02460B462046294621F0C5F8024685
:101398000B461046194640F6A073C2F20003C3E993
:1013A800000142F61853C2F200031B68002B40F0FC
:1013B800C88143F26013C2F200034FF000021A80A2
:1013C80005E140F6A073C2F20003D3E900231046FA
:1013D80019460FF20473D3E9002320F073FF024685
:1013E8000B461046194621F007FA024640F6E85324
:1013F800C2F200031B68D21840F6E853C2F2000399
:101408001A6040F6E853C2F200031B684FEA231340
:1014180003F580634FEA03524FEA12524AF6245307
:10142800C0F6020353F822309AB240F6EC53C2F2E7
:1014380000031A8045F2D823C2F2000393ED007A24
:1014480040F6DC53C2F20003D3ED007A37EE677A38
:1014580048F28C63C0F60203D3ED007A27EE277AB0
:1014680048F29063C0F60203D3ED006A40F6DC53FD
:10147800C2F20003D3ED007A66EEA77A77EE277AF8
:1014880040F6D853C2F20003C3ED007A40F6D853B1
:10149800C2F200031A6840F6DC53C2F200031A6075
:1014A80040F6D853C2F2000393ED007A48F28863FD
:1014B800C0F60203D3ED007AC7EE277A40F69073A0
:1014C800C2F20003C3ED007A43F26013C2F20003D4
:1014D8001B881AB240F6EC53C2F200031B881BB2F9
:1014E80007EE903AB8EEE77A40F69473C2F200033A
:1014F800D3ED007A27EE277A40F69073C2F2000304
:10150800D3ED007A67EE277AFDEEE77A17EE903A88
:1015180099B242F24C03C2F2000323F8121040F6CB
:10152800EC53C2F200031B881BB207EE903AB8EEE8
:10153800E77A40F6F473C2F20003D3ED007A67EE5F
:10154800277A40F66473C2F20003C3ED007A43F2CF
:101558006013C2F200031B881AB240F6EC53C2F2C1
:1015680000031B881BB207EE903AB8EEE77A40F604
:101578006473C2F20003D3ED007A37EE277A40F69F
:101588009073C2F20003D3ED007A27EE277A40F673
:101598004073C2F20003D3ED007A67EE277AFDEEBE
:1015A800E77A17EE903A99B243F26413C2F2000355
:1015B80023F8121043F26013C2F200031B8803F1F0
:1015C80001039AB243F26013C2F200031A8043F295
:1015D8006013C2F200031B881AB240F2FF139A424A
:1015E8007FF7EFAE43F26013C2F200034FF0000240
:1015F8001A8042E043F26013C2F200031B881BB258
:101608004FEA430243F26013C2F200031B8819B287
:1016180042F24C03C2F2000333F8111045F69C4322
:10162800C2F2000323F8121043F26013C2F200035F
:101638001B881BB24FEA430303F1010243F2601314
:10164800C2F200031B8819B243F26413C2F200030A
:1016580033F8111045F69C43C2F2000323F8121028
:1016680043F26013C2F200031B8803F101039AB22C
:1016780043F26013C2F200031A8043F26013C2F20D
:1016880000031B881BB2FF2BB4DD00F00BFE00F03B
:101698001BFE00F089FE43F26013C2F200034FF014
:1016A80000021A8042E043F26013C2F200031B8872
:1016B8001BB24FEA430243F26013C2F200031B88D5
:1016C80019B241F23C13C2F2000333F8111043F28D
:1016D8001463C2F2000323F8121043F26013C2F23B
:1016E80000031B881BB24FEA430303F1010243F2D4
:1016F8006013C2F200031B8819B244F6BC63C2F23D
:10170800000333F8111043F21463C2F2000323F804
:10171800121043F26013C2F200031B8803F10103A5
:101728009AB243F26013C2F200031A8043F26013C4
:10173800C2F200031B881AB240F2FF139A42B2DDCC
:10174800C5E143F26013C2F200034FF000021A80B1
:1017580004E140F6A073C2F20003D3E90023104667
:101768001946DDA3D3E9002320F0ACFD02460B4661
:101778001046194621F040F8024640F6E853C2F2F6
:1017880000031B68D21840F6E853C2F200031A603F
:1017980040F6E853C2F200031B684FEA231303F52F
:1017A80080634FEA03524FEA12524AF62453C0F6B6
:1017B800020353F822309AB240F6EC53C2F2000307
:1017C8001A8045F2D823C2F2000393ED007A40F65E
:1017D800DC53C2F20003D3ED007A37EE677A48F2A1
:1017E8008C63C0F60203D3ED007A27EE277A48F21D
:1017F8009063C0F60203D3ED006A40F6DC53C2F2F0
:101808000003D3ED007A66EEA77A77EE277A40F6E2
:10181800D853C2F20003C3ED007A40F6D853C2F29F
:1018280000031A6840F6DC53C2F200031A6040F65F
:10183800D853C2F2000393ED007A48F28863C0F6E9
:101848000203D3ED007AC7EE277A40F69073C2F20E
:101858000003C3ED007A43F26013C2F200031B8851
:101868001AB240F6EC53C2F200031B881BB207EE13
:10187800903AB8EEE77A40F69473C2F20003D3EDDB
:10188800007A27EE277A40F69073C2F20003D3ED70
:10189800007A67EE277AFDEEE77A17EE903A99B26A
:1018A80042F24C03C2F2000323F8121040F6EC5344
:1018B800C2F200031B881BB207EE903AB8EEE77A33
:1018C80040F6F473C2F20003D3ED007A67EE277A8C
:1018D80040F66473C2F20003C3ED007A43F260136A
:1018E800C2F200031B881AB240F6EC53C2F200039E
:1018F8001B881BB207EE903AB8EEE77A40F664739D
:10190800C2F20003D3ED007A37EE277A40F640732F
:10191800C2F20003D3ED007A27EE277A40F69073DF
:10192800C2F20003D3ED007A67EE277AFDEEE77A7C
:1019380017EE903A99B243F26413C2F2000323F807
:10194800121043F26013C2F200031B8803F1010373
:101958009AB243F26013C2F200031A8043F2601392
:10196800C2F200031B881AB240F2FF139A427FF7B3
:10197800F0AE43F26013C2F200034FF000021A8087
:1019880042E043F26013C2F200031B881BB24FEA25
:10199800430243F26013C2F200031B8819B242F2F9
:1019A8004C03C2F2000333F8111045F69C43C2F20F
:1019B800000323F8121043F26013C2F200031B88DD
:1019C8001BB24FEA430303F1010243F26013C2F270
:1019D80000031B8819B243F26413C2F2000333F800
:1019E800111045F69C43C2F2000323F8121043F28B
:1019F8006013C2F200031B8803F101039AB243F299
:101A08006013C2F200031A8043F26013C2F20003AB
:101A18001B881BB2FF2BB4DD00F044FC00F054FC23
:101A280000F0C2FC43F26013C2F200034FF0000260
:101A38001A8042E043F26013C2F200031B881BB213
:101A48004FEA430243F26013C2F200031B8819B243
:101A580041F23C13C2F2000333F8111044F2B063B0
:101A6800C2F2000323F8121043F26013C2F200031B
:101A78001B881BB24FEA430303F1010243F26013D0
:101A8800C2F200031B8819B244F6BC63C2F2000319
:101A980033F8111044F2B063C2F2000323F81210B5
:101AA80043F26013C2F200031B8803F101039AB2E8
:101AB80043F26013C2F200031A8043F26013C2F2C9
:101AC80000031B881AB240F2FF139A42B2DD38BDF8
:101AD800182D4454FB21194039D6C56D305FC440D8
:101AE80030B585B0DFF86837039341F64043C2F25A
:101AF8000003D3E90023104619460FF24473D3E9D3
:101B0800002320F0DFFB02460B4614461D4641F237
:101B18006053C2F200031B68184620F07FFB0246A0
:101B28000B462046294620F0F7FC02460B46104695
:101B3800194640F6A073C2F20003C3E9000142F659
:101B48001853C2F200031B68002B40F0BB8143F21C
:101B58006013C2F200034FF000021A80F8E040F66A
:101B6800A073C2F20003D3E90023104619460FF20E
:101B7800D863D3E9002320F0A5FB02460B461046A4
:101B8800194620F039FE024640F6E053C2F200033F
:101B98001B68D21840F6E053C2F200031A6040F600
:101BA800E053C2F200031B684FEA23134FEA0352C3
:101BB8004FEA12524AF62453C0F6020353F8223071
:101BC8009AB240F6E453C2F200031A8040F6E0539A
:101BD800C2F200031B684FEA231303F580634FEA40
:101BE80003524FEA12524AF62453C0F6020353F83E
:101BF80022309AB240F6E653C2F200031A8006F089
:101C0800EBF840F68C73C2F2000393ED007ADDED39
:101C1800037A27EE277A40F6E653C2F200031B88C0
:101C28001BB206EE903AF8EEE67A67EE277AFDEEFA
:101C3800E77A17EE903AADF80A3040F6EC73C2F244
:101C4800000393ED007ADDED037A27EE277A40F65C
:101C5800E453C2F200031B881BB206EE903AF8EE7A
:101C6800E67A67EE277AFDEEE77A17EE903AADF856
:101C78000830BDF80A20BDF80830D3189BB2ADF87B
:101C8800063043F26013C2F200031B881AB2BDF992
:101C9800063007EE903AB8EEE77A40F69473C2F24F
:101CA8000003D3ED007A67EE277AFDEEE77A17EEA8
:101CB800903A99B242F24C03C2F2000323F8121090
:101CC800BDF9063006EE903AB8EEE67A40F6F473BF
:101CD800C2F20003D3ED007A67EE277A40F6647308
:101CE800C2F20003C3ED007A43F26013C2F20003AC
:101CF8001B881AB2BDF9063007EE903AB8EEE77ABB
:101D080040F66473C2F20003D3ED007A37EE277A07
:101D180040F64073C2F20003D3ED007A67EE277AEB
:101D2800FDEEE77A17EE903A99B243F26413C2F2E5
:101D3800000323F8121043F26013C2F200031B8859
:101D480003F101039AB243F26013C2F200031A804E
:101D580043F26013C2F200031B881AB240F2FF1369
:101D68009A427FF7FCAE43F26013C2F200034FF0D1
:101D780000021A8042E043F26013C2F200031B889B
:101D88001BB24FEA430243F26013C2F200031B88FE
:101D980019B242F24C03C2F2000333F8111045F6AF
:101DA8009C43C2F2000323F8121043F26013C2F2FC
:101DB80000031B881BB24FEA430303F1010243F2FD
:101DC8006013C2F200031B8819B243F26413C2F213
:101DD800000333F8111045F69C43C2F2000323F8C0
:101DE800121043F26013C2F200031B8803F10103CF
:101DF8009AB243F26013C2F200031A8043F26013EE
:101E0800C2F200031B881BB2FF2BB4DD00F04AFAB4
:101E180000F05AFA00F0C8FA43F26013C2F2000365
:101E28004FF000021A8042E043F26013C2F200034E
:101E38001B881BB24FEA430243F26013C2F200034D
:101E48001B8819B241F23C13C2F2000333F8111097
:101E580043F21463C2F2000323F8121043F2601332
:101E6800C2F200031B881BB24FEA430303F10102CD
:101E780043F26013C2F200031B8819B244F6BC6334
:101E8800C2F2000333F8111043F21463C2F20003E4
:101E980023F8121043F26013C2F200031B8803F107
:101EA80001039AB243F26013C2F200031A8043F2AC
:101EB8006013C2F200031B881AB240F2FF139A4261
:101EC800B2DDB8E143F26013C2F200034FF0000242
:101ED8001A80F7E040F6A073C2F20003D3E90023AA
:101EE80010461946D8A3D3E9002320F0EBF902469F
:101EF8000B461046194620F07FFC024640F6E05398
:101F0800C2F200031B68D21840F6E053C2F2000385
:101F18001A6040F6E053C2F200031B684FEA23132D
:101F28004FEA03524FEA12524AF62453C0F602030C
:101F380053F822309AB240F6E453C2F200031A80F2
:101F480040F6E053C2F200031B684FEA231303F57F
:101F580080634FEA03524FEA12524AF62453C0F6FE
:101F6800020353F822309AB240F6E653C2F2000355
:101F78001A8005F031FF40F68C73C2F2000393ED2E
:101F8800007ADDED037A27EE277A40F6E653C2F2AF
:101F980000031B881BB206EE903AF8EEE67A67EE6D
:101FA800277AFDEEE77A17EE903AADF80A3040F658
:101FB800EC73C2F2000393ED007ADDED037A27EEAD
:101FC800277A40F6E453C2F200031B881BB206EEE0
:101FD800903AF8EEE67A67EE277AFDEEE77A17EEA2
:101FE800903AADF80830BDF80A20BDF80830D3188B
:101FF8009BB2ADF8063043F26013C2F200031B88AF
:102008001AB2BDF9063007EE903AB8EEE77A40F614
:102018009473C2F20003D3ED007A67EE277AFDEEDF
:10202800E77A17EE903A99B242F24C03C2F20003F3
:1020380023F81210BDF9063006EE903AB8EEE67AAB
:1020480040F6F473C2F20003D3ED007A67EE277A04
:1020580040F66473C2F20003C3ED007A43F26013E2
:10206800C2F200031B881AB2BDF9063007EE903A97
:10207800B8EEE77A40F66473C2F20003D3ED007A53
:1020880037EE277A40F64073C2F20003D3ED007AA8
:1020980067EE277AFDEEE77A17EE903A99B243F2A7
:1020A8006413C2F2000323F8121043F26013C2F261
:1020B80000031B8803F101039AB243F26013C2F2D2
:1020C80000031A8043F26013C2F200031B881AB29D
:1020D80040F2FF139A427FF7FDAE43F26013C2F25B
:1020E80000034FF000021A8042E043F26013C2F28C
:1020F80000031B881BB24FEA430243F26013C2F28B
:1021080000031B8819B242F24C03C2F2000333F8F1
:10211800111045F69C43C2F2000323F8121043F253
:102128006013C2F200031B881BB24FEA430303F19A
:10213800010243F26013C2F200031B8819B243F292
:102148006413C2F2000333F8111045F69C43C2F23F
:10215800000323F8121043F26013C2F200031B8835
:1021680003F101039AB243F26013C2F200031A802A
:1021780043F26013C2F200031B881BB2FF2BB4DDCD
:1021880000F090F800F0A0F800F00EF943F26013A8
:10219800C2F200034FF000021A8042E043F26013DB
:1021A800C2F200031B881BB24FEA430243F26013DA
:1021B800C2F200031B8819B241F23C13C2F20003B9
:1021C80033F8111044F2B063C2F2000323F812107E
:1021D80043F26013C2F200031B881BB24FEA4303A9
:1021E80003F1010243F26013C2F200031B8819B223
:1021F80044F6BC63C2F2000333F8111044F2B06332
:10220800C2F2000323F8121043F26013C2F2000373
:102218001B8803F101039AB243F26013C2F2000370
:102228001A8043F26013C2F200031B881AB240F20C
:10223800FF139A42B2DD05B030BD00BFAFF3008096
:10224800182D4454FB21194039D6C56D305FC44060
:102258008FC2F53CAFF3008000B583B04FF00800A3
:102268004FF001011DF0B8FC4FF4405300934FF0BC
:1022780001038DF804304FF000038DF806304FF05D
:1022880002038DF805304FF000038DF807306B46D8
:102298004FF44060C4F2020019461DF0F5F803B08F
:1022A80000BD00BF08B540F26400C2F2000042F26F
:1022B8004C01C2F2000141F23C12C2F200024FF49A
:1022C80000731FF077F808BD08B540F27000C2F23D
:1022D800000043F26411C2F2000144F6BC62C2F28B
:1022E80000024FF400731FF065F808BD82B04FF08C
:1022F8000003ADF806304FE0BDF90620BDF9061021
:1023080041F23C13C2F2000333F8113099B2BDF91F
:10231800060044F6BC63C2F2000333F810309BB2E7
:10232800CB1A9BB299B241F64C43C2F2000323F890
:102338001210BDF90620BDF9061041F23C13C2F295
:10234800000333F8113099B2BDF9060044F6BC63B6
:10235800C2F2000333F810309BB2CB189BB299B28B
:1023680042F61C53C2F2000323F81210BDF90620EE
:10237800BDF9061041F64C43C2F2000333F81110C0
:1023880041F29053C2F2000323F81210BDF8063050
:1023980003F10103ADF80630BDF9062040F2FF1342
:1023A8009A42A9DD02B0704708B540F26003C2F254
:1023B80000031B8847F2B020C2F2000019464FF014
:1023C80000024FF001031FF08FFD0346DAB246F614
:1023D800AC53C2F200031A7047F2B020C2F20000F8
:1023E80045F69C41C2F200011FF064FD45F69C4091
:1023F800C2F200004FF0060146F6AC12C2F200022B
:102408004FF480731EF0A4FE40F26003C2F2000392
:102418001B8846F6AC10C2F2000041F6A011C2F2C9
:1024280000011A461EF026FE08BD00BF000000008D
:1024380000B585B04FF004004FF001011DF0CCFB52
:102448004FF480404FF001011DF0F6FB4FF0000300
:102458008DF80C304FF001038DF80F304FF4B07346
:10246800029302AB4FF40060C4F2020019461DF05B
:102478000BF84FF010004FF001011DF0ADFB4FF0CD
:1024880000038DF80C304FF001038DF80F304FF03A
:102498007803029302AB4FF48050C4F2020019464D
:1024A8001CF0F2FF4FF480404FF001011DF0C4FB17
:1024B8004FF002004FF008011DF04CFE47F2683360
:1024C800C2F200034FF480721A6047F26833C2F216
:1024D80000034FF000021A7147F26833C2F200039A
:1024E8004FF00C025A7147F26833C2F200034FF002
:1024F80001029A7147F26830C2F200001CF0C8FA73
:102508004FF017038DF804304FF001038DF80530B4
:102518004FF001038DF806304FF001038DF80730B6
:1025280001AB18460CF09EFE05B000BD47F22433FF
:10253800C2F200034BF2F002C0F2D6021A6047F270
:102548002433C2F200034AF26002C0F236025A6033
:1025580047F22433C2F2000343F62052C0F26B0262
:102568009A6047F22433C2F200034FF4D842C0F213
:102578006B02DA6047F22433C2F200034EF23012E3
:10258800C0F26B021A6147F22433C2F2000349F227
:102598008062C0F298025A6147F22433C2F2000303
:1025A8004BF29012C0F29A029A6147F22433C2F2B7
:1025B80000034AF6C042C0F2D802DA6147F2243377
:1025C800C2F200034EF2C012C0F2E4021A6247F2ED
:1025D8002433C2F2000342F62072C0F214125A6287
:1025E80047F22433C2F2000348F2B002C0F24112AB
:1025F8009A6247F22433C2F200034FF47F52C0F2CA
:102608007C12DA6247F22433C2F200034FF49E527E
:10261800C0F2AD121A6347F22433C2F200034CF23F
:102628001012C0F2FE225A6347F22433C2F20003AA
:102638004FF4C042C0F25B329A6347F22433C2F2CD
:1026480000034FF00402DA63704700BF08B54FF08B
:1026580000000AF075FA024647F2D423C2F20003DA
:102668001A6047F2D423C2F200031A6840F2D24338
:102678009A4209D0FFF75AFF0AF0A8FA4FF0000073
:1026880040F2D2410AF016FA0AF0C2FA47F21033C1
:10269800C2F200034FF002021A8047F22033C2F25E
:1026A800000348F28042C0F21E021A6047F2C423B7
:1026B800C2F200034FF4CA42C1F6CD521A6047F283
:1026C8002433C2F200039B6B18461FF085FD47F2C6
:1026D800F823C2F20003C3E9000147F22433C2F22F
:1026E8000003DB6BDAB247F26433C2F200031A70FC
:1026F80009F076F847F20833C2F200031B78032B7F
:102708000AD14FF0EA004FF03C0148F29462C0F65B
:10271800020209F0FBF93EE008F0F8FC01F0C0F90C
:1027280047F21433C2F200031B881BB20D2B02DCE4
:1027380001F0CCF92FE047F22433C2F200031A6803
:1027480047F26433C2F200031B7803FB02F31A4614
:1027580047F2F023C2F200031A6047F2F023C2F2F4
:1027680000031B68184608F06FFC47F22433C2F2D6
:1027780000031A6847F2D023C2F200031A604FF030
:10278800EA004FF0140148F2A062C0F6020209F014
:10279800BDF901F055FE40F27C03C2F200034FF090
:1027A80064021A6008BD00BF00B583B04FF0640032
:1027B80005F0E4F940F6F053C2F200031B784FEA43
:1027C8008303DAB240F6F053C2F200031A704FF4F2
:1027D8000060C4F202001CF0BCFE03464FEA53132B
:1027E8009BB2DBB203F00303DAB240F6F053C2F255
:1027F80000031B78DBB21343DBB2DAB240F6F053C6
:10280800C2F200031A7040F6F053C2F200031B78BC
:1028180003F00F0240F28003C2F200039B5C8DF8C4
:10282800073040F6F153C2F200031B78DAB29DF884
:102838000730D318DBB2DAB240F6F153C2F2000324
:102848001A7040F6F153C2F200031B785BB29AB2D9
:1028580047F21033C2F200031B8812B21BB29A422D
:1028680016DA40F6F153C2F200031B785AB247F267
:102878001033C2F200031B881BB2C3F100039A4253
:1028880006DD47F27033C2F200034FF000021A70FF
:1028980040F6F153C2F200031B785BB29AB247F2DA
:1028A8001033C2F200031B8812B21BB29A420DDB2E
:1028B80047F27033C2F200034FF001021A7040F67B
:1028C800F153C2F200034FF000021A7040F6F153C0
:1028D800C2F200031B785AB247F21033C2F2000367
:1028E8001B881BB2C3F100039A420DDC47F2703318
:1028F800C2F200034FF0FF021A7040F6F153C2F221
:1029080000034FF000021A7047F27033C2F200035E
:102918001B78002B01F0BA8001F0C2F847F214339B
:10292800C2F200031B881BB20F2B01F2AD8001A27B
:1029380052F823F07D290008A12A0008C52B0008B9
:10294800E92C00080D2E0008312F0008553000082A
:10295800793100089B320008BD330008DF340008D5
:102968000136000823370008453800086739000891
:10297800013A000847F21433C2F200031B881AB266
:1029880047F22433C2F2000353F8222047F22033DF
:10299800C2F200031B689A4294BF00230123DAB2F3
:1029A80047F21433C2F200031B8819B247F22433EA
:1029B800C2F2000353F8211047F2C423C2F2000305
:1029C8001B6899422CBF00230123DBB21340DBB202
:1029D800002B01F03E8047F21433C2F200031B883B
:1029E8001AB247F21433C2F200031B8819B247F235
:1029F8002433C2F2000353F8211047F27033C2F2B5
:102A080000031B7858B240F27C03C2F200031B6833
:102A180003FB00F3C91847F22433C2F2000343F85A
:102A2800221047F21433C2F200031B881AB247F28D
:102A38002433C2F2000353F8222047F26433C2F26F
:102A480000031B7803FB02F31A4647F2F023C2F295
:102A580000031A6047F20833C2F200031B78032B05
:102A680007D047F2F023C2F200031B68184608F0AB
:102A7800EBFA47F21433C2F200031B881AB247F28A
:102A88002433C2F2000353F8222047F2D023C2F2C3
:102A980000031A6000F0DDBF47F21433C2F20003EE
:102AA8001B881AB247F22433C2F2000353F82220DB
:102AB80047F22033C2F200031B689A4294BF0023F6
:102AC8000123DAB247F21433C2F200031B8819B2A9
:102AD80047F22433C2F2000353F8211047F2C4230B
:102AE800C2F200031B6899422CBF00230123DBB20A
:102AF8001340DBB2002B00F0AE8747F21433C2F26A
:102B080000031B881AB247F21433C2F200031B8871
:102B180019B247F22433C2F2000353F8211047F2E6
:102B28007033C2F200031B7858B240F27C03C2F241
:102B380000031B6803FB00F3C91847F22433C2F2F1
:102B4800000343F8221047F21433C2F200031B8833
:102B58001AB247F22433C2F2000353F8222047F294
:102B68006433C2F200031B7803FB02F31A4647F2F0
:102B7800F023C2F200031A6047F20833C2F20003DE
:102B88001B78032B07D047F2F023C2F200031B681F
:102B9800184608F059FA47F21433C2F200031B88AA
:102BA8001AB247F22433C2F2000353F8222047F244
:102BB800D023C2F200031A6000F04DBF47F214336D
:102BC800C2F200031B881AB247F22433C2F2000390
:102BD80053F8222047F22033C2F200031B689A42BE
:102BE80094BF00230123DAB247F21433C2F2000380
:102BF8001B8819B247F22433C2F2000353F821109C
:102C080047F2C423C2F200031B6899422CBF002379
:102C18000123DBB21340DBB2002B00F01E8747F222
:102C28001433C2F200031B881AB247F21433C2F2FB
:102C380000031B8819B247F22433C2F2000353F889
:102C4800211047F27033C2F200031B7858B240F2E9
:102C58007C03C2F200031B6803FB00F3C91847F2A8
:102C68002433C2F2000343F8221047F21433C2F2AD
:102C780000031B881AB247F22433C2F2000353F848
:102C8800222047F26433C2F200031B7803FB02F3ED
:102C98001A4647F2F023C2F200031A6047F20833DB
:102CA800C2F200031B78032B07D047F2F023C2F2CD
:102CB80000031B68184608F0C7F947F21433C2F23C
:102CC80000031B881AB247F22433C2F2000353F8F8
:102CD800222047F2D023C2F200031A6000F0BDBEE2
:102CE80047F21433C2F200031B881AB247F22433A6
:102CF800C2F2000353F8222047F22033C2F2000345
:102D08001B689A4294BF00230123DAB247F21433B6
:102D1800C2F200031B8819B247F22433C2F200033F
:102D280053F8211047F2C423C2F200031B689942EA
:102D38002CBF00230123DBB21340DBB2002B00F0D1
:102D48008E8647F21433C2F200031B881AB247F288
:102D58001433C2F200031B8819B247F22433C2F2BB
:102D6800000353F8211047F27033C2F200031B78B6
:102D780058B240F27C03C2F200031B6803FB00F365
:102D8800C91847F22433C2F2000343F8221047F26D
:102D98001433C2F200031B881AB247F22433C2F27A
:102DA800000353F8222047F26433C2F200031B7871
:102DB80003FB02F31A4647F2F023C2F200031A603B
:102DC80047F20833C2F200031B78032B07D047F2FF
:102DD800F023C2F200031B68184608F035F947F2E1
:102DE8001433C2F200031B881AB247F22433C2F22A
:102DF800000353F8222047F2D023C2F200031A60DE
:102E080000F02DBE47F21433C2F200031B881AB239
:102E180047F22433C2F2000353F8222047F220334A
:102E2800C2F200031B689A4294BF00230123DAB25E
:102E380047F21433C2F200031B8819B247F2243355
:102E4800C2F2000353F8211047F2C423C2F2000370
:102E58001B6899422CBF00230123DBB21340DBB26D
:102E6800002B00F0FE8547F21433C2F200031B88E2
:102E78001AB247F21433C2F200031B8819B247F2A0
:102E88002433C2F2000353F8211047F27033C2F220
:102E980000031B7858B240F27C03C2F200031B689F
:102EA80003FB00F3C91847F22433C2F2000343F8C6
:102EB800221047F21433C2F200031B881AB247F2F9
:102EC8002433C2F2000353F8222047F26433C2F2DB
:102ED80000031B7803FB02F31A4647F2F023C2F201
:102EE80000031A6047F20833C2F200031B78032B71
:102EF80007D047F2F023C2F200031B68184608F017
:102F0800A3F847F21433C2F200031B881AB247F23F
:102F18002433C2F2000353F8222047F2D023C2F22E
:102F280000031A6000F09DBD47F21433C2F200039B
:102F38001B881AB247F22433C2F2000353F8222046
:102F480047F22033C2F200031B689A4294BF002361
:102F58000123DAB247F21433C2F200031B8819B214
:102F680047F22433C2F2000353F8211047F2C42376
:102F7800C2F200031B6899422CBF00230123DBB275
:102F88001340DBB2002B00F06E8547F21433C2F217
:102F980000031B881AB247F21433C2F200031B88DD
:102FA80019B247F22433C2F2000353F8211047F252
:102FB8007033C2F200031B7858B240F27C03C2F2AD
:102FC80000031B6803FB00F3C91847F22433C2F25D
:102FD800000343F8221047F21433C2F200031B889F
:102FE8001AB247F22433C2F2000353F8222047F200
:102FF8006433C2F200031B7803FB02F31A4647F25C
:10300800F023C2F200031A6047F20833C2F2000349
:103018001B78032B07D047F2F023C2F200031B688A
:10302800184608F011F847F21433C2F200031B885F
:103038001AB247F22433C2F2000353F8222047F2AF
:10304800D023C2F200031A6000F00DBD47F214331A
:10305800C2F200031B881AB247F22433C2F20003FB
:1030680053F8222047F22033C2F200031B689A4229
:1030780094BF00230123DAB247F21433C2F20003EB
:103088001B8819B247F22433C2F2000353F8211007
:1030980047F2C423C2F200031B6899422CBF0023E5
:1030A8000123DBB21340DBB2002B00F0DE8447F2D1
:1030B8001433C2F200031B881AB247F21433C2F267
:1030C80000031B8819B247F22433C2F2000353F8F5
:1030D800211047F27033C2F200031B7858B240F255
:1030E8007C03C2F200031B6803FB00F3C91847F214
:1030F8002433C2F2000343F8221047F21433C2F219
:1031080000031B881AB247F22433C2F2000353F8B3
:10311800222047F26433C2F200031B7803FB02F358
:103128001A4647F2F023C2F200031A6047F2083346
:10313800C2F200031B78032B07D047F2F023C2F238
:1031480000031B68184607F07FFF47F21433C2F2EA
:1031580000031B881AB247F22433C2F2000353F863
:10316800222047F2D023C2F200031A6000F07DBC8F
:1031780047F21433C2F200031B881AB247F2243311
:10318800C2F2000353F8222047F22033C2F20003B0
:103198001B689A4294BF00230123DAB247F2143322
:1031A800C2F200031B8819B247F22433C2F20003AB
:1031B80053F8211047F2C423C2F200031B68994256
:1031C8002CBF00230123DBB21340DBB2002B00F03D
:1031D8004E8447F21433C2F200031B881AB247F236
:1031E8001433C2F200031B8819B247F22433C2F227
:1031F800000353F8211047F27033C2F200031B7822
:1032080058B240F27C03C2F200031B6803FB00F3D0
:10321800C91847F22433C2F2000343F8221047F2D8
:103228001433C2F200031B881AB247F22433C2F2E5
:10323800000353F8222047F26433C2F200031B78DC
:1032480003FB02F31A4647F2F023C2F200031A60A6
:1032580047F20833C2F200031B78032B07D047F26A
:10326800F023C2F200031B68184607F0EDFE47F290
:103278001433C2F200031B881AB247F22433C2F295
:10328800000353F8222047F2D023C2F200031A6049
:10329800EDE347F21433C2F200031B881AB247F277
:1032A8002433C2F2000353F8222047F22033C2F23B
:1032B80000031B689A4294BF00230123DAB247F245
:1032C8001433C2F200031B8819B247F22433C2F246
:1032D800000353F8211047F2C423C2F200031B680D
:1032E80099422CBF00230123DBB21340DBB2002B31
:1032F80000F0BF8347F21433C2F200031B881AB2EE
:1033080047F21433C2F200031B8819B247F2243380
:10331800C2F2000353F8211047F27033C2F20003DF
:103328001B7858B240F27C03C2F200031B6803FB0F
:1033380000F3C91847F22433C2F2000343F82210FD
:1033480047F21433C2F200031B881AB247F224333F
:10335800C2F2000353F8222047F26433C2F200039A
:103368001B7803FB02F31A4647F2F023C2F200036C
:103378001A6047F20833C2F200031B78032B07D008
:1033880047F2F023C2F200031B68184607F05CFE00
:1033980047F21433C2F200031B881AB247F22433EF
:1033A800C2F2000353F8222047F2D023C2F20003EE
:1033B8001A605EE347F21433C2F200031B881AB2A4
:1033C80047F22433C2F2000353F8222047F2203395
:1033D800C2F200031B689A4294BF00230123DAB2A9
:1033E80047F21433C2F200031B8819B247F22433A0
:1033F800C2F2000353F8211047F2C423C2F20003BB
:103408001B6899422CBF00230123DBB21340DBB2B7
:10341800002B00F0308347F21433C2F200031B88FC
:103428001AB247F21433C2F200031B8819B247F2EA
:103438002433C2F2000353F8211047F27033C2F26A
:1034480000031B7858B240F27C03C2F200031B68E9
:1034580003FB00F3C91847F22433C2F2000343F810
:10346800221047F21433C2F200031B881AB247F243
:103478002433C2F2000353F8222047F26433C2F225
:1034880000031B7803FB02F31A4647F2F023C2F24B
:1034980000031A6047F20833C2F200031B78032BBB
:1034A80007D047F2F023C2F200031B68184607F062
:1034B800CBFD47F21433C2F200031B881AB247F25D
:1034C8002433C2F2000353F8222047F2D023C2F279
:1034D80000031A60CFE247F21433C2F200031B88DC
:1034E8001AB247F22433C2F2000353F8222047F2FB
:1034F8002033C2F200031B689A4294BF00230123C1
:10350800DAB247F21433C2F200031B8819B247F249
:103518002433C2F2000353F8211047F2C423C2F245
:1035280000031B6899422CBF00230123DBB2134020
:10353800DBB2002B00F0A18247F21433C2F2000381
:103548001B881AB247F21433C2F200031B8819B25F
:1035580047F22433C2F2000353F8211047F27033C4
:10356800C2F200031B7858B240F27C03C2F2000397
:103578001B6803FB00F3C91847F22433C2F20003A7
:1035880043F8221047F21433C2F200031B881AB220
:1035980047F22433C2F2000353F8222047F264337F
:1035A800C2F200031B7803FB02F31A4647F2F0232A
:1035B800C2F200031A6047F20833C2F200031B7814
:1035C800032B07D047F2F023C2F200031B6818460A
:1035D80007F03AFD47F21433C2F200031B881AB20F
:1035E80047F22433C2F2000353F8222047F2D023D3
:1035F800C2F200031A6040E247F21433C2F2000339
:103608001B881AB247F22433C2F2000353F822206F
:1036180047F22033C2F200031B689A4294BF00238A
:103628000123DAB247F21433C2F200031B8819B23D
:1036380047F22433C2F2000353F8211047F2C4239F
:10364800C2F200031B6899422CBF00230123DBB29E
:103658001340DBB2002B00F0128247F21433C2F29F
:1036680000031B881AB247F21433C2F200031B8806
:1036780019B247F22433C2F2000353F8211047F27B
:103688007033C2F200031B7858B240F27C03C2F2D6
:1036980000031B6803FB00F3C91847F22433C2F286
:1036A800000343F8221047F21433C2F200031B88C8
:1036B8001AB247F22433C2F2000353F8222047F229
:1036C8006433C2F200031B7803FB02F31A4647F285
:1036D800F023C2F200031A6047F20833C2F2000373
:1036E8001B78032B07D047F2F023C2F200031B68B4
:1036F800184607F0A9FC47F21433C2F200031B88EE
:103708001AB247F22433C2F2000353F8222047F2D8
:10371800D023C2F200031A60B1E147F21433C2F2B7
:1037280000031B881AB247F22433C2F2000353F88D
:10373800222047F22033C2F200031B689A4294BF4A
:1037480000230123DAB247F21433C2F200031B88C4
:1037580019B247F22433C2F2000353F8211047F29A
:10376800C423C2F200031B6899422CBF0023012323
:10377800DBB21340DBB2002B00F0838147F2143335
:10378800C2F200031B881AB247F21433C2F20003D4
:103798001B8819B247F22433C2F2000353F82110F0
:1037A80047F27033C2F200031B7858B240F27C0330
:1037B800C2F200031B6803FB00F3C91847F2243365
:1037C800C2F2000343F8221047F21433C2F2000396
:1037D8001B881AB247F22433C2F2000353F822209E
:1037E80047F26433C2F200031B7803FB02F31A4664
:1037F80047F2F023C2F200031A6047F20833C2F21C
:1038080000031B78032B07D047F2F023C2F2000312
:103818001B68184607F018FC47F21433C2F200037D
:103828001B881AB247F22433C2F2000353F822204D
:1038380047F2D023C2F200031A6022E147F21433A0
:10384800C2F200031B881AB247F22433C2F2000303
:1038580053F8222047F22033C2F200031B689A4231
:1038680094BF00230123DAB247F21433C2F20003F3
:103878001B8819B247F22433C2F2000353F821100F
:1038880047F2C423C2F200031B6899422CBF0023ED
:103898000123DBB21340DBB2002B00F0F48047F2C7
:1038A8001433C2F200031B881AB247F21433C2F26F
:1038B80000031B8819B247F22433C2F2000353F8FD
:1038C800211047F27033C2F200031B7858B240F25D
:1038D8007C03C2F200031B6803FB00F3C91847F21C
:1038E8002433C2F2000343F8221047F21433C2F221
:1038F80000031B881AB247F22433C2F2000353F8BC
:10390800222047F26433C2F200031B7803FB02F360
:103918001A4647F2F023C2F200031A6047F208334E
:10392800C2F200031B78032B07D047F2F023C2F240
:1039380000031B68184607F087FB47F21433C2F2EE
:1039480000031B881AB247F22433C2F2000353F86B
:10395800222047F2D023C2F200031A6093E047F214
:10396800F823C2F20003D3E900231046194648A3FE
:10397800D3E900231EF00EFF0346002B09D047F2BF
:10398800F823C2F2000344A1D1E90001C3E9000110
:1039980008E047F2F823C2F200033DA1D1E9000193
:1039A800C3E9000147F20833C2F200031B78032B76
:1039B80001D007F0ABFB47F2F823C2F20003D3E9CA
:1039C8000023104619461EF03FFF024647F2D02357
:1039D800C2F200031A6047F2F823C2F20003D3E9E7
:1039E8000023104619461EF02FFF024647F22433E3
:1039F800C2F200039A6347E047F26433C2F200035D
:103A08001B78042B07D147F26433C2F200034FF04E
:103A180002021A7006E047F26433C2F200034FF064
:103A280004021A7047F26433C2F200031B781A4684
:103A380047F2D023C2F200031A6047F26433C2F29D
:103A480000031B781A4647F22433C2F20003DA63F4
:103A58001AE000BF18E000BF16E000BF14E000BF86
:103A680012E000BF10E000BF0EE000BF0CE000BF96
:103A78000AE000BF08E000BF06E000BF04E000BFA6
:103A880002E000BF00E000BF00F0DAFC03B000BDB8
:103A98000000000000DB8A4100000000D0126341F2
:103AA80008B54FF48050C4F202001BF052FD0346E3
:103AB8006FEA03034FEAE3039BB203F00F039AB2E2
:103AC80047F21433C2F200031A8008BD08B547F262
:103AD8001433C2F200031B881BB20F2B00F20D84B3
:103AE80001A252F823F000BF313B0008B93B00089F
:103AF800413C0008C93C0008513D0008D93D000878
:103B0800613E0008E93E0008713F0008F93F0008DF
:103B18008140000809410008914100081942000845
:103B2800A1420008D742000847F21433C2F200034A
:103B38001B881AB247F22433C2F2000353F822203A
:103B480047F26433C2F200031B7803FB02F31A4600
:103B580047F2F023C2F200031A6047F20833C2F2B8
:103B680000031B78032B07D047F2F023C2F20003AF
:103B78001B68184607F068FA47F21433C2F20003CC
:103B88001B881AB247F22433C2F2000353F82220EA
:103B980047F2D023C2F200031A604FF0EA004FF058
:103BA800140148F2A062C0F6020207F0AFFFA4E3D6
:103BB80047F21433C2F200031B881AB247F22433C7
:103BC800C2F2000353F8222047F26433C2F2000322
:103BD8001B7803FB02F31A4647F2F023C2F20003F4
:103BE8001A6047F20833C2F200031B78032B07D090
:103BF80047F2F023C2F200031B68184607F024FAC4
:103C080047F21433C2F200031B881AB247F2243376
:103C1800C2F2000353F8222047F2D023C2F2000375
:103C28001A604FF0EA004FF0140148F2AC62C0F697
:103C3800020207F06BFF60E347F21433C2F200039D
:103C48001B881AB247F22433C2F2000353F8222029
:103C580047F26433C2F200031B7803FB02F31A46EF
:103C680047F2F023C2F200031A6047F20833C2F2A7
:103C780000031B78032B07D047F2F023C2F200039E
:103C88001B68184607F0E0F947F21433C2F2000344
:103C98001B881AB247F22433C2F2000353F82220D9
:103CA80047F2D023C2F200031A604FF0EA004FF047
:103CB800140148F2B862C0F6020207F027FF1CE3BD
:103CC80047F21433C2F200031B881AB247F22433B6
:103CD800C2F2000353F8222047F26433C2F2000311
:103CE8001B7803FB02F31A4647F2F023C2F20003E3
:103CF8001A6047F20833C2F200031B78032B07D07F
:103D080047F2F023C2F200031B68184607F09CF93B
:103D180047F21433C2F200031B881AB247F2243365
:103D2800C2F2000353F8222047F2D023C2F2000364
:103D38001A604FF0EA004FF0140148F2C462C0F66E
:103D4800020207F0E3FED8E247F21433C2F200039E
:103D58001B881AB247F22433C2F2000353F8222018
:103D680047F26433C2F200031B7803FB02F31A46DE
:103D780047F2F023C2F200031A6047F20833C2F296
:103D880000031B78032B07D047F2F023C2F200038D
:103D98001B68184607F058F947F21433C2F20003BB
:103DA8001B881AB247F22433C2F2000353F82220C8
:103DB80047F2D023C2F200031A604FF0EA004FF036
:103DC800140148F2D062C0F6020207F09FFE94E2A6
:103DD80047F21433C2F200031B881AB247F22433A5
:103DE800C2F2000353F8222047F26433C2F2000300
:103DF8001B7803FB02F31A4647F2F023C2F20003D2
:103E08001A6047F20833C2F200031B78032B07D06D
:103E180047F2F023C2F200031B68184607F014F9B2
:103E280047F21433C2F200031B881AB247F2243354
:103E3800C2F2000353F8222047F2D023C2F2000353
:103E48001A604FF0EA004FF0140148F2DC62C0F645
:103E5800020207F05BFE50E247F21433C2F200039D
:103E68001B881AB247F22433C2F2000353F8222007
:103E780047F26433C2F200031B7803FB02F31A46CD
:103E880047F2F023C2F200031A6047F20833C2F285
:103E980000031B78032B07D047F2F023C2F200037C
:103EA8001B68184607F0D0F847F21433C2F2000333
:103EB8001B881AB247F22433C2F2000353F82220B7
:103EC80047F2D023C2F200031A604FF0EA004FF025
:103ED800140148F2E862C0F6020207F017FE0CE28D
:103EE80047F21433C2F200031B881AB247F2243394
:103EF800C2F2000353F8222047F26433C2F20003EF
:103F08001B7803FB02F31A4647F2F023C2F20003C0
:103F18001A6047F20833C2F200031B78032B07D05C
:103F280047F2F023C2F200031B68184607F08CF82A
:103F380047F21433C2F200031B881AB247F2243343
:103F4800C2F2000353F8222047F2D023C2F2000342
:103F58001A604FF0EA004FF0140148F2F462C0F61C
:103F6800020207F0D3FDC8E147F21433C2F200039E
:103F78001B881AB247F22433C2F2000353F82220F6
:103F880047F26433C2F200031B7803FB02F31A46BC
:103F980047F2F023C2F200031A6047F20833C2F274
:103FA80000031B78032B07D047F2F023C2F200036B
:103FB8001B68184607F048F847F21433C2F20003AA
:103FC8001B881AB247F22433C2F2000353F82220A6
:103FD80047F2D023C2F200031A604FF0EA004FF014
:103FE800140148F20072C0F6020207F08FFD84E166
:103FF80047F21433C2F200031B881AB247F2243383
:10400800C2F2000353F8222047F26433C2F20003DD
:104018001B7803FB02F31A4647F2F023C2F20003AF
:104028001A6047F20833C2F200031B78032B07D04B
:1040380047F2F023C2F200031B68184607F004F8A1
:1040480047F21433C2F200031B881AB247F2243332
:10405800C2F2000353F8222047F2D023C2F2000331
:104068001A604FF0EA004FF0140148F20C72C0F6E3
:10407800020207F04BFD40E147F21433C2F200039D
:104088001B881AB247F22433C2F2000353F82220E5
:1040980047F26433C2F200031B7803FB02F31A46AB
:1040A80047F2F023C2F200031A6047F20833C2F263
:1040B80000031B78032B07D047F2F023C2F200035A
:1040C8001B68184606F0C0FF47F21433C2F200031B
:1040D8001B881AB247F22433C2F2000353F8222095
:1040E80047F2D023C2F200031A604FF0EA004FF003
:1040F800140148F21872C0F6020207F007FDFCE04E
:1041080047F21433C2F200031B881AB247F2243371
:10411800C2F2000353F8222047F26433C2F20003CC
:104128001B7803FB02F31A4647F2F023C2F200039E
:104138001A6047F20833C2F200031B78032B07D03A
:1041480047F2F023C2F200031B68184606F07CFF12
:1041580047F21433C2F200031B881AB247F2243321
:10416800C2F2000353F8222047F2D023C2F2000320
:104178001A604FF0EA004FF0140148F22472C0F6BA
:10418800020207F0C3FCB8E047F21433C2F200039E
:104198001B881AB247F22433C2F2000353F82220D4
:1041A80047F26433C2F200031B7803FB02F31A469A
:1041B80047F2F023C2F200031A6047F20833C2F252
:1041C80000031B78032B07D047F2F023C2F2000349
:1041D8001B68184606F038FF47F21433C2F2000392
:1041E8001B881AB247F22433C2F2000353F8222084
:1041F80047F2D023C2F200031A604FF0EA004FF0F2
:10420800140148F23072C0F6020207F07FFC74E035
:1042180047F21433C2F200031B881AB247F2243360
:10422800C2F2000353F8222047F26433C2F20003BB
:104238001B7803FB02F31A4647F2F023C2F200038D
:104248001A6047F20833C2F200031B78032B07D029
:1042580047F2F023C2F200031B68184606F0F4FE8A
:1042680047F21433C2F200031B881AB247F2243310
:10427800C2F2000353F8222047F2D023C2F200030F
:104288001A604FF0EA004FF0140148F23C72C0F691
:10429800020207F03BFC30E047F2F823C2F20003C9
:1042A800D3E90023104619461EF0CEFA024647F21B
:1042B800D023C2F200031A604FF0EA004FF0140155
:1042C80048F24872C0F6020207F020FC15E047F2F7
:1042D8006433C2F200031B781A4647F2D023C2F2B5
:1042E80000031A604FF0EA004FF0140148F25472CC
:1042F800C0F6020207F00AFC00BF00F0A1F808BDF2
:1043080040F27C03C2F200031B68642B30D0642B9C
:1043180004D8012B3CD00A2B32D041E042F2107273
:10432800934213D048F2A062C0F20102934203D034
:10433800B3F57A7F14D033E040F27C03C2F2000375
:1043480048F2A062C0F201021A6029E040F27C0340
:10435800C2F2000348F2A062C0F201021A601FE034
:1043680040F27C03C2F2000342F210721A6017E0B6
:1043780040F27C03C2F200034FF47A721A600FE035
:1043880040F27C03C2F200034FF064021A6007E0B7
:1043980040F27C03C2F200034FF00A021A6000BF29
:1043A800704700BF40F27C03C2F200031B68642B15
:1043B8002CD0642B04D8012B38D00A2B2ED03DE00A
:1043C80042F21072934211D048F2A062C0F2010288
:1043D800934203D0B3F57A7F10D02FE040F27C03EC
:1043E800C2F2000342F210721A6027E040F27C0326
:1043F800C2F200034FF47A721A601FE040F27C03A5
:10440800C2F200034FF064021A6017E040F27C0326
:10441800C2F200034FF00A021A600FE040F27C0378
:10442800C2F200034FF001021A6007E040F27C0379
:10443800C2F200034FF001021A6000BF704700BFCC
:1044480008B547F2D023C2F200031A6840F27C0391
:10445800C2F200031B6810464FF0EA014FF0000259
:1044680008F0BCF908BD00BF00B583B04FF00400E8
:104478004FF001011BF0B0FB4FF480404FF00101F9
:104488001BF0DAFB4FF000038DF804304FF0010306
:104498008DF807304FF01E0300936B464FF4006011
:1044A800C4F2020019461AF0EFFF4FF002004FF075
:1044B80001011BF091FB4FF000038DF804304FF021
:1044C80001038DF807304FF0B00300936B464FF4AB
:1044D8008060C4F2020019461AF0D6FF4FF48040FB
:1044E8004FF001011BF0A8FB4FF001004FF007014E
:1044F8001BF030FE47F26833C2F200034FF080022F
:104508001A6047F26833C2F200034FF000021A71D2
:1045180047F26833C2F200034FF00C025A7147F2B7
:104528006833C2F200034FF001029A7147F2683013
:10453800C2F200001AF0ACFA03B000BD40F6F873FE
:10454800C2F200034FF000021A8040F6F873C2F27C
:1045580000034FF014025A8040F6F873C2F20003C9
:104568004FF014029A8040F6F873C2F200034FF03D
:104578000002DA8040F6F873C2F200034FF000023E
:104588001A8140F6F873C2F200034FF000025A8114
:1045980040F6F873C2F2000341F288329A8140F67D
:1045A800F873C2F200034FF00002DA8140F6F873A4
:1045B800C2F2000341F288321A8240F6F873C2F25E
:1045C80000034FF000025A8240F6F873C2F200036B
:1045D8004FF000029A8240F6F873C2F200034FF0DF
:1045E8000002DA8240F6F873C2F200034FF00002CC
:1045F8001A8340F6F873C2F200034FF000025A83A0
:1046080040F6F873C2F200034FF000029A8340F6B6
:10461800F873C2F200034FF00002DA83704700BF5C
:1046280040F6C473C2F200034FF681721A8040F656
:10463800C473C2F200034FF000025A8040F6C473FC
:10464800C2F200034FF000029A8040F6C473C2F22F
:1046580000034FF68172DA8040F6C473C2F2000399
:104668004FF681721A8140F6C473C2F200034FF00C
:1046780000025A8140F6C473C2F200034FF47A7202
:104688009A8140F6C473C2F200034DF6F002DA8153
:1046980040F6C473C2F200034FF47A721A8240F6ED
:1046A800C473C2F200034DF6F0025A8240F6C47396
:1046B800C2F200034FF000029A8240F6C473C2F2BD
:1046C80000034FF00002DA8240F6C473C2F200031E
:1046D8004FF000021A8340F6C473C2F200034FF091
:1046E80000025A8340F6C473C2F200034FF000027E
:1046F8009A8340F6C473C2F200034FF00002DA83D3
:10470800704700BF40F64473C2F200034FF0300216
:104718001A8040F64473C2F200034FF050025A80E8
:1047280040F64473C2F200034FF050029A8040F6FC
:104738004473C2F200034FF01D02DA8040F644735E
:10474800C2F200034FF01D021A8140F64473C2F210
:1047580000034FF01D025A8140F64473C2F2000371
:1047680042F210729A8140F64473C2F2000342F298
:104778001072DA8140F64473C2F2000342F21072FA
:104788001A8240F64473C2F2000342F210725A824F
:1047980040F64473C2F200034FF001029A8240F6D9
:1047A8004473C2F200034FF06402DA8240F64473A5
:1047B800C2F200034FF064021A8340F64473C2F257
:1047C80000034FF064025A8340F64473C2F20003B8
:1047D8004FF064029A8340F64473C2F200034FF02C
:1047E8006402DA83704700BF40F66C73C2F20003BC
:1047F8004FF004021A8040F66C73C2F200034FF0C7
:1048080001025A8040F66C73C2F200034FF00102B5
:104818009A8040F66C73C2F200034FF00102DA800E
:1048280040F66C73C2F200034FF001021A8140F6A1
:104838006C73C2F200034FF001025A8140F66C73A8
:10484800C2F200034FF00A029A8140F66C73C2F27A
:1048580000034FF00A02DA8140F66C73C2F20003DB
:104868004FF00A021A8240F66C73C2F200034FF04E
:104878000A025A8240F66C73C2F200034FF001023A
:104888009A8240F66C73C2F200034FF00102DA829A
:1048980040F66C73C2F200034FF001021A8340F62F
:1048A8006C73C2F200034FF001025A8340F66C7336
:1048B800C2F200034FF001029A8340F66C73C2F211
:1048C80000034FF00102DA83704700BF08B54FF0CC
:1048D800320008F0AFF803461A4640F6E873C2F211
:1048E80000031A8040F6E873C2F200031B881AB26C
:1048F80041F22E639A4209D0FFF720FE08F0AAF988
:104908004FF0320041F22E6108F052F808F0C4F975
:10491800FFF786FEFFF7F6FEFFF766FF40F6F8732F
:10492800C2F200039B891BB207EE903AB8EEE77A11
:10493800DFED4C7AC7EE277A40F6C073C2F2000367
:10494800C3ED007A40F6F873C2F20003DB891BB2AC
:1049580007EE903AB8EEE77ADFED427AC7EE277AAB
:1049680040F6E473C2F20003C3ED007A40F6F87330
:10497800C2F200039B891BB207EE903AB8EEE77AC1
:10498800DFED387AC7EE277A40F69473C2F2000357
:10499800C3ED007A40F6F873C2F20003DB891BB25C
:1049A80007EE903AB8EEE77ADFED2E7AC7EE277A6F
:1049B80040F6F473C2F20003C3ED007A40F6407388
:1049C800C2F20003284A1A604FF000004FF0DC01E1
:1049D80048F26072C0F6020207F098F840F6687371
:1049E800C2F200034FF000021A804FF494704FF0A7
:1049F800DC0148F26472C0F6020207F087F8FBF7A0
:104A0800EDFB47F27433C2F200034FF002021A8042
:104A180001F06AFB01F07EFB40F6F873C2F2000376
:104A28001B881BB21846FBF783FD40F6F873C2F2E9
:104A380000035B881BB21846FBF742FD40F6F8738B
:104A4800C2F200039B8A002B01D1FBF70BFE40F654
:104A5800F873C2F200039B8A1BB2012B01D1FBF74A
:104A6800E7FD08BD00401C460000003F00B583B0CC
:104A78004FF0640003F082F840F6F253C2F20003EC
:104A88001B784FEA8303DAB240F6F253C2F200030E
:104A98001A704FF48060C4F202001AF05AFD0346FF
:104AA8004FEA13139BB2DBB203F00303DAB240F60A
:104AB800F253C2F200031B78DBB21343DBB2DAB263
:104AC80040F6F253C2F200031A7040F6F253C2F2F3
:104AD80000031B7803F00F0240F29003C2F20003B8
:104AE8009B5C8DF8073040F6F353C2F200031B7845
:104AF800DAB29DF80730D318DBB2DAB240F6F353D6
:104B0800C2F200031A7040F6F353C2F200031B7896
:104B18005BB29AB247F27433C2F200031B8812B236
:104B28001BB29A4216DA40F6F353C2F200031B781E
:104B38005AB247F27433C2F200031B881BB2C3F1A6
:104B480000039A4206DD47F27233C2F200034FF0C7
:104B580000021A7040F6F353C2F200031B785BB2EE
:104B68009AB247F27433C2F200031B8812B21BB226
:104B78009A420DDB47F27233C2F200034FF0010292
:104B88001A7040F6F353C2F200034FF000021A7095
:104B980040F6F353C2F200031B785AB247F274335B
:104BA800C2F200031B881BB2C3F100039A420DDC5A
:104BB80047F27233C2F200034FF0FF021A7040F658
:104BC800F353C2F200034FF000021A7047F2723337
:104BD800C2F200031B78002B01F0758201F084FA01
:104BE80040F6EA73C2F200031B881BB20A2B01F2DB
:104BF8006A8201A252F823F02D4C0008014E0008E9
:104C0800D54F0008BB510008A1530008875500087C
:104C18006D57000845590008215B0008F95C000839
:104C2800D15E000840F6EA73C2F200031B881AB28C
:104C380040F6F873C2F2000333F8122040F6EA7324
:104C4800C2F200031B8819B240F6C473C2F2000313
:104C580033F8113012B21BB29A42D4BF0023012399
:104C6800DAB247F27233C2F200031B784FEAD31369
:104C7800DBB21340DBB2002B32D040F6EA73C2F24B
:104C880000031B881AB240F6EA73C2F200031B88BD
:104C980019B240F6F873C2F2000333F8113099B232
:104CA80040F6EA73C2F200031B8818B240F66C7330
:104CB800C2F2000333F8103098B247F27233C2F2EE
:104CC80000031B785BB29BB203FB00F39BB2CB18CB
:104CD8009BB299B240F6F873C2F2000323F812109F
:104CE80040F6EA73C2F200031B881AB240F6F87362
:104CF800C2F2000333F8122040F6EA73C2F200034E
:104D08001B8819B240F64473C2F2000333F811301D
:104D180012B21BB29A42ACBF00230123DAB247F2A7
:104D28007233C2F200031B785BB2002BD4BF00239E
:104D38000123DBB21340DBB2002B32D040F6EA731A
:104D4800C2F200031B881AB240F6EA73C2F20003EB
:104D58001B8819B240F6F873C2F2000333F8113019
:104D680099B240F6EA73C2F200031B8818B240F603
:104D78006C73C2F2000333F8103098B247F2723302
:104D8800C2F200031B785BB29BB203FB00F39BB239
:104D9800CB189BB299B240F6F873C2F2000323F81D
:104DA800121040F6EA73C2F200031B881AB240F6EA
:104DB800F873C2F2000333F8122040F6B873C2F257
:104DC80000031A8040F66873C2F200031B88002BA8
:104DD80041F06C8140F6EA73C2F200031B881AB2F4
:104DE80040F6F873C2F2000333F812301BB21846CB
:104DF800FBF79EFB01F05AB940F6EA73C2F20003D2
:104E08001B881AB240F6F873C2F2000333F8122076
:104E180040F6EA73C2F200031B8819B240F6C47365
:104E2800C2F2000333F8113012B21BB29A42D4BF57
:104E380000230123DAB247F27233C2F200031B786F
:104E48004FEAD313DBB21340DBB2002B32D040F66B
:104E5800EA73C2F200031B881AB240F6EA73C2F280
:104E680000031B8819B240F6F873C2F2000333F846
:104E7800113099B240F6EA73C2F200031B8818B2E7
:104E880040F66C73C2F2000333F8103098B247F260
:104E98007233C2F200031B785BB29BB203FB00F3D0
:104EA8009BB2CB189BB299B240F6F873C2F20003DA
:104EB80023F8121040F6EA73C2F200031B881AB2F4
:104EC80040F6F873C2F2000333F8122040F6EA7392
:104ED800C2F200031B8819B240F64473C2F2000301
:104EE80033F8113012B21BB29A42ACBF002301232F
:104EF800DAB247F27233C2F200031B785BB2002BBE
:104F0800D4BF00230123DBB21340DBB2002B32D025
:104F180040F6EA73C2F200031B881AB240F6EA733D
:104F2800C2F200031B8819B240F6F873C2F20003FC
:104F380033F8113099B240F6EA73C2F200031B88C5
:104F480018B240F66C73C2F2000333F8103098B20E
:104F580047F27233C2F200031B785BB29BB203FBC9
:104F680000F39BB2CB189BB299B240F6F873C2F229
:104F7800000323F8121040F6EA73C2F200031B88FC
:104F88001AB240F6F873C2F2000333F8122040F662
:104F9800B873C2F200031A8040F66873C2F20003C5
:104FA8001B88002B41F0848040F6EA73C2F20003AC
:104FB8001B881AB240F6F873C2F2000333F81230B5
:104FC8001BB21846FBF77CFA01F072B840F6EA7398
:104FD800C2F200031B881AB240F6F873C2F200034B
:104FE80033F8122040F6EA73C2F200031B8819B2A4
:104FF80040F6C473C2F2000333F8113012B21BB288
:105008009A42D4BF00230123DAB247F27233C2F2C4
:1050180000031B784FEAD313DBB21340DBB2002B3B
:1050280032D040F6EA73C2F200031B881AB240F687
:10503800EA73C2F200031B8819B240F6F873C2F291
:10504800000333F8113099B240F6EA73C2F2000354
:105058001B8818B240F66C73C2F2000333F81030A4
:1050680098B247F27233C2F200031B785BB29BB26C
:1050780003FB00F39BB2CB189BB299B240F6F873CE
:10508800C2F2000323F8121040F6EA73C2F20003DA
:105098001B881AB240F6F873C2F2000333F81220E4
:1050A80040F6EA73C2F200031B8819B240F6447353
:1050B800C2F2000333F8113012B21BB29A42ACBFED
:1050C80000230123DAB247F27233C2F200031B78DD
:1050D8005BB2002BD4BF00230123DBB21340DBB249
:1050E800002B32D040F6EA73C2F200031B881AB2D2
:1050F80040F6EA73C2F200031B8819B240F6F8734F
:10510800C2F2000333F8113099B240F6EA73C2F2E2
:1051180000031B8818B240F66C73C2F2000333F820
:10512800103098B247F27233C2F200031B785BB2B8
:105138009BB203FB00F39BB2CB189BB299B240F62B
:10514800F873C2F2000323F8121040F6EA73C2F2B1
:1051580000031B881AB240F6F873C2F2000333F852
:10516800122040F6B873C2F200031A8040F6687342
:10517800C2F200031B881BB2012B40F09B8740F64C
:10518800F453C2F200031B88002B40F0938740F6CB
:10519800EA73C2F200031B881AB240F6F873C2F22F
:1051A800000333F812301BB21846FBF789F900F0F8
:1051B80081BF40F6EA73C2F200031B881AB240F6B8
:1051C800F873C2F2000333F8122040F6EA73C2F211
:1051D80000031B8819B240F6C473C2F2000333F807
:1051E800113012B21BB29A42D4BF00230123DAB2A3
:1051F80047F27233C2F200031B784FEAD313DBB2D3
:105208001340DBB2002B32D040F6EA73C2F200033F
:105218001B881AB240F6EA73C2F200031B8819B25F
:1052280040F6F873C2F2000333F8113099B240F631
:10523800EA73C2F200031B8818B240F66C73C2F21C
:10524800000333F8103098B247F27233C2F2000309
:105258001B785BB29BB203FB00F39BB2CB189BB2EB
:1052680099B240F6F873C2F2000323F8121040F620
:10527800EA73C2F200031B881AB240F6F873C2F24E
:10528800000333F8122040F6EA73C2F200031B88C9
:1052980019B240F64473C2F2000333F8113012B267
:1052A8001BB29A42ACBF00230123DAB247F2723331
:1052B800C2F200031B785BB2002BD4BF002301238A
:1052C800DBB21340DBB2002B32D040F6EA73C2F2F5
:1052D80000031B881AB240F6EA73C2F200031B8867
:1052E80019B240F6F873C2F2000333F8113099B2DC
:1052F80040F6EA73C2F200031B8818B240F66C73DA
:10530800C2F2000333F8103098B247F27233C2F297
:1053180000031B785BB29BB203FB00F39BB2CB1874
:105328009BB299B240F6F873C2F2000323F8121048
:1053380040F6EA73C2F200031B881AB240F6F8730B
:10534800C2F2000333F8122040F6B873C2F2000329
:105358001A8040F66873C2F200031B881BB2012B47
:1053680040F0AA8640F6F453C2F200031B88012BD2
:1053780040F0A28640F6EA73C2F200031B881AB214
:1053880040F6F873C2F2000333F812301BB2184625
:10539800FBF7CEF800F090BE40F6EA73C2F20003C5
:1053A8001B881AB240F6F873C2F2000333F81220D1
:1053B80040F6EA73C2F200031B8819B240F6C473C0
:1053C800C2F2000333F8113012B21BB29A42D4BFB2
:1053D80000230123DAB247F27233C2F200031B78CA
:1053E8004FEAD313DBB21340DBB2002B32D040F6C6
:1053F800EA73C2F200031B881AB240F6EA73C2F2DB
:1054080000031B8819B240F6F873C2F2000333F8A0
:10541800113099B240F6EA73C2F200031B8818B241
:1054280040F66C73C2F2000333F8103098B247F2BA
:105438007233C2F200031B785BB29BB203FB00F32A
:105448009BB2CB189BB299B240F6F873C2F2000334
:1054580023F8121040F6EA73C2F200031B881AB24E
:1054680040F6F873C2F2000333F8122040F6EA73EC
:10547800C2F200031B8819B240F64473C2F200035B
:1054880033F8113012B21BB29A42ACBF0023012389
:10549800DAB247F27233C2F200031B785BB2002B18
:1054A800D4BF00230123DBB21340DBB2002B32D080
:1054B80040F6EA73C2F200031B881AB240F6EA7398
:1054C800C2F200031B8819B240F6F873C2F2000357
:1054D80033F8113099B240F6EA73C2F200031B8820
:1054E80018B240F66C73C2F2000333F8103098B269
:1054F80047F27233C2F200031B785BB29BB203FB24
:1055080000F39BB2CB189BB299B240F6F873C2F283
:10551800000323F8121040F6EA73C2F200031B8856
:105528001AB240F6F873C2F2000333F8122040F6BC
:10553800B873C2F200031A8040F66873C2F200031F
:105548001B881BB2012B40F0B98540F6F453C2F218
:1055580000031B88022B40F0B18540F6EA73C2F2C3
:1055680000031B881AB240F6F873C2F2000333F83E
:1055780012301BB21846FAF7DBFF00F09FBD40F669
:10558800EA73C2F200031B881AB240F6F873C2F23B
:10559800000333F8122040F6EA73C2F200031B88B6
:1055A80019B240F6C473C2F2000333F8113012B2D4
:1055B8001BB29A42D4BF00230123DAB247F27233F6
:1055C800C2F200031B784FEAD313DBB21340DBB2FD
:1055D800002B32D040F6EA73C2F200031B881AB2DD
:1055E80040F6EA73C2F200031B8819B240F6F8735A
:1055F800C2F2000333F8113099B240F6EA73C2F2EE
:1056080000031B8818B240F66C73C2F2000333F82B
:10561800103098B247F27233C2F200031B785BB2C3
:105628009BB203FB00F39BB2CB189BB299B240F636
:10563800F873C2F2000323F8121040F6EA73C2F2BC
:1056480000031B881AB240F6F873C2F2000333F85D
:10565800122040F6EA73C2F200031B8819B240F622
:105668004473C2F2000333F8113012B21BB29A42EB
:10567800ACBF00230123DAB247F27233C2F200034F
:105688001B785BB2002BD4BF00230123DBB213408D
:10569800DBB2002B32D040F6EA73C2F200031B885B
:1056A8001AB240F6EA73C2F200031B8819B240F638
:1056B800F873C2F2000333F8113099B240F6EA7376
:1056C800C2F200031B8818B240F66C73C2F20003E2
:1056D80033F8103098B247F27233C2F200031B78E5
:1056E8005BB29BB203FB00F39BB2CB189BB299B29F
:1056F80040F6F873C2F2000323F8121040F6EA737A
:10570800C2F200031B881AB240F6F873C2F2000313
:1057180033F8122040F6B873C2F200031A8040F63C
:105728006873C2F200031B881BB2012B40F0C884C7
:1057380040F6F453C2F200031B88012B40F0C084EA
:1057480040F6EA73C2F200031B881AB240F6F873F7
:10575800C2F2000333F812301BB21846FAF758FEAB
:1057680000F0AEBC40F6EA73C2F200031B881AB21E
:1057780040F6F873C2F2000333F8122040F6EA73D9
:10578800C2F200031B8819B240F6C473C2F20003C8
:1057980033F8113012B21BB29A42D4BF002301234E
:1057A800DAB247F27233C2F200031B784FEAD3131E
:1057B800DBB21340DBB2002B32D040F6EA73C2F200
:1057C80000031B881AB240F6EA73C2F200031B8872
:1057D80019B240F6F873C2F2000333F8113099B2E7
:1057E80040F6EA73C2F200031B8818B240F66C73E5
:1057F800C2F2000333F8103098B247F27233C2F2A3
:1058080000031B785BB29BB203FB00F39BB2CB187F
:105818009BB299B240F6F873C2F2000323F8121053
:1058280040F6EA73C2F200031B881AB240F6F87316
:10583800C2F2000333F8122040F6EA73C2F2000302
:105848001B8819B240F64473C2F2000333F81130D2
:1058580012B21BB29A42ACBF00230123DAB247F25C
:105868007233C2F200031B785BB2002BD4BF002353
:105878000123DBB21340DBB2002B32D040F6EA73CF
:10588800C2F200031B881AB240F6EA73C2F20003A0
:105898001B8819B240F6F873C2F2000333F81130CE
:1058A80099B240F6EA73C2F200031B8818B240F6B8
:1058B8006C73C2F2000333F8103098B247F27233B7
:1058C800C2F200031B785BB29BB203FB00F39BB2EE
:1058D800CB189BB299B240F6F873C2F2000323F8D2
:1058E800121040F6EA73C2F200031B881AB240F69F
:1058F800F873C2F2000333F8122040F6B873C2F20C
:1059080000031A8040F6EA73C2F200031B881AB239
:1059180040F6F873C2F2000333F812301BB207EEF8
:10592800903AB8EEE77ADFED7B7AC7EE277A40F651
:10593800C073C2F20003C3ED007AC4E340F6EA7311
:10594800C2F200031B881AB240F6F873C2F20003D1
:1059580033F8122040F6EA73C2F200031B8819B22A
:1059680040F6C473C2F2000333F8113012B21BB20E
:105978009A42D4BF00230123DAB247F27233C2F24B
:1059880000031B784FEAD313DBB21340DBB2002BC2
:1059980032D040F6EA73C2F200031B881AB240F60E
:1059A800EA73C2F200031B8819B240F6F873C2F218
:1059B800000333F8113099B240F6EA73C2F20003DB
:1059C8001B8818B240F66C73C2F2000333F810302B
:1059D80098B247F27233C2F200031B785BB29BB2F3
:1059E80003FB00F39BB2CB189BB299B240F6F87355
:1059F800C2F2000323F8121040F6EA73C2F2000361
:105A08001B881AB240F6F873C2F2000333F812206A
:105A180040F6EA73C2F200031B8819B240F64473D9
:105A2800C2F2000333F8113012B21BB29A42ACBF73
:105A380000230123DAB247F27233C2F200031B7863
:105A48005BB2002BD4BF00230123DBB21340DBB2CF
:105A5800002B32D040F6EA73C2F200031B881AB258
:105A680040F6EA73C2F200031B8819B240F6F873D5
:105A7800C2F2000333F8113099B240F6EA73C2F269
:105A880000031B8818B240F66C73C2F2000333F8A7
:105A9800103098B247F27233C2F200031B785BB23F
:105AA8009BB203FB00F39BB2CB189BB299B240F6B2
:105AB800F873C2F2000323F8121040F6EA73C2F238
:105AC80000031B881AB240F6F873C2F2000333F8D9
