:020000040800F2
:100000000000022089B10008596500085B650008FE
:100010005D6500085F65000861650008000000007C
:100020000000000000000000000000006365000800
:100030006565000800000000676500086965000844
:10004000CDB10008CDB10008CDB10008CDB1000898
:10005000CDB10008CDB1000869620008CDB100083B
:10006000CDB10008CDB10008CDB10008791000086D
:10007000CDB10008CDB10008CDB10008CDB1000868
:10008000CDB10008CDB10008CDB10008CDB1000858
:10009000CDB10008CDB10008CDB10008C96D000890
:1000A000CDB10008CDB10008CDB10008CDB1000838
:1000B000CDB10008CDB10008CDB10008CDB1000828
:1000C000CDB10008CDB10008CDB10008CDB1000818
:1000D000CDB10008CDB10008696F0008CDB10008AE
:1000E000CDB10008CDB10008CDB10008CDB10008F8
:1000F000CDB10008CDB10008CDB10008CDB10008E8
:10010000CDB10008CDB10008CDB10008CDB10008D7
:10011000CDB10008CDB10008CDB10008CDB10008C7
:10012000CDB10008CDB10008CDB10008CDB10008B7
:10013000CDB10008CDB10008CDB10008CDB10008A7
:10014000CDB10008CDB10008CDB10008CDB1000897
:10015000CDB10008CDB10008CDB10008CDB1000887
:10016000CDB10008CDB10008CDB10008CDB1000877
:10017000CDB10008CDB10008CDB10008CDB1000867
:08018000CDB10008CDB100086B
:10018800B8680108000000203C0800204008002052
:10019800146F0020034B203903EBC10108220CF037
:1001A80079B900BFB0C50008034B0C2202FB01312E
:1001B800A1F5C0710CF06EB9A8C80008034B18224D
:1001C80002FB0131A1F540710CF064B91CCD0008A7
:1001D800034B203903EB011110220CF05BB900BF6F
:1001E80004D60008034B302202FB0131A1F5C0619F
:1001F8000CF050B9F4DB000807B50420012108F021
:1002080017F901214FF4804008F042F9002302A9B0
:100218008DF8043001238DF807304FF4007341F84E
:10022800083D0248694607F05BFD0EBD0008024024
:1002380038B500F0C7F900F0C7F90E4B0E4D0F485E
:1002480000241C800821012207F0BFFD00F09FF95F
:1002580000F0BCF9B5F9000000F01EF9B5F902008C
:1002680000F0F6F8204600F042F90620BDE83840D4
:1002780000F0B4B8E808002080090020000C024013
:1002880008B500F09FF900F09FF9104B01221A8081
:1002980000F07DF9002000F0FFF8002000F027F9B9
:1002A80000F0AFF90A4BB3F9040000F0D1F80821C7
:1002B8000022084807F089FD4FF47A7002F016FF13
:1002C8001820BDE8084000F0A6B800BFE8080020E4
:1002D80080090020000C0240114B002210B51A6062
:1002E80000F070F900F070F90E4B0F4C01221A80E3
:1002F80000F04DF9B4F9060000F0CEF8082100220C
:100308000A4807F062FD4FF47A7002F0EFFE1420FD
:1003180000F081F8B4F90A00BDE8104000F05EB8BA
:1003280014090020E808002080090020000C024081
:1003380010B500F047F900F047F90E4B0E4C0122BA
:100348001A8000F024F9B4F9080000F0A5F8082193
:1003580000220A4807F039FD4FF47A7002F0C6FE11
:10036800142000F058F8B4F90A00BDE8104000F075
:1003780035B800BFE808002080090020000C0240C2
:100388002DE9F341144F0820012102AC08F050F880
:100398000026012504234FF002083846694644F830
:1003A800083D8DF804608DF805808DF806608DF89D
:1003B800075007F095FC0823384669468DF8045025
:1003C8008DF805808DF806608DF80750009307F0CA
:1003D80087FCBDE8FC8100BF000C024010B500217D
:1003E80001220446302002F09DFBE4B2012002F015
:1003F8007DFE10212246302002F094FB012002F0FD
:1004080075FE30201121224602F08CFB0120BDE848
:10041800104002F06BBE10B50021012204463020C6
:1004280002F080FBE4B2012002F060FE12212246B5
:10043800302002F077FB012002F058FE3020132113
:10044800224602F06FFB0120BDE8104002F04EBECC
:10045800002810B5044603DB5F2CA8BF5F2400E02A
:10046800002400210122302002F05CFBE4B20120CC
:1004780002F03CFE3B212246302002F053FB0120D3
:1004880002F034FE30203C21224602F04BFB0120D2
:10049800BDE8104002F02ABE302810B504460ADC38
:1004A80010F17F0F02DB002802DB05E06FF07E040D
:1004B80004F5807400E0302400210A46302002F060
:1004C80031FBE4B2012002F011FE41212246302026
:1004D80002F028FB012002F009FE302042212246CA
:1004E80002F020FB0120BDE8104002F0FFBD2828E3
:1004F80010B5044609DC10F1180F02DB002802DBF6
:1005080004E06FF017047F3400E0282400210A4635
:10051800302002F007FBE4B2012002F0E7FD53218E
:100528002246302002F0FEFA012002F0DFFD3020E2
:100538005421224602F0F6FA0120BDE8104002F0EC
:10054800D5BD08B500210122302002F0EBFA0120C8
:1005580002F0CCFD30203321402202F0E3FA0120E2
:10056800BDE8084002F0C2BD08B5002101223020D4
:1005780002F0D8FA012002F0B9FD30203321002220
:1005880002F0D0FA0120BDE8084002F0AFBD08B57E
:1005980000210122302002F0C5FA012002F0A6FD58
:1005A80034210022302002F0BDFA012002F09EFD25
:1005B80030203721002202F0B5FA0120BDE80840BA
:1005C80002F094BD402009E7402024E708B5002147
:1005D8000122302002F0A6FA012002F087FD302027
:1005E8003421024602F09EFA012002F07FFD3020FD
:1005F8003721024602F096FA0120BDE8084002F0D1
:1006080075BD08B500210122302002F08BFA0120C7
:1006180002F06CFD302034210C2202F083FA012014
:10062800BDE8084002F062BDF8B56A4B6A486B49FC
:100638006B4A1B6890ED006AD1ED006A92ED007A72
:10064800002B61D16748684E684D19461A4640F23A
:10065800FF1432F900E005EE10EA1718F8EEC57A33
:10066800B7F9027067EE865A05EE107AFDEEE55A84
:1006780067EEA67A15EE90EAF8EEC55A013375EEE4
:10068800A75A9BB265EE875A21F806E0FDEEE55AB7
:10069800043215EE907A4F531FB20231A742D8DDCB
:1006A800534B5448504D514CC3ED007A0023194622
:1006B8001A46575B0E180F520133175B9BB27780AF
:1006C8001EB202320431FF2EF3DD4B4A4B4E13802B
:1006D80000F050FD00F05CFD00F068FD04F0C4F887
:1006E80000F084FD002346481A46194640F2FF15DB
:1006F8008C5B171801339BB214527C801CB20231F8
:100708000432AC42F4DD61E000233E48364E374DFA
:1007180019461A4640F2FF1432F900E005EE90EA55
:100728001718F8EEE57AB7F9027067EE865A05EE03
:10073800107AFDEEE55A67EEA67A15EE90EAF8EE25
:10074800C55A013375EEA75A9BB265EE875A21F850
:1007580006E0FDEEE55A043215EE907A4F531FB2CB
:100768000231A742D8DD224B22481F4D1F4CC3ED52
:10077800007A002319461A46575B0E180F520133A8
:10078800175B9BB277801EB202320431FF2EF3DD75
:10079800194A1A4E138000F0EDFC00F0F9FC00F045
:1007A80005FD04F061F800F021FD002316481A4603
:1007B800194640F2FF158C5B171801339BB214528F
:1007C8007C801CB202310432AC42F4DD0A4A138048
:1007D800F8BD00BFB8260020480900206C09002099
:1007E800B8080020B4370020EC190020022B0020A4
:1007F800DC0800203C560020002B0020EC150020CF
:10080800B42F0020284E002050400020F8B5624B3D
:1008180062481A686249634BD0ED005A91ED006A4C
:10082800D3ED006A002A59D15F4D604C60481346E9
:1008380040F2FF1135F9136007EE106AF8EEC77A37
:10084800013227EEA57A92B2BDEEC77A17EE106A8A
:1008580027EE867A1E5377EE877A67EEA67AFDEE44
:10086800E77A17EE906A1E5216B202338E42E1DD25
:10087800504B51484D4D4E4C83ED007A002319469C
:100888001A46575B0E180F520133175B9BB27780DD
:100898001EB202320431FF2EF3DD484A484E13805F
:1008A80000F068FC474D00F073FC00F09FFC00234B
:1008B800454819461A4640F2FF1432F806C00F1888
:1008C80021F800C0013332F805C09BB2A7F802C076
:1008D8001FB202320431A742EFDD59E000223B4D3E
:1008E800324C3348134640F2FF1135F9136007EED6
:1008F800106AF8EEC77A013227EEA57A92B2BDEEF9
:10090800C77A17EE106A27EE867A1E5377EE877A33
:1009180067EEA67AFDEEE77A17EE906A1E5216B2D7
:1009280002338E42E1DD234B2348204D204C83EDDA
:10093800007A002319461A46575B0E180F520133E6
:10094800175B9BB277801EB202320431FF2EF3DDB3
:100958001A4A1B4E138000F00DFC1A4D00F018FCCB
:1009680000F044FC00231A4819461A4640F2FF14C6
:1009780032F806C00F1821F800C0013332F805C05C
:100988009BB2A7F802C01FB202320431A742EFDDC2
:100998000A4A1380F8BD00BFB826002018090020B5
:1009A8007C090020B8080020B4370020EC1900208A
:1009B800022B0020DC0800203C560020002B0020E1
:1009C800F00A00205C480020B42F0020284E0020A8
:1009D800504000202DE9F0472DED088BA64B82B042
:1009E800D3E90001A0A3D3E900230AF097F8A34BA9
:1009F800044618680D460AF03DF802460B462046A4
:100A080029460AF0B5F99E4B9E4AC3E900019E4B60
:100A18001C689E4B93ED00BA9D4BCDE90001D3EDC8
:100A280000BA9C499C4BDFED9D9A9FED9D9ADFEDA6
:100A38009D8A91ED00AAD2ED00AA1E6893ED018A65
:100A4800002C40F08680984FDFF86882DFF86892C3
:100A5800254640F2FF1A86A3D3E90023DDE9000109
:100A68000AF05CF80AF0F4FA7AEE487A28EE098A75
:100A780007EEA98A3618C8EE287A331103F5806381
:100A88001B051B0D013437F8232013B2A4B206EE60
:100A9800903AB8EEE67A67EE2A6A66EEA76AFDEE45
:100AA800E66A16EE903A67EE0B6A25F8083037EEDC
:100AB800267A27EE277A27EE2B7ABDEEC77A17EE2D
:100AC800103A25F8093023B202355345C3DD724B7D
:100AD80076481E601A8183ED018A83ED038A744B80
:100AE800744D754CC3ED007A744BC3ED006A002356
:100AF80019461A46575B0E180F520133175B9BB203
:100B080077801EB202320431FF2EF3DD6C4A6D4E3F
:100B1800138000F02FFB6C4D00F03AFB00F066FBF1
:100B280000236A4819461A4640F2FF1432F806C0F4
:100B38000F1821F800C0013332F805C09BB2A7F89E
:100B480002C01FB202320431A742EFDD5C4A1380B3
:100B580085E00024544FDFF85C81DFF85C9125467E
:100B680040F2FF1A42A3D3E90023DDE9000109F0AE
:100B7800D5FF0AF06DFA7AEE487A28EE098A07EE70
:100B8800A98A3618C8EE287A331103F580631B0545
:100B98001B0D013437F8232013B2A4B206EE903AA5
:100BA800B8EEE67A67EE2A6A66EEA76AFDEEE66AAE
:100BB80016EE903A67EE0B6A25F8083037EE267A7B
:100BC80027EE2B7A27EE277ABDEEC77A17EE103A72
:100BD80025F8093023B202355345C3DD2E4B33487F
:100BE8001E601A8183ED018A83ED038A304B314DF3
:100BF800314CC3ED007A314BC3ED006A002319462E
:100C08001A46575B0E180F520133175B9BB2778059
:100C18001EB202320431FF2EF3DD294A294E138019
:100C280000F0A8FA284D00F0B3FA00F0DFFA00232C
:100C380027481A46194640F2FF1431F806C01F1813
:100C480023F800C0013231F805C092B2A7F802C0FB
:100C580017B202310433A742EFDD194B1A8002B0F4
:100C6800BDEC088BBDE8F087182D4454FB211940D2
:100C780039D6C56D305FC440E0150020000F002054
:100C88002809002018090020B82600207C09002027
:100C9800B8080020784C002040080020CDCCCC3C7F
:100CA8009A99793F00FCFF46B41201083C5600208F
:100CB80014090020EC190020022B0020DC08002079
:100CC800002B0020F00A00205C480020B42F0020F0
:100CD80050400020F8B56C4B2DED028BD3E9000194
:100CE80065A3D3E9002309F019FF684B0446186887
:100CF8000D4609F0BFFE0B460246294620460AF07B
:100D080037F8634B634DC3E90001634B1B68002B45
:100D180040F0A9802B8040F2FF169FED608A6BE0BF
:100D28005B4B5F4CD3E9000155A3D3E9002309F0DD
:100D3800F5FE0AF08DF92369C018021102F58062E8
:100D48001205120D2061574BC0F30B1053F82010F9
:100D580053F82230A182E38202F090FB52492B889B
:100D6800D1ED007AB4F9141006EE901A67EE887A7D
:100D7800B8EEE67A4D4967EE877A1AB2FDEEE77A61
:100D8800013317EE900AD1ED007AB4F916102B80D2
:100D980006EE901A67EE887AB8EEE67A67EE877AFA
:100DA800FDEEE77A17EE901A411809B207EE101A0D
:100DB8003F49F8EEC77A91ED007A27EE877A3D49E8
:100DC800BDEEC77A17EE100A21F812003A4991EDE4
:100DD800007A3A4927EE877A81ED007A384977EE2A
:100DE800877AD1ED006A67EEA67A3649FDEEE77A92
:100DF80017EE900A21F81200B5F90030B3428FDDE2
:100E0800002331482B4D2F4C19461A46575B0E18B4
:100E18000F520133175B9BB277801EB20232043146
:100E2800FF2EF3DD1B4A294E138000F0A3F9284D4D
:100E380000F0AEF900F0DAF90023264819461A4600
:100E480040F2FF1432F806C00F1821F800C0013331
:100E580032F805C09BB2A7F802C01FB202320431B3
:100E6800A742EFDDDAE000232B8040F2FF169FED6A
:100E78000B8A9DE0AFF30080182D4454FB211940E4
:100E880039D6C56D305FC440E0150020000F002042
:100E980028090020002B0020B82600208FC2F53C2E
:100EA80040080020B412010874090020100900202D
:100EB80018090020EC1900207C090020DC0800201B
:100EC800B8080020022B00203C560020F00A002021
:100ED8005C480020B42F0020554B564CD3E9000144
:100EE80051A3D3E9002309F019FE0AF0B1F82369E8
:100EF800C018021102F580621205120D20614E4BD6
:100F0800C0F30B1053F8201053F82230A182E3826B
:100F180002F0B4FA49492B88D1ED007AB4F91410DB
:100F280006EE901A67EE887AB8EEE67A444967EEDC
:100F3800877A1AB2FDEEE77A013317EE900AD1EDFF
:100F4800007AB4F916102B8006EE901A67EE887AAC
:100F5800B8EEE67A67EE877AFDEEE77A17EE901A32
:100F6800411809B207EE101A3649F8EEC77A91ED22
:100F7800007A27EE877A3449BDEEC77A17EE100A51
:100F880021F81200314991ED007A314927EE877A2C
:100F980081ED007A2F4977EE877AD1ED006A67EE06
:100FA800A67A2D49FDEEE77A17EE900A21F812008D
:100FB800B5F90030B3428FDD00232848224D264C76
:100FC80019461A46575B0E180F520133175B9BB22E
:100FD80077801EB202320431FF2EF3DD204A214E03
:100FE800138000F0C7F8204D00F0D2F800F0FEF8AA
:100FF80000231E4819461A4640F2FF1432F806C06C
:101008000F1821F800C0013332F805C09BB2A7F8C9
:1010180002C01FB202320431A742EFDD104A13802A
:10102800BDEC028BF8BD00BF39D6C56D305FC4403A
:101038002809002040080020B41201087409002083
:101048001009002018090020EC1900207C09002054
:10105800DC080020B8080020022B00203C560020A5
:10106800002B0020F00A00205C480020504000209F
:1010780008B5244806F081FA234B1860234806F087
:101088007CFA234B4FF4805118600122214806F066
:101098009CFE214BB3F9003013B9FFF7C5FA21E0E4
:1010A8001E4B1B88012B06D002D3022B1AD117E046
:1010B800FFF7ACFB16E04FF40071194806F06FFE1D
:1010C800184B9FED197ADFED197A18700028184B24
:1010D80018BFF0EE477AC3ED007AFFF77BFC01E01A
:1010E800FFF7F8FD00220B484FF4805106F06DFE23
:1010F800104B0448104901221A80BDE8084006F048
:10110800BDBA00BF10600240B826002088600240C7
:10111800AC2F0020000C0240E8080020E42A002040
:1011280000080240780900200000000000FCFF468B
:10113800784C00203809002020800010AFF3008090
:1011480007B50820012107F073F94FF440530093C5
:1011580001238DF804300222002305488DF806305B
:1011680069468DF805208DF8073006F0B9FD0EBDEB
:10117800000C024003480449044A4FF4007308F085
:1011880045BD00BF00000020EC190020F00A002037
:1011980003480449044A4FF4007308F037BD00BF00
:1011A8000C000020022B00205C480020F0B5DFF87E
:1011B80038C0094F094E0A4D0A4C002333F80C1069
:1011C800D85B0A1A92B241189A5359531A530233E8
:1011D800B3F5806FF2D1F0BD5C480020EC1500201B
:1011E800BC260020300F0020F00A002070B50F4CFC
:1011F8000F4D104E298B00220123204609F0A0FA3A
:101208000D4B187020460D4C314609F07FFA3046D8
:10121800062122464FF4807308F0C6FB2A8B084942
:101228002046BDE8704008F051BB00BF4C6C002060
:10123800000000203C5600204A6700204A63002036
:1012480040130020000000007FB50420012107F0B2
:10125800EFF804AD01214FF4804007F019F94FF47D
:10126800B07345F80C3D0124002629461A488DF82C
:1012780008608DF80B4006F033FD1020214607F07A
:10128800D7F878232946154801938DF808608DF81A
:101298000B4006F025FD21464FF4804007F0F8F892
:1012A8000220082107F082FB0D484FF48073036089
:1012B8000C2306714371847106F006FA172303A8FC
:1012C8008DF80C308DF80D408DF80E408DF80F40DC
:1012D80005F0FCFF7FBD00BF00080240001002407F
:1012E800086D0020104B114A11481249DFF874C0EC
:1012F80083E80710104A1A61104A5A61104A9A6125
:10130800104ADA61104A1A62104A5A62104A9A62FE
:10131800104ADA62104A1A63104A5A63104A9A63EA
:101328000422DA63704700BFC46C0020203D6B00C4
:10133800F0B0D60060A0360030E16B0080969800CF
:1013480090B19A00C0ACD800C0E1E400202F14018D
:10135800B0804101C03F7C01C013AD0110C1FE0245
:1013680000605B03006C6B0008B5044806F01DFDC7
:10137800034BC043C0F3C300188008BD00100240EF
:10138800B46C002038B59D4C642001F0AFFE257880
:101398009B48AD00EDB2257006F007FDC0F3411083
:1013A8000543984B257005F00F05974A595D6378FA
:1013B800C918964B1B88C9B2617018B249B28142EC
:1013C80005DA4042814206DD0021117003E0012167
:1013D80011700022627094F901201BB25B429A429C
:1013E800894B04DCFF221A70844A0021517093F95A
:1013F8000030002B00F09681FFF7B6FF844BB3F95D
:1014080000300F2B00F28681DFE813F01000250072
:101418003A004F00640079008E00A300B800CD00A8
:10142800E2000C011F01320158017901794A7A4919
:10143800136809688B4280F06D81784909688B428E
:1014480040F268817049764891F90010006800FB05
:10145800013313601EE16F4A6F49536809688B4274
:1014680080F058816D4909688B4240F25381664982
:101478006B4891F90010006800FB0133536009E1E3
:10148800644A6549936809688B4280F043816349DF
:1014980009688B4240F23E815B49614891F900102E
:1014A800006800FB01339360F4E05A4A5A49D36854
:1014B80009688B4280F02E81584909688B4240F2B6
:1014C80029815149564891F90010006800FB013301
:1014D800D360DFE04F4A5049136909688B4280F0B6
:1014E80019814E4909688B4240F2148146494C489B
:1014F80091F90010006800FB01331361CAE0454A06
:101508004549536909688B4280F004814349096859
:101518008B4240F2FF803C49414891F90010006835
:1015280000FB01335361B5E03A4A3B4993690968C6
:101538008B4280F0EF80394909688B4240F2EA809B
:101548003149374891F90010006800FB0133936175
:10155800A0E0304A3049D36909688B4280F0DA80CC
:101568002E4909688B4240F2D58027492C4891F9C9
:101578000010006800FB0133D3618BE0254A26493F
:10158800136A09688B4280F0C580244909688B4238
:1015980040F2C0801C49224891F90010006800FB05
:1015A8000133136276E01B4A1B49536A09688B4270
:1015B80080F0B080194909688B4240F2AB8012492B
:1015C800174891F90010006800FB0133536261E08D
:1015D800104A1149936A09688B4280F09B800F4931
:1015E80009688B4240F2968007490D4891F900102E
:1015F800006800FB013393624CE000BF58080020EC
:1016080000080240D0ED0008146D0020B06C0020E6
:10161800B46C0020C46C0020646C0020C06C0020F6
:10162800106D0020444A4549D36A09688B4271D23B
:10163800434909688B426DD94249434891F90010E2
:10164800006800FB0133D36224E03B4A3B49136B3B
:1016580009688B425ED23A4909688B425AD939499E
:10166800394891F90010006800FB0133136311E059
:10167800314A3249536B09688B424BD23049096869
:101688008B4247D92F49304891F90010006800FB78
:10169800013353632D4A107858432D4B18602D4B56
:1016A8001B78032B01D003F065FC2B4BB3F900200A
:1016B800214B53F82220294B1A602BE0284C1AA3FF
:1016C800D3E90023D4E9000109F090FC18B118A36C
:1016D800D3E9002302E014A3D3E90023C4E90023DB
:1016E8001C4B1B78032B01D003F0A4FBD4E90001A9
:1016F80009F0D6FC194B18600F4B98630AE0134A9F
:101708001378042B14BF042302231370134A1360A5
:10171800094AD363114B1868EA210022BDE8384012
:1017280004F028BD38BD00BF0000000000DB8A417E
:1017380000000000D0126341C46C0020646C0020DB
:10174800C06C0020146D0020106D0020046D002076
:10175800906C0020A86C0020B46C0020706C0020F5
:10176800986C0020904BB3F9003010B58F4C0F2BBC
:1017780000F29681DFE813F01000280040005800BE
:1017880070008800A000B800D000E80000013A010D
:1017980052016A0182018C01854B864C1B782068B6
:1017A8005843854B1860854B1B78032B01D003F0F9
:1017B800E1FB7D4BB3F9003054F823207B4BEA2042
:1017C8001A6014217E4A69E1794B7A4C1B7860686B
:1017D8005843794B1860794B1B78032B01D003F0E1
:1017E800C9FB714BB3F9003054F823206F4BEA2042
:1017F8001A601421734A51E16D4B6E4C1B78A06836
:1018080058436D4B18606D4B1B78032B01D003F0C8
:10181800B1FB654BB3F9003054F82320634BEA2041
:101828001A601421684A39E1614B624C1B78E06800
:101838005843614B1860614B1B78032B01D003F0B0
:1018480099FB594BB3F9003054F82320574BEA2041
:101858001A6014215D4A21E1554B564C1B782069CA
:101868005843554B1860554B1B78032B01D003F098
:1018780081FB4D4BB3F9003054F823204B4BEA2041
:101888001A601421524A09E1494B4A4C1B78606995
:101898005843494B1860494B1B78032B01D003F080
:1018A80069FB414BB3F9003054F823203F4BEA2041
:1018B8001A601421474AF1E03D4B3E4C1B78A06961
:1018C80058433D4B18603D4B1B78032B01D003F068
:1018D80051FB354BB3F9003054F82320334BEA2041
:1018E8001A6014213C4AD9E0314B324C1B78E0692C
:1018F8005843314B1860314B1B78032B01D003F050
:1019080039FB294BB3F9003054F82320274BEA2040
:101918001A601421314AC1E0254B264C1B78206AF5
:101928005843254B1860254B1B78032B01D003F037
:1019380021FB1D4BB3F9003054F823201B4BEA2040
:101948001A601421264AA9E0194B1A4C1B78606AC0
:101958005843194B1860194B1B78032B01D003F01F
:1019680009FB114BB3F9003054F823200F4BEA2040
:101978001A6014211B4A91E00D4B0E4C1B78A06A8B
:1019880058430D4B18600D4B1B78032B01D003F007
:10199800F1FA054BB3F9003054F82320034BEA2041
:1019A8001A601421104A79E0B46C0020706C002091
:1019B800046D0020C46C0020906C0020A86C0020EE
:1019C8004C66010857660108626601086D660108E1
:1019D80078660108836601088E6601089966010821
:1019E800A4660108AF660108BA660108304B314C9D
:1019F8001B78E06A5843304B1860304B1B78032B38
:101A080001D003F0B7FA2E4BB3F9003054F8232075
:101A18002C4BEA201A6014212B4A3FE0244B254C1A
:101A28001B78206B5843244B1860244B1B78032BDE
:101A380001D003F09FFA224BB3F9003054F8232069
:101A4800204BEA201A601421204A27E0184B194C31
:101A58001B78606B5843184B1860184B1B78032B86
:101A680001D003F087FA164BB3F9003054F823205D
:101A7800144BEA201A601421154A0FE0154BD3E9DC
:101A8800000109F00DFB14212060134AEA2005E04B
:101A9800074B124A1B78EA202360142103F07EFCCE
:101AA800084B1868EA210022BDE8104004F062BB28
:101AB800046D0020C46C0020906C0020A86C0020ED
:101AC800B46C0020706C0020C5660108D06601085F
:101AD800DB660108986C0020E6660108F1660108DB
:101AE80038B5002004F006FC40F2D244284BA0424E
:101AF800186007D0FFF7F6FB04F018FC0020214619
:101B080004F0DFFB04F022FC224B234D234CA86B8E
:101B180002221A80224A234B1A60234A234B1A6056
:101B280008F086FF224BC3E90001EB6B237003F03A
:101B380069F9204B1B78032B05D1EA203C211E4A6A
:101B480003F02CFC1FE003F075F9FFF70DFC1B4BAD
:101B5800B3F900300D2B02DCFFF704FE13E0237805
:101B68002868174C5843174B186003F003FA2B6882
:101B7800154A2360EA20142103F010FC2068EA21AA
:101B8800002204F0F7FA114B64221A6038BD00BF36
:101B9800746C0020B06C0020C46C0020046D002020
:101BA80080841E00C06C00200065CD1D646C002080
:101BB800986C0020A86C0020FC660108B46C00201A
:101BC800706C0020906C00204C660108106D00209D
:101BD8000E4B1A68642A10D004D8012A13D00A2A96
:101BE80013D10DE0B2F57A7F42F2107103D08A4228
:101BF8000BD1074A05E0196070474FF47A7200E08C
:101C080064221A6070470A221A607047106D00201B
:101C1800A08601000F4B1A68B2F57A7F11D004D85C
:101C28000A2A13D0642A13D10DE042F210718A42B5
:101C380004D0094882420BD1196070474FF47A7278
:101C480002E0642200E00A221A60704701221A604A
:101C5800704700BF106D0020A0860100AFF3008020
:101C680073B50420012106F0E3FB02AD01214FF416
:101C7800804006F00DFC01241E2300266946154805
:101C880045F8083D8DF804608DF8074006F028F8FF
:101C98000220214606F0CCFBB02369460E4800938B
:101CA8008DF804608DF8074006F01AF821464FF4C5
:101CB800804006F0EDFB2046072106F077FE074836
:101CC800802303600C2306714371847105F0FCFCCA
:101CD8007CBD00BF0008024000040240086D0020DF
:101CE8000A4B142100225980998041F288311A80C8
:101CF800DA801A815A819981DA8119825A829A8204
:101D0800DA821A835A839A83DA837047800900201B
:101D18000C4B4FF6817100224FF47A701980D980EC
:101D280019814DF6F0015A809A805A819881D9819B
:101D3800188259829A82DA821A835A839A83DA83BA
:101D4800704700BF4C0900200C4B30221A805022EB
:101D58005A809A801D22DA801A815A8142F21072C2
:101D68009A81DA811A825A8201229A826422DA825C
:101D78001A835A839A83DA83704700BFBC0800200D
:101D88000A4B04220A211A8001225A809A80DA809A
:101D98001A815A819981D981198259829A82DA8263
:101DA8001A835A839A83DA83704700BFF0080020A9
:101DB80008B5044805F0F9FF034BC043C0F34300DE
:101DC800188008BD000802407209002038B5854C0B
:101DD800642001F08BF925788348AD00EDB22570B9
:101DE80005F0E3FFC0F301100543804B257005F0B3
:101DF8000F057F4A595D6378C9187E4B1B88C9B2A5
:101E0800617018B249B2814205DA4042814206DD6A
:101E18000021117003E0012111700022627094F911
:101E280001201BB25B429A42714B04DCFF221A70FC
:101E38006C4A0021517093F90030002B00F0688241
:101E4800FFF7B6FF6C4BB3F900300A2B00F2608243
:101E5800DFE813F00B00380062009700E20017017A
:101E68004C017D01AE01F8012B02614B634A1B78DE
:101E78001188D8090BD06248B0F9004008B28442F2
:101E880005DA604800885CB204FB001111805B4AE7
:101E98005BB2002B11880ADD5B48B0F9004008B23C
:101EA800844204DD5748008803FB00131380534B1A
:101EB8001888564B1880564BB3F90030002B40F069
:101EC8002782DAE04A4B4D4A1B785188D8090BD053
:101ED8004B48B0F9024008B2844205DA49484088C4
:101EE8005CB204FB00115180444A5BB2002B51885C
:101EF8000ADD4548B0F9024008B2844204DD414891
:101F0800408803FB001353803C4B58883F4B188094
:101F18003F4BB3F900302DE0354B384A1B78918898
:101F2800D8090BD03648B0F9044008B2844205DA23
:101F3800344880885CB204FB001191802F4A5BB260
:101F4800002B91880ADD3048B0F9044008B2844279
:101F580004DD2C48808803FB00139380274B988866
:101F68002A4B18802A4BB3F90030012B40F0D0815E
:101F7800284B1B88002B40F0CB8100B2FEF768FA93
:101F8800C6E11B4B1D4A1B78D188D8090BD01C48C9
:101F9800B0F9064008B2844205DA1A48C0885CB233
:101FA80004FB0011D180154A5BB2002BD1880ADDF1
:101FB8001548B0F9064008B2844204DD1148C088CB
:101FC80003FB0013D3800D4BD888104B1880104B9F
:101FD800B3F90030012B40F09B810E4B1B88012B7D
:101FE80049E000BF5A08002000040240E0ED000864
:101FF800166D0020186D002072090020800900204D
:102008004C090020F0080020BC08002040090020EE
:10201800E8080020E42A00207E4B7F4A1B781189BB
:10202800D8090BD07D48B0F9084008B2844205DAD7
:102038007B4800895CB204FB00111181764A5BB2CF
:10204800002B11890ADD7748B0F9084008B28442AC
:1020580004DD7348008903FB001313816E4B188954
:10206800714B1880714BB3F90030012B40F050814F
:102078006F4B1B88022B40F04B8100B2FEF70CFA25
:1020880046E1644B644A1B785189D8090BD06348F0
:10209800B0F90A4008B2844205DA614840895CB266
:1020A80004FB001151815C4A5BB2002B51890ADDA7
:1020B8005C48B0F90A4008B2844204DD58484089B7
:1020C80003FB00135381544B5889574B1880574BC7
:1020D800B3F90030012B40F01B81554B1B88012BB5
:1020E80040F0168100B2FEF779F911E1494B4A4AEE
:1020F8001B789189D8090BD04848B0F90C4008B230
:10210800844205DA464880895CB204FB001191815B
:10211800414A5BB2002B91890ADD4248B0F90C4074
:1021280008B2844204DD3E48808903FB0013938192
:10213800394B3D4A9B8913801BB207EE903AB8EEA3
:10214800E77ADFED3C7A3C4BC7EE277AAAE0314BC1
:10215800314A1B78D189D8090BD03048B0F90E40E4
:1021680008B2844205DA2E48C0895CB204FB00112B
:10217800D181294A5BB2002BD1890ADD2948B0F9FF
:102188000E4008B2844204DD2548C08903FB0013D1
:10219800D381214B244ADB8913801BB207EE903A86
:1021A800B8EEE77ADFED237A244BC7EE277A79E099
:1021B800184B194A1B78118AD8090BD01748B0F95F
:1021C800104008B2844205DA1548008A5CB204FB64
:1021D80000111182104A5BB2002B118A0ADD1148E6
:1021E800B0F9104008B2844204DD0D48008A03FBB0
:1021F80000131382084B0C4A1B8A13801BB207EE8C
:10220800903AB8EEE77ADFED0B7A0D4BC7EE277AF6
:1022180048E000BF166D0020800900204C0900200E
:10222800F0080020BC08002040090020E808002031
:10223800E42A002000401C46480900206C090020C0
:1022480018090020374B384A1B78518AD8090BD017
:102258003648B0F9124008B2844205DA3448408A58
:102268005CB204FB001151822F4A5BB2002B518AE9
:102278000ADD3048B0F9124008B2844204DD2C4827
:10228800408A03FB00135382274B2B4A5B8A138037
:102298001BB207EE903AB8EEE77ADFED287AC7EE80
:1022A800277A274BC3ED007A32E01E4B1E4A1B7873
:1022B800918AD8090BD01D48B0F9144008B284425D
:1022C80005DA1B48808A5CB204FB00119182164A29
:1022D8005BB2002B918A0ADD1648B0F9144008B2A7
:1022E800844204DD1248808A03FB001393820E4A5D
:1022F8001149938A14460B800BB9FEF735F9114B37
:10230800B3F9003034F91330012B01D1FEF719F974
:10231800094B0021B3F900000A46BDE8384003F034
:10232800E9BE00BF166D0020800900204C0900207E
:10233800F0080020BC0800204009002000401C468E
:102348007C0900207209002008B5454BB3F900202C
:10235800444B0F2A7AD8DFE802F0080F161D242B09
:10236800323940474E555C636A713F4A12880020F3
:102378001A8014213D4A67E03B4A528800201A809F
:1023880014213B4A60E0384A928800201A801421C0
:10239800384A59E0344AD28800201A801421364A33
:1023A80052E0314A128900201A801421334A4BE046
:1023B8002D4A528900201A801421314A44E02A4AC1
:1023C800928900201A8014212E4A3DE0264AD2899B
:1023D80000201A8014212C4A36E0234A128A002051
:1023E8001A801421294A2FE01F4A528A00201A8095
:1023F8001421274A28E01C4A928A00201A801421B6
:10240800244A21E0184AD28A00201A801421224A3C
:102418001AE0154A128B00201A8014211F4A13E073
:10242800114A528B00201A8014211D4A0CE00E4AD2
:10243800928B00201A8014211A4A05E00A4AD28B8E
:102448001A80194A0020142102F0A8FF054B002128
:10245800B3F900000A46BDE8084003F04BBE00BFD0
:102468007209002040090020800900200767010840
:10247800126701081D67010828670108336701080A
:102488003E67010849670108546701085F6701084A
:102498006A67010875670108806701088B6701088A
:1024A80096670108A1670108AC67010810B53220DA
:1024B80003F0F8FE41F22E64314BA042188007D099
:1024C800FFF70EFC03F052FF3220214603F0DCFE3A
:1024D8002C4C03F05BFFFFF71BFCFFF735FCFFF705
:1024E8004FFCB4F90C3006EE103ADFED277AB8EE5F
:1024F800C67A264B87EE277A4FF07C520020DC21E3
:1025080083ED007AB4F90E3006EE103AF8EEC66A9A
:102518001F4BC6EEA77AC3ED007A1E4B83ED007AF7
:102528001D4BC3ED007A1D4B1A601D4A02F036FFA1
:102538001C4B0022DC214FF494701A801A4A02F0D6
:102548002DFFFDF775FE194B02221A80FFF730FCAC
:10255800FFF7FAFEB4F90000FDF79EFFB4F9020098
:10256800FDF776FFB4F914300BB9FDF7FDFFB4F9A8
:102578001430012B03D1BDE81040FDF7E2BF10BDB8
:10258800700900208009002000401C4648090020EE
:102598006C090020180900207C090020B8080020D8
:1025A800B7670108E8080020BB670108186D00201C
:1025B80010B50E4CEA202821224602F0EFFEFEF765
:1025C80091FE03F0B3FEFEF7CFFEFFF7CBF8002035
:1025D8002821224602F0E2FEFFF782FB03F0C6FE46
:1025E800FFF7E6FBBDE81040AEE600BFBE67010896
:1025F80007B50220012105F01BFF012300938DF888
:10260800043002238DF805300448002369468DF80C
:1026180006308DF8073005F063FB0EBD000402405C
:1026280010B5084C01210022204605F0CEFB40F2EF
:10263800FF4000F05BFD012120460A46BDE810403E
:1026480005F0C3BB0004024008B5FFF7E9FF00210D
:102658000A46302000F066FA012000F047FD01210B
:102668000A46302000F05EFA012000F03FFD00210C
:102678000122302000F056FA012000F037FD012138
:102688000822302000F04EFA012000F02FFD022130
:102698000122302000F046FA012000F027FD002139
:1026A8000A46302000F03EFA012000F01FFD1B21F1
:1026B800CD22302000F036FA012000F017FD042169
:1026C8000322302000F02EFA012000F00FFD062131
:1026D8000822302000F026FA012000F007FD07212B
:1026E8000A46302000F01EFA012000F0FFFC082105
:1026F8008022302000F016FA012000F0F7FC1E219D
:10270800B022302000F00EFA012000F0EFFC052185
:102718009122302000F006FA012000F0E7FC0D219C
:102728000322302000F0FEF9012000F0DFFC0E212A
:102738000022302000F0F6F9012000F0D7FC142127
:102748008022302000F0EEF9012000F0CFFC0B21B0
:102758008822302000F0E6F9012000F0C7FC302084
:102768000C21822200F0DEF9012000F0BFFC1221CA
:102778008822302000F0D6F9012000F0B7FC1321A0
:102788008C22302000F0CEF9012000F0AFFC0021AF
:102798000122302000F0C6F9012000F0A7FC0C212E
:1027A8000822302000F0BEF9012000F09FFC0D2126
:1027B8000822302000F0B6F9012000F097FC0E2125
:1027C8000822302000F0AEF9012000F08FFC0F2124
:1027D8000822302000F0A6F9012000F087FC002133
:1027E8000A46302000F09EF9012000F07FFC4021CD
:1027F8000222302000F096F9012000F077FC002238
:102808004121302000F08EF9012000F06FFC3020CB
:102818003F21D42200F086F9012000F067FC002156
:102828000122302000F07EF9012000F05FFC102129
:102838000F22302000F076F9012000F057FC11211A
:102848000F22302000F06EF9012000F04FFC122119
:102858000022302000F066F9012000F047FC132127
:102868000022302000F05EF9012000F03FFC092131
:102878003C22302000F056F9012000F037FC0021FE
:102888000122302000F04EF9012000F02FFC30200A
:102898003421024600F046F9012000F027FC3020E0
:1028A8003721024600F03EF9012000F01FFC3621D6
:1028B8000322302000F036F9012000F017FC3921FE
:1028C8000322302000F02EF9012000F00FFC3B21FC
:1028D8003C22302000F026F9012000F007FC3C21C2
:1028E8000A46302000F01EF9012000F0FFFB00210D
:1028F8000A46302000F016F9012000F0F7FB5121BC
:10290800C022302000F00EF9012000F0EFFB30204B
:102918005221002200F006F90120BDE8084000F02D
:10292800E5BB00BF2DE9F04F464D474E91B0012160
:102938004FF4001005F07CFD284604F01FFD434BC2
:102948004FF0C0628DE80C00414B00244FF48067C3
:102958004FF400694FF400584FF4807A4FF4003B6D
:1029680028466946029304970394059406970B94A6
:10297800CDF81C90CDF82080CDF824A0CDF828B053
:1029880004F088FD22462846324904F0DEFD284638
:10299800012104F0E4FD01210A464FF0402005F032
:1029A800B5FF304604F0EAFC2B4B009401932B4B07
:1029B800049702933046402369460393059406978B
:1029C8000B94CDF81C90CDF82080CDF824A0CDF83C
:1029D80028B004F05FFD22463046214904F0B5FDD9
:1029E8003046012104F0BBFD42F21077012202219A
:1029F8001C4805F08BFF384600F078FB284601217B
:102A080004F083FD0121304604F07FFD384600F0D4
:102A18006DFB0B238DF83D408DF83E400FA8012437
:102A28008DF83C308DF83F4004F050FC384600F0FB
:102A38005DFB28461021224604F0DEFD11B0BDE8FA
:102A4800F08F00BF10600240886002400C400040D8
:102A5800284E0020B43700200C3C00405040002095
:102A6800B42F0020003C004002481021012204F04D
:102A7800C3BD00BF1060024013B50220012105F05C
:102A8800D7FC4FF410730E4C009302238DF80430DA
:102A98008DF8053001238DF806302046002369465D
:102AA8008DF8073005F01CF920460621042205F0B0
:102AB80097F920460921042205F092F91CBD00BFB0
:102AC8000004024030B5154D85B001214FF40010C7
:102AD80005F0D2FC284605F099F90023ADF804303A
:102AE8004BF6FF73ADF806303323ADF808304FF4DA
:102AF8008063ADF80A304FF48043ADF80C3004AC75
:102B0800074B2846012144F8103D05F021FA2846D4
:102B1800694605F0A9F905B030BD00BF0054004072
:102B2800801A0600414B2DE9F04115464FF49612E4
:102B380007460E461A60984606E0D8F800305A1E36
:102B4800C8F80020002B61D03948384C4FF40031C8
:102B580005F016FB0028F0D13548012105F004FAEC
:102B68004FF480532360A04606E0D8F800305A1E80
:102B7800C8F80020002B4CD02D482E492B4C05F0CE
:102B8800EAFA0028F1D02A483946002205F004FA6A
:102B98004FF48053236004E023685A1E2260002B00
:102BA8003AD023482449214F05F0D5FA0028F3D01C
:102BB80031461F4805F073FA4FF480533B603E4698
:102BC80004E033685A1E3260002B28D018481B498D
:102BD800164C05F0C0FA0028F3D01548294605F030
:102BE8005EFA4FF49613236003E023685A1E2260AE
:102BF800C3B10F48124905F0C3FA0028F5D00C48B4
:102C0800012105F0BDF90020BDE8F0810120BDE8F3
:102C1800F0810220BDE8F0810320BDE8F0810420A6
:102C2800BDE8F0810520BDE8F08100BFC8030020A1
:102C380000540040010003008200070080000700E4
:102C4800040000102DE9F8439846434B14464FF40E
:102C5800961206460D461A60994606E0D9F80030E5
:102C68005A1EC9F80020002B67D03C483A4F4FF451
:102C7800003105F085FA0028F0D13848012105F027
:102C880073F94FF480533B60B94606E0D9F8003039
:102C98005A1EC9F80020002B52D0304830492E4F18
:102CA80005F059FA0028F1D02C483146002205F0E9
:102CB80073F94FF480533B6004E03B685A1E3A6056
:102CC800002B40D025482749234E05F044FA002818
:102CD800F3D02946214805F0E2F94FF480533360D8
:102CE800354604E02B685A1E2A60002B2ED01B485C
:102CF8001D4905F030FA0028F4D00025164E12E0E0
:102D0800615D164805F0CBF94FF49613336003E084
:102D180033685A1E3260E3B11048144905F030FA9E
:102D28000028F5D00135EBB24345E9D30B48012122
:102D380005F026F90020BDE8F8830120BDE8F883F6
:102D48000220BDE8F8830320BDE8F8830420BDE82D
:102D5800F8830520BDE8F883C8030020005400402C
:102D68000100030082000700800007000400001033
:102D7800F8B5614C4FF4961305460E46236005E0FE
:102D880023685A1E2260002B00F0A4805B485A4F2B
:102D98004FF4003105F0F4F90028F1D1574801212A
:102DA80005F0E2F84FF480533B6005E03B685A1E9B
:102DB8003A60002B00F09080504851494E4C05F085
:102DC800CAF90028F2D04D482946002205F0E4F857
:102DD8004FF480532360274604E03B685A1E3A604C
:102DE800002B7BD045484749434C05F0B4F90028EF
:102DF800F3D04248314605F052F94FF4805323602E
:102E080004E023685A1E2260002B69D03B483E49E3
:102E1800394E05F0B5F90028F3D03848012105F0FE
:102E2800A3F84FF48053336004E033685A1E3260CD
:102E3800002B57D0314832492F4C05F08CF9002827
:102E4800F3D02E482946012205F0A6F84FF4805306
:102E58002360264604E033685A1E3260002B43D0B4
:102E6800264D2A49244C284605F08AF90028F2D034
:102E78002846002105F098F8284601212B8B05F0FB
:102E88007FF84FF48053236004E023685A1E2260C1
:102E9800002B2BD019481E49174D05F071F9002851
:102EA800F3D0164805F0FDF84FF480532B60134A11
:102EB80003E02B68591E2960D3B113889B05F8D409
:102EC800012104460D4805F06FF80C48114905F03A
:102ED80071F90EE001240CE002240AE0032408E062
:102EE800042406E0052404E0062402E0072400E0A8
:102EF80008242046F8BD00BFC80300200054004045
:102F08000100030082000700040000100200001006
:102F1800400000100004001070B56C4D4FF496137B
:102F280004462B6005E02B685A1E2A60002B00F02F
:102F3800BA806748654E4FF4003105F021F9002842
:102F4800F1D16348012105F00FF84FF48053336045
:102F580005E033685A1E3260002B00F0A6805C48FA
:102F68005C495A4D05F0F7F80028F2D05848A021DE
:102F7800002205F011F84FF480532B6005E02B6810
:102F88005A1E2A60002B00F09280514852494F4E39
:102F980005F0E1F80028F2D0C4F305214C4805F00B
:102FA8007EF84FF48053336004E033685A1E326071
:102FB800002B7ED046484949444D05F0E1F80028E9
:102FC800F3D0E1B2424805F06AF84FF480532B6021
:102FD8002C4604E023685A1E2260002B6BD03C4824
:102FE8003E493A4D05F0CCF80028F3D03848012185
:102FF80004F0BAFF4FF480532B6004E02B685A1E8C
:103008002A60002B59D032483249304C05F0A3F8D9
:103018000028F3D02E48A121012204F0BDFF4FF46F
:1030280080532360264604E033685A1E3260002B22
:1030380045D0274D2A49254C284605F0A1F80028F7
:10304800F2D02846002104F0AFFF284601212B8B3F
:1030580004F096FF4FF48053236004E023685A1E5F
:103068002260002B2DD01A481E49184D05F088F80B
:103078000028F3D0164805F014F84FF480532B605D
:10308800134A03E02B68591E2960E3B11388990598
:10309800F8D4012104460E4804F086FF0C48124972
:1030A80005F088F810E001240EE002240CE0032467
:1030B8000AE0042408E0052406E0062404E00724C6
:1030C80002E0082400E00924204670BDC80300205F
:1030D80000540040010003008200070004000010B3
:1030E80002000010400000100004001082B000230D
:1030F80004E0019B01330193009B01330093009B83
:103108008342F6D302B07047F8B5464D4FF480536A
:1031180004460E462B6004E02B685A1E2A60002BDA
:1031280074D041483F4F4FF4003105F029F800288A
:10313800F2D13D48012104F017FF4FF480533B6062
:1031480004E03B685A1E3A60002B61D03648374984
:10315800344D05F000F80028F3D03348A0210022B0
:1031680004F01AFF4FF480532B6004E02B685A1EBA
:103178002A60002B4ED02C482D492A4F04F0EBFF33
:103188000028F3D0C4F30521274804F088FF4FF442
:1031980080533B6004E03B685A1E3A60002B3BD0EA
:1031A800214824491F4D04F0D6FF0028F3D0E1B28E
:1031B8001D4804F074FF4FF480532B6004E02B6823
:1031C8005A1E2A60002B29D017481A49154C04F0BA
:1031D800C2FF0028F3D01448314604F060FF4FF4D2
:1031E8009613236003E023685A1E2260C3B10E4879
:1031F800114904F0C5FF0028F5D00B48012104F05F
:10320800BFFE0E48FFF772FF0020F8BD0120F8BD91
:103218000220F8BD0320F8BD0420F8BD0520F8BD44
:103228000620F8BDC8030020005400400100030038
:10323800820007008000070004000010A08601003B
:1032480013B50520012105F0F3F8184C4FF4E053AD
:10325800009302238DF804308DF8053020460023B2
:1032680069468DF806308DF8073004F039FD2046A0
:103278000A21062204F0B4FD20460C21062204F09F
:10328800AFFD062220460B21A4F5006404F0A8FD3A
:103298004FF4004320466946009304F021FD204680
:1032A8000F21062204F09CFD1CBD00BF000802404F
:1032B8001FB50446FFF79CF9FFF704FCFFF7C4F9B4
:1032C800FFF7BEFF01214FF4004005F0D5F8029446
:1032D8000F4C1023ADF80230204600236946ADF8A4
:1032E8000430ADF80C30ADF80030ADF8063005F01C
:1032F800F2F969464FF0402005F0C1FA2046012155
:1033080005F071FA4FF04020012105F06CFA1FBD5D
:10331800003C004008B54FF6E07001F0E1FE4FF4C4
:10332800784001F0D1FE582000210E4A02F036F80C
:10333800902000210C4A02F031F800210B4ABC20F1
:1033480002F02CF8002001F0BFFE4FF6FF7001F0EC
:10335800C7FE074B074A0020C8211880BDE808406F
:1033680002F01CB89E660108C9670108D566010805
:10337800E42A0020CE6701080A4B1B88012B07D0DE
:1033880002D3022B0DD107E00020C821064A06E02F
:103398000020C821054A02E0054A0020C82101F0A2
:1033A800FDBF7047E42A0020CE670108CA670108FC
:1033B800D2670108000000000F4A002313600F4A7B
:1033C80013600F4A13600F4A612302F8013F01336B
:1033D800DBB27B2BF9D10C4B012205A1D1E900010D
:1033E8001A600A4BC3E90001094B00221A80704792
:1033F8000000000000403F40EC080020E0080020EA
:10340800E40800209F0900203C0900202009002032
:10341800BA090020054B06491A68885C0132192A46
:103428001A6001DD00221A60704700BFE008002022
:10343800A009002010B50E4C238863B90D4A116805
:1034480009B1136005E0FFF7E5FF0B4B53F8203097
:103458002380022010BD13F4004F0CBF022000206F
:103468005B009BB2238013B9024B01221A6010BD86
:10347800BA0900203C0900206C0E010838B5184B29
:10348800184C1A682068184902EB002001EB8000EC
:10349800456816480560606802EB002001EB800172
:1034A8000132486812491A60B2F5807F086016D167
:1034B80000221A60FFF7BEFFE3682072052202FBB4
:1034C80000300C4B03EB8000D0F80C3FC3F3022212
:1034D8002260C3F3021203F007036260E36038BDA1
:1034E800EC0800205C080020F0ED0008100900201E
:1034F80074090020E8FE000838B506EE900A1E4B55
:10350800B8EEE67AD3ED007ADFED1C6A27EE877A0B
:103518001B4B87EE267ABDEEC77A83ED007AB8EEAC
:10352800C77A77EE877A17EE900A07F0A3FA154B59
:1035380004460D46C3E9004522462B460CA1D1E9B5
:10354800000107F015FC104BD3E9002307F0E6FA59
:103558000E4B2246C3E900012B4600200C4907F018
:1035680007FC0C4BC3E9000138BD00BFAFF3008076
:10357800182D4454FB211940000F002000247449E1
:103588006C4D0020F82A0020E0150020D02A0020E9
:1035980000003040381300201F4B002030B5186061
:1035A8001E4B18601E4B00240025186045EC174B75
:1035B8001C4B83ED007B1C4B4B221A601B4B3222A9
:1035C8000DA5D5E900451A60194BC3E900450CA5BE
:1035D800D5E90045174BC3E900450BA5D5E90045DA
:1035E800154BC3E900450AA5D5E90045134BC3E9C6
:1035F8000045BDE830407FE7182D4454FB21F93FD2
:10360800E0F09C762F1BA43F9F14F9CFD4C2F93F5A
:1036180091458FD82181F83F6C4D0020040F002080
:10362800DC150020405A0020E8150020A01E0020CC
:10363800D02A0020D82A0020784D0020604D002094
:103648002DE9F843284B294C294D012251EC100B48
:103658001A6023A3D3E9002307F060FA254BD3E9C6
:10366800002307F085FB244B06460F460020002167
:10367800C3E9006741EC170B204B83ED007B204B1F
:103688001A68204B002A0CBF142204221A601E4B11
:10369800D3E90089304642464B46394684ED007BE3
:1036A80007F08AF8194B4246C3E900014B463046F9
:1036B800394607F07FF800220023C5E9000107F02A
:1036C800A9FC18B194ED007B85ED007B104A00231E
:1036D8001360104A1360BDE8F88300BFAFF30080A1
:1036E800182D4454FB211940EC1D0020E04C00200B
:1036F800604D0020F82A0020D02A0020D04C00205D
:10370800E02A0020084D0020D82A0020784D00200B
:103718007C4C0020D84C00202DE9F843284B08B9F0
:10372800186005E001241C6040F6B833984200D0C8
:103738000024244B244D1C6007F08AF91EA3D3E90A
:10374800002307F0EBF9214BD3E9002307F010FB26
:103758001F4B06460F46C3E900671E4BD3E900011D
:103768001D4BD3E9002307F027F832463B46804635
:10377800894607F021F8194B3246C3E900013B4658
:103788004046494607F016F800220023C5E9000123
:1037980007F040FC28B10022002343EC172B85EDED
:1037A800007B00220CB10E4B00E00E4B0E49C1E924
:1037B8000023BDE8F88300BF182D4454FB211940AD
:1037C800804C0020E02A0020604D0020F82A0020CC
:1037D800D82A0020D02A0020405A0020784D002006
:1037E80000003E4000005940F84C002012490023D8
:1037F80001225A500433402BFBD1104B03F1A8028D
:1038080000200021E3E902019342F9D10C4B0A227E
:103818001A600C4A002313600B4A13600B4A04A178
:10382800D1E9000113600A4BC3E90001704700BFEA
:103838000000000000805640102F0020F01D0020DE
:103848000C2F002034130020CC4D002038560020C7
:10385800004D002007EE100A414B4248F8EEC77AA7
:1038680070B5C3ED007A00231D461D543E4C00225E
:10387800C61854F8041F090911F0010F4FEA510145
:10388800FAD0994208BF32700132B2F5807FF0D188
:103898000133B3F5006FE8D1FFF7A8FF0020FFF769
:1038A8002BFE324B32220020002141EC170B1A600C
:1038B8002F4B304A83ED007B002313602E4A1360A0
:1038C8002E4A13602E4A13602E4A13602E4A82ED48
:1038D800007B2E4A82ED007B2D4A13602D4A05217C
:1038E80011602D4A13602D4A82ED007B2C4A82ED2F
:1038F800007B2C4A82ED007B2B4A17A1D1E90001FD
:1039080082ED007B294AC2E900010020002141EC38
:10391800170B274A82ED007B82ED027B254A82ED58
:10392800007B82ED027B244A82ED007B234A82EDF4
:10393800007B234A1360234A1360234A1360234AF7
:1039480001211160224A234913600020224B41ECD7
:10395800170B83ED007B70BD9A9999999999D93F76
:10396800000F0020B81E0020680E01080C2F002050
:10397800704D0020B02F0020082F0020042F0020B9
:1039880058480020BC2A0020704C00204015002018
:10399800C82A0020584D0020684D0020B83F00205C
:1039A80050480020D04D0020F04C0020004D002051
:1039B800F00E0020E00A0020E04C002048400020E3
:1039C800C42A0020E84C0020084D0020EC1D0020EF
:1039D800E02A002000005940F84C00200C4908B5A6
:1039E800202200235A540133282BFBD1084A0023F4
:1039F80082F82730074A1360074A4FF4FA501360D9
:103A0800FFF728FFFFF7C8FDBDE80840FFF7D4BC63
:103A1800080F0020306D00202C6D00202DE9F04F9C
:103A2800814B1B6889B08DED000B8DED021B6BB9C6
:103A38000020002141EC170B7C4B83ED007B7C4B75
:103A480083ED007B7B4B83ED007BD1E07A4D7B4C93
:103A5800D5E902ABD4E90023DDE9000106F0AAFEAE
:103A680052465B4607F05AF8D5E90067D4E90223C5
:103A780080468946DDE9020106F09CFE32463B4657
:103A880007F04CF802460B464046494606F092FEBF
:103A98009DED007B85ED007B9DED027BC4E9006711
:103AA800C4E902AB85ED027B53A3D3E9002380462A
:103AB800894607F0C3FA18B10FF23C19D9E9008911
:103AC800404649464EA3D3E9002307F099FA18B1B6
:103AD8000FF22C19D9E90089544E4BA3D3E90023DE
:103AE800D6E9000107F01AF849A3D3E900230446F0
:103AF8000D464046494607F011F802460B46204657
:103B0800294606F059FE04460D46C6E9004500223E
:103B18004B4B07F093FA30B9204629460022494B0F
:103B280007F06EFA80B13CA3D3E90023204629466A
:103B380006F0F4FF444E02460B46D6E9000106F0B3
:103B48003BFEC6E900012FE0394BD3E90067204668
:103B580032463B46294606F0E1FF0022002307F0E3
:103B68006DFA08B9002600273046394622A3D3E962
:103B7800002307F063FA38B93046394620A3D3E961
:103B8800002307F03DFA78B125A3D3E90023304696
:103B9800394606F0C3FF2C4C02460B46D4E9000117
:103BA80006F00AFEC4E90001274C224DD4E90001C1
:103BB800D5E9002306F000FE244BD3E9006732461E
:103BC8003B468046894607F039FA48B9204BD3E985
:103BD80000674046494632463B4607F011FA38B17D
:103BE8000020002141EC170BC4E9006785ED007B3C
:103BF80009B0BDE8F08F00BF333333333333D33FDD
:103C0800333333333333D3BFE5174B7EB1E4EF3F60
:103C1800555555555555C53F691D554D1075EF3EC0
:103C2800691D554D1075FF3E804C0020E04C00206A
:103C3800D04C0020405A0020F00E0020E00A00205E
:103C480000001840000018C0D02A0020784D00203D
:103C5800604D00202DE9F04F8B4B1B6889B08DED2E
:103C6800000B8DED021B6BB90020002141EC170BF6
:103C7800864B83ED007B864B83ED007B854B83ED84
:103C8800007BE2E0844D854CD5E902ABD4E9002302
:103C9800DDE9000106F08EFD52465B4606F03EFF68
:103CA800D5E90089D4E9022306460F46DDE9020179
:103CB80006F080FD42464B4606F030FF02460B46B2
:103CC8003046394606F076FD9DED007B85ED007B9C
:103CD8009DED027BC4E90089C4E902AB85ED027B56
:103CE8005BA3D3E9002306460F4607F0A7F910B1F6
:103CF80057A7D7E900673046394657A3D3E90023C9
:103D080007F07EF910B154A7D7E900675F4C54A3B8
:103D1800D3E90023D4E9000106F000FF0022804621
:103D28008946304639465E4B06F0F8FE0B46024699
:103D38004946404606F040FD5A4B1B6806460F466A
:103D4800C4E900671BB342A3D3E9002307F076F95F
:103D580038B93046394640A3D3E9002307F050F973
:103D680078B141A3D3E900233046394606F0D6FEA0
:103D78004D4C02460B46D4E9000106F01DFDC4E98E
:103D88000001304639463AA3D3E9002334E0404BDA
:103D9800D3E9008942464B4606F0C0FE00220023C4
:103DA80007F04CF918B94FF000084FF000094046E9
:103DB800494627A3D3E9002307F040F938B940461C
:103DC800494625A3D3E9002307F01AF978B12AA3B5
:103DD800D3E900234046494606F0A0FE324C02468D
:103DE8000B46D4E9000106F0E7FCC4E9000124A36E
:103DF800D3E900234046494606F090FE254B2A4C5D
:103E0800244DC3E90001D4E90001D5E9002306F0F7
:103E1800D3FC264BD3E9006732463B4680468946A9
:103E280007F00CF948B9224BD3E9006740464946E8
:103E380032463B4607F0E4F838B10020002141EC57
:103E4800170BC4E9006785ED007B09B0BDE8F08F6A
:103E5800333333333333D33F333333333333D3BF52
:103E6800D7A3703D0AD7EF3F54E41071732AC93EB7
:103E78002D431CEBE2363A3F54E41071732AB93EE5
:103E8800FCA9F1D24D62503F804C0020E04C00204C
:103E9800D04C0020405A0020F00E0020E00A0020FC
:103EA8000000D03FEC1D0020D02A0020784D0020D3
:103EB800604D00202DE9F04351EC100B85B002460F
:103EC8000B4655EC114B8DED000B8DED021B06F0EA
:103ED80025FE224606462B460F462046294606F072
:103EE8001DFE02460B463046394606F065FC41EC9D
:103EF800100B07F007FB3A4ED6E9004559EC108B3A
:103F08002246404649462B4607F098F870B12046AD
:103F180029462BA3D3E9002306F000FE2AA3D3E900
:103F2800002304460D46404649460DE020462946F2
:103F380027A3D3E9002306F0F1FD27A3D3E9002343
:103F480004460D464046494606F0E8FD02460B4643
:103F58002046294606F030FCC6E90001204BD3E98B
:103F680000670022304639461E4B07F05DF808B35B
:103F78001D4C3246D4E900013B4606F0F9FE3246B4
:103F8800C4E900013B46D4E9020106F0F1FEC4E9A8
:103F98000201164C3246D4E900013B4606F0E8FE21
:103FA8003246C4E900013B46D4E9020106F0E0FECE
:103FB800C4E9020105B0BDE8F08300BFAFF300809B
:103FC800D7A3703D0AD7EF3F7B14AE47E17A743F21
:103FD800560E2DB29DEFEF3FFCA9F1D24D62603F26
:103FE800704C00200000F03F48150020480A0020CF
:103FF8002DE9F04F7A4B1D6885B00F2D51EC100B51
:1040080057EC116B8DED000B8DED021B5CDC02464D
:104018000B4606F083FD32463B46804689463046CD
:10402800394606F07BFD02460B464046494606F0F7
:10403800C3FB00226B4B06460F4606F0FFFF08B194
:10404800694F0026694C04EBC504D4E9000158A364
:10405800D3E9002306F062FD57A3D3E90023804685
:1040680089463046394606F059FD0B460246494610
:10407800404606F0A1FB5E4B1B689D42C4E9000167
:104088005C4C0AD14EA3D3E9002306F047FD06F0A5
:10409800DFFF44F82500012409E04BA3D3E90023FE
:1040A80006F03CFD06F0D4FF44F825000024524BEE
:1040B800524A1B6802EB8302D2F80024954204BFDF
:1040C8004B4A1360013500E000244D4E4D4BD6E9B4
:1040D8000001D3E9002306F06FFB80468946C6E954
:1040E80000893BA3D3E9002306F09EFF002858D09F
:1040F80049EC108B9FED361B07F016F90F2D86ED56
:10410800000B04D13A4B1B680F2B08BF01243A4B14
:104118003D4E1F680FF2C00BDBE900AB0025F6E946
:1041280002895246404649465B4606F087FF10B171
:104138002F46C246CB460135102DF0D12E4B1F60BD
:10414800324B1B6813B3324A294B12681B68511C47
:104158008B4203D12F4B1A68013205E0013A934292
:1041680003D12C4B1A68013A1A602B4B1A68511C60
:10417800B2F59D7F19600FDB26490A68C8205043B5
:10418800264A106000220A601A6005E0234A13607C
:10419800204A1360204A1360154B1A681C4B0025EF
:1041A8001A600F4B20461D6005B0BDE8F08F00BFB8
:1041B8009C8FC1F9189CEF3FFA189C8FC1F9883F72
:1041C8000000000000208C400000000000708740C4
:1041D800FCA9F1D24D62A03F000000205FA002C2FE
:1041E800684D0020000010400000F03FF81D00203E
:1041F800C82A0020D84D0020584D00206C0E010818
:10420800704D002038130020F01D0020E84C0020DD
:10421800C42A002034130020CC4D0020385600203A
:10422800894B2DE9F74F1868884B1B6855EC104BE4
:10423800002B40F0318106F00BFC002280468946B5
:1042480020462946002306F0EFFE002866D02046C7
:10425800294673A3D3E9002306F0DCFE00285DD0CD
:1042680071A3D3E900232046294606F0A3FA0B469A
:104278000E467749774C02460546C1E90023284691
:104288006BA3D3E9002326F0004106F047FCD4E9EC
:1042980000AB52465B46CDE9000106F0B1FE20B105
:1042A80000206D4942464B4609E042464B4640468F
:1042B800494606F081FA0B4667490246002006F097
:1042C80057FD80468946002042464B46624906F023
:1042D80071FA52465B4606F021FCDDE9002382466E
:1042E8008B464046494606F019FC02460B465046A6
:1042F800594606F061FA594B1A68142AC4E90001B4
:1043080007DD5749534B002041EC170B83ED007B29
:1043180001E001321A600024524B70E02046294621
:104328003FA3D3E9002306F07FFE002800F0B48005
:104338002046294640A3D3E9002306F06BFE002857
:1043480000F0AA803EA3D3E900232046294606F0C0
:1043580031FA0B460E463E493E4C02460546C1E937
:104368000023284632A3D3E9002326F0004106F0B3
:10437800D5FBD4E900AB52465B46CDE9000106F017
:104388003FFE20B10020344942464B4609E04246F0
:104398004B464046494606F00FFA0B462E49024660
:1043A800002006F0E5FC80468946002042464B4640
:1043B800294906F0FFF952465B4606F0AFFBDDE9F6
:1043C800002382468B464046494606F0A7FB024634
:1043D8000B465046594606F0EFF9224B1A68142A44
:1043E800C4E9000107DD20491A4B002041EC170BF6
:1043F80083ED007B01E001321A60184B00241C6039
:10440800002200232846314606F00EFE174B184AB4
:1044180080B319681460013119602FE0AFF3008090
:10442800182D4454FB210940182D4454FB21F93F11
:104438000000000000C06240182D4454FB211940C0
:10444800D221337F7CD91240E81500203013002098
:1044580048400020004D00200000F03F5848002050
:1044680000003940BC2A0020000059407C4C002044
:10447800D84C002011681860013111601B68042BAA
:104488000ADC4F4B1B68042B06DC002000214D4B37
:1044980041EC170B83ED007B4B4B4C4C1A684C4B93
:1044A800022AD4BF002201221A604A4B0022D3E913
:1044B8000001494B06F0C2FD98B1484BD3E9000111
:1044C80006F0C6FD414BC0F1640020601A68444BF9
:1044D8001B689A42434B01DB012200E000221A606C
:1044E80003E0404A0023236013603F4B354C1B68B0
:1044F800D4E90001BBB12EA3D3E9002306F09EFD49
:1045080020B12BA1D1E90001C4E900012D4C2AA357
:10451800D3E90023D4E9000106F072FDD0B126A149
:10452800D1E9000114E00022304B06F087FD28B1E4
:104538002E49002041EC170B84ED007B214C2C4BBD
:10454800D4E90001002206F05BFD18B128490020DB
:10455800C4E90001274B2549274CD3E9006700200F
:1045680032463B4606F004FC02460B4600201F4933
:1045780006F020F9D4E9002306F0D0FA3246804646
:1045880089463B4600201D4906F0F2FB0D4BD3E956
:10459800002306F0C3FA02460B464046494606F099
:1045A8000BF9C4E90001BDE8FE8F00BFAFF300803E
:1045B800333333333333E33F333333333333E3BFCB
:1045C800D84C002048400020584800200C2F0020DC
:1045D800DC150020704C002000002440004D002015
:1045E800A01E0020E84C0020301300200000F03FFF
:1045F8000000F0BFF84C0020D04C00200000144010
:10460800894A8A4B8A492DE9F04FD2E90089C3E9E2
:104618000089884BD3E900AB57EC106B87B083ED6A
:10462800001B82ED000BC1E900AB32463B46404619
:10463800494655EC114B8DED041B8DED020B06F030
:104648006DFA2246CDE900012B465046594606F040
:1046580065FA02460B46DDE9000106F0ADF8224690
:10466800CDE900012B464046494606F057FA524626
:1046780004460D465B463046394606F04FFA024678
:104688000B462046294606F095F882468B46524648
:104698005B4606F043FA04460D46DDE90001024692
:1046A8000B4606F03BFA02460B462046294606F022
:1046B80083F841EC100B06F025FF5F4B5F4C604D13
:1046C800D3E9000100225F4B57EC106B06F0B6FCF3
:1046D80008B351A3D3E900233046394606F048FB16
:1046E8008046894642464B465046594606F040FBAE
:1046F80006F0AEFC2668424645F826004B46DDE942
:10470800000106F035FB06F0A3FC771C023645F8DD
:104718002700266008E02368591C022245F8232058
:104728009B1845F821202360444B1A6802F00F02B9
:104738004BEC11AB1A609DED000B06F0F3FD38A3AE
:10474800D3E9002351EC100B06F036F841EC100BBE
:10475800FFF766FD354BD3E90001334BD3E900235E
:1047680006F0DCF9324B04460D46D3E90001314B23
:10477800D3E9002306F0D2F902460B462046294623
:1047880006F01AF80023002206F058FC01242E4BEC
:1047980068B92E4A126800244AB11A68002A35D02E
:1047A800C2F38A022A491C60885C58B92EE01A684C
:1047B80044EA42021A60254B0CB9012200E00022AB
:1047C8001A6023E0234B1B68002B1FD0224A136872
:1047D800252B04DC2149C8540133136016E01F4A15
:1047E800012399189C5C0133252B01F8014CF8DD55
:1047F8001B4A1360194B83F825001A4B1B78012BB1
:1048080004D107B0BDE8F04F02F01ABB07B0BDE80D
:10481800F08F00BFAFF300800000000000408F4021
:10482800182D4454FB21094050480020B83F00206F
:10483800D04D0020F04C0020704C0020040F0020C8
:10484800102F002000002440B02F0020082F002047
:10485800B81E0020E84C00202C6D0020080F002016
:104868006C080020286D00202DE9F04F984B1A683D
:104878008BB0002A40D0013A002A1A60954A41DCE0
:1048880000211960944B1160D3E90067934BD3E979
:104898000045304622462B46394605F08DFF904BA1
:1048A8002246C3E900012B463046394605F082FF0F
:1048B8008C4C8D4B804689461868C4E9008906F0FF
:1048C800D9F802460B463046394606F027F97CA34C
:1048D800D3E9002306F04CFA844B0022C3E9000117
:1048E80040464946002306F095FB28B100220023E4
:1048F80043EC172B84ED007B7D4CDFF840820027CA
:10490800A14602E001231360F6E7734B37F808501D
:10491800D3E90001774BA580D3E9002305F04CFFCC
:1049280069A3D3E9002306F0F9F806F091FBA36820
:10493800714AC018011101F580610905090DA060CF
:10494800C0F30B1032F8211032F82030E181A38136
:1049580015FB01F115FB03F5E36921610AA800EBDA
:104968004302C1F3CF316561C5F3CF3522F8201C6E
:1049780022F8105C5A1C614B21831340002B65837D
:1049880003DA013B63F003030133C9F81C30002B41
:1049980040F08D80226A5A4804AB03EB420202A918
:1049A800042305F081F8226A08A800EB42020423D8
:1049B800544806A905F078F8226A504B0132134092
:1049C800002B03DA013B63F0030301332362002B5E
:1049D8006DD14D484D4A4E4D4E4E04A9042305F065
:1049E80063F84D484D4A08A9042305F05DF8A38CE7
:1049F80046492385E38C4A48638501F1080201236F
:104A080005F004F94549474801F10802012305F07A
:104A1800FDF84549454801F10802012305F0F6F87B
:104A28004349444801F10802012305F0EFF8B4F9BD
:104A3800300006F00DF882468B46B4F93200C5E91D
:104A480000AB06F005F802460B46C5E90223B4F9A7
:104A58002C000192009105F0FBFFC6E90001B4F9B2
:104A68002E0005F0F5FF009B019A4BEC10AB43ECD0
:104A7800112BC6E90201FFF71DFA2F4B1B6895EDB4
:104A8800000B95ED021B13B1FEF7C8FF01E0FFF71D
:104A9800E1F896ED000B96ED021B1E4DFFF7A8FA04
:104AA80028B195ED000B95ED021BFFF7A9FD023724
:104AB800B7F5806F7FF429AF0BB0BDE8F08F00BF6A
:104AC800182D4454FB21194039D6C56D305FC440B8
:104AD800084D0020EC1D0020D02A0020D82A0020F4
:104AE800784D0020604D0020000F0020E0150020C8
:104AF8006C080020405A0020B4120108030000800E
:104B08007000002040000020640000209008002071
:104B1800480A002048150020340000209208002090
:104B28005800002028000020940800204C00002095
:104B3800960800201C000020E02A0020300F0020EA
:104B480010B58721AA20FEF713F940F00102D2B26E
:104B5800AA208721FDF7E6FF092401E0013C05D0E2
:104B6800AA208721FEF704F9C307F7D410BD0A234A
:104B780090FBF3F0364B98422DE9F04F4ADC354C68
:104B8800354ADFF8E090DFF8E080830094FBF3F427
:104B9800E10748BF01340B23434392FBF3F3802C16
:104BA800A8BF8024DA0748BF013B23EAE37A002341
:104BB80019461A4614E0002515F80970DFF8ACC04C
:104BC80007FB04F64643B444C44505D80BB19E42DE
:104BD80002DC3346394622460135062DECD1023C2B
:104BE8005445E8DC24E015F809C0DFF880800CFBA8
:104BF80007F64643B044D84505D80CB1A64202DCB6
:104C0800344661463A460135062DECD10133022B74
:104C18000AD10DE0DFF858A0DFF84CB000231C469D
:104C280019461A46AAF1060913F80A700025DAE7A8
:104C380007EE101A094BF8EEC77A07EE102AC3EDF3
:104C4800007AF8EEC77A064BC3ED007ABDE8F08F1C
:104C58001CC6A002C0BBCB214083E81CA06C00206E
:104C6800786C0020AC1201088038E304C07C17E39C
:104C7800B2120108F8B52E4B2E4C0546186805F0FF
:104C8800F9FE00222C4B05F095FD00222B4B05F078
:104C980045FF064620680F4605F0ECFE0022284B2B
:104CA80005F088FD0022274B05F038FF02460B4629
:104CB8003046394605F080FD06F0F2F92870206884
:104CC800214E224C05F0D6FE00221D4B05F072FD48
:104CD80006F0E6F9C0B280016870D6E9000106F076
:104CE800DFF920606B7843EA10106870206805F0DF
:104CF8009FFE02460B46D6E9000105F05BFD002247
:104D0800134B05F00BFF06F0A3F9124B68711860FE
:104D1800020A000CE8702A71DB7803F00F03AB700D
:104D280023681B01DBB22360AA781343AB70F8BD7C
:104D3800A06C0020786C002000001040000040406B
:104D48000000F03F0000D03F886C0020AC6C0020D1
:104D58000000B041606C002070B50278520904323E
:104D680007EE102A214AF8EEC77A0346C2ED007A08
:104D7800017842781C7901F01F01920902EB810247
:104D8800013207EE102A1A4AF8EEC77AC2ED007A05
:104D98004178184A01F03F0111608078000900EB62
:104DA800011010609978144A01F00F011160DE7843
:104DB8005B7906EB012604EB062603EB0626166054
:104DC80005F036FE044630460D4605F031FE002259
:104DD8000A4B05F0A3FE0B4602462946204605F07D
:104DE800EBFC074BC3E9000170BD00BFA06C0020BD
:104DF800786C0020AC6C0020606C00200000303E15
:104E0800886C002008B5AA208721FDF7B1FF014B67
:104E1800187008BDA86C002038B505460724AA20DC
:104E28002146FDF7A5FF0134E4B20D2C05F8010B6E
:104E3800F5D138BD38B5134CFFF782FE2046FFF791
:104E4800EBFF2046FFF788FF0F4B186805F012FEAE
:104E58000E4BD3E9002305F061FE0D4B044618689C
:104E68000D4605F007FE02460B462046294605F08A
:104E780055FE084BD3E9002305F07AFF064BC3E93A
:104E8800000138BD686C0020A06C0020986C0020E0
:104E9800786C0020886C0020806C0020F8B51A4BD4
:104EA800D3E90067194BD3E9004530463946224615
:104EB8002B4606F09BF808BB3046394622462B465F
:104EC80006F09EF820B12046294632463B4603E0CC
:104ED8003046394622462B4605F06CFC32463B46A6
:104EE80005F046FF06A3D3E90023012406F092F853
:104EF80000B9002484F00104E0B2F8BD0020F8BD38
:104F080079E9263108AC6C3FB86C0020886C002029
:104F180010B589210446AA20FDF72AFF40F01002A7
:104F2800D2B28921AA20FDF7FDFD224606230721DA
:104F3800AA20FDF787FE8921AA20FDF719FF8921FC
:104F480000F0EF02AA20FDF7EDFDFFF7A7FF80B103
:104F58008721AA20FDF70CFF40F04002D2B2AA2018
:104F68008721FDF7DFFDAA208721FDF701FF400615
:104F7800F9D410BDF8B580EAE075A5EBE0752846D0
:104F8800FFF7F5FD284605F063FD164B164C174D47
:104F9800064618680F4605F06DFD02460B4630467A
:104FA800394605F0BBFD124B064618680F4605F05A
:104FB80061FD02460B463046394605F0AFFD0D4B04
:104FC800D3E9002305F0D4FEC4E900012846FFF721
:104FD80051FE2846FFF79CFF94ED007B064B83EDBE
:104FE800007BF8BDA06C0020886C0020686C002055
:104FF800786C0020806C0020B86C00200BA1D1E9EF
:105008000001074B10B5C3E90001064C064B2360AD
:10501800FFF710FF2068BDE81040ABE7AFF3008052
:10502800986C0020906C002040085A030000000093
:1050380000DB8A41AFF300804FF0C04322221A8080
:105048007047014B18807047000002604FF0C04362
:10505800188003F50033198070474FF0C0430722CA
:105068001A8003F5003302F5B6721A8070474FF0C4
:10507800C04307221A8003F5003300221A807047C4
:1050880082B0084BADF80600ADF80410BDF8062054
:1050980092B21A80BDF80420034B92B21A8002B073
:1050A800704700BFA0080020CC030020044B1B88D9
:1050B8009BB20380034B1B889BB20B80704700BFD9
:1050C800A0080020CC03002082B0044BADF80600F5
:1050D800BDF8062092B21A8002B07047A0080020DE
:1050E80082B0044BADF80600BDF8062092B21A80D3
:1050F80002B07047CC03002082B0044BADF8060024
:10510800BDF8062092B25A8002B07047CC03002046
:105118004FF0C04220231380024B188021201080BA
:105128001980704700000260B0F5A07F08B50346FB
:105138000EDAEF290CDC88B299B2FFF7E9FF4FF0DD
:10514800C04322221A80034B1A88034B92B21A805A
:1051580008BD00BFA008002000000260B0F5A07FD5
:1051680010B5034614460DDAEF290BDC88B299B264
:10517800FFF7CEFF4FF0C04322221A8003F5003319
:10518800A4B21C8010BD2DE9F04F824E73888FB0F9
:105198009BB2082B01908A4614462CD102A81146CE
:1051A800FAF7F8FF0AF10707BFB2002505F108036F
:1051B8006A46072613F802B0019B0FFA87F91FFA0F
:1051C80083F84BFA06F313F0010F14BF724B714BBF
:1051D8001A880FFA88F012B24946013EFFF7BEFF5F
:1051E80008F10108701C1FFA88F8EAD10135013F5F
:1051F800082DBFB2DAD1674E73889BB20C2B2CD125
:1052080002A82146FAF7D0FF0AF10B07BFB2002522
:1052180005F108036A46072613F802B0019B0FFA46
:1052280087F91FFA83F84BFA06F313F0010F14BF3E
:10523800594B584B1A880FFA88F0494612B2013E6A
:10524800FFF78CFF08F10108711C1FFA88F8EAD1F2
:105258000135013F0C2DBFB2DAD14E4E73889BB297
:10526800102B2CD102A82146FAF7B2FF0AF10F073A
:10527800BFB2002505F108036A46072613F802B0F5
:10528800019B0FFA87F91FFA83F84BFA06F313F01C
:10529800010F14BF404B3F4B1A880FFA88F012B227
:1052A8004946013EFFF75AFF08F10108721C1FFA30
:1052B80088F8EAD10135013F102DBFB2DAD1354E59
:1052C80073889BB20E2B2CD102A82146FAF776FFE1
:1052D8000AF10B07BFB2002505F108036A460B2641
:1052E80033F802B0019B0FFA87F91FFA83F84BFADB
:1052F80006F313F0010F14BF274B264B1A880FFA39
:1053080088F012B24946013EFFF728FF08F101086C
:10531800731C1FFA88F8EAD10235013F182DBFB275
:10532800DAD11C4D6B889BB2182B2FD1214602A8CD
:10533800FAF758FF0AF1170ADFF85CB01FFA8AFA81
:105348000024A94604F108036A46002533F80280C0
:10535800019B0FFA8AF79EB248FA05F313F0010F82
:1053680014BFBBF80020B9F8002030B212B2394699
:1053780001350136FFF7F2FE102DB6B2ECD102343A
:105388000AF1FF3A302C1FFA8AFADBD10FB0BDE8D8
:10539800F08F00BFCC030020A0080020F8B5044619
:1053A8000D46164640F2371716F8012B20B229B2DF
:1053B800FFF7E9FEBC420FD80D4B5A8892B2182A63
:1053C80001D1103404E05B889BB20E2B02D0083464
:1053D800A4B209E00C34FBE7DF2D03D81035ADB2D9
:1053E800002401E000252C463378002BDCD1F8BDE1
:1053F800CC0300202DE9F047294BDFF8B0A02DEDB4
:10540800028BD3E9000124A3D3E9002305F0D2F9E4
:1054180005F066FEDFED237A08EE100A88EE278A8B
:105428002826002407EE104AF8EE477AF4EE487A68
:10543800F1EE10FA16D0AF27002504EB0A090FFA8F
:1054480086F899F808309D42404639B201D21F22A9
:1054580001E04FF0FF3201350137FFF77FFE402DA5
:10546800BFB2EED101340136F02CB6B2DAD1BDEEBE
:10547800C88AB32418EE105A28352DB221B2013447
:105488002846094AA4B2FFF769FEEF2CF6D1BDEC15
:10549800028BBDE8F08700BF0000000000405F40BD
:1054A800E015002000007A4100F8FFFF806D002021
:1054B8002DE9F0471F4604460D461646FFF728FE1D
:1054C800FFB94FF0C04322221A80134A03F5003374
:1054D80003E0118889B219800137B742F9D3BDE8D2
:1054E800F0872223AAF80030B9F8003001349BB2C3
:1054F800A4B2A8F8003020462946FFF709FE013774
:1055080006E0DFF81490DFF8148000274FF0C04A57
:10551800B742E6D3BDE8F087A0080020000002608B
:105528002DE9F74F99465B181BB205460C461646FF
:10553800804600270FFA81FB01930EE00FFA88FAE4
:1055480050465946FFF7F0FD50460199FFF7ECFD2C
:1055580008F1010801371FFA88F8BE42EEDA0FFA9F
:1055680085FA751900272DB20CE00FFA84F8504619
:105578004146FFF7D9FD28464146FFF7D5FD0134DE
:105588000137A4B2B945F0DABDE8FE8F2DE9F84F2E
:1055980002EB010A05460C461646804600270FFA1C
:1055A80081FB0FFA8AFA0EE00FFA88F94846594645
:1055B800FFF7BAFD48465146FFF7B6FD08F1010866
:1055C80001371FFA88F8BE42EEDA0FFA85F9751925
:1055D80000272DB20FFA84F848464146FFF7A4FD8C
:1055E8000137284641460134FFF79EFDBE42A4B26A
:1055F800F0DABDE8F88F2DE9F84F4FEA4208C8F114
:10560800030805460C461FFA88F81746002606EBDD
:10561800050A07EB040B0FFA8AFA0FFA8BFB5046C0
:105628005946C7EB0409FFF77FFD0FFA89F9504681
:10563800C6EB050A49460FFA8AFAFFF775FD504688
:105648005946FFF771FD06EB040B504607EB050AB8
:1056580049460FFA8AFA0FFA8BFBFFF765FDC6EB8E
:10566800040950465946FFF75FFD0FFA89F950467D
:10567800C7EB050A49460FFA8AFAFFF755FD504667
:105688005946FFF751FD50464946FFF74DFD18F4BE
:10569800004F06D008EB860808F106081FFA88F8BC
:1056A80008E0F31B08F10A0808EB8308013F1FFA1A
:1056B80088F8BFB20136B6B2BE42A8D9BDE8F88FA5
:1056C8002DE9F84F04460D4616469A46002715E080
:1056D8000FFA89F1584609F10109FFF725FD08F18C
:1056E80001081FFA89F904E0A9464FF000080FFAEB
:1056F80084FBD045ECDB01340137A4B2B742F3DBBD
:10570800BDE8F88F2DE9F04704460D46914600267E
:1057180012E0A84600270FFA84FA0FFA88F15046DB
:105728000137FFF701FD08F101084F451FFA88F816
:10573800F3DB01340136A4B24E45EADBBDE8F0875D
:105748002DE9F04FC1EB030CC0EB0209B9F1000FD2
:10575800B8BFC9F10009BCF1000FB8BFCCF1000C0B
:105768004FF6FF761FFA89F91FFA8CFC824234BF84
:10577800374601278B4234BFB0464FF001080FFA75
:105788008CF20FFA89F6964285B084B28DB24FF04A
:10579800020307DB96FBF3F63A460027B6B2E34668
:1057A8003B4608E092FBF3F643464FF00008CB4631
:1057B800B6B2E14642464FF0000A0FFA89FC20E0F3
:1057C80020B229B25E4403920293CDF804C0FFF7D9
:1057D800ABFCB1B28EB2DDF804C0039A029B30B2C2
:1057E800604506DBC9EB0106E4194544B6B2A4B22C
:1057F800ADB2A418ED180AF1010AA4B2ADB21FFAAD
:105808008AFA0FFA8AF16145DADD05B0BDE8F08F52
:105818002DE9F74F012904460D46019234D9B0F815
:105828000080B0F802A08346061D1DE0C4EB0B07FC
:1058380007EB0609BA5BB9F802301FFA88F81FFAB5
:105848008AFA4244534492B29BB240465146FFF70B
:1058580077FFBA5BB9F8023090449A441FFA88F887
:105868001FFA8AFA0BF1040B013DADB2002DDDD110
:10587800019B4BB1208861881FFA88F21FFA8AF3CE
:1058880003B0BDE8F04F5BE703B0BDE8F08F2DE94A
:10589800F0475600C6F1030607468846B6B21546D5
:1058A800002405EB0809E019C5EB080A1FFA89F975
:1058B80080B21FFA8AFA494602465346FFF740FF6C
:1058C800381B80B2494602465346FFF739FF04EBBE
:1058D8000809E819C4EB080A80B21FFA89F91FFA07
:1058E8008AFA024649465346FFF72AFF781B80B2D8
:1058F800534649460246FFF723FF330404D506EB17
:1059080084060636B6B206E0631B0A3606EB830643
:10591800013DB6B2ADB20134A4B2AC42C1D9BDE8C2
:10592800F0872DE9F3410220012102F081FD0026D4
:105938000125022769464E484E4C8DF804500097C1
:105948008DF805708DF806608DF8076002F0C8F9CB
:105958001820294602F06CFD2846294602F080FDF1
:10596800204631460C2202F03BFA204629460C22FA
:1059780002F036FA204604210C2202F031FA2046C1
:1059880005210C2202F02CFA204607210C2202F0F5
:1059980027FA204608210C2202F022FA2046092183
:1059A8000C2202F01DFA20460A210C2202F018FAF5
:1059B80020460B210C22304D02F012FA20460E210F
:1059C8000C2202F00DFA20460F210C2202F008FAF0
:1059D800284607210C2202F003FA284608210C2247
:1059E80002F0FEF9284609210C2202F0F9F92846AE
:1059F8000A210C2202F0F4F928460B210C2202F0AD
:105A0800EFF90C2128460A4602F0EAF928460D214A
:105A18000C2202F0E5F928460E210C2202F0E0F9EA
:105A280028460C220F2102F0DBF94FF003084CF650
:105A3800B3732046694600938DF804708DF805808D
:105A48008DF806608DF8076002F04AF94FF680730A
:105A58002846694600938DF804708DF805808DF806
:105A680006608DF8076002F03BF9BDE8FC8100BFD5
:105A780000040240000C02400010024070B596B0CD
:105A880002231193102303934FF48053002401251C
:105A980009930FAE4FF4002368460C930F941094AB
:105AA80012941395149415940094019402940494F8
:105AB8000694079408940A9405940B940D9601F0A3
:105AC80088FE042368460F9410941193129413953A
