:020000040800F2
:1000000000000220E1E40008815500088355000843
:100010008555000887550008895500080000000034
:100020000000000000000000000000008B550008E8
:100030008D550008000000008F55000891550008FC
:1000400025E5000825E5000825E5000825E5000868
:1000500025E5000825E500086175000893550008AE
:1000600025E5000825E5000825E5000879100008C9
:1000700025E5000825E5000825E5000825E5000838
:1000800025E5000825E5000825E5000825E5000828
:1000900025E5000825E5000825E5000809700008A9
:1000A00025E5000825E5000825E5000825E5000808
:1000B000B955000825E5000825E5000825E50008F4
:1000C00025E5000825E5000825E5000825E50008E8
:1000D00025E5000825E500080572000825E500086B
:1000E00025E5000825E5000825E5000825E50008C8
:1000F00025E5000825E5000825E5000825E50008B8
:1001000025E5000825E5000825E5000825E50008A7
:1001100025E5000825E5000825E5000825E5000897
:1001200025E5000825E5000825E5000825E5000887
:1001300025E5000825E5000825E5000825E5000877
:1001400025E5000825E5000825E50008BD5500085F
:1001500025E5000825E5000825E5000825E5000857
:1001600025E5000825E5000825E5000825E5000847
:1001700025E5000825E5000825E5000825E5000837
:0801800025E5000825E5000853
:10018800809E010800000020BC080020C008002054
:100198003C790020034B203903EBC10108220FF002
:1001A80001BB00BFC0F80008034B0C2202FB013161
:1001B800A1F5C0710FF0F6BAB8FB0008034B18227E
:1001C80002FB0131A1F540710FF0ECBA2C000108D7
:1001D800034B203903EB011110220FF0E3BA00BFE3
:1001E80014090108034B302202FB0131A1F5C0615B
:1001F8000FF0D8BA040F010838B500F0C7F900F0BD
:10020800C7F90E4B0E4D0F4800241C80082101220F
:100218000AF087FF00F09FF900F0BCF9B5F900007B
:1002280000F01EF9B5F9020000F0F6F8204600F0DB
:1002380042F90620BDE8384000F0B4B8A009002013
:10024800300A0020000C024008B500F09FF900F0C9
:100258009FF9104B01221A8000F07DF9002000F070
:10026800FFF8002000F027F900F0AFF90A4BB3F9C6
:10027800040000F0D1F80821002208480AF051FFD4
:100288004FF47A7002F0C2FF1820BDE8084000F071
:10029800A6B800BFA0090020300A0020000C0240C8
:1002A800114B002210B51A6000F070F900F070F9D7
:1002B8000E4B0F4C01221A8000F04DF9B4F90600DC
:1002C80000F0CEF8082100220A480AF02AFF4FF46D
:1002D8007A7002F09BFF142000F081F8B4F90A004C
:1002E800BDE8104000F05EB8C8090020A009002051
:1002F800300A0020000C024010B500F047F900F069
:1003080047F90E4B0E4C01221A8000F024F9B4F97B
:10031800080000F0A5F8082100220A480AF001FFA9
:100328004FF47A7002F072FF142000F058F8B4F914
:100338000A00BDE8104000F035B800BFA009002051
:10034800300A0020000C02402DE9F341144F082028
:10035800012102AC0BF018FA0026012504234FF006
:1003680002083846694644F8083D8DF804608DF85F
:1003780005808DF806608DF807500AF05DFE0823A9
:10038800384669468DF804508DF805808DF806606A
:100398008DF8075000930AF04FFEBDE8FC8100BFBE
:1003A800000C024010B5002101220446302002F062
:1003B80049FCE4B2012002F029FF10212246302036
:1003C80002F040FC012002F021FF302011212246DA
:1003D80002F038FC0120BDE8104002F017BF10B54C
:1003E800002101220446302002F02CFCE4B2012056
:1003F80002F00CFF12212246302002F023FC0120DB
:1004080002F004FF30201321224602F01BFC0120D9
:10041800BDE8104002F0FABE002810B5044603DB20
:100428005F2CA8BF5F2400E00024002101223020B7
:1004380002F008FCE4B2012002F0E8FE3B2122466B
:10044800302002F0FFFB012002F0E0FE30203C21CA
:10045800224602F0F7FB0120BDE8104002F0D6BEAC
:10046800302810B504460ADC10F17F0F02DB0028A3
:1004780002DB05E06FF07E0404F5807400E03024B0
:1004880000210A46302002F0DDFBE4B2012002F030
:10049800BDFE41212246302002F0D4FB012002F0AB
:1004A800B5FE30204221224602F0CCFB0120BDE8F7
:1004B800104002F0ABBE282810B5044609DC10F144
:1004C800180F02DB002802DB04E06FF017047F340A
:1004D80000E0282400210A46302002F0B3FBE4B2F1
:1004E800012002F093FE53212246302002F0AAFB9D
:1004F800012002F08BFE30205421224602F0A2FB9C
:100508000120BDE8104002F081BE08B5002101229B
:10051800302002F097FB012002F078FE30203321D2
:10052800402202F08FFB0120BDE8084002F06EBEB9
:1005380008B500210122302002F084FB012002F0DE
:1005480065FE30203321002202F07CFB0120BDE84B
:10055800084002F05BBE08B500210122302002F0FD
:1005680071FB012002F052FE34210022302002F0FB
:1005780069FB012002F04AFE30203721002202F0F8
:1005880061FB0120BDE8084002F040BE402009E7B9
:10059800402024E708B500210122302002F052FB58
:1005A800012002F033FE30203421024602F04AFBDB
:1005B800012002F02BFE30203721024602F042FBD8
:1005C8000120BDE8084002F021BE08B50021012243
:1005D800302002F037FB012002F018FE30203421D1
:1005E8000C2202F02FFB0120BDE8084002F00EBEED
:1005F80007B5042001210BF0C7F801214FF4804012
:100608000BF0F2F8002302A98DF8043001238DF8CD
:1006180007304FF4007341F8083D024869460AF074
:100628000BFD0EBD00080240F8B56A4B6A486B49DD
:100638006B4A1B6890ED006AD1ED006A92ED007A72
:10064800002B61D16748684E684D19461A4640F23A
:10065800FF1432F900E005EE10EA1718F8EEC57A33
:10066800B7F9027067EE865A05EE107AFDEEE55A84
:1006780067EEA67A15EE90EAF8EEC55A013375EEE4
:10068800A75A9BB265EE875A21F806E0FDEEE55AB7
:10069800043215EE907A4F531FB20231A742D8DDCB
:1006A800534B5448504D514CC3ED007A0023194622
:1006B8001A46575B0E180F520133175B9BB27780AF
:1006C8001EB202320431FF2EF3DD4B4A4B4E13802B
:1006D80000F050FD00F05CFD00F068FD04F0EAF960
:1006E80000F084FD002346481A46194640F2FF15DB
:1006F8008C5B171801339BB214527C801CB20231F8
:100708000432AC42F4DD61E000233E48364E374DFA
:1007180019461A4640F2FF1432F900E005EE90EA55
:100728001718F8EEE57AB7F9027067EE865A05EE03
:10073800107AFDEEE55A67EEA67A15EE90EAF8EE25
:10074800C55A013375EEA75A9BB265EE875A21F850
:1007580006E0FDEEE55A043215EE907A4F531FB2CB
:100768000231A742D8DD224B22481F4D1F4CC3ED52
:10077800007A002319461A46575B0E180F520133A8
:10078800175B9BB277801EB202320431FF2EF3DD75
:10079800194A1A4E138000F0EDFC00F0F9FC00F045
:1007A80005FD04F087F900F021FD002316481A46DC
:1007B800194640F2FF158C5B171801339BB214528F
:1007C8007C801CB202310432AC42F4DD0A4A138048
:1007D800F8BD00BF50270020F80900201C0A00209F
:1007E800780900204C380020841A00209A2B002019
:1007F8009C090020D4560020982B00208416002045
:100808004C300020C04E0020E8400020F8B5624B74
:1008180062481A686249634BD0ED005A91ED006A4C
:10082800D3ED006A002A59D15F4D604C60481346E9
:1008380040F2FF1135F9136007EE106AF8EEC77A37
:10084800013227EEA57A92B2BDEEC77A17EE106A8A
:1008580027EE867A1E5377EE877A67EEA67AFDEE44
:10086800E77A17EE906A1E5216B202338E42E1DD25
:10087800504B51484D4D4E4C83ED007A002319469C
:100888001A46575B0E180F520133175B9BB27780DD
:100898001EB202320431FF2EF3DD484A484E13805F
:1008A80000F068FC474D00F073FC00F09FFC00234B
:1008B800454819461A4640F2FF1432F806C00F1888
:1008C80021F800C0013332F805C09BB2A7F802C076
:1008D8001FB202320431A742EFDD59E000223B4D3E
:1008E800324C3348134640F2FF1135F9136007EED6
:1008F800106AF8EEC77A013227EEA57A92B2BDEEF9
:10090800C77A17EE106A27EE867A1E5377EE877A33
:1009180067EEA67AFDEEE77A17EE906A1E5216B2D7
:1009280002338E42E1DD234B2348204D204C83EDDA
:10093800007A002319461A46575B0E180F520133E6
:10094800175B9BB277801EB202320431FF2EF3DDB3
:100958001A4A1B4E138000F00DFC1A4D00F018FCCB
:1009680000F044FC00231A4819461A4640F2FF14C6
:1009780032F806C00F1821F800C0013332F805C05C
:100988009BB2A7F802C01FB202320431A742EFDDC2
:100998000A4A1380F8BD00BF50270020CC09002068
:1009A8002C0A0020780900204C380020841A0020E6
:1009B8009A2B00209C090020D4560020982B002058
:1009C800880B0020F44800204C300020C04E002046
:1009D800E84000202DE9F0472DED088BA64B82B0AA
:1009E800D3E90001A0A3D3E900230DF043FAA34BF8
:1009F800044618680D460DF0E9F902460B462046F4
:100A080029460DF061FB9E4B9E4AC3E900019E4BAF
:100A18001C689E4B93ED00BA9D4BCDE90001D3EDC8
:100A280000BA9C499C4BDFED9D9A9FED9D9ADFEDA6
:100A38009D8A91ED00AAD2ED00AA1E6893ED018A65
:100A4800002C40F08680984FDFF86882DFF86892C3
:100A5800254640F2FF1A86A3D3E90023DDE9000109
:100A68000DF008FA0DF0A0FC7AEE487A28EE098A13
:100A780007EEA98A3618C8EE287A331103F5806381
:100A88001B051B0D013437F8232013B2A4B206EE60
:100A9800903AB8EEE67A67EE2A6A66EEA76AFDEE45
:100AA800E66A16EE903A67EE0B6A25F8083037EEDC
:100AB800267A27EE277A27EE2B7ABDEEC77A17EE2D
:100AC800103A25F8093023B202355345C3DD724B7D
:100AD80076481E601A8183ED018A83ED038A744B80
:100AE800744D754CC3ED007A744BC3ED006A002356
:100AF80019461A46575B0E180F520133175B9BB203
:100B080077801EB202320431FF2EF3DD6C4A6D4E3F
:100B1800138000F02FFB6C4D00F03AFB00F066FBF1
:100B280000236A4819461A4640F2FF1432F806C0F4
:100B38000F1821F800C0013332F805C09BB2A7F89E
:100B480002C01FB202320431A742EFDD5C4A1380B3
:100B580085E00024544FDFF85C81DFF85C9125467E
:100B680040F2FF1A42A3D3E90023DDE900010DF0AA
:100B780081F90DF019FC7AEE487A28EE098A07EE19
:100B8800A98A3618C8EE287A331103F580631B0545
:100B98001B0D013437F8232013B2A4B206EE903AA5
:100BA800B8EEE67A67EE2A6A66EEA76AFDEEE66AAE
:100BB80016EE903A67EE0B6A25F8083037EE267A7B
:100BC80027EE2B7A27EE277ABDEEC77A17EE103A72
:100BD80025F8093023B202355345C3DD2E4B33487F
:100BE8001E601A8183ED018A83ED038A304B314DF3
:100BF800314CC3ED007A314BC3ED006A002319462E
:100C08001A46575B0E180F520133175B9BB2778059
:100C18001EB202320431FF2EF3DD294A294E138019
:100C280000F0A8FA284D00F0B3FA00F0DFFA00232C
:100C380027481A46194640F2FF1431F806C01F1813
:100C480023F800C0013231F805C092B2A7F802C0FB
:100C580017B202310433A742EFDD194B1A8002B0F4
:100C6800BDEC088BBDE8F087182D4454FB211940D2
:100C780039D6C56D305FC44078160020980F002023
:100C8800D8090020CC090020502700202C0A002079
:100C980078090020104D0020C0080020CDCCCC3CA5
:100CA8009A99793F00FCFF46C8450108D4560020B0
:100CB800C8090020841A00209A2B00209C090020D3
:100CC800982B0020880B0020F44800204C3000208E
:100CD800E8400020F8B56C4B2DED028BD3E90001FC
:100CE80065A3D3E900230DF0C5F8684B04461868DE
:100CF8000D460DF06BF80B460246294620460DF0CE
:100D0800E3F9634B634DC3E90001634B1B68002B98
:100D180040F0A9802B8040F2FF169FED608A6BE0BF
:100D28005B4B5F4CD3E9000155A3D3E900230DF0D9
:100D3800A1F80DF039FB2369C018021102F5806291
:100D48001205120D2061574BC0F30B1053F82010F9
:100D580053F82230A182E38204F092F852492B889A
:100D6800D1ED007AB4F9141006EE901A67EE887A7D
:100D7800B8EEE67A4D4967EE877A1AB2FDEEE77A61
:100D8800013317EE900AD1ED007AB4F916102B80D2
:100D980006EE901A67EE887AB8EEE67A67EE877AFA
:100DA800FDEEE77A17EE901A411809B207EE101A0D
:100DB8003F49F8EEC77A91ED007A27EE877A3D49E8
:100DC800BDEEC77A17EE100A21F812003A4991EDE4
:100DD800007A3A4927EE877A81ED007A384977EE2A
:100DE800877AD1ED006A67EEA67A3649FDEEE77A92
:100DF80017EE900A21F81200B5F90030B3428FDDE2
:100E0800002331482B4D2F4C19461A46575B0E18B4
:100E18000F520133175B9BB277801EB20232043146
:100E2800FF2EF3DD1B4A294E138000F0A3F9284D4D
:100E380000F0AEF900F0DAF90023264819461A4600
:100E480040F2FF1432F806C00F1821F800C0013331
:100E580032F805C09BB2A7F802C01FB202320431B3
:100E6800A742EFDDDAE000232B8040F2FF169FED6A
:100E78000B8A9DE0AFF30080182D4454FB211940E4
:100E880039D6C56D305FC44078160020980F002011
:100E9800D8090020982B0020502700208FC2F53C4D
:100EA800C0080020C8450108240A0020C409002001
:100EB800CC090020841A00202C0A00209C0900205C
:100EC800780900209A2B0020D4560020880B002097
:100ED800F44800204C300020554B564CD3E9000113
:100EE80051A3D3E900230CF0C5FF0DF05DFA236987
:100EF800C018021102F580621205120D20614E4BD6
:100F0800C0F30B1053F8201053F82230A182E3826B
:100F180003F0B6FF49492B88D1ED007AB4F91410D3
:100F280006EE901A67EE887AB8EEE67A444967EEDC
:100F3800877A1AB2FDEEE77A013317EE900AD1EDFF
:100F4800007AB4F916102B8006EE901A67EE887AAC
:100F5800B8EEE67A67EE877AFDEEE77A17EE901A32
:100F6800411809B207EE101A3649F8EEC77A91ED22
:100F7800007A27EE877A3449BDEEC77A17EE100A51
:100F880021F81200314991ED007A314927EE877A2C
:100F980081ED007A2F4977EE877AD1ED006A67EE06
:100FA800A67A2D49FDEEE77A17EE900A21F812008D
:100FB800B5F90030B3428FDD00232848224D264C76
:100FC80019461A46575B0E180F520133175B9BB22E
:100FD80077801EB202320431FF2EF3DD204A214E03
:100FE800138000F0C7F8204D00F0D2F800F0FEF8AA
:100FF80000231E4819461A4640F2FF1432F806C06C
:101008000F1821F800C0013332F805C09BB2A7F8C9
:1010180002C01FB202320431A742EFDD104A13802A
:10102800BDEC028BF8BD00BF39D6C56D305FC4403A
:10103800D8090020C0080020C8450108240A00205B
:10104800C4090020CC090020841A00202C0A0020A2
:101058009C090020780900209A2B0020D4560020F3
:10106800982B0020880B0020F4480020E84000203E
:1010780008B5244809F02DFC234B1860234809F0D3
:1010880028FC234B4FF480511860012221480AF0B4
:1010980048F8214BB3F9003013B9FFF7C5FA21E03E
:1010A8001E4B1B88012B06D002D3022B1AD117E046
:1010B800FFF7ACFB16E04FF4007119480AF01BF873
:1010C800184B9FED197ADFED197A18700028184B24
:1010D80018BFF0EE477AC3ED007AFFF77BFC01E01A
:1010E800FFF7F8FD00220B484FF480510AF019F879
:1010F800104B0448104901221A80BDE8084009F045
:1011080069BC00BF10600240502700208860024080
:1011180044300020000C0240A0090020DE08002016
:1011280000080240280A00200000000000FCFF46DA
:10113800104D0020E809002020800010AFF3008047
:1011480007B5082001210AF01FFB4FF44053009314
:1011580001238DF804300222002305488DF806305B
:1011680069468DF805208DF8073009F065FF0EBD3A
:10117800000C024003480449044A4FF400730BF082
:10118800F1BE00BF00000020841A0020880B002058
:1011980003480449044A4FF400730BF0E3BE00BF50
:1011A8000C0000209A2B0020F4480020F0B5DFF84E
:1011B80038C0094F094E0A4D0A4C002333F80C1069
:1011C800D85B0A1A92B241189A5359531A530233E8
:1011D800B3F5806FF2D1F0BDF448002084160020EA
:1011E80054270020C80F0020880B002070B50F4C32
:1011F8000F4D104E298B0022012320460CF04CFC89
:101208000D4B187020460D4C31460CF02BFC304627
:10121800062122464FF480730BF072FD2A8B084991
:101228002046BDE870400BF0FDBC00BFE46C002018
:1012380000000020D4560020E2670020E26300206E
:10124800D813002038B505460C460135C1F30721EF
:1012580001F0EAFFA8B2E1B201F0E6FF00B238BD42
:1012680038B5044601F0E8FE01340546A0B201F0A5
:10127800E3FEEDB2C0B240EA052000B238BD37B592
:101288000B0E8DF804300B0C8DF805300B0A8DF819
:1012980006308DF80710002400E0284601AB451CF5
:1012A800E15C013401F0C0FF042CADB2F5D13EBDC4
:1012B80037B5002400E02846451C01F0BDFE01AB0F
:1012C800ADB2E0540134042CF5D19DF805009DF829
:1012D8000430000440EA03609DF8073018439DF885
:1012E800063040EA03203EBD38B5064D642420464A
:1012F800043455F8041FA4B2FFF7C1FFA42CF6D19B
:1013080038BD00BFFC6C002038B5064D642420466B
:10131800FFF7CEFF0434A4B2A42C45F8040FF6D18D
:1013280038BD00BFFC6C002038B5064DC8242046E7
:10133800023435F9021FA4B2FFF784FFE82CF6D176
:1013480038BD00BF2E0A002038B5064DC8242046F7
:10135800FFF786FF0234A4B2E82C25F8020FF6D175
:1013680038BD00BF2E0A00207FB5042001210AF0F5
:101378000BFA04AD01214FF480400AF035FA4FF41E
:10138800B07345F80C3D0124002629461A488DF80B
:1013980008608DF80B4009F04FFE102021460AF036
:1013A800F3F978232946154801938DF808608DF8DC
:1013B8000B4009F041FE21464FF480400AF014FA30
:1013C800022008210AF09EFC0D484FF48073036048
:1013D8000C2306714371847109F022FB172303A8BB
:1013E8008DF80C308DF80D408DF80E408DF80F40BB
:1013F80006F050FA7FBD00BF00080240001002400E
:10140800A46D0020104B114A11481249DFF874C02E
:1014180083E80710104A1A61104A5A61104A9A6103
:10142800104ADA61104A1A62104A5A62104A9A62DD
:10143800104ADA62104A1A63104A5A63104A9A63C9
:101448000422DA63704700BF006D0020203D6B0066
:10145800F0B0D60060A0360030E16B0080969800AE
:1014680090B19A00C0ACD800C0E1E400202F14016C
:10147800B0804101C03F7C01C013AD0110C1FE0224
:1014880000605B03006C6B0008B5044809F039FE86
:10149800034BC043C0F3C300188008BD00100240CE
:1014A800FE6C00200E4B1A68642A10D004D8012A5A
:1014B80013D00A2A13D10DE0B2F57A7F42F21071E7
:1014C80003D08A420BD1074A05E0196070474FF4F0
:1014D8007A7200E064221A6070470A221A60704724
:1014E8007C000020A08601000F4B1A68B2F57A7FB5
:1014F80011D004D80A2A13D0642A13D10DE042F27D
:1015080010718A4204D0094882420BD11960704791
:101518004FF47A7202E0642200E00A221A607047EF
:1015280001221A60704700BF7C000020A0860100DD
:10153800034B1868034B1B68EA21002205F0CAB95F
:10154800F46C00207C000020904BB3F9003010B5FB
:101558000F2B00F29981DFE813F0100028004000FB
:10156800580070008800A000B800D000E800000112
:101578003B0153016B0183018E01854B854C1B7820
:1015880020685843844B1860844B1B78032B01D088
:1015980003F0F8FE7D4BB3F9003054F82320804B5C
:1015A800EA201A6014217F4A6CE1794B794C1B7848
:1015B80060685843784B1860784B1B78032B01D030
:1015C80003F0E0FE714BB3F9003054F82320744B5C
:1015D800EA201A601421744A54E16D4B6D4C1B7853
:1015E800A06858436C4B18606C4B1B78032B01D0D8
:1015F80003F0C8FE654BB3F9003054F82320684B5C
:10160800EA201A601421694A3CE1614B614C1B785D
:10161800E0685843604B1860604B1B78032B01D07F
:1016280003F0B0FE594BB3F9003054F823205C4B5B
:10163800EA201A6014215E4A24E1554B554C1B7868
:1016480020695843544B1860544B1B78032B01D026
:1016580003F098FE4D4BB3F9003054F82320504B5B
:10166800EA201A601421534A0CE1494B494C1B7873
:1016780060695843484B1860484B1B78032B01D0CE
:1016880003F080FE414BB3F9003054F82320444B5B
:10169800EA201A601421484AF4E03D4B3D4C1B787F
:1016A800A06958433C4B18603C4B1B78032B01D076
:1016B80003F068FE354BB3F9003054F82320384B5B
:1016C800EA201A6014213D4ADCE0314B314C1B788A
:1016D800E0695843304B1860304B1B78032B01D01E
:1016E80003F050FE294BB3F9003054F823202C4B5B
:1016F800EA201A601421324AC4E0254B254C1B7895
:10170800206A5843244B1860244B1B78032B01D0C4
:1017180003F038FE1D4BB3F9003054F82320204B5A
:10172800EA201A601421274AACE0194B194C1B789F
:10173800606A5843184B1860184B1B78032B01D06C
:1017480003F020FE114BB3F9003054F82320144B5A
:10175800EA201A6014211C4A94E00D4B0D4C1B78AA
:10176800A06A58430C4B18600C4B1B78032B01D014
:1017780003F008FE054BB3F9003054F82320084B5A
:10178800EA201A601421114A7CE000BFFE6C002098
:10179800406D0020006D0020706D0020886D0020D5
:1017A800F46C0020749B01087F9B01088A9B010848
:1017B800959B0108A09B0108AB9B0108B69B0108FB
:1017C800C19B0108CC9B0108D79B0108E29B01083B
:1017D8002F4B304C1B78E06A58432F4B18602F4B27
:1017E8001B78032B01D003F0CDFD2D4BB3F900304E
:1017F80054F823202B4BEA201A6014212A4A41E08E
:10180800234B244C1B78206B5843234B1860234BE5
:101818001B78032B01D003F0B5FD214BB3F9003041
:1018280054F823201F4BEA201A6014211F4A29E08C
:10183800174B184C1B78606B5843174B1860174BA5
:101848001B78032B01D003F09DFD154BB3F9003035
:1018580054F82320134BEA201A601421144A11E08B
:10186800144BD3E900010CF0C7FD0E4B124A186067
:101878001421EA2006E0064B1A780A4B1A600F4A30
:10188800EA20142104F01AF9BDE8104050E600BF20
:10189800406D0020006D0020706D0020886D0020D4
:1018A800FE6C0020F46C0020ED9B0108F89B0108F9
:1018B800039C0108786D00200E9C0108199C010802
:1018C80038B59D4C642001F0A1FC25789B48AD00FB
:1018D800EDB2257009F015FCC0F341100543984B93
:1018E800257005F00F05974A595D6378C918964B1E
:1018F8001B88C9B2617018B249B2814205DA404208
:10190800814206DD0021117003E0012111700022DF
:10191800627094F901201BB25B429A42894B04DC45
:10192800FF221A70844A0021517093F90030002B6D
:1019380000F09181FFF7A8FD844BB3F900300F2B1D
:1019480000F28681DFE813F0100025003A004F000E
:10195800640079008E00A300B800CD00E2000C01FD
:101968001F01320158017901794A7A4913680968D7
:101978008B4240F26D81784909688B4280F068811A
:101988007049764891F90010006800FB0133136034
:101998001EE16F4A6F49536809688B4240F25881CB
:1019A8006D4909688B4280F0538166496B4891F90B
:1019B8000010006800FB0133536009E1644A65497F
:1019C800936809688B4240F24381634909688B42F6
:1019D80080F03E815B49614891F90010006800FB86
:1019E80001339360F4E05A4A5A49D36809688B4234
:1019F80040F22E81584909688B4280F0298151496B
:101A0800564891F90010006800FB0133D360DFE00D
:101A18004F4A5049136909688B4240F219814E496F
:101A280009688B4280F0148146494C4891F90010AE
:101A3800006800FB01331361CAE0454A4549536910
:101A480009688B4240F20481434909688B4280F05F
:101A5800FF803C49414891F90010006800FB0133C0
:101A68005361B5E03A4A3B49936909688B4240F2B1
:101A7800EF80394909688B4280F0EA80314937485C
:101A880091F90010006800FB01339361A0E0304A2F
:101A98003049D36909688B4240F2DA802E490968D7
:101AA8008B4280F0D58027492C4891F900100068B6
:101AB80000FB0133D3618BE0254A2649136A096884
:101AC8008B4240F2C580244909688B4280F0C0806F
:101AD8001C49224891F90010006800FB0133136289
:101AE80076E01B4A1B49536A09688B4240F2B08072
:101AF800194909688B4280F0AB801249174891F95F
:101B08000010006800FB0133536261E0104A11497C
:101B1800936A09688B4240F29B800F4909688B429F
:101B280080F0968007490D4891F90010006800FB85
:101B3800013393624CE000BFD8080020000802403F
:101B4800E0200108AC6D0020906D0020FE6C0020A4
:101B5800006D0020A06D00204C6D00207C0000204E
:101B6800414A4249D36A09688B4271D94049096898
:101B78008B426DD23F49404891F90010006800FB44
:101B88000133D36224E0384A3849136B09688B4221
:101B98005ED9374909688B425AD23649364891F995
:101BA8000010006800FB0133136311E02E4A2F492F
:101BB800536B09688B424BD92D4909688B4247D230
:101BC8002C492D4891F90010006800FB013353633C
:101BD8002A4A107858432A4B18602A4B1B78032B43
:101BE80001D003F0CFFB284BB3F900201E4B53F86C
:101BF8002220264B1A602BE0254C17A3D3E900239B
:101C0800D4E900010CF09EFB18B115A3D3E9002319
:101C180002E011A3D3E90023C4E90023194B1B7880
:101C2800032B01D003F00EFBD4E900010CF0E4FB18
:101C3800164B18600C4B98630AE0104A1378042B73
:101C480014BF042302231370104A1360064AD36397
:101C5800BDE838406CE438BD0000000000DB8A4174
:101C680000000000D0126341006D0020A06D00202C
:101C78004C6D0020AC6D00207C000020406D0020E1
:101C8800706D0020886D0020FE6C0020F46C002030
:101C9800786D002038B50020FFF70AFB40F2D244E7
:101CA800264BA042186007D0FFF7ACFBFFF71CFBE0
:101CB80000202146FFF7E3FAFFF726FB204B214CD3
:101CC800214DA06B02221A80204A214B1A60214A1A
:101CD800214B1A600CF058F8204BC3E90001E36B64
:101CE8002B7003F097FA1E4B1B78032B05D1EA20C3
:101CF8003C211C4A03F0E2FE1CE003F0A3FAFFF7C4
:101D0800C3FB194BB3F900300D2B02DCFFF71CFCA9
:101D180010E02B7820685843144B186003F032FB0E
:101D28002268134BEA201A601421124A03F0C6FEF7
:101D3800FFF7FEFB104B64221A6038BDF86C0020D8
:101D4800906D0020006D0020406D002080841E00F2
:101D5800A06D00200065CD1D4C6D0020786D002021
:101D6800886D0020249C0108FE6C0020706D002006
:101D7800F46C0020749B01087C000020AFF3008005
:101D880073B50420012109F0FFFC02AD01214FF4D5
:101D9800804009F029FD01241E23002669461548C4
:101DA80045F8083D8DF804608DF8074009F044F9BE
:101DB8000220214609F0E8FCB02369460E4800934A
:101DC8008DF804608DF8074009F036F921464FF484
:101DD800804009F009FD2046072109F093FF0748D4
:101DE800802303600C2306714371847108F018FE88
:101DF8007CBD00BF0008024000040240A46D002022
:101E08000A4B142100225980998041F288311A80A6
:101E1800DA801A815A819981DA8119825A829A82E2
:101E2800DA821A835A839A83DA837047300A002049
:101E38000C4B4FF6817100224FF47A701980D980CB
:101E480019814DF6F0015A809A805A819881D9817A
:101E5800188259829A82DA821A835A839A83DA8399
:101E6800704700BFFC0900200C4B30221A8050221A
:101E78005A809A801D22DA801A815A8142F21072A1
:101E88009A81DA811A825A8201229A826422DA823B
:101E98001A835A839A83DA83704700BF7C0900202B
:101EA8000A4B04220A211A8001225A809A80DA8079
:101EB8001A815A819981D981198259829A82DA8242
:101EC8001A835A839A83DA83704700BFA2090020D5
:101ED80008B5044809F015F9034BC043C0F34300A3
:101EE800188008BD00080240220A002038B5854C39
:101EF800642001F08BF925788348AD00EDB2257098
:101F080009F0FFF8C0F301100543804B257005F078
:101F18000F057F4A595D6378C9187E4B1B88C9B283
:101F2800617018B249B2814205DA4042814206DD49
:101F38000021117003E0012111700022627094F9F0
:101F480001201BB25B429A42714B04DCFF221A70DB
:101F58006C4A0021517093F90030002B00F0688220
:101F6800FFF7B6FF6C4BB3F900300A2B00F2608222
:101F7800DFE813F00B00380062009700E200170159
:101F88004C017D01AE01F8012B02614B634A1B78BD
:101F98001188D8090BD06248B0F9004008B28442D1
:101FA80005DA604800885CB204FB001111805B4AC6
:101FB8005BB2002B11880ADD5B48B0F9004008B21B
:101FC800844204DD5748008803FB00131380534BF9
:101FD8001888564B1880564BB3F90030002B40F048
:101FE8002782DAE04A4B4D4A1B785188D8090BD032
:101FF8004B48B0F9024008B2844205DA49484088A3
:102008005CB204FB00115180444A5BB2002B51883A
:102018000ADD4548B0F9024008B2844204DD41486F
:10202800408803FB001353803C4B58883F4B188073
:102038003F4BB3F900302DE0354B384A1B78918877
:10204800D8090BD03648B0F9044008B2844205DA02
:10205800344880885CB204FB001191802F4A5BB23F
:10206800002B91880ADD3048B0F9044008B2844258
:1020780004DD2C48808803FB00139380274B988845
:102088002A4B18802A4BB3F90030012B40F0D0813D
:10209800284B1B88002B40F0CB8100B2FEF7BCF91F
:1020A800C6E11B4B1D4A1B78D188D8090BD01C48A8
:1020B800B0F9064008B2844205DA1A48C0885CB212
:1020C80004FB0011D180154A5BB2002BD1880ADDD0
:1020D8001548B0F9064008B2844204DD1148C088AA
:1020E80003FB0013D3800D4BD888104B1880104B7E
:1020F800B3F90030012B40F09B810E4B1B88012B5C
:1021080049E000BFDA08002000040240F02001087E
:10211800AE6D0020B06D0020220A0020300A002099
:10212800FC090020A20900207C090020F0090020F9
:10213800A0090020DE0800207E4B7F4A1B78118909
:10214800D8090BD07D48B0F9084008B2844205DAB6
:102158007B4800895CB204FB00111181764A5BB2AE
:10216800002B11890ADD7748B0F9084008B284428B
:1021780004DD7348008903FB001313816E4B188933
:10218800714B1880714BB3F90030012B40F050812E
:102198006F4B1B88022B40F04B8100B2FEF760F9B1
:1021A80046E1644B644A1B785189D8090BD06348CF
:1021B800B0F90A4008B2844205DA614840895CB245
:1021C80004FB001151815C4A5BB2002B51890ADD86
:1021D8005C48B0F90A4008B2844204DD5848408996
:1021E80003FB00135381544B5889574B1880574BA6
:1021F800B3F90030012B40F01B81554B1B88012B94
:1022080040F0168100B2FEF7CDF811E1494B4A4A79
:102218001B789189D8090BD04848B0F90C4008B20E
:10222800844205DA464880895CB204FB001191813A
:10223800414A5BB2002B91890ADD4248B0F90C4053
:1022480008B2844204DD3E48808903FB0013938171
:10225800394B3D4A9B8913801BB207EE903AB8EE82
:10226800E77ADFED3C7A3C4BC7EE277AAAE0314BA0
:10227800314A1B78D189D8090BD03048B0F90E40C3
:1022880008B2844205DA2E48C0895CB204FB00110A
:10229800D181294A5BB2002BD1890ADD2948B0F9DE
:1022A8000E4008B2844204DD2548C08903FB0013B0
:1022B800D381214B244ADB8913801BB207EE903A65
:1022C800B8EEE77ADFED237A244BC7EE277A79E078
:1022D800184B194A1B78118AD8090BD01748B0F93E
:1022E800104008B2844205DA1548008A5CB204FB43
:1022F80000111182104A5BB2002B118A0ADD1148C5
:10230800B0F9104008B2844204DD0D48008A03FB8E
:1023180000131382084B0C4A1B8A13801BB207EE6A
:10232800903AB8EEE77ADFED0B7A0D4BC7EE277AD5
:1023380048E000BFAE6D0020300A0020FC090020F4
:10234800A20900207C090020F0090020A009002033
:10235800DE08002000401C46F80900201C0A002066
:10236800CC090020374B384A1B78518AD8090BD042
:102378003648B0F9124008B2844205DA3448408A37
:102388005CB204FB001151822F4A5BB2002B518AC8
:102398000ADD3048B0F9124008B2844204DD2C4806
:1023A800408A03FB00135382274B2B4A5B8A138016
:1023B8001BB207EE903AB8EEE77ADFED287AC7EE5F
:1023C800277A274BC3ED007A32E01E4B1E4A1B7852
:1023D800918AD8090BD01D48B0F9144008B284423C
:1023E80005DA1B48808A5CB204FB00119182164A08
:1023F8005BB2002B918A0ADD1648B0F9144008B286
:10240800844204DD1248808A03FB001393820E4A3B
:102418001149938A14460B800BB9FEF789F8114BC2
:10242800B3F9003034F91330012B01D1FEF76DF800
:10243800094B0021B3F900000A46BDE8384004F012
:10244800E7B900BFAE6D0020300A0020FC0900206B
:10245800A20900207C090020F009002000401C4649
:102468002C0A0020220A002008B5454BB3F90020A9
:10247800444B0F2A7AD8DFE802F0080F161D242BE8
:10248800323940474E555C636A713F4A12880020D2
:102498001A8014213D4A67E03B4A528800201A807E
:1024A80014213B4A60E0384A928800201A8014219F
:1024B800384A59E0344AD28800201A801421364A12
:1024C80052E0314A128900201A801421334A4BE025
:1024D8002D4A528900201A801421314A44E02A4AA0
:1024E800928900201A8014212E4A3DE0264AD2897A
:1024F80000201A8014212C4A36E0234A128A002030
:102508001A801421294A2FE01F4A528A00201A8073
:102518001421274A28E01C4A928A00201A80142194
:10252800244A21E0184AD28A00201A801421224A1B
:102538001AE0154A128B00201A8014211F4A13E052
:10254800114A528B00201A8014211D4A0CE00E4AB1
:10255800928B00201A8014211A4A05E00A4AD28B6D
:102568001A80194A0020142103F0A8FA054B00210B
:10257800B3F900000A46BDE8084004F049B900BFB5
:10258800220A0020F0090020300A00202F9C0108B0
:102598003A9C0108459C0108509C01085B9C010875
:1025A800669C0108719C01087C9C0108879C0108B5
:1025B800929C01089D9C0108A89C0108B39C0108F5
:1025C800BE9C0108C99C0108D49C010810B53220A2
:1025D800FEF746FE41F22E64314BA042188007D028
:1025E800FFF70EFCFEF7A0FE32202146FEF72AFE7A
:1025F8002C4CFEF7A9FEFFF71BFCFFF735FCFFF795
:102608004FFCB4F90C3006EE103ADFED277AB8EE3D
:10261800C67A264B87EE277A4FF07C520020DC21C1
:1026280083ED007AB4F90E3006EE103AF8EEC66A79
:102638001F4BC6EEA77AC3ED007A1E4B83ED007AD6
:102648001D4BC3ED007A1D4B1A601D4A03F036FA84
:102658001C4B0022DC214FF494701A801A4A03F0B4
:102668002DFAFDF7C9FD194B02221A80FFF730FC3D
:10267800FFF7FAFEB4F90000FDF7F2FEB4F9020024
:10268800FDF7CAFEB4F914300BB9FDF751FFB4F9E0
:102698001430012B03D1BDE81040FDF736BF10BD43
:1026A800200A0020300A002000401C46F8090020BB
:1026B8001C0A0020CC0900202C0A002078090020E0
:1026C800DF9C0108A0090020E39C0108B06D0020F0
:1026D80010B50E4CEA202821224603F0EFF9FEF748
:1026E80091FEFEF701FEFEF7CFFEFEF72DFF00205C
:1026F8002821224603F0E2F9FFF782FBFEF714FED9
:10270800FFF7E6FBBDE81040AEE600BFE69C010817
:1027180007B50220012109F037F8012300938DF84D
:10272800043002238DF805300448002369468DF8EB
:1027380006308DF8073008F07FFC0EBD000402401B
:1027480010B5084C01210022204608F0EAFC40F2AE
:10275800FF4000F05BFD012120460A46BDE810401D
:1027680008F0DFBC0004024008B5FFF7E9FF0021CC
:102778000A46302000F066FA012000F047FD0121EA
:102788000A46302000F05EFA012000F03FFD0021EB
:102798000122302000F056FA012000F037FD012117
:1027A8000822302000F04EFA012000F02FFD02210F
:1027B8000122302000F046FA012000F027FD002118
:1027C8000A46302000F03EFA012000F01FFD1B21D0
:1027D800CD22302000F036FA012000F017FD042148
:1027E8000322302000F02EFA012000F00FFD062110
:1027F8000822302000F026FA012000F007FD07210A
:102808000A46302000F01EFA012000F0FFFC0821E3
:102818008022302000F016FA012000F0F7FC1E217B
:10282800B022302000F00EFA012000F0EFFC052164
:102838009122302000F006FA012000F0E7FC0D217B
:102848000322302000F0FEF9012000F0DFFC0E2109
:102858000022302000F0F6F9012000F0D7FC142106
:102868008022302000F0EEF9012000F0CFFC0B218F
:102878008822302000F0E6F9012000F0C7FC302063
:102888000C21822200F0DEF9012000F0BFFC1221A9
:102898008822302000F0D6F9012000F0B7FC13217F
:1028A8008C22302000F0CEF9012000F0AFFC00218E
:1028B8000122302000F0C6F9012000F0A7FC0C210D
:1028C8000822302000F0BEF9012000F09FFC0D2105
:1028D8000822302000F0B6F9012000F097FC0E2104
:1028E8000822302000F0AEF9012000F08FFC0F2103
:1028F8000822302000F0A6F9012000F087FC002112
:102908000A46302000F09EF9012000F07FFC4021AB
:102918000222302000F096F9012000F077FC002216
:102928004121302000F08EF9012000F06FFC3020AA
:102938003F21D42200F086F9012000F067FC002135
:102948000122302000F07EF9012000F05FFC102108
:102958000F22302000F076F9012000F057FC1121F9
:102968000F22302000F06EF9012000F04FFC1221F8
:102978000022302000F066F9012000F047FC132106
:102988000022302000F05EF9012000F03FFC092110
:102998003C22302000F056F9012000F037FC0021DD
:1029A8000122302000F04EF9012000F02FFC3020E9
:1029B8003421024600F046F9012000F027FC3020BF
:1029C8003721024600F03EF9012000F01FFC3621B5
:1029D8000322302000F036F9012000F017FC3921DD
:1029E8000322302000F02EF9012000F00FFC3B21DB
:1029F8003C22302000F026F9012000F007FC3C21A1
:102A08000A46302000F01EF9012000F0FFFB0021EB
:102A18000A46302000F016F9012000F0F7FB51219A
:102A2800C022302000F00EF9012000F0EFFB30202A
:102A38005221002200F006F90120BDE8084000F00C
:102A4800E5BB00BF2DE9F04F464D474E91B001213F
:102A58004FF4001008F098FE284607F03BFE434B61
:102A68004FF0C0628DE80C00414B00244FF48067A2
:102A78004FF400694FF400584FF4807A4FF4003B4C
:102A880028466946029304970394059406970B9485
:102A9800CDF81C90CDF82080CDF824A0CDF828B032
:102AA80007F0A4FE22462846324907F0FAFE2846D7
:102AB800012107F000FF01210A464FF0402009F0EC
:102AC800D1F8304607F006FE2B4B009401932B4BB0
:102AD800049702933046402369460393059406976A
:102AE8000B94CDF81C90CDF82080CDF824A0CDF81B
:102AF80028B007F07BFE22463046214907F0D1FE78
:102B08003046012107F0D7FE42F210770122022158
:102B18001C4809F0A7F8384600F078FB2846012140
:102B280007F09FFE0121304607F09BFE384600F073
:102B38006DFB0B238DF83D408DF83E400FA8012416
:102B48008DF83C308DF83F4004F0A4FE384600F084
:102B58005DFB28461021224607F0FAFE11B0BDE8B9
:102B6800F08F00BF10600240886002400C400040B7
:102B7800C04E00204C3800200C3C0040E8400020AB
:102B88004C300020003C004002481021012207F090
:102B9800DFBE00BF1060024013B50220012108F01B
:102BA800F3FD4FF410730E4C009302238DF804309C
:102BB8008DF8053001238DF806302046002369463C
:102BC8008DF8073008F038FA20460621042208F06C
:102BD800B3FA20460921042208F0AEFA1CBD00BF52
:102BE8000004024030B5154D85B001214FF40010A6
:102BF80008F0EEFD284608F0B5FA0023ADF80430D9
:102C08004BF6FF73ADF806303323ADF808304FF4B8
:102C18008063ADF80A304FF48043ADF80C3004AC53
:102C2800074B2846012144F8103D08F03DFB284693
:102C3800694608F0C5FA05B030BD00BF0054004031
:102C4800801A0600414B2DE9F04115464FF49612C3
:102C580007460E461A60984606E0D8F800305A1E15
:102C6800C8F80020002B61D03948384C4FF40031A7
:102C780008F032FC0028F0D13548012108F020FB8B
:102C88004FF480532360A04606E0D8F800305A1E5F
:102C9800C8F80020002B4CD02D482E492B4C08F0AA
:102CA80006FC0028F1D02A483946002208F020FB0B
:102CB8004FF48053236004E023685A1E2260002BDF
:102CC8003AD023482449214F08F0F1FB0028F3D0DB
:102CD80031461F4808F08FFB4FF480533B603E4657
:102CE80004E033685A1E3260002B28D018481B496C
:102CF800164C08F0DCFB0028F3D01548294608F0EC
:102D08007AFB4FF49613236003E023685A1E22606F
:102D1800C3B10F48124908F0DFFB0028F5D00C4872
:102D2800012108F0D9FA0020BDE8F0810120BDE8B2
:102D3800F0810220BDE8F0810320BDE8F081042085
:102D4800BDE8F0810520BDE8F08100BFCC0300207C
:102D580000540040010003008200070080000700C3
:102D6800040000102DE9F8439846434B14464FF4ED
:102D7800961206460D461A60994606E0D9F80030C4
:102D88005A1EC9F80020002B67D03C483A4F4FF430
:102D9800003108F0A1FB0028F0D13848012108F0E3
:102DA8008FFA4FF480533B60B94606E0D9F80030FB
:102DB8005A1EC9F80020002B52D0304830492E4FF7
:102DC80008F075FB0028F1D02C483146002208F0A5
:102DD8008FFA4FF480533B6004E03B685A1E3A6018
:102DE800002B40D025482749234E08F060FB0028D7
:102DF800F3D02946214808F0FEFA4FF48053336097
:102E0800354604E02B685A1E2A60002B2ED01B483A
:102E18001D4908F04CFB0028F4D00025164E12E09E
:102E2800615D164808F0E7FA4FF49613336003E043
:102E380033685A1E3260E3B11048144908F04CFB5D
:102E48000028F5D00135EBB24345E9D30B48012101
:102E580008F042FA0020BDE8F8830120BDE8F883B5
:102E68000220BDE8F8830320BDE8F8830420BDE80C
:102E7800F8830520BDE8F883CC0300200054004007
:102E88000100030082000700800007000400001012
:102E9800F8B5614C4FF4961305460E46236005E0DD
:102EA80023685A1E2260002B00F0A4805B485A4F0A
:102EB8004FF4003108F010FB0028F1D157480121E8
:102EC80008F0FEF94FF480533B6005E03B685A1E5A
:102ED8003A60002B00F09080504851494E4C08F061
:102EE800E6FA0028F2D04D482946002208F000FAF8
:102EF8004FF480532360274604E03B685A1E3A602B
:102F0800002B7BD045484749434C08F0D0FA0028AD
:102F1800F3D04248314608F06EFA4FF480532360EC
:102F280004E023685A1E2260002B69D03B483E49C2
:102F3800394E08F0D1FA0028F3D03848012108F0BA
:102F4800BFF94FF48053336004E033685A1E32608F
:102F5800002B57D0314832492F4C08F0A8FA0028E6
:102F6800F3D02E482946012208F0C2F94FF48053C5
:102F78002360264604E033685A1E3260002B43D093
:102F8800264D2A49244C284608F0A6FA0028F2D0F3
:102F98002846002108F0B4F9284601212B8B08F0B7
:102FA8009BF94FF48053236004E023685A1E226083
:102FB800002B2BD019481E49174D08F08DFA002810
:102FC800F3D0164808F019FA4FF480532B60134ACF
:102FD80003E02B68591E2960D3B113889B05F8D4E8
:102FE800012104460D4808F08BF90C48114908F0F6
:102FF8008DFA0EE001240CE002240AE0032408E024
:10300800042406E0052404E0062402E0072400E086
:1030180008242046F8BD00BFCC030020005400401F
:1030280001000300820007000400001002000010E5
:10303800400000100004001070B56C4D4FF496135A
:1030480004462B6005E02B685A1E2A60002B00F00E
:10305800BA806748654E4FF4003108F03DFA002801
:10306800F1D16348012108F02BF94FF48053336004
:1030780005E033685A1E3260002B00F0A6805C48D9
:103088005C495A4D08F013FA0028F2D05848A0219C
:10309800002208F02DF94FF480532B6005E02B68CF
:1030A8005A1E2A60002B00F09280514852494F4E18
:1030B80008F0FDF90028F2D0C4F305214C4808F0C7
:1030C8009AF94FF48053336004E033685A1E326033
:1030D800002B7ED046484949444D08F0FDF90028A8
:1030E800F3D0E1B2424808F086F94FF480532B60E0
:1030F8002C4604E023685A1E2260002B6BD03C4803
:103108003E493A4D08F0E8F90028F3D03848012143
:1031180008F0D6F84FF480532B6004E02B685A1E51
:103128002A60002B59D032483249304C08F0BFF998
:103138000028F3D02E48A121012208F0D9F84FF435
:1031480080532360264604E033685A1E3260002B01
:1031580045D0274D2A49254C284608F0BDF90028B6
:10316800F2D02846002108F0CBF8284601212B8B05
:1031780008F0B2F84FF48053236004E023685A1E25
:103188002260002B2DD01A481E49184D08F0A4F9CA
:103198000028F3D0164808F030F94FF480532B601C
:1031A800134A03E02B68591E2960E3B11388990577
:1031B800F8D4012104460E4808F0A2F80C48124938
:1031C80008F0A4F910E001240EE002240CE0032426
:1031D8000AE0042408E0052406E0062404E00724A5
:1031E80002E0082400E00924204670BDCC0300203A
:1031F8000054004001000300820007000400001092
:1032080002000010400000100004001082B00023EB
:1032180004E0019B01330193009B01330093009B61
:103228008342F6D302B07047F8B5464D4FF4805349
:1032380004460E462B6004E02B685A1E2A60002BB9
:1032480074D041483F4F4FF4003108F045F9002849
:10325800F2D13D48012108F033F84FF480533B6028
:1032680004E03B685A1E3A60002B61D03648374963
:10327800344D08F01CF90028F3D03348A02100226F
:1032880008F036F84FF480532B6004E02B685A1E80
:103298002A60002B4ED02C482D492A4F08F007F9F8
:1032A8000028F3D0C4F30521274808F0A4F84FF408
:1032B80080533B6004E03B685A1E3A60002B3BD0C9
:1032C800214824491F4D08F0F2F80028F3D0E1B254
:1032D8001D4808F090F84FF480532B6004E02B68E9
:1032E8005A1E2A60002B29D017481A49154C08F095
:1032F800DEF80028F3D01448314608F07CF84FF483
:103308009613236003E023685A1E2260C3B10E4857
:10331800114908F0E1F80028F5D00B48012107F021
:10332800DBFF0E48FFF772FF0020F8BD0120F8BD53
:103338000220F8BD0320F8BD0420F8BD0520F8BD23
:103348000620F8BDCC030020005400400100030013
:10335800820007008000070004000010A08601001A
:1033680013B50520012108F00FFA184C4FF4E0536B
:10337800009302238DF804308DF805302046002391
:1033880069468DF806308DF8073007F055FE20465F
:103398000A21062207F0D0FE20460C21062207F05B
:1033A800CBFE062220460B21A4F5006407F0C4FEDC
:1033B8004FF4004320466946009307F03DFE20463F
:1033C8000F21062207F0B8FE1CBD00BF000802400E
:1033D8001FB50446FFF79CF9FFF704FCFFF7C4F993
:1033E800FFF7BEFF01214FF4004008F0F1F9029405
:1033F8000F4C1023ADF80230204600236946ADF883
:103408000430ADF80C30ADF80030ADF8063008F0F7
:103418000EFB69464FF0402008F0DDFB20460121F5
:1034280008F08DFB4FF04020012108F088FB1FBDFC
:10343800003C004010B50F4A1378252B044604D8E9
:103448000D49C854013313700AE00B4A0123591E71
:10345800D05C0133262B5054F9D1074B83F8254013
:1034680000206E21044A02F029FB2046BDE81040E6
:1034780001F042BDDC080020B26D002010B5044602
:103488002078FFF7D7FF14F8013F002BF8D110BDC3
:1034980010B5002104463C2200B203F0B9F9062C0D
:1034A80015D8DFE804F00406080A0C0E10000848D6
:1034B8000AE0084808E0084806E0084804E0084828
:1034C80002E0084800E00848BDE81040D6E710BD13
:1034D800F19C01080B9D0108179D01083A9D010800
:1034E8005F9D0108849D01088A9D01080000000075
:1034F80082B0002304E0019B01330193009B013358
:103508000093009B8342F6DB02B0704708B5C820E1
:103518006421084A02F0D2FAC8205021064A02F073
:10352800CDFAC8203C21054A02F0C8FA0448BDE893
:103538000840DDE7979D0108A69D0108B29D010896
:10354800404B4C0013B503F05DF86420FFF7D0FF43
:1035580003F048FA6420FFF7CBFF03F0C5FA6420B4
:10356800FFF7C6FFFFF718FB6420FFF7C1FFFFF75F
:1035780039FB6420FFF7BCFF4FF4FA50FFF728FF30
:103588006420FFF7B5FFFFF75DFA6420FFF7B0FF8F
:10359800FDF7D6FD6420FFF7ABFF03F095FF64202D
:1035A800FFF7A6FF002000F04DFB6420FFF7A0FF07
:1035B8009FED330B00F078F96420FFF799FF4FF483
:1035C8007A7000F0DDF96420FFF792FF2E4B00249B
:1035D8001C80FFF7D9FA6420FFF78AFF03F05EFD2D
:1035E8006420FFF785FFFFF791FF204602F0E0FF18
:1035F8006420FFF77DFFFDF7B7FE6420FFF778FF33
:10360800FDF742FF214B1A88214B64201A80FFF7EF
:103618006FFFFEF73FFB6420FFF76AFFFEF7B0FB82
:103628006420FFF765FFFEF753FC1A4B1A881A4B04
:1036380064201A80FFF75CFFFEF7C8FF6420FFF7DD
:1036480057FFFCF781FE6420FFF752FF00F030F8C7
:103658006420FFF74DFFFCF7CBFF6420FFF748FF1E
:103668000E4B0F48009301210E4A0F4B05F0F9FF4E
:10367800642002B0BDE810403AE700BFAFF3008015
:103688000000000000408F40E8090020FE6C002088
:103698000C740020220A0020DC6D002008040020A1
:1036A800E06D00201075002064040020AFF3008056
:1036B80008B54FF6E07002F0A3F84FF4784002F036
:1036C80093F8582000210E4A02F0F8F990200021C2
:1036D8000C4A02F0F3F900210B4ABC2002F0EEF983
:1036E800002002F081F84FF6FF7002F089F8074BCE
:1036F800074A0020C8211880BDE8084002F0DEB95A
:10370800C69B0108BB9D0108FD9B0108DE0800203F
:10371800C09D01080C4B1B88012B07D002D3022B3C
:103728000CD107E00020C821084A0AE00020C8217F
:10373800074A06E00020C821064A02E0064A00209F
:10374800C82102F0BBB900BFDE080020C09D0108F7
:10375800BC9D0108C49D0108C89D01080000000027
:1037680038B506EE900A1E4BB8EEE67AD3ED007A2D
:10377800DFED1C6A27EE877A1B4B87EE267ABDEEB3
:10378800C77A83ED007AB8EEC77A77EE877A17EEB4
:10379800900A0AF01BFB154B04460D46C3E9004589
:1037A80022462B460CA1D1E900010AF08DFC104BF2
:1037B800D3E900230AF05EFB0E4B2246C3E9000161
:1037C8002B4600200C490AF07FFC0C4BC3E9000192
:1037D80038BD00BFAFF30080182D4454FB211940B9
:1037E800980F002000247449044E0020902B0020DC
:1037F80078160020682B002000003040D0130020ED
:103808001F4B002030B518601E4B18601E4B00245B
:103818000025186045EC174B1C4B83ED007B1C4BB7
:103828004B221A601B4B32220DA5D5E900451A60C0
:10383800194BC3E900450CA5D5E90045174BC3E969
:1038480000450BA5D5E90045154BC3E900450AA578
:10385800D5E90045134BC3E90045BDE830407FE793
:10386800182D4454FB21F93FE0F09C762F1BA43F10
:103878009F14F9CFD4C2F93F91458FD82181F83FE1
:10388800044E00209C0F002074160020D85A0020F7
:1038980080160020381F0020682B0020702B002085
:1038A800104E0020F84D00202DE9F843284B294CF4
:1038B800294D012251EC100B1A6023A3D3E90023F0
:1038C8000AF0D8FA254BD3E900230AF0FDFB244B74
:1038D80006460F4600200021C3E9006741EC170B9C
:1038E800204B83ED007B204B1A68204B002A0CBF2D
:1038F800142204221A601E4BD3E90089304642463E
:103908004B46394684ED007B0AF002F9194B4246D2
:10391800C3E900014B46304639460AF0F7F8002261
:103928000023C5E900010AF021FD18B194ED007BE0
:1039380085ED007B104A00231360104A1360BDE830
:10394800F88300BFAFF30080182D4454FB211940C1
:10395800841E0020784D0020F84D0020902B002078
:10396800682B0020684D0020782B0020A04D0020F7
:10397800702B0020104E0020144D0020704D0020A8
:103988002DE9F843284B08B9186005E001241C60AC
:1039980040F6B833984200D00024244B244D1C60D4
:1039A8000AF002FA1EA3D3E900230AF063FA214BB6
:1039B800D3E900230AF088FB1F4B06460F46C3E9EC
:1039C80000671E4BD3E900011D4BD3E900230AF021
:1039D8009FF832463B46804689460AF099F8194BCB
:1039E8003246C3E900013B46404649460AF08EF894
:1039F80000220023C5E900010AF0B8FC28B1002222
:103A0800002343EC172B85ED007B00220CB10E4BF5
:103A180000E00E4B0E49C1E90023BDE8F88300BF62
:103A2800182D4454FB211940184D0020782B0020F4
:103A3800F84D0020902B0020702B0020682B0020D0
:103A4800D85A0020104E002000003E400000594087
:103A5800904D00201249002301225A500433402B74
:103A6800FBD1104B03F1A80200200021E3E9020179
:103A78009342F9D10C4B0A221A600C4A00231360B6
:103A88000B4A13600B4A04A1D1E9000113600A4BE9
:103A9800C3E90001704700BF0000000000805640E5
:103AA800A82F0020881E0020A42F0020CC1300205F
:103AB800644E0020D0560020984D002007EE100AD2
:103AC800414B4248F8EEC77A70B5C3ED007A00233F
:103AD8001D461D543E4C0022C61854F8041F0909FF
:103AE80011F0010F4FEA5101FAD0994208BF327024
:103AF8000132B2F5807FF0D10133B3F5006FE8D120
:103B0800FFF7A8FF0020FFF72BFE324B32220020E0
:103B1800002141EC170B1A602F4B304A83ED007BD4
:103B2800002313602E4A13602E4A13602E4A136036
:103B38002E4A13602E4A82ED007B2E4A82ED007BCE
:103B48002D4A13602D4A052111602D4A13602D4A14
:103B580082ED007B2C4A82ED007B2C4A82ED007BB3
:103B68002B4A17A1D1E9000182ED007B294AC2E95D
:103B780000010020002141EC170B274A82ED007B51
:103B880082ED027B254A82ED007B82ED027B244A8E
:103B980082ED007B234A82ED007B234A1360234A8F
:103BA8001360234A1360234A01211160224A2349E2
:103BB80013600020224B41EC170B83ED007B70BD96
:103BC8009A9999999999D93F980F0020501F0020E8
:103BD80000210108A42F0020084E002048300020B2
:103BE800A02F00209C2F0020F0480020542B0020FC
:103BF800084D0020D8150020602B0020F04D002033
:103C0800004E002050400020E8480020684E002068
:103C1800884D0020984D0020880F0020780B002048
:103C2800784D0020E04000205C2B0020804D0020D3
:103C3800A04D0020841E0020782B00200000594051
:103C4800904D00200C4908B5202200235A54013316
:103C5800282BFBD1084A002382F82730074A136033
:103C6800074A4FF4FA501360FFF728FFFFF7C8FD23
:103C7800BDE8084001F08CB8A00F0020A475002012
:103C8800A07500202DE9F04F814B1B6889B08DEDA0
:103C9800000B8DED021B6BB90020002141EC170BC6
:103CA8007C4B83ED007B7C4B83ED007B7B4B83ED72
:103CB800007BD1E07A4D7B4CD5E902ABD4E90023F7
:103CC800DDE9000109F022FF52465B460AF0D2F80E
:103CD800D5E90067D4E9022380468946DDE9020177
:103CE80009F014FF32463B460AF0C4F802460B4678
:103CF8004046494609F00AFF9DED007B85ED007BB3
:103D08009DED027BC4E90067C4E902AB85ED027B47
:103D180053A3D3E90023804689460AF03BFB18B138
:103D28000FF23C19D9E90089404649464EA3D3E928
:103D380000230AF011FB18B10FF22C19D9E90089F8
:103D4800544E4BA3D3E90023D6E900010AF092F8B8
:103D580049A3D3E9002304460D46404649460AF0E4
:103D680089F802460B462046294609F0D1FE04464A
:103D78000D46C6E9004500224B4B0AF00BFB30B953
:103D8800204629460022494B0AF0E6FA80B13CA3B6
:103D9800D3E90023204629460AF06CF8444E02462F
:103DA8000B46D6E9000109F0B3FEC6E900012FE091
:103DB800394BD3E90067204632463B4629460AF08C
:103DC80059F8002200230AF0E5FA08B9002600276E
:103DD8003046394622A3D3E900230AF0DBFA38B982
:103DE8003046394620A3D3E900230AF0B5FA78B162
:103DF80025A3D3E90023304639460AF03BF82C4C7A
:103E080002460B46D4E9000109F082FEC4E900012C
:103E1800274C224DD4E90001D5E9002309F078FEAA
:103E2800244BD3E9006732463B46804689460AF070
:103E3800B1FA48B9204BD3E90067404649463246B3
:103E48003B460AF089FA38B10020002141EC170BF3
:103E5800C4E9006785ED007B09B0BDE8F08F00BFBD
:103E6800333333333333D33F333333333333D3BF42
:103E7800E5174B7EB1E4EF3F555555555555C53FB0
:103E8800691D554D1075EF3E691D554D1075FF3E66
:103E9800184D0020784D0020684D0020D85A002089
:103EA800880F0020780B002000001840000018C080
:103EB800682B0020104E0020F84D00202DE9F04F0F
:103EC8008B4B1B6889B08DED000B8DED021B6BB918
:103ED8000020002141EC170B864B83ED007B864BBD
:103EE80083ED007B854B83ED007BE2E0844D854CC0
:103EF800D5E902ABD4E90023DDE9000109F006FEAB
:103F080052465B4609F0B6FFD5E90089D4E9022399
:103F180006460F46DDE9020109F0F8FD42464B4628
:103F280009F0A8FF02460B463046394609F0EEFD77
:103F38009DED007B85ED007B9DED027BC4E900894A
:103F4800C4E902AB85ED027B5BA3D3E900230646F7
:103F58000F460AF01FFA10B157A7D7E90067304695
:103F6800394657A3D3E900230AF0F6F910B154A74C
:103F7800D7E900675F4C54A3D3E90023D4E90001D3
:103F880009F078FF002280468946304639465E4B64
:103F980009F070FF0B4602464946404609F0B8FD55
:103FA8005A4B1B6806460F46C4E900671BB342A379
:103FB800D3E900230AF0EEF938B93046394640A370
:103FC800D3E900230AF0C8F978B141A3D3E9002363
:103FD8003046394609F04EFF4D4C02460B46D4E9AF
:103FE800000109F095FDC4E90001304639463AA3BD
:103FF800D3E9002334E0404BD3E9008942464B46DD
:1040080009F038FF002200230AF0C4F918B94FF06C
:1040180000084FF000094046494627A3D3E900238A
:104028000AF0B8F938B94046494625A3D3E9002330
:104038000AF092F978B12AA3D3E900234046494609
:1040480009F018FF324C02460B46D4E9000109F08A
:104058005FFDC4E9000124A3D3E900234046494693
:1040680009F008FF254B2A4C244DC3E90001D4E987
:104078000001D5E9002309F04BFD264BD3E9006781
:1040880032463B46804689460AF084F948B9224BB5
:10409800D3E900674046494632463B460AF05CF998
:1040A80038B10020002141EC170BC4E9006785ED09
:1040B800007B09B0BDE8F08F333333333333D33F5C
:1040C800333333333333D3BFD7A3703D0AD7EF3FEE
:1040D80054E41071732AC93E2D431CEBE2363A3F73
:1040E80054E41071732AB93EFCA9F1D24D62503FD5
:1040F800184D0020784D0020684D0020D85A002027
:10410800880F0020780B00200000D03F841E00207C
:10411800682B0020104E0020F84D00202DE9F043B8
:1041280051EC100B85B002460B4655EC114B8DED4A
:10413800000B8DED021B09F09DFE224606462B461C
:104148000F462046294609F095FE02460B463046A2
:10415800394609F0DDFC41EC100B0AF059FB3A4EE8
:10416800D6E9004559EC108B2246404649462B4675
:104178000AF010F970B1204629462BA3D3E9002391
:1041880009F078FE2AA3D3E9002304460D464046E9
:1041980049460DE02046294627A3D3E9002309F024
:1041A80069FE27A3D3E9002304460D464046494645
:1041B80009F060FE02460B462046294609F0A8FC95
:1041C800C6E90001204BD3E9006700223046394692
:1041D8001E4B0AF0D5F808B31D4C3246D4E900014D
:1041E8003B4609F071FF3246C4E900013B46D4E979
:1041F800020109F069FFC4E90201164C3246D4E90C
:1042080000013B4609F060FF3246C4E900013B4625
:10421800D4E9020109F058FFC4E9020105B0BDE87C
:10422800F08300BFAFF30080D7A3703D0AD7EF3FFC
:104238007B14AE47E17A743F560E2DB29DEFEF3FE7
:10424800FCA9F1D24D62603F084D00200000F03F0C
:10425800E0150020E00A00202DE9F04F7A4B1D6898
:1042680085B00F2D51EC100B57EC116B8DED000B39
:104278008DED021B5CDC02460B4609F0FBFD324665
:104288003B46804689463046394609F0F3FD0246EA
:104298000B464046494609F03BFC00226B4B06465C
:1042A8000F460AF077F808B1694F0026694C04EB0D
:1042B800C504D4E9000158A3D3E9002309F0DAFDC5
:1042C80057A3D3E90023804689463046394609F08A
:1042D800D1FD0B4602464946404609F019FC5E4BA3
:1042E8001B689D42C4E900015C4C0AD14EA3D3E986
:1042F800002309F0BFFD0AF057F844F8250001240F
:1043080009E04BA3D3E9002309F0B4FD0AF04CF807
:1043180044F825000024524B524A1B6802EB8302E2
:10432800D2F80024954204BF4B4A1360013500E0DF
:1043380000244D4E4D4BD6E90001D3E9002309F086
:10434800E7FB80468946C6E900893BA3D3E90023F9
:104358000AF016F8002858D049EC108B9FED361B50
:104368000AF068F90F2D86ED000B04D13A4B1B6853
:104378000F2B08BF01243A4B3D4E1F680FF2C00BAC
:10438800DBE900AB0025F6E902895246404649467A
:104398005B4609F0FFFF10B12F46C246CB460135F8
:1043A800102DF0D12E4B1F60324B1B6813B3324ACD
:1043B800294B12681B68511C8B4203D12F4B1A687A
:1043C800013205E0013A934203D12C4B1A68013AB5
:1043D8001A602B4B1A68511CB2F59D7F19600FDBD0
:1043E80026490A68C8205043264A106000220A60FD
:1043F8001A6005E0234A1360204A1360204A1360BC
:10440800154B1A681C4B00251A600F4B20461D607F
:1044180005B0BDE8F08F00BF9C8FC1F9189CEF3F35
:10442800FA189C8FC1F9883F0000000000208C40DA
:104438000000000000708740FCA9F1D24D62A03F47
:10444800000000205FA002C2004E002000001040C3
:104458000000F03F901E0020602B0020704E0020CE
:10446800F04D002004210108084E0020D013002040
:10447800881E0020804D00205C2B0020CC130020DB
:10448800644E0020D0560020894B2DE9F74F18685C
:10449800884B1B6855EC104B002B40F0318109F01C
:1044A80083FC00228046894620462946002309F0DD
:1044B80067FF002866D02046294673A3D3E9002366
:1044C80009F054FF00285DD071A3D3E900232046EA
:1044D800294609F01BFB0B460E467749774C0246E6
:1044E8000546C1E9002328466BA3D3E9002326F03B
:1044F800004109F0BFFCD4E900AB52465B46CDE968
:10450800000109F029FF20B100206D4942464B46C1
:1045180009E042464B464046494609F0F9FA0B463F
:1045280067490246002009F0CFFD804689460020F1
:1045380042464B46624909F0E9FA52465B4609F0A1
:1045480099FCDDE9002382468B464046494609F03E
:1045580091FC02460B465046594609F0D9FA594B88
:104568001A68142AC4E9000107DD5749534B002093
:1045780041EC170B83ED007B01E001321A60002447
:10458800524B70E0204629463FA3D3E9002309F0A7
:10459800F7FE002800F0B4802046294640A3D3E95E
:1045A800002309F0E3FE002800F0AA803EA3D3E927
:1045B80000232046294609F0A9FA0B460E463E4933
:1045C8003E4C02460546C1E90023284632A3D3E9FA
:1045D800002326F0004109F04DFCD4E900AB524617
:1045E8005B46CDE9000109F0B7FE20B1002034494F
:1045F80042464B4609E042464B464046494609F08A
:1046080087FA0B462E490246002009F05DFD8046D8
:104618008946002042464B46294909F077FA524616
:104628005B4609F027FCDDE9002382468B464046BD
:10463800494609F01FFC02460B465046594609F008
:1046480067FA224B1A68142AC4E9000107DD2049D9
:104658001A4B002041EC170B83ED007B01E001327F
:104668001A60184B00241C6000220023284631469B
:1046780009F086FE174B184A80B319681460013197
:1046880019602FE0AFF30080182D4454FB21094036
:10469800182D4454FB21F93F0000000000C062407F
:1046A800182D4454FB211940D221337F7CD9124064
:1046B80080160020C8130020E0400020984D0020FC
:1046C8000000F03FF048002000003940542B002043
:1046D80000005940144D0020704D002011681860EA
:1046E800013111601B68042B0ADC4F4B1B68042B3B
:1046F80006DC002000214D4B41EC170B83ED007BBD
:104708004B4B4C4C1A684C4B022AD4BF0022012256
:104718001A604A4B0022D3E90001494B09F03AFEDE
:1047280098B1484BD3E9000109F03EFE414BC0F176
:10473800640020601A68444B1B689A42434B01DBB3
:10474800012200E000221A6003E0404A00232360AF
:1047580013603F4B354C1B68D4E90001BBB12EA355
:10476800D3E9002309F016FE20B12BA1D1E90001FD
:10477800C4E900012D4C2AA3D3E90023D4E90001A0
:1047880009F0EAFDD0B126A1D1E9000114E0002228
:10479800304B09F0FFFD28B12E49002041EC170BE2
:1047A80084ED007B214C2C4BD4E90001002209F058
:1047B800D3FD18B128490020C4E90001274B254939
:1047C800274CD3E90067002032463B4609F07CFCC1
:1047D80002460B4600201F4909F098F9D4E9002346
:1047E80009F048FB3246804689463B4600201D4971
:1047F80009F06AFC0D4BD3E9002309F03BFB0246A4
:104808000B464046494609F083F9C4E90001BDE872
:10481800FE8F00BFAFF30080333333333333E33FCE
:10482800333333333333E3BF704D0020E04000208F
:10483800F0480020A42F002074160020084D002006
:1048480000002440984D0020381F0020804D002093
:10485800C81300200000F03F0000F0BF904D00207A
:10486800684D002000001440834A844B84492DE998
:10487800F04FD2E90089C3E90089824BD3E900AB44
:1048880057EC106B87B083ED001B82ED000BC1E97C
:1048980000AB32463B464046494655EC114B8DED40
:1048A800041B8DED020B09F0E5FA2246CDE9000163
:1048B8002B465046594609F0DDFA02460B46DDE91B
:1048C800000109F025F92246CDE900012B464046B2
:1048D800494609F0CFFA524604460D465B46304633
:1048E800394609F0C7FA02460B462046294609F020
:1048F8000DF982468B4652465B4609F0BBFA0446E0
:104908000D46DDE9000102460B4609F0B3FA0246FE
:104918000B462046294609F0FBF841EC100B09F03C
:1049280077FF594B594C5A4DD3E900010022594B96
:1049380057EC106B09F02EFD08B34BA3D3E9002305
:104948003046394609F0C0FB8046894642464B4608
:104958005046594609F0B8FB09F026FD266842463C
:1049680045F826004B46DDE9000109F0ADFB09F0EA
:104978001BFD771C023645F82700266008E02368EF
:10498800591C022245F823209B1845F82120236052
:104998003E4B1A6802F00F024BEC11AB1A609DED0A
:1049A800000B09F045FE32A3D3E9002351EC100BAC
:1049B80009F0AEF841EC100BFFF766FD2F4BD3E979
:1049C80000012D4BD3E9002309F054FA2C4B04467F
:1049D8000D46D3E900012B4BD3E9002309F04AFA2D
:1049E80002460B462046294609F092F80023002289
:1049F80009F0D0FC0124284B68B9284A1268002421
:104A08004AB11A68002A2BD0C2F38A0224491C60D2
:104A18008A5C5AB924E01A6844EA42021A601F4BB9
:104A28000CB9012200E000221A6019E01D4B1B6836
:104A3800B3B11D490B68252B04DC1C48C254013353
:104A48000B600DE01949012358185C5C0133252BD4
:104A580000F8014CF8DD16490B60144B83F825204B
:104A680007B0BDE8F08F00BF0000000000408F4095
:104A7800182D4454FB210940E848002050400020EC
:104A8800684E0020884D0020084D00209C0F002013
:104A9800A82F00200000244048300020A02F00202C
:104AA800501F0020804D0020A0750020A00F00207E
:104AB800E00800202DE9F04F994B1A688BB0002AC6
:104AC80040D0013A002A1A60964A41DC0021196058
:104AD800954B1160D3E90067944BD3E90045304604
:104AE80022462B46394609F013F8914B2246C3E972
:104AF80000012B463046394609F008F88D4C8E4B9C
:104B0800804689461868C4E9008909F05FF90246B9
:104B18000B463046394609F0ADF97DA3D3E90023A9
:104B280009F0D2FA854B0022C3E900014046494604
:104B3800002309F01BFC28B10022002343EC172BAB
:104B480084ED007B7E4CDFF844820027A14602E01A
:104B580001231360F6E7744B37F80850D3E90001D6
:104B6800784BA580D3E9002308F0D2FF6AA3D3E9E4
:104B7800002309F07FF909F017FCA368724AC018EE
:104B8800011101F580610905090DA060C0F30B1042
:104B980032F8211032F82030E181A38115FB01F1B0
:104BA80015FB03F5E36921610AA800EB4302C1F391
:104BB800CF316561C5F3CF3522F8201C22F8105C8F
:104BC8005A1C624B21831340002B658303DA013B97
:104BD80063F003030133C9F81C30002B40F08D80CB
:104BE800226A5B4804AB03EB420202A9042308F0E3
:104BF80007F9226A08A800EB42020423554806A9CF
:104C080008F0FEF8226A514B01321340002B03DAF8
:104C1800013B63F0030301332362002B6DD14E483F
:104C28004E4A4F4D4F4E04A9042308F0E9F84E4868
:104C38004E4A08A9042308F0E3F8A38C47492385C2
:104C4800E38C4B48638501F10802012308F08AF9D7
:104C58004649484801F10802012308F083F946490A
:104C6800464801F10802012308F07CF94449454807
:104C780001F10802012308F075F9B4F9300009F0D0
:104C880093F882468B46B4F93200C5E900AB09F0C7
:104C98008BF802460B46C5E90223B4F92C000192B1
:104CA800009109F081F8C6E90001B4F92E0009F075
:104CB8007BF8009B019A4BEC10AB43EC112BC6E937
:104CC8000201FFF72BFA304B1B6895ED000B95EDB1
:104CD800021B13B1FEF7D6FF01E0FFF7EFF896EDE0
:104CE800000B96ED021B1F4DFFF7B6FA28B195EDA4
:104CF800000B95ED021BFFF7B7FD0237B7F5806F84
:104D08007FF429AF0BB0BDE8F08F00BFAFF3008090
:104D1800182D4454FB21194039D6C56D305FC44065
:104D2800A04D0020841E0020682B0020702B00203E
:104D3800104E0020F84D0020980F00207816002013
:104D4800E0080020D85A0020C84501080300008068
:104D580070000020400000206400002004090020AA
:104D6800E00A0020E0150020340000200609002099
:104D78005800002028000020080900204C000020CE
:104D88000A0900201C000020782B0020C80F0020F2
:104D98000F4A1049002313605360936020225A542D
:104DA8000133262BFBD10B4A002382F827300A4A0D
:104DB8000121116004A1D1E90001084AC2E90001FA
:104DC800074A1380704700BF0000000000403F40C2
:104DD80014090020A8750020EC090020D009002043
:104DE800500A0020104B5B6810B5D3B10F49002260
:104DF8000C7803E0487801F8010B01329A42F9DB9C
:104E08001A460A48202101E011540132252AFBDD07
:104E1800054A013B536000205A21044A00F04EFE27
:104E280000E00124204610BD14090020A8750020C8
:104E380010B5104C238873B90F4A116809B1136073
:104E480007E0FFF7CFFF012812D00C4B53F82030B2
:104E58002380022010BD13F4004F0CBF0220002055
:104E68005B009BB2238023B9034B01221A6010BD5B
:104E7800022010BD500A0020EC090020042101087E
:104E880010B5184C184A2368E16803EB012102EBBE
:104E98008101486815490860216903EB012102EB8B
:104EA800810201335168124A2360B3F5807F116093
:104EB80016D100232360FFF7BBFFA36920750522E5
:104EC80002FB00300B4B03EB8000D0F80C3FC3F320
:104ED8000222E260C3F3021203F007032261A36116
:104EE80010BD00BF1409002044250108C409002092
:104EF800240A00203C360108084908B54B68262BCF
:104F080009D0074AD05401334B6000205A2100F0E1
:104F1800D5FD012008BD002008BD00BF14090020F0
:104F2800A8750020034B5868A0F12603584240EBAF
:104F38000300704714090020034B5868D0F10100A2
:104F480038BF0020704700BF14090020AFF300806D
:104F580010B58721AA20FDF79BFF40F00102D2B2CD
:104F6800AA208721FDF76EFE092401E0013C05D047
:104F7800AA208721FDF78CFFC307F7D410BD0A23A9
:104F880090FBF3F0364B98422DE9F04F4ADC354C54
:104F9800354ADFF8E090DFF8E080830094FBF3F413
:104FA800E10748BF01340B23434392FBF3F3802C02
:104FB800A8BF8024DA0748BF013B23EAE37A00232D
:104FC80019461A4614E0002515F80970DFF8ACC038
:104FD80007FB04F64643B444C44505D80BB19E42CA
:104FE80002DC3346394622460135062DECD1023C17
:104FF8005445E8DC24E015F809C0DFF880800CFB94
:1050080007F64643B044D84505D80CB1A64202DCA1
:10501800344661463A460135062DECD10133022B60
:105028000AD10DE0DFF858A0DFF84CB000231C4689
:1050380019461A46AAF1060913F80A700025DAE794
:1050480007EE101A094BF8EEC77A07EE102AC3EDDF
:10505800007AF8EEC77A064BC3ED007ABDE8F08F08
:105068001CC6A002C0BBCB214083E81C806D002079
:10507800586D0020C04501088038E304C07C17E360
:10508800C6450108F8B52E4B2E4C0546186808F0A1
:105098009DFE00222C4B08F039FD00222B4B08F016
:1050A800E9FE064620680F4608F090FE0022284BCD
:1050B80008F02CFD0022274B08F0DCFE02460B46C8
:1050C8003046394608F024FD09F096F92870206822
:1050D800214E224C08F07AFE00221D4B08F016FDE6
:1050E80009F08AF9C0B280016870D6E9000109F0B8
:1050F80083F920606B7843EA10106870206808F024
:1051080043FE02460B46D6E9000108F0FFFC0022E8
:10511800134B08F0AFFE09F047F9124B687118609D
:10512800020A000CE8702A71DB7803F00F03AB70F9
:1051380023681B01DBB22360AA781343AB70F8BD68
:10514800806D0020586D0020000010400000404095
:105158000000F03F0000D03F686D00208C6D0020FB
:105168000000B041486D002070B502785209043241
:1051780007EE102A214AF8EEC77A0346C2ED007AF4
:10518800017842781C7901F01F01920902EB810233
:10519800013207EE102A1A4AF8EEC77AC2ED007AF1
:1051A8004178184A01F03F0111608078000900EB4E
:1051B800011010609978144A01F00F011160DE782F
:1051C8005B7906EB012604EB062603EB0626166040
:1051D80008F0DAFD044630460D4608F0D5FD0022F9
:1051E8000A4B08F047FE0B4602462946204608F0BF
:1051F8008FFC074BC3E9000170BD00BF806D002024
:10520800586D00208C6D0020486D00200000303E55
:10521800686D002008B5AA208721FDF739FE014BEB
:10522800187008BD886D002038B505460724AA20E7
:105238002146FDF72DFE0134E4B20D2C05F8010BD3
:10524800F5D138BD38B5134CFFF782FE2046FFF77D
:10525800EBFF2046FFF788FF0F4B186808F0B6FDF4
:105268000E4BD3E9002308F005FE0D4B04461868E1
:105278000D4608F0ABFD02460B462046294608F0CD
:10528800F9FD084BD3E9002308F01EFF064BC3E9DC
:10529800000138BD506D0020806D0020786D002021
:1052A800586D0020686D0020606D0020F8B51A4B1D
:1052B800D3E90067194BD3E9004530463946224601
:1052C8002B4609F03FF808BB3046394622462B46A4
:1052D80009F042F820B12046294632463B4603E011
:1052E8003046394622462B4608F010FC32463B46EB
:1052F80008F0EAFE06A3D3E90023012409F036F8F2
:1053080000B9002484F00104E0B2F8BD0020F8BD23
:1053180079E9263108AC6C3F986D0020686D002053
:1053280010B589210446AA20FDF7B2FD40F010020D
:10533800D2B28921AA20FDF785FC2246062307213F
:10534800AA20FDF70FFD8921AA20FDF7A1FD8921DB
:1053580000F0EF02AA20FDF775FCFFF7A7FF80B168
:105368008721AA20FDF794FD40F04002D2B2AA207E
:105378008721FDF767FCAA208721FDF789FD4006F4
:10538800F9D410BDF8B580EAE075A5EBE0752846BC
:10539800FFF7F5FD284608F007FD164B164C174D8C
:1053A800064618680F4608F011FD02460B463046BF
:1053B800394608F05FFD124B064618680F4608F09C
:1053C80005FD02460B463046394608F053FD0D4BA5
:1053D800D3E9002308F078FEC4E900012846FFF766
:1053E80051FE2846FFF79CFF94ED007B064B83EDAA
:1053F800007BF8BD806D0020686D0020506D002096
:10540800586D0020606D0020986D00200BA1D1E937
:105418000001074B10B5C3E90001064C064B236099
:10542800FFF710FF2068BDE81040ABE7AFF300803E
:10543800786D0020706D002040085A0300000000BD
:1054480000DB8A41AFF3008037B50E4D044655F8AE
:10545800200005EB4405012106F096F92B8A0093FC
:1054680001238DF804308DF8073002238DF80530BC
:10547800054B002253F824008DF80620694605F0F4
:10548800DBFD3EBDC8850108D0030020044A054B5A
:1054980053F8203002EB4000028A1A83704700BF9D
:1054A800C8850108D0030020044A054B53F8203072
:1054B80002EB4000028A5A83704700BFC885010882
:1054C800D00300200549064B53F8203001EB40007B
:1054D8005A69018A4A405A61704700BFC885010865
:1054E800D003002070B50646012086B00D4601465F
:1054F80006F04AF901214FF4804006F075F906A933
:10550800012341F8143D154B03EB8606002430694E
:105518008DF808408DF80B4005F08EFD012D1BD14C
:105528002046214606F0EEFB082303A88DF811302B
:1055380003958DF810408DF8125005F071FA062386
:105548008DF8143005A80F238DF815308DF8163016
:105558008DF8175002F09EF906B070BDD0030020F8
:1055680008B5044B03EB80000121006905F0C3FD79
:1055780008BD00BFD00300207047FEE7FEE7FEE746
:10558800FEE7704770477047704708B5022005F07E
:10559800A1FA48B1054BD3F880305B6998470220DF
:1055A800BDE8084005F0A4BA08BD00BF107500208A
:1055B80001F022BF014803F08DBF00BFE06D00205D
:1055C800414BD3F8882042F47002C3F888203F4B3F
:1055D8001A6842F001021A6000229A60196821F0E4
:1055E800847121F48031196039495960196882B091
:1055F80021F480211960DA60009201921A6842F45D
:1056080080321A601A6802F400320192009A01325C
:105618000092019A1AB9009AB2F5A06FF2D12B4BF9
:105628001B6813F4003318BF01230193019B012B5E
:105638002ED1264B1A6C42F080521A64254A116802
:1056480041F4804111609A689A609A6842F4004275
:105658009A609A6842F4A0529A601F4A5A601A687F
:1056680042F080721A601968184A8901FBD51B4BF1
:1056780040F205611960936823F00303936093680F
:1056880043F002039360936803F00C03082BFAD1EC
:105698000E4B9A6822F400029A60114AC3F88420DB
:1056A8001A6842F080621A601A681201FCD5064B2B
:1056B8004FF000629A60D3F8882042F47002C3F871
:1056C800882002B0704700BF00ED00E000380240BB
:1056D800103000240070004008544007003C02408D
:1056E80080400030184B194A996801F00C010429D0
:1056F80003D0082903D0164B19E0164B17E0596858
:105708005A6811F4800F596814BF124B104B02F0FD
:105718003F02B3FBF2F30C4A5268C2F30142C1F3F1
:105728008811013252004B43B3FBF2F3074A13606E
:10573800054B9A68054BC2F303129A181968127937
:1057480021FA02F21A60704700380240E403002090
:105758000024F40000127A004FF0C04322221A807D
:105768007047014B18807047000002604FF0C0433B
:10577800188003F50033198070474FF0C0430722A3
:105788001A8003F5003302F5B6721A8070474FF09D
:10579800C04307221A8003F5003300221A8070479D
:1057A80082B0084BADF80600ADF80410BDF806202D
:1057B80092B21A80BDF80420034B92B21A8002B04C
:1057C800704700BF30090020F8030020044B1B88F5
:1057D8009BB20380034B1B889BB20B80704700BFB2
:1057E80030090020F803002082B0044BADF8060011
:1057F800BDF8062092B21A8002B070473009002026
:1058080082B0044BADF80600BDF8062092B21A80AB
:1058180002B07047F803002082B0044BADF80600D0
:10582800BDF8062092B25A8002B07047F8030020F3
:105838004FF0C04220231380024B18802120108093
:105848001980704700000260B0F5A07F08B50346D4
:105858000EDAEF290CDC88B299B2FFF7E9FF4FF0B6
:10586800C04322221A80034B1A88034B92B21A8033
:1058780008BD00BF3009002000000260B0F5A07F1D
:1058880010B5034614460DDAEF290BDC88B299B23D
:10589800FFF7CEFF4FF0C04322221A8003F50033F2
:1058A800A4B21C8010BD2DE9F04F824E73888FB0D2
:1058B8009BB2082B01908A4614462CD102A81146A7
:1058C800FAF768FC0AF10707BFB2002505F10803DB
:1058D8006A46072613F802B0019B0FFA87F91FFAE8
:1058E80083F84BFA06F313F0010F14BF724B714B98
:1058F8001A880FFA88F012B24946013EFFF7BEFF38
:1059080008F10108701C1FFA88F8EAD10135013F37
:10591800082DBFB2DAD1674E73889BB20C2B2CD1FD
:1059280002A82146FAF740FC0AF10B07BFB200258E
:1059380005F108036A46072613F802B0019B0FFA1F
:1059480087F91FFA83F84BFA06F313F0010F14BF17
:10595800594B584B1A880FFA88F0494612B2013E43
:10596800FFF78CFF08F10108711C1FFA88F8EAD1CB
:105978000135013F0C2DBFB2DAD14E4E73889BB270
:10598800102B2CD102A82146FAF722FC0AF10F07A6
:10599800BFB2002505F108036A46072613F802B0CE
:1059A800019B0FFA87F91FFA83F84BFA06F313F0F5
:1059B800010F14BF404B3F4B1A880FFA88F012B200
:1059C8004946013EFFF75AFF08F10108721C1FFA09
:1059D80088F8EAD10135013F102DBFB2DAD1354E32
:1059E80073889BB20E2B2CD102A82146FAF7E6FB4E
:1059F8000AF10B07BFB2002505F108036A460B261A
:105A080033F802B0019B0FFA87F91FFA83F84BFAB3
:105A180006F313F0010F14BF274B264B1A880FFA11
:105A280088F012B24946013EFFF728FF08F1010845
:105A3800731C1FFA88F8EAD10235013F182DBFB24E
:105A4800DAD11C4D6B889BB2182B2FD1214602A8A6
:105A5800FAF7C8FB0AF1170ADFF85CB01FFA8AFAEE
:105A68000024A94604F108036A46002533F8028099
:105A7800019B0FFA8AF79EB248FA05F313F0010F5B
:105A880014BFBBF80020B9F8002030B212B2394672
:105A980001350136FFF7F2FE102DB6B2ECD1023413
:105AA8000AF1FF3A302C1FFA8AFADBD10FB0BDE8B1
:105AB800F08F00BFF803002030090020F8B5044635
:105AC8000D46164640F2371716F8012B20B229B2B8
