:020000040800F2
:100000000000022071B10008F1520008F35200080C
:10001000F5520008F7520008F952000800000000ED
:10002000000000000000000000000000FB5200087B
:10003000FD52000800000000FF52000801530008B4
:10004000B5B10008B5B10008B5B10008B5B10008F8
:10005000B5B10008B5B10008816F0008B5B100085E
:10006000B5B10008B5B10008B5B1000879100008B5
:10007000B5B10008B5B10008B5B10008B5B10008C8
:10008000B5B10008B5B10008B5B10008B5B10008B8
:10009000B5B10008B5B10008B5B10008F96C0008A9
:1000A000B5B10008B5B10008B5B10008B5B1000898
:1000B000B5B10008B5B10008B5B10008B5B1000888
:1000C000B5B10008B5B10008B5B10008B5B1000878
:1000D000B5B10008B5B10008996E0008B5B10008C7
:1000E000B5B10008B5B10008B5B10008B5B1000858
:1000F000B5B10008B5B10008B5B10008B5B1000848
:10010000B5B10008B5B10008B5B10008B5B1000837
:10011000B5B10008B5B10008B5B10008B5B1000827
:10012000B5B10008B5B10008B5B10008B5B1000817
:10013000B5B10008B5B10008B5B10008B5B1000807
:10014000B5B10008B5B10008B5B10008B5B10008F7
:10015000B5B10008B5B10008B5B10008B5B10008E7
:10016000B5B10008B5B10008B5B10008B5B10008D7
:10017000B5B10008B5B10008B5B10008B5B10008C7
:08018000B5B10008B5B100089B
:10018800A0680108000000203C080020400800206A
:10019800146F0020034B203903EBC10108220CF037
:1001A8006DB900BF98C50008034B0C2202FB013152
:1001B800A1F5C0710CF062B990C80008034B182271
:1001C80002FB0131A1F540710CF058B904CD0008CB
:1001D800034B203903EB011110220CF04FB900BF7B
:1001E800ECD50008034B302202FB0131A1F5C061B8
:1001F8000CF044B9DCDB000838B500F0C7F900F0B2
:10020800C7F90E4B0E4D0F4800241C80082101220F
:1002180007F0CFFD00F09FF900F0BCF9B5F9000038
:1002280000F01EF9B5F9020000F0F6F8204600F0DB
:1002380042F90620BDE8384000F0B4B8E8080020CC
:1002480080090020000C024008B500F09FF900F07A
:100258009FF9104B01221A8000F07DF9002000F070
:10026800FFF8002000F027F900F0AFF90A4BB3F9C6
:10027800040000F0D1F808210022084807F099FD91
:100288004FF47A7002F0C2FF1820BDE8084000F071
:10029800A6B800BFE808002080090020000C024032
:1002A800114B002210B51A6000F070F900F070F9D7
:1002B8000E4B0F4C01221A8000F04DF9B4F90600DC
:1002C80000F0CEF8082100220A4807F072FD4FF42A
:1002D8007A7002F09BFF142000F081F8B4F90A004C
:1002E800BDE8104000F05EB814090020E8080020BE
:1002F80080090020000C024010B500F047F900F01A
:1003080047F90E4B0E4C01221A8000F024F9B4F97B
:10031800080000F0A5F8082100220A4807F049FD66
:100328004FF47A7002F072FF142000F058F8B4F914
:100338000A00BDE8104000F035B800BFE80800200A
:1003480080090020000C02402DE9F341144F0820D9
:10035800012102AC08F060F80026012504234FF0C3
:1003680002083846694644F8083D8DF804608DF85F
:1003780005808DF806608DF8075007F0A5FC082366
:10038800384669468DF804508DF805808DF806606A
:100398008DF80750009307F097FCBDE8FC8100BF7B
:1003A800000C024010B5002101220446302002F062
:1003B80049FCE4B2012002F029FF10212246302036
:1003C80002F040FC012002F021FF302011212246DA
:1003D80002F038FC0120BDE8104002F017BF10B54C
:1003E800002101220446302002F02CFCE4B2012056
:1003F80002F00CFF12212246302002F023FC0120DB
:1004080002F004FF30201321224602F01BFC0120D9
:10041800BDE8104002F0FABE002810B5044603DB20
:100428005F2CA8BF5F2400E00024002101223020B7
:1004380002F008FCE4B2012002F0E8FE3B2122466B
:10044800302002F0FFFB012002F0E0FE30203C21CA
:10045800224602F0F7FB0120BDE8104002F0D6BEAC
:10046800302810B504460ADC10F17F0F02DB0028A3
:1004780002DB05E06FF07E0404F5807400E03024B0
:1004880000210A46302002F0DDFBE4B2012002F030
:10049800BDFE41212246302002F0D4FB012002F0AB
:1004A800B5FE30204221224602F0CCFB0120BDE8F7
:1004B800104002F0ABBE282810B5044609DC10F144
:1004C800180F02DB002802DB04E06FF017047F340A
:1004D80000E0282400210A46302002F0B3FBE4B2F1
:1004E800012002F093FE53212246302002F0AAFB9D
:1004F800012002F08BFE30205421224602F0A2FB9C
:100508000120BDE8104002F081BE08B5002101229B
:10051800302002F097FB012002F078FE30203321D2
:10052800402202F08FFB0120BDE8084002F06EBEB9
:1005380008B500210122302002F084FB012002F0DE
:1005480065FE30203321002202F07CFB0120BDE84B
:10055800084002F05BBE08B500210122302002F0FD
:1005680071FB012002F052FE34210022302002F0FB
:1005780069FB012002F04AFE30203721002202F0F8
:1005880061FB0120BDE8084002F040BE402009E7B9
:10059800402024E708B500210122302002F052FB58
:1005A800012002F033FE30203421024602F04AFBDB
:1005B800012002F02BFE30203721024602F042FBD8
:1005C8000120BDE8084002F021BE08B50021012243
:1005D800302002F037FB012002F018FE30203421D1
:1005E8000C2202F02FFB0120BDE8084002F00EBEED
:1005F80007B50420012107F00FFF01214FF48040C7
:1006080007F03AFF002302A98DF8043001238DF882
:1006180007304FF4007341F8083D0248694607F077
:1006280053FB0EBD00080240F8B56A4B6A486B4997
:100638006B4A1B6890ED006AD1ED006A92ED007A72
:10064800002B61D16748684E684D19461A4640F23A
:10065800FF1432F900E005EE10EA1718F8EEC57A33
:10066800B7F9027067EE865A05EE107AFDEEE55A84
:1006780067EEA67A15EE90EAF8EEC55A013375EEE4
:10068800A75A9BB265EE875A21F806E0FDEEE55AB7
:10069800043215EE907A4F531FB20231A742D8DDCB
:1006A800534B5448504D514CC3ED007A0023194622
:1006B8001A46575B0E180F520133175B9BB27780AF
:1006C8001EB202320431FF2EF3DD4B4A4B4E13802B
:1006D80000F050FD00F05CFD00F068FD04F080F9CA
:1006E80000F084FD002346481A46194640F2FF15DB
:1006F8008C5B171801339BB214527C801CB20231F8
:100708000432AC42F4DD61E000233E48364E374DFA
:1007180019461A4640F2FF1432F900E005EE90EA55
:100728001718F8EEE57AB7F9027067EE865A05EE03
:10073800107AFDEEE55A67EEA67A15EE90EAF8EE25
:10074800C55A013375EEA75A9BB265EE875A21F850
:1007580006E0FDEEE55A043215EE907A4F531FB2CB
:100768000231A742D8DD224B22481F4D1F4CC3ED52
:10077800007A002319461A46575B0E180F520133A8
:10078800175B9BB277801EB202320431FF2EF3DD75
:10079800194A1A4E138000F0EDFC00F0F9FC00F045
:1007A80005FD04F01DF900F021FD002316481A4646
:1007B800194640F2FF158C5B171801339BB214528F
:1007C8007C801CB202310432AC42F4DD0A4A138048
:1007D800F8BD00BFB8260020480900206C09002099
:1007E800B8080020B4370020EC190020022B0020A4
:1007F800DC0800203C560020002B0020EC150020CF
:10080800B42F0020284E002050400020F8B5624B3D
:1008180062481A686249634BD0ED005A91ED006A4C
:10082800D3ED006A002A59D15F4D604C60481346E9
:1008380040F2FF1135F9136007EE106AF8EEC77A37
:10084800013227EEA57A92B2BDEEC77A17EE106A8A
:1008580027EE867A1E5377EE877A67EEA67AFDEE44
:10086800E77A17EE906A1E5216B202338E42E1DD25
:10087800504B51484D4D4E4C83ED007A002319469C
:100888001A46575B0E180F520133175B9BB27780DD
:100898001EB202320431FF2EF3DD484A484E13805F
:1008A80000F068FC474D00F073FC00F09FFC00234B
:1008B800454819461A4640F2FF1432F806C00F1888
:1008C80021F800C0013332F805C09BB2A7F802C076
:1008D8001FB202320431A742EFDD59E000223B4D3E
:1008E800324C3348134640F2FF1135F9136007EED6
:1008F800106AF8EEC77A013227EEA57A92B2BDEEF9
:10090800C77A17EE106A27EE867A1E5377EE877A33
:1009180067EEA67AFDEEE77A17EE906A1E5216B2D7
:1009280002338E42E1DD234B2348204D204C83EDDA
:10093800007A002319461A46575B0E180F520133E6
:10094800175B9BB277801EB202320431FF2EF3DDB3
:100958001A4A1B4E138000F00DFC1A4D00F018FCCB
:1009680000F044FC00231A4819461A4640F2FF14C6
:1009780032F806C00F1821F800C0013332F805C05C
:100988009BB2A7F802C01FB202320431A742EFDDC2
:100998000A4A1380F8BD00BFB826002018090020B5
:1009A8007C090020B8080020B4370020EC1900208A
:1009B800022B0020DC0800203C560020002B0020E1
:1009C800F00A00205C480020B42F0020284E0020A8
:1009D800504000202DE9F0472DED088BA64B82B042
:1009E800D3E90001A0A3D3E900230AF08BF8A34BB5
:1009F800044618680D460AF031F802460B462046B0
:100A080029460AF0A9F99E4B9E4AC3E900019E4B6C
:100A18001C689E4B93ED00BA9D4BCDE90001D3EDC8
:100A280000BA9C499C4BDFED9D9A9FED9D9ADFEDA6
:100A38009D8A91ED00AAD2ED00AA1E6893ED018A65
:100A4800002C40F08680984FDFF86882DFF86892C3
:100A5800254640F2FF1A86A3D3E90023DDE9000109
:100A68000AF050F80AF0E8FA7AEE487A28EE098A8D
:100A780007EEA98A3618C8EE287A331103F5806381
:100A88001B051B0D013437F8232013B2A4B206EE60
:100A9800903AB8EEE67A67EE2A6A66EEA76AFDEE45
:100AA800E66A16EE903A67EE0B6A25F8083037EEDC
:100AB800267A27EE277A27EE2B7ABDEEC77A17EE2D
:100AC800103A25F8093023B202355345C3DD724B7D
:100AD80076481E601A8183ED018A83ED038A744B80
:100AE800744D754CC3ED007A744BC3ED006A002356
:100AF80019461A46575B0E180F520133175B9BB203
:100B080077801EB202320431FF2EF3DD6C4A6D4E3F
:100B1800138000F02FFB6C4D00F03AFB00F066FBF1
:100B280000236A4819461A4640F2FF1432F806C0F4
:100B38000F1821F800C0013332F805C09BB2A7F89E
:100B480002C01FB202320431A742EFDD5C4A1380B3
:100B580085E00024544FDFF85C81DFF85C9125467E
:100B680040F2FF1A42A3D3E90023DDE9000109F0AE
:100B7800C9FF0AF061FA7AEE487A28EE098A07EE88
:100B8800A98A3618C8EE287A331103F580631B0545
:100B98001B0D013437F8232013B2A4B206EE903AA5
:100BA800B8EEE67A67EE2A6A66EEA76AFDEEE66AAE
:100BB80016EE903A67EE0B6A25F8083037EE267A7B
:100BC80027EE2B7A27EE277ABDEEC77A17EE103A72
:100BD80025F8093023B202355345C3DD2E4B33487F
:100BE8001E601A8183ED018A83ED038A304B314DF3
:100BF800314CC3ED007A314BC3ED006A002319462E
:100C08001A46575B0E180F520133175B9BB2778059
:100C18001EB202320431FF2EF3DD294A294E138019
:100C280000F0A8FA284D00F0B3FA00F0DFFA00232C
:100C380027481A46194640F2FF1431F806C01F1813
:100C480023F800C0013231F805C092B2A7F802C0FB
:100C580017B202310433A742EFDD194B1A8002B0F4
:100C6800BDEC088BBDE8F087182D4454FB211940D2
:100C780039D6C56D305FC440E0150020000F002054
:100C88002809002018090020B82600207C09002027
:100C9800B8080020784C002040080020CDCCCC3C7F
:100CA8009A99793F00FCFF469C1201083C560020A7
:100CB80014090020EC190020022B0020DC08002079
:100CC800002B0020F00A00205C480020B42F0020F0
:100CD80050400020F8B56C4B2DED028BD3E9000194
:100CE80065A3D3E9002309F00DFF684B0446186893
:100CF8000D4609F0B3FE0B460246294620460AF087
:100D08002BF8634B634DC3E90001634B1B68002B51
:100D180040F0A9802B8040F2FF169FED608A6BE0BF
:100D28005B4B5F4CD3E9000155A3D3E9002309F0DD
:100D3800E9FE0AF081F92369C018021102F5806200
:100D48001205120D2061574BC0F30B1053F82010F9
:100D580053F82230A182E38204F010F852492B881C
:100D6800D1ED007AB4F9141006EE901A67EE887A7D
:100D7800B8EEE67A4D4967EE877A1AB2FDEEE77A61
:100D8800013317EE900AD1ED007AB4F916102B80D2
:100D980006EE901A67EE887AB8EEE67A67EE877AFA
:100DA800FDEEE77A17EE901A411809B207EE101A0D
:100DB8003F49F8EEC77A91ED007A27EE877A3D49E8
:100DC800BDEEC77A17EE100A21F812003A4991EDE4
:100DD800007A3A4927EE877A81ED007A384977EE2A
:100DE800877AD1ED006A67EEA67A3649FDEEE77A92
:100DF80017EE900A21F81200B5F90030B3428FDDE2
:100E0800002331482B4D2F4C19461A46575B0E18B4
:100E18000F520133175B9BB277801EB20232043146
:100E2800FF2EF3DD1B4A294E138000F0A3F9284D4D
:100E380000F0AEF900F0DAF90023264819461A4600
:100E480040F2FF1432F806C00F1821F800C0013331
:100E580032F805C09BB2A7F802C01FB202320431B3
:100E6800A742EFDDDAE000232B8040F2FF169FED6A
:100E78000B8A9DE0AFF30080182D4454FB211940E4
:100E880039D6C56D305FC440E0150020000F002042
:100E980028090020002B0020B82600208FC2F53C2E
:100EA800400800209C120108740900201009002045
:100EB80018090020EC1900207C090020DC0800201B
:100EC800B8080020022B00203C560020F00A002021
:100ED8005C480020B42F0020554B564CD3E9000144
:100EE80051A3D3E9002309F00DFE0AF0A5F8236900
:100EF800C018021102F580621205120D20614E4BD6
:100F0800C0F30B1053F8201053F82230A182E3826B
:100F180003F034FF49492B88D1ED007AB4F9141055
:100F280006EE901A67EE887AB8EEE67A444967EEDC
:100F3800877A1AB2FDEEE77A013317EE900AD1EDFF
:100F4800007AB4F916102B8006EE901A67EE887AAC
:100F5800B8EEE67A67EE877AFDEEE77A17EE901A32
:100F6800411809B207EE101A3649F8EEC77A91ED22
:100F7800007A27EE877A3449BDEEC77A17EE100A51
:100F880021F81200314991ED007A314927EE877A2C
:100F980081ED007A2F4977EE877AD1ED006A67EE06
:100FA800A67A2D49FDEEE77A17EE900A21F812008D
:100FB800B5F90030B3428FDD00232848224D264C76
:100FC80019461A46575B0E180F520133175B9BB22E
:100FD80077801EB202320431FF2EF3DD204A214E03
:100FE800138000F0C7F8204D00F0D2F800F0FEF8AA
:100FF80000231E4819461A4640F2FF1432F806C06C
:101008000F1821F800C0013332F805C09BB2A7F8C9
:1010180002C01FB202320431A742EFDD104A13802A
:10102800BDEC028BF8BD00BF39D6C56D305FC4403A
:1010380028090020400800209C120108740900209B
:101048001009002018090020EC1900207C09002054
:10105800DC080020B8080020022B00203C560020A5
:10106800002B0020F00A00205C480020504000209F
:1010780008B5244806F075FA234B1860234806F093
:1010880070FA234B4FF4805118600122214806F072
:1010980090FE214BB3F9003013B9FFF7C5FA21E0F0
:1010A8001E4B1B88012B06D002D3022B1AD117E046
:1010B800FFF7ACFB16E04FF40071194806F063FE29
:1010C800184B9FED197ADFED197A18700028184B24
:1010D80018BFF0EE477AC3ED007AFFF77BFC01E01A
:1010E800FFF7F8FD00220B484FF4805106F061FE2F
:1010F800104B0448104901221A80BDE8084006F048
:10110800B1BA00BF10600240B826002088600240D3
:10111800AC2F0020000C0240E8080020E42A002040
:1011280000080240780900200000000000FCFF468B
:10113800784C00203809002020800010AFF3008090
:1011480007B50820012107F067F94FF440530093D1
:1011580001238DF804300222002305488DF806305B
:1011680069468DF805208DF8073006F0ADFD0EBDF7
:10117800000C024003480449044A4FF4007308F085
:1011880039BD00BF00000020EC190020F00A002043
:1011980003480449044A4FF4007308F02BBD00BF0C
:1011A8000C000020022B00205C480020F0B5DFF87E
:1011B80038C0094F094E0A4D0A4C002333F80C1069
:1011C800D85B0A1A92B241189A5359531A530233E8
:1011D800B3F5806FF2D1F0BD5C480020EC1500201B
:1011E800BC260020300F0020F00A002070B50F4CFC
:1011F8000F4D104E298B00220123204609F094FA46
:101208000D4B187020460D4C314609F073FA3046E4
:10121800062122464FF4807308F0BAFB2A8B08494E
:101228002046BDE8704008F045BB00BF4C6C00206C
:10123800000000203C5600204A6700204A63002036
:101248004013002038B505460C460135C1F3072187
:1012580001F0EAFFA8B2E1B201F0E6FF00B238BD42
:1012680038B5044601F0E8FE01340546A0B201F0A5
:10127800E3FEEDB2C0B240EA052000B238BD37B592
:101288000B0E8DF804300B0C8DF805300B0A8DF819
:1012980006308DF80710002400E0284601AB451CF5
:1012A800E15C013401F0C0FF042CADB2F5D13EBDC4
:1012B80037B5002400E02846451C01F0BDFE01AB0F
:1012C800ADB2E0540134042CF5D19DF805009DF829
:1012D8000430000440EA03609DF8073018439DF885
:1012E800063040EA03203EBD38B5064D642420464A
:1012F800043455F8041FA4B2FFF7C1FFA42CF6D19B
:1013080038BD00BF646C002038B5064D6424204603
:10131800FFF7CEFF0434A4B2A42C45F8040FF6D18D
:1013280038BD00BF646C002038B5064DC82420467F
:10133800023435F9021FA4B2FFF784FFE82CF6D176
:1013480038BD00BF7E09002038B5064DC8242046A8
:10135800FFF786FF0234A4B2E82C25F8020FF6D175
:1013680038BD00BF7E0900207FB50420012107F0A9
:1013780053F804AD01214FF4804007F07DF84FF495
:10138800B07345F80C3D0124002629461A488DF80B
:1013980008608DF80B4006F097FC1020214607F0F6
:1013A8003BF878232946154801938DF808608DF895
:1013B8000B4006F089FC21464FF4804007F05CF8AA
:1013C8000220082107F0E6FA0D484FF48073036005
:1013D8000C2306714371847106F06AF9172303A878
:1013E8008DF80C308DF80D408DF80E408DF80F40BB
:1013F80005F060FF7FBD00BF0008024000100240FA
:101408000C6D0020104B114A11481249DFF874C0C6
:1014180083E80710104A1A61104A5A61104A9A6103
:10142800104ADA61104A1A62104A5A62104A9A62DD
:10143800104ADA62104A1A63104A5A63104A9A63C9
:101448000422DA63704700BF686C0020203D6B00FF
:10145800F0B0D60060A0360030E16B0080969800AE
:1014680090B19A00C0ACD800C0E1E400202F14016C
:10147800B0804101C03F7C01C013AD0110C1FE0224
:1014880000605B03006C6B0008B5044806F081FC43
:10149800034BC043C0F3C300188008BD00100240CE
:1014A800666C002038B59D4C642001F0AFFE2578AD
:1014B8009B48AD00EDB2257006F06BFCC0F34110FF
:1014C8000543984B257005F00F05974A595D6378D9
:1014D800C918964B1B88C9B2617018B249B28142CB
:1014E80005DA4042814206DD0021117003E0012146
:1014F80011700022627094F901201BB25B429A427B
:10150800894B04DCFF221A70844A0021517093F938
:101518000030002B00F09681FFF7B6FF844BB3F93B
:1015280000300F2B00F28681DFE813F01000250051
:101538003A004F00640079008E00A300B800CD0087
:10154800E2000C011F01320158017901794A7A49F8
:10155800136809688B4280F06D81784909688B426D
:1015680040F268817049764891F90010006800FBE4
:10157800013313601EE16F4A6F49536809688B4253
:1015880080F058816D4909688B4240F25381664961
:101598006B4891F90010006800FB0133536009E1C2
:1015A800644A6549936809688B4280F043816349BE
:1015B80009688B4240F23E815B49614891F900100D
:1015C800006800FB01339360F4E05A4A5A49D36833
:1015D80009688B4280F02E81584909688B4240F295
:1015E80029815149564891F90010006800FB0133E0
:1015F800D360DFE04F4A5049136909688B4280F095
:1016080019814E4909688B4240F2148146494C4879
:1016180091F90010006800FB01331361CAE0454AE4
:101628004549536909688B4280F004814349096838
:101638008B4240F2FF803C49414891F90010006814
:1016480000FB01335361B5E03A4A3B4993690968A5
:101658008B4280F0EF80394909688B4240F2EA807A
:101668003149374891F90010006800FB0133936154
:10167800A0E0304A3049D36909688B4280F0DA80AB
:101688002E4909688B4240F2D58027492C4891F9A8
:101698000010006800FB0133D3618BE0254A26491E
:1016A800136A09688B4280F0C580244909688B4217
:1016B80040F2C0801C49224891F90010006800FBE4
:1016C8000133136276E01B4A1B49536A09688B424F
:1016D80080F0B080194909688B4240F2AB8012490A
:1016E800174891F90010006800FB0133536261E06C
:1016F800104A1149936A09688B4280F09B800F4910
:1017080009688B4240F2968007490D4891F900100C
:10171800006800FB013393624CE000BF58080020CA
:1017280000080240B8ED0008146D0020F86C002095
:10173800666C0020686C0020B46C0020086D0020E6
:10174800AC6C0020444A4549D36A09688B4271D27F
:10175800434909688B426DD94249434891F90010C1
:10176800006800FB0133D36224E03B4A3B49136B1A
:1017780009688B425ED23A4909688B425AD939497D
:10178800394891F90010006800FB0133136311E038
:10179800314A3249536B09688B424BD23049096848
:1017A8008B4247D92F49304891F90010006800FB57
:1017B800013353632D4A107858432D4B18602D4B35
:1017C8001B78032B01D003F02DFD2B4BB3F9002020
:1017D800214B53F82220294B1A602BE0284C1AA3DE
:1017E800D3E90023D4E9000109F0F4FB18B118A3E8
:1017F800D3E9002302E014A3D3E90023C4E90023BA
:101808001C4B1B78032B01D003F06CFCD4E90001BE
:1018180009F03AFC194B18600F4B98630AE0134A19
:101828001378042B14BF042302231370134A136084
:10183800094AD363114B1868EA210022BDE83840F1
:1018480004F0C8BE38BD00BF0000000000DB8A41BC
:1018580000000000D0126341686C0020B46C0020C6
:10186800086D0020146D0020AC6C0020A86C0020CE
:10187800D86C0020F06C0020666C00205C6C0020A6
:10188800E06C0020904BB3F9003010B58F4C0F2B53
:1018980000F29681DFE813F010002800400058009D
:1018A80070008800A000B800D000E80000013A01EC
:1018B80052016A0182018C01854B864C1B78206895
:1018C8005843854B1860854B1B78032B01D003F0D8
:1018D800A9FC7D4BB3F9003054F823207B4BEA2058
:1018E8001A6014217E4A69E1794B7A4C1B7860684A
:1018F8005843794B1860794B1B78032B01D003F0C0
:1019080091FC714BB3F9003054F823206F4BEA2057
:101918001A601421734A51E16D4B6E4C1B78A06814
:1019280058436D4B18606D4B1B78032B01D003F0A7
:1019380079FC654BB3F9003054F82320634BEA2057
:101948001A601421684A39E1614B624C1B78E068DF
:101958005843614B1860614B1B78032B01D003F08F
:1019680061FC594BB3F9003054F82320574BEA2057
:101978001A6014215D4A21E1554B564C1B782069A9
:101988005843554B1860554B1B78032B01D003F077
:1019980049FC4D4BB3F9003054F823204B4BEA2057
:1019A8001A601421524A09E1494B4A4C1B78606974
:1019B8005843494B1860494B1B78032B01D003F05F
:1019C80031FC414BB3F9003054F823203F4BEA2057
:1019D8001A601421474AF1E03D4B3E4C1B78A06940
:1019E80058433D4B18603D4B1B78032B01D003F047
:1019F80019FC354BB3F9003054F82320334BEA2057
:101A08001A6014213C4AD9E0314B324C1B78E0690A
:101A18005843314B1860314B1B78032B01D003F02E
:101A280001FC294BB3F9003054F82320274BEA2056
:101A38001A601421314AC1E0254B264C1B78206AD4
:101A48005843254B1860254B1B78032B01D003F016
:101A5800E9FB1D4BB3F9003054F823201B4BEA2057
:101A68001A601421264AA9E0194B1A4C1B78606A9F
:101A78005843194B1860194B1B78032B01D003F0FE
:101A8800D1FB114BB3F9003054F823200F4BEA2057
:101A98001A6014211B4A91E00D4B0E4C1B78A06A6A
:101AA80058430D4B18600D4B1B78032B01D003F0E6
:101AB800B9FB054BB3F9003054F82320034BEA2057
:101AC8001A601421104A79E0666C00205C6C0020D2
:101AD800A86C0020686C0020D86C0020F06C0020F6
:101AE800346601083F6601084A6601085566010820
:101AF800606601086B660108766601088166010860
:101B08008C66010897660108A2660108304B314CC3
:101B18001B78E06A5843304B1860304B1B78032B16
:101B280001D003F07FFB2E4BB3F9003054F823208B
:101B38002C4BEA201A6014212B4A3FE0244B254CF9
:101B48001B78206B5843244B1860244B1B78032BBD
:101B580001D003F067FB224BB3F9003054F823207F
:101B6800204BEA201A601421204A27E0184B194C10
:101B78001B78606B5843184B1860184B1B78032B65
:101B880001D003F04FFB164BB3F9003054F8232073
:101B9800144BEA201A601421154A0FE0154BD3E9BB
:101BA800000109F071FA14212060134AEA2005E0C7
:101BB800074B124A1B78EA202360142103F01EFE0B
:101BC800084B1868EA210022BDE8104004F002BD65
:101BD800A86C0020686C0020D86C0020F06C0020F5
:101BE800666C00205C6C0020AD660108B8660108D0
:101BF800C3660108E06C0020CE660108D9660108BA
:101C080038B50020FFF754FB40F2D244284BA042DD
:101C1800186007D0FFF7F6FBFFF766FB00202146A8
:101C2800FFF72DFBFFF770FB224B234D234CA86BCE
:101C380002221A80224A234B1A60234A234B1A6035
:101C480008F0EAFE224BC3E90001EB6B237003F0B6
:101C580031FA204B1B78032B05D1EA203C211E4A80
:101C680003F0CCFD1FE003F03DFAFFF70DFC1B4B22
:101C7800B3F900300D2B02DCFFF704FE13E02378E4
:101C88002868174C5843174B186003F0CBFA2B6899
:101C9800154A2360EA20142103F0B0FD2068EA21E8
:101CA800002204F097FC114B64221A6038BD00BF73
:101CB800606C0020F86C0020686C0020A86C002084
:101CC80080841E00086D00200065CD1DB46C0020C6
:101CD800E06C0020F06C0020E4660108666C0020CF
:101CE8005C6C0020D86C002034660108AC6C0020C5
:101CF8000E4B1A68642A10D004D8012A13D00A2A75
:101D080013D10DE0B2F57A7F42F2107103D08A4206
:101D18000BD1074A05E0196070474FF47A7200E06A
:101D280064221A6070470A221A607047AC6C00205F
:101D3800A08601000F4B1A68B2F57A7F11D004D83B
:101D48000A2A13D0642A13D10DE042F210718A4294
:101D580004D0094882420BD1196070474FF47A7257
:101D680002E0642200E00A221A60704701221A6029
:101D7800704700BFAC6C0020A0860100AFF3008064
:101D880073B50420012106F047FB02AD01214FF491
:101D9800804006F071FB01241E2300266946154881
:101DA80045F8083D8DF804608DF8074005F08CFF74
:101DB8000220214606F030FBB02369460E48009306
:101DC8008DF804608DF8074005F07EFF21464FF43A
:101DD800804006F051FB2046072106F0DBFD07484E
:101DE800802303600C2306714371847105F060FC45
:101DF8007CBD00BF00080240000402400C6D0020BA
:101E08000A4B142100225980998041F288311A80A6
:101E1800DA801A815A819981DA8119825A829A82E2
:101E2800DA821A835A839A83DA83704780090020FA
:101E38000C4B4FF6817100224FF47A701980D980CB
:101E480019814DF6F0015A809A805A819881D9817A
:101E5800188259829A82DA821A835A839A83DA8399
:101E6800704700BF4C0900200C4B30221A805022CA
:101E78005A809A801D22DA801A815A8142F21072A1
:101E88009A81DA811A825A8201229A826422DA823B
:101E98001A835A839A83DA83704700BFBC080020EC
:101EA8000A4B04220A211A8001225A809A80DA8079
:101EB8001A815A819981D981198259829A82DA8242
:101EC8001A835A839A83DA83704700BFF008002088
:101ED80008B5044805F05DFF034BC043C0F3430059
:101EE800188008BD000802407209002038B5854CEA
:101EF800642001F08BF925788348AD00EDB2257098
:101F080005F047FFC0F301100543804B257005F02D
:101F18000F057F4A595D6378C9187E4B1B88C9B283
:101F2800617018B249B2814205DA4042814206DD49
:101F38000021117003E0012111700022627094F9F0
:101F480001201BB25B429A42714B04DCFF221A70DB
:101F58006C4A0021517093F90030002B00F0688220
:101F6800FFF7B6FF6C4BB3F900300A2B00F2608222
:101F7800DFE813F00B00380062009700E200170159
:101F88004C017D01AE01F8012B02614B634A1B78BD
:101F98001188D8090BD06248B0F9004008B28442D1
:101FA80005DA604800885CB204FB001111805B4AC6
:101FB8005BB2002B11880ADD5B48B0F9004008B21B
:101FC800844204DD5748008803FB00131380534BF9
:101FD8001888564B1880564BB3F90030002B40F048
:101FE8002782DAE04A4B4D4A1B785188D8090BD032
:101FF8004B48B0F9024008B2844205DA49484088A3
:102008005CB204FB00115180444A5BB2002B51883A
:102018000ADD4548B0F9024008B2844204DD41486F
:10202800408803FB001353803C4B58883F4B188073
:102038003F4BB3F900302DE0354B384A1B78918877
:10204800D8090BD03648B0F9044008B2844205DA02
:10205800344880885CB204FB001191802F4A5BB23F
:10206800002B91880ADD3048B0F9044008B2844258
:1020780004DD2C48808803FB00139380274B988845
:102088002A4B18802A4BB3F90030012B40F0D0813D
:10209800284B1B88002B40F0CB8100B2FEF7BCF91F
:1020A800C6E11B4B1D4A1B78D188D8090BD01C48A8
:1020B800B0F9064008B2844205DA1A48C0885CB212
:1020C80004FB0011D180154A5BB2002BD1880ADDD0
:1020D8001548B0F9064008B2844204DD1148C088AA
:1020E80003FB0013D3800D4BD888104B1880104B7E
:1020F800B3F90030012B40F09B810E4B1B88012B5C
:1021080049E000BF5A08002000040240C8ED00085A
:10211800166D0020186D002072090020800900202B
:102128004C090020F0080020BC08002040090020CD
:10213800E8080020E42A00207E4B7F4A1B7811899A
:10214800D8090BD07D48B0F9084008B2844205DAB6
:102158007B4800895CB204FB00111181764A5BB2AE
:10216800002B11890ADD7748B0F9084008B284428B
:1021780004DD7348008903FB001313816E4B188933
:10218800714B1880714BB3F90030012B40F050812E
:102198006F4B1B88022B40F04B8100B2FEF760F9B1
:1021A80046E1644B644A1B785189D8090BD06348CF
:1021B800B0F90A4008B2844205DA614840895CB245
:1021C80004FB001151815C4A5BB2002B51890ADD86
:1021D8005C48B0F90A4008B2844204DD5848408996
:1021E80003FB00135381544B5889574B1880574BA6
:1021F800B3F90030012B40F01B81554B1B88012B94
:1022080040F0168100B2FEF7CDF811E1494B4A4A79
:102218001B789189D8090BD04848B0F90C4008B20E
:10222800844205DA464880895CB204FB001191813A
:10223800414A5BB2002B91890ADD4248B0F90C4053
:1022480008B2844204DD3E48808903FB0013938171
:10225800394B3D4A9B8913801BB207EE903AB8EE82
:10226800E77ADFED3C7A3C4BC7EE277AAAE0314BA0
:10227800314A1B78D189D8090BD03048B0F90E40C3
:1022880008B2844205DA2E48C0895CB204FB00110A
:10229800D181294A5BB2002BD1890ADD2948B0F9DE
:1022A8000E4008B2844204DD2548C08903FB0013B0
:1022B800D381214B244ADB8913801BB207EE903A65
:1022C800B8EEE77ADFED237A244BC7EE277A79E078
:1022D800184B194A1B78118AD8090BD01748B0F93E
:1022E800104008B2844205DA1548008A5CB204FB43
:1022F80000111182104A5BB2002B118A0ADD1148C5
:10230800B0F9104008B2844204DD0D48008A03FB8E
:1023180000131382084B0C4A1B8A13801BB207EE6A
:10232800903AB8EEE77ADFED0B7A0D4BC7EE277AD5
:1023380048E000BF166D0020800900204C090020ED
:10234800F0080020BC08002040090020E808002010
:10235800E42A002000401C46480900206C0900209F
:1023680018090020374B384A1B78518AD8090BD0F6
:102378003648B0F9124008B2844205DA3448408A37
:102388005CB204FB001151822F4A5BB2002B518AC8
:102398000ADD3048B0F9124008B2844204DD2C4806
:1023A800408A03FB00135382274B2B4A5B8A138016
:1023B8001BB207EE903AB8EEE77ADFED287AC7EE5F
:1023C800277A274BC3ED007A32E01E4B1E4A1B7852
:1023D800918AD8090BD01D48B0F9144008B284423C
:1023E80005DA1B48808A5CB204FB00119182164A08
:1023F8005BB2002B918A0ADD1648B0F9144008B286
:10240800844204DD1248808A03FB001393820E4A3B
:102418001149938A14460B800BB9FEF789F8114BC2
:10242800B3F9003034F91330012B01D1FEF76DF800
:10243800094B0021B3F900000A46BDE8384004F012
:1024480089B800BF166D0020800900204C090020C3
:10245800F0080020BC0800204009002000401C466D
:102468007C0900207209002008B5454BB3F900200B
:10247800444B0F2A7AD8DFE802F0080F161D242BE8
:10248800323940474E555C636A713F4A12880020D2
:102498001A8014213D4A67E03B4A528800201A807E
:1024A80014213B4A60E0384A928800201A8014219F
:1024B800384A59E0344AD28800201A801421364A12
:1024C80052E0314A128900201A801421334A4BE025
:1024D8002D4A528900201A801421314A44E02A4AA0
:1024E800928900201A8014212E4A3DE0264AD2897A
:1024F80000201A8014212C4A36E0234A128A002030
:102508001A801421294A2FE01F4A528A00201A8073
:102518001421274A28E01C4A928A00201A80142194
:10252800244A21E0184AD28A00201A801421224A1B
:102538001AE0154A128B00201A8014211F4A13E052
:10254800114A528B00201A8014211D4A0CE00E4AB1
:10255800928B00201A8014211A4A05E00A4AD28B6D
:102568001A80194A0020142103F048F9054B00216C
:10257800B3F900000A46BDE8084003F0EBBF00BF0E
:10258800720900204009002080090020EF66010838
:10259800FA66010805670108106701081B6701084A
:1025A80026670108316701083C6701084767010889
:1025B800526701085D6701086867010873670108C9
:1025C8007E670108896701089467010810B5322001
:1025D800FEF746FE41F22E64314BA042188007D028
:1025E800FFF70EFCFEF7A0FE32202146FEF72AFE7A
:1025F8002C4CFEF7A9FEFFF71BFCFFF735FCFFF795
:102608004FFCB4F90C3006EE103ADFED277AB8EE3D
:10261800C67A264B87EE277A4FF07C520020DC21C1
:1026280083ED007AB4F90E3006EE103AF8EEC66A79
:102638001F4BC6EEA77AC3ED007A1E4B83ED007AD6
:102648001D4BC3ED007A1D4B1A601D4A03F0D6F8E6
:102658001C4B0022DC214FF494701A801A4A03F0B4
:10266800CDF8FDF7C9FD194B02221A80FFF730FC9F
:10267800FFF7FAFEB4F90000FDF7F2FEB4F9020024
:10268800FDF7CAFEB4F914300BB9FDF751FFB4F9E0
:102698001430012B03D1BDE81040FDF736BF10BD43
:1026A800700900208009002000401C4648090020CD
:1026B8006C090020180900207C090020B8080020B7
:1026C8009F670108E8080020A3670108186D00202B
:1026D80010B50E4CEA202821224603F08FF8FEF7A9
:1026E80091FEFEF701FEFEF7CFFEFFF7CBF80020C4
:1026F8002821224603F082F8FFF782FBFEF714FE3A
:10270800FFF7E6FBBDE81040AEE600BFA66701088C
:1027180007B50220012105F07FFE012300938DF803
:10272800043002238DF805300448002369468DF8EB
:1027380006308DF8073005F0C7FA0EBD00040240D8
:1027480010B5084C01210022204605F032FB40F26A
:10275800FF4000F05BFD012120460A46BDE810401D
:1027680005F027BB0004024008B5FFF7E9FF002188
:102778000A46302000F066FA012000F047FD0121EA
:102788000A46302000F05EFA012000F03FFD0021EB
:102798000122302000F056FA012000F037FD012117
:1027A8000822302000F04EFA012000F02FFD02210F
:1027B8000122302000F046FA012000F027FD002118
:1027C8000A46302000F03EFA012000F01FFD1B21D0
:1027D800CD22302000F036FA012000F017FD042148
:1027E8000322302000F02EFA012000F00FFD062110
:1027F8000822302000F026FA012000F007FD07210A
:102808000A46302000F01EFA012000F0FFFC0821E3
:102818008022302000F016FA012000F0F7FC1E217B
:10282800B022302000F00EFA012000F0EFFC052164
:102838009122302000F006FA012000F0E7FC0D217B
:102848000322302000F0FEF9012000F0DFFC0E2109
:102858000022302000F0F6F9012000F0D7FC142106
:102868008022302000F0EEF9012000F0CFFC0B218F
:102878008822302000F0E6F9012000F0C7FC302063
:102888000C21822200F0DEF9012000F0BFFC1221A9
:102898008822302000F0D6F9012000F0B7FC13217F
:1028A8008C22302000F0CEF9012000F0AFFC00218E
:1028B8000122302000F0C6F9012000F0A7FC0C210D
:1028C8000822302000F0BEF9012000F09FFC0D2105
:1028D8000822302000F0B6F9012000F097FC0E2104
:1028E8000822302000F0AEF9012000F08FFC0F2103
:1028F8000822302000F0A6F9012000F087FC002112
:102908000A46302000F09EF9012000F07FFC4021AB
:102918000222302000F096F9012000F077FC002216
:102928004121302000F08EF9012000F06FFC3020AA
:102938003F21D42200F086F9012000F067FC002135
:102948000122302000F07EF9012000F05FFC102108
:102958000F22302000F076F9012000F057FC1121F9
:102968000F22302000F06EF9012000F04FFC1221F8
:102978000022302000F066F9012000F047FC132106
:102988000022302000F05EF9012000F03FFC092110
:102998003C22302000F056F9012000F037FC0021DD
:1029A8000122302000F04EF9012000F02FFC3020E9
:1029B8003421024600F046F9012000F027FC3020BF
:1029C8003721024600F03EF9012000F01FFC3621B5
:1029D8000322302000F036F9012000F017FC3921DD
:1029E8000322302000F02EF9012000F00FFC3B21DB
:1029F8003C22302000F026F9012000F007FC3C21A1
:102A08000A46302000F01EF9012000F0FFFB0021EB
:102A18000A46302000F016F9012000F0F7FB51219A
:102A2800C022302000F00EF9012000F0EFFB30202A
:102A38005221002200F006F90120BDE8084000F00C
:102A4800E5BB00BF2DE9F04F464D474E91B001213F
:102A58004FF4001005F0E0FC284604F083FC434BDB
:102A68004FF0C0628DE80C00414B00244FF48067A2
:102A78004FF400694FF400584FF4807A4FF4003B4C
:102A880028466946029304970394059406970B9485
:102A9800CDF81C90CDF82080CDF824A0CDF828B032
:102AA80004F0ECFC22462846324904F042FD284650
:102AB800012104F048FD01210A464FF0402005F0AD
:102AC80019FF304604F04EFC2B4B009401932B4B1E
:102AD800049702933046402369460393059406976A
:102AE8000B94CDF81C90CDF82080CDF824A0CDF81B
:102AF80028B004F0C3FC22463046214904F019FDF1
:102B08003046012104F01FFD42F210770122022114
:102B18001C4805F0EFFE384600F078FB28460121F6
:102B280004F0E7FC0121304604F0E3FC384600F0ED
:102B38006DFB0B238DF83D408DF83E400FA8012416
:102B48008DF83C308DF83F4004F0B4FB384600F077
:102B58005DFB28461021224604F042FD11B0BDE875
:102B6800F08F00BF10600240886002400C400040B7
:102B7800284E0020B43700200C3C00405040002074
:102B8800B42F0020003C004002481021012204F02C
:102B980027BD00BF1060024013B50220012105F0D7
:102BA8003BFC4FF410730E4C009302238DF8043055
:102BB8008DF8053001238DF806302046002369463C
:102BC8008DF8073005F080F820460621042205F02C
:102BD800FBF820460921042205F0F6F81CBD00BFC9
:102BE8000004024030B5154D85B001214FF40010A6
:102BF80005F036FC284605F0FDF80023ADF8043052
:102C08004BF6FF73ADF806303323ADF808304FF4B8
:102C18008063ADF80A304FF48043ADF80C3004AC53
:102C2800074B2846012144F8103D05F085F9284650
:102C3800694605F00DF905B030BD00BF00540040ED
:102C4800801A0600414B2DE9F04115464FF49612C3
:102C580007460E461A60984606E0D8F800305A1E15
:102C6800C8F80020002B61D03948384C4FF40031A7
:102C780005F07AFA0028F0D13548012105F068F905
:102C88004FF480532360A04606E0D8F800305A1E5F
:102C9800C8F80020002B4CD02D482E492B4C05F0AD
:102CA8004EFA0028F1D02A483946002205F068F982
:102CB8004FF48053236004E023685A1E2260002BDF
:102CC8003AD023482449214F05F039FA0028F3D097
:102CD80031461F4805F0D7F94FF480533B603E4614
:102CE80004E033685A1E3260002B28D018481B496C
:102CF800164C05F024FA0028F3D01548294605F0AB
:102D0800C2F94FF49613236003E023685A1E226029
:102D1800C3B10F48124905F027FA0028F5D00C482E
:102D2800012105F021F90020BDE8F0810120BDE86E
:102D3800F0810220BDE8F0810320BDE8F081042085
:102D4800BDE8F0810520BDE8F08100BFC803002080
:102D580000540040010003008200070080000700C3
:102D6800040000102DE9F8439846434B14464FF4ED
:102D7800961206460D461A60994606E0D9F80030C4
:102D88005A1EC9F80020002B67D03C483A4F4FF430
:102D9800003105F0E9F90028F0D13848012105F0A3
:102DA800D7F84FF480533B60B94606E0D9F80030B5
:102DB8005A1EC9F80020002B52D0304830492E4FF7
:102DC80005F0BDF90028F1D02C483146002205F065
:102DD800D7F84FF480533B6004E03B685A1E3A60D2
:102DE800002B40D025482749234E05F0A8F9002894
:102DF800F3D02946214805F046F94FF48053336053
:102E0800354604E02B685A1E2A60002B2ED01B483A
:102E18001D4905F094F90028F4D00025164E12E05B
:102E2800615D164805F02FF94FF49613336003E0FF
:102E380033685A1E3260E3B11048144905F094F91A
:102E48000028F5D00135EBB24345E9D30B48012101
:102E580005F08AF80020BDE8F8830120BDE8F88372
:102E68000220BDE8F8830320BDE8F8830420BDE80C
:102E7800F8830520BDE8F883C8030020005400400B
:102E88000100030082000700800007000400001012
:102E9800F8B5614C4FF4961305460E46236005E0DD
:102EA80023685A1E2260002B00F0A4805B485A4F0A
:102EB8004FF4003105F058F90028F1D157480121A5
:102EC80005F046F84FF480533B6005E03B685A1E16
:102ED8003A60002B00F09080504851494E4C05F064
:102EE8002EF90028F2D04D482946002205F048F86E
:102EF8004FF480532360274604E03B685A1E3A602B
:102F0800002B7BD045484749434C05F018F9002869
:102F1800F3D04248314605F0B6F84FF480532360A9
:102F280004E023685A1E2260002B69D03B483E49C2
:102F3800394E05F019F90028F3D03848012105F079
:102F480007F84FF48053336004E033685A1E326048
:102F5800002B57D0314832492F4C05F0F0F80028A3
:102F6800F3D02E482946012205F00AF84FF4805381
:102F78002360264604E033685A1E3260002B43D093
:102F8800264D2A49244C284605F0EEF80028F2D0B0
:102F98002846002104F0FCFF284601212B8B04F071
:102FA800E3FF4FF48053236004E023685A1E226035
:102FB800002B2BD019481E49174D05F0D5F80028CD
:102FC800F3D0164805F061F84FF480532B60134A8C
:102FD80003E02B68591E2960D3B113889B05F8D4E8
:102FE800012104460D4804F0D3FF0C48114905F0AF
:102FF800D5F80EE001240CE002240AE0032408E0DE
:10300800042406E0052404E0062402E0072400E086
:1030180008242046F8BD00BFC80300200054004023
:1030280001000300820007000400001002000010E5
:10303800400000100004001070B56C4D4FF496135A
:1030480004462B6005E02B685A1E2A60002B00F00E
:10305800BA806748654E4FF4003105F085F80028BE
:10306800F1D16348012104F073FF4FF480533360BA
:1030780005E033685A1E3260002B00F0A6805C48D9
:103088005C495A4D05F05BF80028F2D05848A02159
:10309800002204F075FF4FF480532B6005E02B6885
:1030A8005A1E2A60002B00F09280514852494F4E18
:1030B80005F045F80028F2D0C4F305214C4804F087
:1030C800E2FF4FF48053336004E033685A1E3260E5
:1030D800002B7ED046484949444D05F045F8002864
:1030E800F3D0E1B2424804F0CEFF4FF480532B6096
:1030F8002C4604E023685A1E2260002B6BD03C4803
:103108003E493A4D05F030F80028F3D038480121FF
:1031180004F01EFF4FF480532B6004E02B685A1E06
:103128002A60002B59D032483249304C05F007F854
:103138000028F3D02E48A121012204F021FF4FF4EA
:1031480080532360264604E033685A1E3260002B01
:1031580045D0274D2A49254C284605F005F8002872
:10316800F2D02846002104F013FF284601212B8BBA
:1031780004F0FAFE4FF48053236004E023685A1EDB
:103188002260002B2DD01A481E49184D04F0ECFF80
:103198000028F3D0164804F078FF4FF480532B60D2
:1031A800134A03E02B68591E2960E3B11388990577
:1031B800F8D4012104460E4804F0EAFE0C481249EE
:1031C80004F0ECFF10E001240EE002240CE00324DC
:1031D8000AE0042408E0052406E0062404E00724A5
:1031E80002E0082400E00924204670BDC80300203E
:1031F8000054004001000300820007000400001092
:1032080002000010400000100004001082B00023EB
:1032180004E0019B01330193009B01330093009B61
:103228008342F6D302B07047F8B504460E46444DC3
:1032380004E02B685A1E2A60002B74D04148404F86
:103248004FF4003104F090FF0028F2D13D480121ED
:1032580004F07EFE4FF480533B6004E03B685A1E46
:103268003A60002B61D037483749354D04F067FF85
:103278000028F3D03348A021002204F081FE4FF447
:1032880080532B6004E02B685A1E2A60002B4ED016
:103298002C482E492A4F04F052FF0028F3D0C4F3DB
:1032A8000521284804F0EFFE4FF480533B6004E00A
:1032B8003B685A1E3A60002B3BD022482449204DD7
:1032C80004F03DFF0028F3D0E1B21E4804F0DBFE15
:1032D8004FF480532B6004E02B685A1E2A60002BA1
:1032E80029D018481A49164C04F029FF0028F3D0B1
:1032F8001448314604F0C7FE4FF49613236003E0E8
:1033080023685A1E2260C3B10E48124904F02CFFEC
:103318000028F5D00B48012104F026FE0E48FFF7DF
:1033280075FF0020F8BD0120F8BD0220F8BD03207C
:10333800F8BD0420F8BD0520F8BD0620F8BD00BF83
:10334800C803002000540040010003008200070069
:103358008000070004000010A086010013B50520B6
:10336800012105F059F8184C4FF4E053009302235B
:103378008DF804308DF805302046002369468DF815
:1033880006308DF8073004F09FFC20460A210622FB
:1033980004F01AFD20460C21062204F015FD062231
:1033A80020460B21A4F5006404F00EFD4FF4004301
:1033B80020466946009304F087FC20460F21062228
:1033C80004F002FD1CBD00BF000802401FB5044602
:1033D800FFF79EF9FFF706FCFFF7C6F9FFF7BEFFF8
:1033E80001214FF4004005F03BF802940F4C1023E4
:1033F800ADF80230204600236946ADF80430ADF838
:103408000C30ADF80030ADF8063005F058F96946D3
:103418004FF0402005F027FA2046012105F0D7F9A2
:103428004FF04020012105F0D2F91FBD003C0040BB
:1034380082B0002304E0019B01330193009B013318
:103448000093009B8342F6DB02B0704708B5C820A2
:103458006421084A02F0D2F9C8205021064A02F035
:10346800CDF9C8203C21054A02F0C8F90448BDE856
:103478000840DDE7B1670108C0670108CC670108AB
:10348800404B4C0010B502F05FFF6420FFF7D0FFFF
:1034980003F024F96420FFF7CBFF03F0A1F96420BF
:1034A800FFF7C6FFFFF778FB6420FFF7C1FFFFF7C0
:1034B80099FB6420FFF7BCFF3F4B1868FFF786FFB6
:1034C8006420FFF7B5FFFFF7BDFA6420FFF7B0FFF0
:1034D800FDF736FE6420FFF7ABFF03F005FD64201F
:1034E800FFF7A6FF03F01EFD6420FFF7A1FF0020F1
:1034F80000F030FB6420FFF79BFF9FED2D0B00F0E1
:103508005BF96420FFF794FF4FF47A7000F0C0F97C
:103518006420FFF78DFF294B00241C80FFF734FB44
:103528006420FFF785FF03F031FC6420FFF780FF7C
:10353800FFF78CFF204602F0DDFE6420FFF778FFDE
:10354800FDF712FF6420FFF773FFFDF79DFF1C4B8B
:103558001A881C4B64201A80FFF76AFFFEF750FB9D
:103568006420FFF765FFFEF70BFC6420FFF760FFA0
:10357800FEF7AEFC144B1A88144B64201A80FFF730
:1035880057FFFFF723F86420FFF752FFFCF7DCFE34
:103598006420FFF74DFF00F01BF86420FFF748FF99
:1035A800FDF726F86420BDE8104041E7AFF300803E
:1035B8000000000000408F40CC03002038090020A4
:1035C800666C0020A26D0020720900201A6D002090
:1035D80008B54FF6E07001F0B3FF4FF4784001F002
:1035E800A3FF582000210E4A02F008F9902000217C
:1035F8000C4A02F003F900210B4ABC2002F0FEF845
:10360800002001F091FF4FF6FF7001F099FF074B82
:10361800074A0020C8211880BDE8084002F0EEB82B
:1036280086660108E3670108BD660108E42A0020F0
:10363800E86701080A4B1B88012B07D002D3022B2D
:103648000DD107E00020C821064A06E00020C82165
:10365800054A02E0054A0020C82102F0CFB87047A9
:10366800E42A0020E8670108E4670108EC6701081C
:1036780038B506EE900A1E4BB8EEE67AD3ED007A1E
:10368800DFED1C6A27EE877A1B4B87EE267ABDEEA4
:10369800C77A83ED007AB8EEC77A77EE877A17EEA5
:1036A800900A07F0DBF9154B04460D46C3E90045BF
:1036B80022462B460CA1D1E9000107F04DFB104B27
:1036C800D3E9002307F01EFA0E4B2246C3E9000196
:1036D8002B4600200C4907F03FFB0C4BC3E90001C7
:1036E80038BD00BFAFF30080182D4454FB211940AA
:1036F800000F0020002474496C4D0020F82A002097
:10370800E0150020D02A00200000304038130020A7
:103718001F4B002030B518601E4B18601E4B00244C
:103728000025186045EC174B1C4B83ED007B1C4BA8
:103738004B221A601B4B32220DA5D5E900451A60B1
:10374800194BC3E900450CA5D5E90045174BC3E95A
:1037580000450BA5D5E90045154BC3E900450AA569
:10376800D5E90045134BC3E90045BDE830407FE784
:10377800182D4454FB21F93FE0F09C762F1BA43F01
:103788009F14F9CFD4C2F93F91458FD82181F83FD2
:103798006C4D0020040F0020DC150020405A00204A
:1037A800E8150020A01E0020D02A0020D82A0020DA
:1037B800784D0020604D00202DE9F843284B294C16
:1037C800294D012251EC100B1A6023A3D3E90023E1
:1037D80007F098F9254BD3E9002307F0BDFA244BED
:1037E80006460F4600200021C3E9006741EC170B8D
:1037F800204B83ED007B204B1A68204B002A0CBF1E
:10380800142204221A601E4BD3E90089304642462E
:103818004B46394684ED007B06F0C2FF194B424601
:10382800C3E900014B463046394606F0B7FF00228F
:103838000023C5E9000107F0E1FB18B194ED007B16
:1038480085ED007B104A00231360104A1360BDE821
:10385800F88300BFAFF30080182D4454FB211940B2
:10386800EC1D0020E04C0020604D0020F82A0020CC
:10387800D02A0020D04C0020E02A0020084D00204B
:10388800D82A0020784D00207C4C0020D84C0020FD
:103898002DE9F843284B08B9186005E001241C609D
:1038A80040F6B833984200D00024244B244D1C60C5
:1038B80007F0C2F81EA3D3E9002307F023F9214B30
:1038C800D3E9002307F048FA1F4B06460F46C3E921
:1038D80000671E4BD3E900011D4BD3E9002306F016
:1038E8005FFF32463B468046894606F059FF194B32
:1038F8003246C3E900013B464046494606F04EFFC2
:1039080000220023C5E9000107F078FB28B1002256
:10391800002343EC172B85ED007B00220CB10E4BE6
:1039280000E00E4B0E49C1E90023BDE8F88300BF53
:10393800182D4454FB211940804C0020E02A002017
:10394800604D0020F82A0020D82A0020D02A002024
:10395800405A0020784D002000003E4000005940A9
:10396800F84C00201249002301225A500433402BFE
:10397800FBD1104B03F1A80200200021E3E902016A
:103988009342F9D10C4B0A221A600C4A00231360A7
:103998000B4A13600B4A04A1D1E9000113600A4BDA
:1039A800C3E90001704700BF0000000000805640D6
:1039B800102F0020F01D00200C2F002034130020B1
:1039C800CC4D002038560020004D002007EE100A8C
:1039D800414B4248F8EEC77A70B5C3ED007A002330
:1039E8001D461D543E4C0022C61854F8041F0909F0
:1039F80011F0010F4FEA5101FAD0994208BF327015
:103A08000132B2F5807FF0D10133B3F5006FE8D110
:103A1800FFF7A8FF0020FFF72BFE324B32220020D1
:103A2800002141EC170B1A602F4B304A83ED007BC5
:103A3800002313602E4A13602E4A13602E4A136027
:103A48002E4A13602E4A82ED007B2E4A82ED007BBF
:103A58002D4A13602D4A052111602D4A13602D4A05
:103A680082ED007B2C4A82ED007B2C4A82ED007BA4
:103A78002B4A17A1D1E9000182ED007B294AC2E94E
:103A880000010020002141EC170B274A82ED007B42
:103A980082ED027B254A82ED007B82ED027B244A7F
:103AA80082ED007B234A82ED007B234A1360234A80
:103AB8001360234A1360234A01211160224A2349D3
:103AC80013600020224B41EC170B83ED007B70BD87
:103AD8009A9999999999D93F000F0020B81E00200A
:103AE800D4ED00080C2F0020704D0020B02F0020CE
:103AF800082F0020042F002058480020BC2A00204E
:103B0800704C002040150020C82A0020584D002085
:103B1800684D0020B83F002050480020D04D0020BC
:103B2800F04C0020004D0020F00E0020E00A00209C
:103B3800E04C002048400020C42A0020E84C002027
:103B4800084D0020EC1D0020E02A0020000059400C
:103B5800F84C00200C4908B5202200235A540133A0
:103B6800282BFBD1084A002382F82730074A136024
:103B7800074A4FF4FA501360FFF728FFFFF7C8FD14
:103B8800BDE8084001F098B8080F0020E46E002056
:103B9800E06E00202DE9F04F814B1B6889B08DED58
:103BA800000B8DED021B6BB90020002141EC170BB7
:103BB8007C4B83ED007B7C4B83ED007B7B4B83ED63
:103BC800007BD1E07A4D7B4CD5E902ABD4E90023E8
:103BD800DDE9000106F0E2FD52465B4606F092FF81
:103BE800D5E90067D4E9022380468946DDE9020168
:103BF80006F0D4FD32463B4606F084FF02460B46EB
:103C08004046494606F0CAFD9DED007B85ED007BE8
:103C18009DED027BC4E90067C4E902AB85ED027B38
:103C280053A3D3E900238046894607F0FBF918B16E
:103C38000FF23C19D9E90089404649464EA3D3E919
:103C4800002307F0D1F918B10FF22C19D9E900892E
:103C5800544E4BA3D3E90023D6E9000106F052FFE6
:103C680049A3D3E9002304460D464046494606F0D9
:103C780049FF02460B462046294606F091FD0446B8
:103C88000D46C6E9004500224B4B07F0CBF930B989
:103C9800204629460022494B07F0A6F980B13CA3EB
:103CA800D3E900232046294606F02CFF444E02465D
:103CB8000B46D6E9000106F073FDC6E900012FE0C6
:103CC800394BD3E90067204632463B46294606F081
:103CD80019FF0022002307F0A5F908B900260027DC
:103CE8003046394622A3D3E9002307F09BF938B9B7
:103CF8003046394620A3D3E9002307F075F978B197
:103D080025A3D3E900233046394606F0FBFE2C4CA8
:103D180002460B46D4E9000106F042FDC4E9000161
:103D2800274C224DD4E90001D5E9002306F038FDDF
:103D3800244BD3E9006732463B468046894607F064
:103D480071F948B9204BD3E90067404649463246E5
:103D58003B4607F049F938B10020002141EC170B28
:103D6800C4E9006785ED007B09B0BDE8F08F00BFAE
:103D7800333333333333D33F333333333333D3BF33
:103D8800E5174B7EB1E4EF3F555555555555C53FA1
:103D9800691D554D1075EF3E691D554D1075FF3E57
:103DA800804C0020E04C0020D04C0020405A0020DD
:103DB800F00E0020E00A002000001840000018C0A3
:103DC800D02A0020784D0020604D00202DE9F04FCA
:103DD8008B4B1B6889B08DED000B8DED021B6BB909
:103DE8000020002141EC170B864B83ED007B864BAE
:103DF80083ED007B854B83ED007BE2E0844D854CB1
:103E0800D5E902ABD4E90023DDE9000106F0C6FCE0
:103E180052465B4606F076FED5E90089D4E90223CE
:103E280006460F46DDE9020106F0B8FC42464B465D
:103E380006F068FE02460B463046394606F0AEFCF0
:103E48009DED007B85ED007B9DED027BC4E900893B
:103E5800C4E902AB85ED027B5BA3D3E900230646E8
:103E68000F4607F0DFF810B157A7D7E900673046CB
:103E7800394657A3D3E9002307F0B6F810B154A781
:103E8800D7E900675F4C54A3D3E90023D4E90001C4
:103E980006F038FE002280468946304639465E4B99
:103EA80006F030FE0B4602464946404606F078FCCE
:103EB8005A4B1B6806460F46C4E900671BB342A36A
:103EC800D3E9002307F0AEF838B93046394640A3A5
:103ED800D3E9002307F088F878B141A3D3E9002398
:103EE8003046394606F00EFE4D4C02460B46D4E9E4
:103EF800000106F055FCC4E90001304639463AA3F2
:103F0800D3E9002334E0404BD3E9008942464B46CD
:103F180006F0F8FD0022002307F084F818B94FF0E6
:103F280000084FF000094046494627A3D3E900237B
:103F380007F078F838B94046494625A3D3E9002365
:103F480007F052F878B12AA3D3E90023404649463E
:103F580006F0D8FD324C02460B46D4E9000106F0C3
:103F68001FFCC4E9000124A3D3E9002340464946C5
:103F780006F0C8FD254B2A4C244DC3E90001D4E9BD
:103F88000001D5E9002306F00BFC264BD3E90067B6
:103F980032463B468046894607F044F848B9224BEA
:103FA800D3E900674046494632463B4607F01CF8CD
:103FB80038B10020002141EC170BC4E9006785EDFA
:103FC800007B09B0BDE8F08F333333333333D33F4D
:103FD800333333333333D3BFD7A3703D0AD7EF3FDF
:103FE80054E41071732AC93E2D431CEBE2363A3F64
:103FF80054E41071732AB93EFCA9F1D24D62503FC6
:10400800804C0020E04C0020D04C0020405A00207A
:10401800F00E0020E00A00200000D03FEC1D002038
:10402800D02A0020784D0020604D00202DE9F04373
:1040380051EC100B85B002460B4655EC114B8DED3B
:10404800000B8DED021B06F05DFD224606462B4651
:104058000F462046294606F055FD02460B463046D7
:10406800394606F09DFB41EC100B07F03FFA3A4E3B
:10407800D6E9004559EC108B2246404649462B4666
:1040880006F0D0FF70B1204629462BA3D3E90023C0
:1040980006F038FD2AA3D3E9002304460D4640461E
:1040A80049460DE02046294627A3D3E9002306F018
:1040B80029FD27A3D3E9002304460D464046494677
:1040C80006F020FD02460B462046294606F068FB0E
:1040D800C6E90001204BD3E9006700223046394683
:1040E8001E4B06F095FF08B31D4C3246D4E900017B
:1040F8003B4606F031FE3246C4E900013B46D4E9AE
:10410800020106F029FEC4E90201164C3246D4E940
:1041180000013B4606F020FE3246C4E900013B465A
:10412800D4E9020106F018FEC4E9020105B0BDE8B1
:10413800F08300BFAFF30080D7A3703D0AD7EF3FED
:104148007B14AE47E17A743F560E2DB29DEFEF3FD8
:10415800FCA9F1D24D62603F704C00200000F03F96
:1041680048150020480A00202DE9F04F7A4B1D68B9
:1041780085B00F2D51EC100B57EC116B8DED000B2A
:104188008DED021B5CDC02460B4606F0BBFC32469A
:104198003B46804689463046394606F0B3FC02461F
:1041A8000B464046494606F0FBFA00226B4B064692
:1041B8000F4606F037FF08B1694F0026694C04EB3B
:1041C800C504D4E9000158A3D3E9002306F09AFCFA
:1041D80057A3D3E90023804689463046394606F07E
:1041E80091FC0B4602464946404606F0D9FA5E4B1A
:1041F8001B689D42C4E900015C4C0AD14EA3D3E977
:10420800002306F07FFC06F017FF44F82500012480
:1042180009E04BA3D3E9002306F074FC06F00CFF79
:1042280044F825000024524B524A1B6802EB8302D3
:10423800D2F80024954204BF4B4A1360013500E0D0
:1042480000244D4E4D4BD6E90001D3E9002306F07A
:10425800A7FA80468946C6E900893BA3D3E900232B
:1042680006F0D6FE002858D049EC108B9FED361B7F
:1042780007F04EF80F2D86ED000B04D13A4B1B6862
:104288000F2B08BF01243A4B3D4E1F680FF2C00B9D
:10429800DBE900AB0025F6E902895246404649466B
:1042A8005B4606F0BFFE10B12F46C246CB4601352D
:1042B800102DF0D12E4B1F60324B1B6813B3324ABE
:1042C800294B12681B68511C8B4203D12F4B1A686B
:1042D800013205E0013A934203D12C4B1A68013AA6
:1042E8001A602B4B1A68511CB2F59D7F19600FDBC1
:1042F80026490A68C8205043264A106000220A60EE
:104308001A6005E0234A1360204A1360204A1360AC
:10431800154B1A681C4B00251A600F4B20461D6070
:1043280005B0BDE8F08F00BF9C8FC1F9189CEF3F26
:10433800FA189C8FC1F9883F0000000000208C40CB
:104348000000000000708740FCA9F1D24D62A03F38
:10435800000000205FA002C2684D0020000010404D
:104368000000F03FF81D0020C82A0020D84D00208A
:10437800584D0020D8ED0008704D0020381300205B
:10438800F01D0020E84C0020C42A0020341300202F
:10439800CC4D002038560020894B2DE9F74F18687E
:1043A800884B1B6855EC104B002B40F0318106F010
:1043B80043FB00228046894620462946002306F012
:1043C80027FE002866D02046294673A3D3E9002398
:1043D80006F014FE00285DD071A3D3E9002320461F
:1043E800294606F0DBF90B460E467749774C02461C
:1043F8000546C1E9002328466BA3D3E9002326F02C
:10440800004106F07FFBD4E900AB52465B46CDE99C
:10441800000106F0E9FD20B100206D4942464B46F7
:1044280009E042464B464046494606F0B9F90B4674
:1044380067490246002006F08FFC80468946002026
:1044480042464B46624906F0A9F952465B4606F0D9
:1044580059FBDDE9002382468B464046494606F073
:1044680051FB02460B465046594606F099F9594BFE
:104478001A68142AC4E9000107DD5749534B002084
:1044880041EC170B83ED007B01E001321A60002438
:10449800524B70E0204629463FA3D3E9002306F09B
:1044A800B7FD002800F0B4802046294640A3D3E990
:1044B800002306F0A3FD002800F0AA803EA3D3E95C
:1044C80000232046294606F069F90B460E463E4968
:1044D8003E4C02460546C1E90023284632A3D3E9EB
:1044E800002326F0004106F00DFBD4E900AB52464C
:1044F8005B46CDE9000106F077FD20B10020344984
:1045080042464B4609E042464B464046494606F07D
:1045180047F90B462E490246002006F01DFC80464E
:104528008946002042464B46294906F037F952464B
:104538005B4606F0E7FADDE9002382468B464046F3
:10454800494606F0DFFA02460B465046594606F041
:1045580027F9224B1A68142AC4E9000107DD20490B
:104568001A4B002041EC170B83ED007B01E0013270
:104578001A60184B00241C6000220023284631468C
:1045880006F046FD174B184A80B3196814600131CC
:1045980019602FE0AFF30080182D4454FB21094027
:1045A800182D4454FB21F93F0000000000C0624070
:1045B800182D4454FB211940D221337F7CD9124055
:1045C800E81500203013002048400020004D00204E
:1045D8000000F03F5848002000003940BC2A002065
:1045E800000059407C4C0020D84C0020116818600D
:1045F800013111601B68042B0ADC4F4B1B68042B2C
:1046080006DC002000214D4B41EC170B83ED007BAD
:104618004B4B4C4C1A684C4B022AD4BF0022012247
:104628001A604A4B0022D3E90001494B06F0FAFC14
:1046380098B1484BD3E9000106F0FEFC414BC0F1AC
:10464800640020601A68444B1B689A42434B01DBA4
:10465800012200E000221A6003E0404A00232360A0
:1046680013603F4B354C1B68D4E90001BBB12EA346
:10467800D3E9002306F0D6FC20B12BA1D1E9000133
:10468800C4E900012D4C2AA3D3E90023D4E9000191
:1046980006F0AAFCD0B126A1D1E9000114E000225D
:1046A800304B06F0BFFC28B12E49002041EC170B17
:1046B80084ED007B214C2C4BD4E90001002206F04C
:1046C80093FC18B128490020C4E90001274B25496B
:1046D800274CD3E90067002032463B4606F03CFBF6
:1046E80002460B4600201F4906F058F8D4E900237B
:1046F80006F008FA3246804689463B4600201D49A6
:1047080006F02AFB0D4BD3E9002306F0FBF902461D
:104718000B464046494606F043F8C4E90001BDE8A7
:10472800FE8F00BFAFF30080333333333333E33FBF
:10473800333333333333E3BFD84C002048400020B1
:10474800584800200C2F0020DC150020704C002059
:1047580000002440004D0020A01E0020E84C00204E
:10476800301300200000F03F0000F0BFF84C00209C
:10477800D04C002000001440894A8A4B8A492DE910
:10478800F04FD2E90089C3E90089884BD3E900AB2F
:1047980057EC106B87B083ED001B82ED000BC1E96D
:1047A80000AB32463B464046494655EC114B8DED31
:1047B800041B8DED020B06F0A5F92246CDE9000198
:1047C8002B465046594606F09DF902460B46DDE950
:1047D800000105F0E5FF2246CDE900012B464046E1
:1047E800494606F08FF9524604460D465B46304668
:1047F800394606F087F902460B462046294605F059
:10480800CDFF82468B4652465B4606F07BF904464E
:104818000D46DDE9000102460B4606F073F9024633
:104828000B462046294605F0BBFF41EC100B06F06D
:104838005DFE5F4B5F4C604DD3E9000100225F4B8A
:1048480057EC106B06F0EEFB08B351A3D3E9002335
:104858003046394606F080FA8046894642464B463D
:104868005046594606F078FA06F0E6FB26684246B6
:1048780045F826004B46DDE9000106F06DFA06F022
:10488800DBFB771C023645F82700266008E0236822
:10489800591C022245F823209B1845F82120236043
:1048A800444B1A6802F00F024BEC11AB1A609DEDF5
:1048B800000B06F02BFD38A3D3E9002351EC100BB5
:1048C80005F06EFF41EC100BFFF766FD354BD3E9A1
:1048D8000001334BD3E9002306F014F9324B0446A8
:1048E8000D46D3E90001314BD3E9002306F00AF95C
:1048F80002460B462046294605F052FF00230022B7
:1049080006F090FB01242E4B68B92E4A1268002449
:104918004AB11A68002A35D0C2F38A022A491C60B3
:10492800885C58B92EE01A6844EA42021A60254B9E
:104938000CB9012200E000221A6023E0234B1B6817
:10494800002B1FD0224A1368252B04DC2149C854A8
:104958000133136016E01F4A012399189C5C013348
:10496800252B01F8014CF8DD1B4A1360194B83F81D
:1049780025001A4B1B78012B04D107B0BDE8F04F76
:1049880002F0F6B907B0BDE8F08F00BFAFF30080C2
:104998000000000000408F40182D4454FB210940BE
:1049A80050480020B83F0020D04D0020F04C002097
:1049B800704C0020040F0020102F0020000024401D
:1049C800B02F0020082F0020B81E0020E84C00203F
:1049D800E06E0020080F00205C080020206D0020F9
:1049E8002DE9F04F984B1A688BB0002A40D0013A55
:1049F800002A1A60954A41DC00211960944B116025
:104A0800D3E90067934BD3E90045304622462B464D
:104A1800394605F0C5FE904B2246C3E900012B46F6
:104A28003046394605F0BAFE8C4C8D4B8046894697
:104A38001868C4E9008906F011F802460B463046AA
:104A4800394606F05FF87CA3D3E9002306F084F921
:104A5800844B0022C3E9000140464946002306F082
:104A6800CDFA28B10022002343EC172B84ED007BFC
:104A78007D4CDFF840820027A14602E00123136045
:104A8800F6E7734B37F80850D3E90001774BA58058
:104A9800D3E9002305F084FE69A3D3E9002306F0D7
:104AA80031F806F0C9FAA368714AC018011101F576
:104AB80080610905090DA060C0F30B1032F82110C0
:104AC80032F82030E181A38115FB01F115FB03F5D4
:104AD800E36921610AA800EB4302C1F3CF316561A4
:104AE800C5F3CF3522F8201C22F8105C5A1C614B04
:104AF80021831340002B658303DA013B63F0030332
:104B08000133C9F81C30002B40F08D80226A5A48C6
:104B180004AB03EB420202A9042304F0B9FF226AA2
:104B280008A800EB42020423544806A904F0B0FF89
:104B3800226A504B01321340002B03DA013B63F029
:104B4800030301332362002B6DD14D484D4A4E4D6E
:104B58004E4E04A9042304F09BFF4D484D4A08A972
:104B6800042304F095FFA38C46492385E38C4A4827
:104B7800638501F10802012305F03CF845494748DF
:104B880001F10802012305F035F84549454801F1CE
:104B98000802012305F02EF84349444801F10802B0
:104BA800012305F027F8B4F9300005F045FF8246E7
:104BB8008B46B4F93200C5E900AB05F03DFF02466B
:104BC8000B46C5E90223B4F92C000192009105F0C7
:104BD80033FFC6E90001B4F92E0005F02DFF009B54
:104BE800019A4BEC10AB43EC112BC6E90201FFF71D
:104BF8001DFA2F4B1B6895ED000B95ED021B13B1A9
:104C0800FEF7C8FF01E0FFF7E1F896ED000B96ED1F
:104C1800021B1E4DFFF7A8FA28B195ED000B95ED84
:104C2800021BFFF7A9FD0237B7F5806F7FF429AFA4
:104C38000BB0BDE8F08F00BF182D4454FB2119407C
:104C480039D6C56D305FC440084D0020EC1D0020EA
:104C5800D02A0020D82A0020784D0020604D00205E
:104C6800000F0020E01500205C080020405A0020BA
:104C78009C12010803000080700000204000002002
:104C88006400002080080020480A00204815002001
:104C9800340000208208002058000020280000204E
:104CA800840800204C000020860800201C000020FA
:104CB800E02A0020300F00200F4A002313600F4A1B
:104CC80013600F4A13600F4A612302F8013F013352
:104CD800DBB27B2BF9D10C4B012205A1D1E90001F4
:104CE8001A600A4BC3E90001094B00221A80704779
:104CF8000000000000403F40EC080020E0080020D1
:104D0800E40800209F0900203C0900202009002019
:104D1800BA090020054B06491A68885C0132192A2D
:104D28001A6001DD00221A60704700BFE008002009
:104D3800A009002010B50E4C238863B90D4A1168EC
:104D480009B1136005E0FFF7E5FF0B4B53F820307E
:104D58002380022010BD13F4004F0CBF0220002056
:104D68005B009BB2238013B9024B01221A6010BD6D
:104D7800BA0900203C090020D8ED000838B5184BC6
:104D8800184C1A682068184902EB002001EB8000D3
:104D9800456816480560606802EB002001EB800159
:104DA8000132486812491A60B2F5807F086016D14E
:104DB80000221A60FFF7BEFFE3682072052202FB9B
:104DC80000300C4B03EB8000D0F80C3FC3F30222F9
:104DD8002260C3F3021203F007036260E36038BD88
:104DE800EC0800209008002018F2000810090020A4
:104DF8007409002010030108872108B5AA20FEF7CE
:104E080047F840F00102D2B2AA208721FDF71AFF25
:104E1800AA208721FEF73CF8C307F9D408BD0A2366
:104E280090FBF3F0364B98422DE9F04F4ADC354CB5
:104E3800354ADFF8E090DFF8E080830094FBF3F474
:104E4800E10748BF01340B23434392FBF3F3802C63
:104E5800A8BF8024DA0748BF013B23EAE37A00238E
:104E680019461A4614E0002515F80970DFF8ACC099
:104E780007FB04F64643B444C44505D80BB19E422B
:104E880002DC3346394622460135062DECD1023C78
:104E98005445E8DC24E015F809C0DFF880800CFBF5
:104EA80007F64643B044D84505D80CB1A64202DC03
:104EB800344661463A460135062DECD10133022BC2
:104EC8000AD10DE0DFF858A0DFF84CB000231C46EB
:104ED80019461A46AAF1060913F80A700025DAE7F6
:104EE80007EE101A094BF8EEC77A07EE102AC3ED41
:104EF800007AF8EEC77A064BC3ED007ABDE8F08F6A
:104F08001CC6A002C0BBCB214083E81CE86C002073
:104F1800C06C0020941201088038E304C07C17E3B9
:104F28009A120108F8B52E4B2E4C0546186805F064
:104F380095FD00222C4B05F031FC00222B4B05F08F
:104F4800E1FD064620680F4605F088FD0022284B43
:104F580005F024FC0022274B05F0D4FD02460B4641
:104F68003046394605F01CFC06F08EF8287020689B
:104F7800214E224C05F072FD00221D4B05F00EFC5F
:104F880006F082F8C0B280016870D6E9000106F028
:104F98007BF820606B7843EA10106870206805F091
:104FA8003BFD02460B46D6E9000105F0F7FB00225F
:104FB800134B05F0A7FD06F03FF8124B6871186017
:104FC800020A000CE8702A71DB7803F00F03AB705B
:104FD80023681B01DBB22360AA781343AB70F8BDCA
:104FE800E86C0020C06C0020000010400000404029
:104FF8000000F03F0000D03FD06C0020F46C00208F
:105008000000B041B06C002070B50278520904323B
:1050180007EE102A214AF8EEC77A0346C2ED007A55
:10502800017842781C7901F01F01920902EB810294
:10503800013207EE102A1A4AF8EEC77AC2ED007A52
:105048004178184A01F03F0111608078000900EBAF
:10505800011010609978144A01F00F011160DE7890
:105068005B7906EB012604EB062603EB06261660A1
:1050780005F0D2FC044630460D4605F0CDFC002272
:105088000A4B05F03FFD0B4602462946204605F02F
:1050980087FB074BC3E9000170BD00BFE86C002027
:1050A800C06C0020F46C0020B06C00200000303E82
:1050B800D06C002008B5AA208721FDF7E9FE014B36
:1050C800187008BDF06C002038B505460724AA20E2
:1050D8002146FDF7DDFE0134E4B20D2C05F8010B85
:1050E800F5D138BD38B5134CFFF786FE2046FFF7DB
:1050F800EBFF2046FFF788FF0F4B186805F0AEFC62
:105108000E4BD3E9002305F0FDFC0D4B044618684F
:105118000D4605F0A3FC02460B462046294605F03D
:10512800F1FC084BD3E9002305F016FE064BC3E952
:10513800000138BDB86C0020E86C0020E06C00204D
:10514800C06C0020D06C0020C86C0020F8B51A4B49
:10515800D3E90067194BD3E9004530463946224662
:105168002B4605F037FF08BB3046394622462B460A
:1051780005F03AFF20B12046294632463B4603E077
:105188003046394622462B4605F008FB32463B4658
:1051980005F0E2FD06A3D3E90023012405F02EFF64
:1051A80000B9002484F00104E0B2F8BD0020F8BD85
:1051B80079E9263108AC6C3F006D0020D06C0020E6
:1051C80010B589210446AA20FDF762FE40F01002BE
:1051D800D2B28921AA20FDF735FD224606230721F0
:1051E800AA20FDF7BFFD8921AA20FDF751FE8921DC
:1051F80000F0EF02AA20FDF725FDFFF7A7FF80B119
:105208008721AA20FDF744FE40F04002D2B2AA202E
:105218008721FDF717FDAA208721FDF739FE4006F3
:10522800F9D410BDF8B580EAE075A5EBE07528461D
:10523800FFF7F5FD284605F0FFFB164B164C174DFA
:10524800064618680F4605F009FC02460B4630462C
:10525800394605F057FC124B064618680F4605F00C
:10526800FDFB02460B463046394605F04BFC0D4B1C
:10527800D3E9002305F070FDC4E900012846FFF7D3
:1052880051FE2846FFF79CFF94ED007B064B83ED0B
:10529800007BF8BDE86C0020D06C0020B86C0020C2
:1052A800C06C0020C86C0020006D00200BA1D1E963
:1052B8000001074B10B5C3E90001064C064B2360FB
:1052C800FFF710FF2068BDE81040ABE7AFF30080A0
:1052D800E06C0020D86C002040085A030000000051
:1052E80000DB8A41AFF300807047FEE7FEE7FEE788
:1052F800FEE770477047704770470000414BD3F88E
:10530800882042F47002C3F888203F4B1A6842F0A4
:1053180001021A6000229A60196821F0847121F450
:105328008031196039495960196882B021F48021A7
:105338001960DA60009201921A6842F480321A60A9
:105348001A6802F400320192009A01320092019A1E
:105358001AB9009AB2F5A06FF2D12B4B1B6813F45F
:10536800003318BF01230193019B012B2ED1264B3B
:105378001A6C42F080521A64254A116841F480413F
:1053880011609A689A609A6842F400429A609A6832
:1053980042F4A0529A601F4A5A601A6842F080721A
:1053A8001A601968184A8901FBD51B4B40F2056140
:1053B8001960936823F003039360936843F0020332
:1053C8009360936803F00C03082BFAD10E4B9A688C
:1053D80022F400029A60114AC3F884201A6842F045
:1053E80080621A601A681201FCD5064B4FF0006201
:1053F8009A60D3F8882042F47002C3F8882002B07B
:10540800704700BF00ED00E0003802401030002473
:105418000070004008544007003C024080400030C3
:10542800184B194A996801F00C01042903D008297E
:1054380003D0164B19E0164B17E059685A6811F457
:10544800800F596814BF124B104B02F03F02B3FB98
:10545800F2F30C4A5268C2F30142C1F388110132D7
:1054680052004B43B3FBF2F3074A1360054B9A68AB
:10547800054BC2F303129A181968127921FA02F23D
:105488001A60704700380240D40300200024F4005A
:1054980000127A00000000004FF0C04322221A8058
:1054A8007047014B18807047000002604FF0C043FE
:1054B800188003F50033198070474FF0C043072266
:1054C8001A8003F5003302F5B6721A8070474FF060
:1054D800C04307221A8003F5003300221A80704760
:1054E80082B0084BADF80600ADF80410BDF80620F0
:1054F80092B21A80BDF80420034B92B21A8002B00F
:10550800704700BFA0080020E8030020044B1B8858
:105518009BB20380034B1B889BB20B80704700BF74
:10552800A0080020E803002082B0044BADF8060074
:10553800BDF8062092B21A8002B07047A008002079
:1055480082B0044BADF80600BDF8062092B21A806E
:1055580002B07047E803002082B0044BADF80600A3
:10556800BDF8062092B25A8002B07047E8030020C6
:105578004FF0C04220231380024B18802120108056
:105588001980704700000260B0F5A07F08B5034697
:105598000EDAEF290CDC88B299B2FFF7E9FF4FF079
:1055A800C04322221A80034B1A88034B92B21A80F6
:1055B80008BD00BFA008002000000260B0F5A07F71
:1055C80010B5034614460DDAEF290BDC88B299B200
:1055D800FFF7CEFF4FF0C04322221A8003F50033B5
:1055E800A4B21C8010BD2DE9F04F824E73888FB095
:1055F8009BB2082B01908A4614462CD102A811466A
:10560800FAF7C8FD0AF10707BFB2002505F108033C
:105618006A46072613F802B0019B0FFA87F91FFAAA
:1056280083F84BFA06F313F0010F14BF724B714B5A
:105638001A880FFA88F012B24946013EFFF7BEFFFA
:1056480008F10108701C1FFA88F8EAD10135013FFA
:10565800082DBFB2DAD1674E73889BB20C2B2CD1C0
:1056680002A82146FAF7A0FD0AF10B07BFB20025F0
:1056780005F108036A46072613F802B0019B0FFAE2
:1056880087F91FFA83F84BFA06F313F0010F14BFDA
:10569800594B584B1A880FFA88F0494612B2013E06
:1056A800FFF78CFF08F10108711C1FFA88F8EAD18E
:1056B8000135013F0C2DBFB2DAD14E4E73889BB233
:1056C800102B2CD102A82146FAF782FD0AF10F0708
:1056D800BFB2002505F108036A46072613F802B091
:1056E800019B0FFA87F91FFA83F84BFA06F313F0B8
:1056F800010F14BF404B3F4B1A880FFA88F012B2C3
:105708004946013EFFF75AFF08F10108721C1FFACB
:1057180088F8EAD10135013F102DBFB2DAD1354EF4
:1057280073889BB20E2B2CD102A82146FAF746FDAE
:105738000AF10B07BFB2002505F108036A460B26DC
:1057480033F802B0019B0FFA87F91FFA83F84BFA76
:1057580006F313F0010F14BF274B264B1A880FFAD4
:1057680088F012B24946013EFFF728FF08F1010808
:10577800731C1FFA88F8EAD10235013F182DBFB211
:10578800DAD11C4D6B889BB2182B2FD1214602A869
:10579800FAF728FD0AF1170ADFF85CB01FFA8AFA4F
:1057A8000024A94604F108036A46002533F802805C
:1057B800019B0FFA8AF79EB248FA05F313F0010F1E
:1057C80014BFBBF80020B9F8002030B212B2394635
:1057D80001350136FFF7F2FE102DB6B2ECD10234D6
:1057E8000AF1FF3A302C1FFA8AFADBD10FB0BDE874
:1057F800F08F00BFE8030020A0080020F8B5044699
:105808000D46164640F2371716F8012B20B229B27A
:10581800FFF7E9FEBC420FD80D4B5A8892B2182AFE
:1058280001D1103404E05B889BB20E2B02D00834FF
:10583800A4B209E00C34FBE7DF2D03D81035ADB274
:10584800002401E000252C463378002BDCD1F8BD7C
:10585800E80300202DE9F047294BDFF8B0A02DED33
:10586800028BD3E9000124A3D3E9002304F096FFB7
:1058780005F02AFCDFED237A08EE100A88EE278A65
:105888002826002407EE104AF8EE477AF4EE487A04
:10589800F1EE10FA16D0AF27002504EB0A090FFA2B
:1058A80086F899F808309D42404639B201D21F2245
:1058B80001E04FF0FF3201350137FFF77FFE402D41
:1058C800BFB2EED101340136F02CB6B2DAD1BDEE5A
:1058D800C88AB32418EE105A28352DB221B20134E3
:1058E8002846094AA4B2FFF769FEEF2CF6D1BDECB1
:1058F800028BBDE8F08700BF0000000000405F4059
:10590800E015002000007A4100F8FFFFA66D002096
:105918002DE9F0471F4604460D461646FFF728FEB8
:10592800FFB94FF0C04322221A80134A03F500330F
:1059380003E0118889B219800137B742F9D3BDE86D
:10594800F0872223AAF80030B9F8003001349BB25E
:10595800A4B2A8F8003020462946FFF709FE01370F
:1059680006E0DFF81490DFF8148000274FF0C04AF3
:10597800B742E6D3BDE8F087A00800200000026027
:105988002DE9F74F99465B181BB205460C4616469B
:10599800804600270FFA81FB01930EE00FFA88FA80
:1059A80050465946FFF7F0FD50460199FFF7ECFDC8
:1059B80008F1010801371FFA88F8BE42EEDA0FFA3B
:1059C80085FA751900272DB20CE00FFA84F85046B5
:1059D8004146FFF7D9FD28464146FFF7D5FD01347A
:1059E8000137A4B2B945F0DABDE8FE8F2DE9F84FCA
:1059F80002EB010A05460C461646804600270FFAB8
:105A080081FB0FFA8AFA0EE00FFA88F948465946E0
:105A1800FFF7BAFD48465146FFF7B6FD08F1010801
:105A280001371FFA88F8BE42EEDA0FFA85F97519C0
:105A380000272DB20FFA84F848464146FFF7A4FD27
:105A48000137284641460134FFF79EFDBE42A4B205
:105A5800F0DABDE8F88F2DE9F84F4FEA4208C8F1AF
:105A6800030805460C461FFA88F81746002606EB79
:105A7800050A07EB040B0FFA8AFA0FFA8BFB50465C
:105A88005946C7EB0409FFF77FFD0FFA89F950461D
:105A9800C6EB050A49460FFA8AFAFFF775FD504624
:105AA8005946FFF771FD06EB040B504607EB050A54
:105AB80049460FFA8AFA0FFA8BFBFFF765FDC6EB2A
:105AC800040950465946FFF75FFD0FFA89F9504619
