:020000040800F2
:1000000000000220EDB50008896600088B66000834
:100010008D6600088F6600089166000800000000E9
:1000200000000000000000000000000093660008CF
:1000300095660008000000009766000899660008B1
:1000400031B6000831B6000831B6000831B60008F4
:1000500031B6000831B600086962000831B6000800
:1000600031B6000831B6000831B600087910000832
:1000700031B6000831B6000831B6000831B60008C4
:1000800031B6000831B6000831B6000831B60008B4
:1000900031B6000831B6000831B60008F96E000824
:1000A00031B6000831B6000831B6000831B6000894
:1000B00031B6000831B6000831B6000831B6000884
:1000C00031B6000831B6000831B6000831B6000874
:1000D00031B6000831B600089970000831B6000842
:1000E00031B6000831B6000831B6000831B6000854
:1000F00031B6000831B6000831B6000831B6000844
:1001000031B6000831B6000831B6000831B6000833
:1001100031B6000831B6000831B6000831B6000823
:1001200031B6000831B6000831B6000831B6000813
:1001300031B6000831B6000831B6000831B6000803
:1001400031B6000831B6000831B6000831B60008F3
:1001500031B6000831B6000831B6000831B60008E3
:1001600031B6000831B6000831B6000831B60008D3
:1001700031B6000831B6000831B6000831B60008C3
:0801800031B6000831B6000899
:10018800486D01080000002094080020980800200D
:10019800846F0020034B203903EBC10108220CF0C7
:1001A800ADBB00BF18CA0008034B0C2202FB01318B
:1001B800A1F5C0710CF0A2BB10CD0008034B1822AA
:1001C80002FB0131A1F540710CF098BB84D1000805
:1001D800034B203903EB011110220CF08FBB00BF39
:1001E8006CDA0008034B302202FB0131A1F5C06133
:1001F8000CF084BB5CE0000807B50420012108F07E
:1002080049FB01214FF4804008F074FB002302A948
:100218008DF8043001238DF807304FF4007341F84E
:10022800083D0248694607F08DFF0EBD00080240F0
:1002380038B500F0C7F900F0C7F90E4B0E4D0F485E
:1002480000241C800821012207F0F1FF00F09FF92B
:1002580000F0BCF9B5F9000000F01EF9B5F902008C
:1002680000F0F6F8204600F042F90620BDE83840D4
:1002780000F0B4B850090020E8090020000C024042
:1002880008B500F09FF900F09FF9104B01221A8081
:1002980000F07DF9002000F0FFF8002000F027F9B9
:1002A80000F0AFF90A4BB3F9040000F0D1F80821C7
:1002B8000022084807F0BBFF4FF47A7002F016FFDF
:1002C8001820BDE8084000F0A6B800BF500900207B
:1002D800E8090020000C0240114B002210B51A60FA
:1002E80000F070F900F070F90E4B0F4C01221A80E3
:1002F80000F04DF9B4F9060000F0CEF8082100220C
:100308000A4807F094FF4FF47A7002F0EFFE1420C9
:1003180000F081F8B4F90A00BDE8104000F05EB8BA
:100328007C09002050090020E8090020000C024048
:1003380010B500F047F900F047F90E4B0E4C0122BA
:100348001A8000F024F9B4F9080000F0A5F8082193
:1003580000220A4807F06BFF4FF47A7002F0C6FEDD
:10036800142000F058F8B4F90A00BDE8104000F075
:1003780035B800BF50090020E8090020000C0240F1
:100388002DE9F341144F0820012102AC08F082FA4C
:100398000026012504234FF002083846694644F830
:1003A800083D8DF804608DF805808DF806608DF89D
:1003B800075007F0C7FE0823384669468DF80450F1
:1003C8008DF805808DF806608DF80750009307F0CA
:1003D800B9FEBDE8FC8100BF000C024010B5002149
:1003E80001220446302002F09DFBE4B2012002F015
:1003F8007DFE10212246302002F094FB012002F0FD
:1004080075FE30201121224602F08CFB0120BDE848
:10041800104002F06BBE10B50021012204463020C6
:1004280002F080FBE4B2012002F060FE12212246B5
:10043800302002F077FB012002F058FE3020132113
:10044800224602F06FFB0120BDE8104002F04EBECC
:10045800002810B5044603DB5F2CA8BF5F2400E02A
:10046800002400210122302002F05CFBE4B20120CC
:1004780002F03CFE3B212246302002F053FB0120D3
:1004880002F034FE30203C21224602F04BFB0120D2
:10049800BDE8104002F02ABE302810B504460ADC38
:1004A80010F17F0F02DB002802DB05E06FF07E040D
:1004B80004F5807400E0302400210A46302002F060
:1004C80031FBE4B2012002F011FE41212246302026
:1004D80002F028FB012002F009FE302042212246CA
:1004E80002F020FB0120BDE8104002F0FFBD2828E3
:1004F80010B5044609DC10F1180F02DB002802DBF6
:1005080004E06FF017047F3400E0282400210A4635
:10051800302002F007FBE4B2012002F0E7FD53218E
:100528002246302002F0FEFA012002F0DFFD3020E2
:100538005421224602F0F6FA0120BDE8104002F0EC
:10054800D5BD08B500210122302002F0EBFA0120C8
:1005580002F0CCFD30203321402202F0E3FA0120E2
:10056800BDE8084002F0C2BD08B5002101223020D4
:1005780002F0D8FA012002F0B9FD30203321002220
:1005880002F0D0FA0120BDE8084002F0AFBD08B57E
:1005980000210122302002F0C5FA012002F0A6FD58
:1005A80034210022302002F0BDFA012002F09EFD25
:1005B80030203721002202F0B5FA0120BDE80840BA
:1005C80002F094BD402009E7402024E708B5002147
:1005D8000122302002F0A6FA012002F087FD302027
:1005E8003421024602F09EFA012002F07FFD3020FD
:1005F8003721024602F096FA0120BDE8084002F0D1
:1006080075BD08B500210122302002F08BFA0120C7
:1006180002F06CFD302034210C2202F083FA012014
:10062800BDE8084002F062BDF8B56A4B6A486B49FC
:100638006B4A1B6890ED006AD1ED006A92ED007A72
:10064800002B61D16748684E684D19461A4640F23A
:10065800FF1432F900E005EE10EA1718F8EEC57A33
:10066800B7F9027067EE865A05EE107AFDEEE55A84
:1006780067EEA67A15EE90EAF8EEC55A013375EEE4
:10068800A75A9BB265EE875A21F806E0FDEEE55AB7
:10069800043215EE907A4F531FB20231A742D8DDCB
:1006A800534B5448504D514CC3ED007A0023194622
:1006B8001A46575B0E180F520133175B9BB27780AF
:1006C8001EB202320431FF2EF3DD4B4A4B4E13802B
:1006D80000F050FD00F05CFD00F068FD04F0C4F887
:1006E80000F084FD002346481A46194640F2FF15DB
:1006F8008C5B171801339BB214527C801CB20231F8
:100708000432AC42F4DD61E000233E48364E374DFA
:1007180019461A4640F2FF1432F900E005EE90EA55
:100728001718F8EEE57AB7F9027067EE865A05EE03
:10073800107AFDEEE55A67EEA67A15EE90EAF8EE25
:10074800C55A013375EEA75A9BB265EE875A21F850
:1007580006E0FDEEE55A043215EE907A4F531FB2CB
:100768000231A742D8DD224B22481F4D1F4CC3ED52
:10077800007A002319461A46575B0E180F520133A8
:10078800175B9BB277801EB202320431FF2EF3DD75
:10079800194A1A4E138000F0EDFC00F0F9FC00F045
:1007A80005FD04F061F800F021FD002316481A4603
:1007B800194640F2FF158C5B171801339BB214528F
:1007C8007C801CB202310432AC42F4DD0A4A138048
:1007D800F8BD00BF20270020B0090020D409002060
:1007E800200900201C380020541A00206A2B002001
:1007F80044090020A4560020682B0020541600202D
:100808001C300020904E0020B8400020F8B5624B04
:1008180062481A686249634BD0ED005A91ED006A4C
:10082800D3ED006A002A59D15F4D604C60481346E9
:1008380040F2FF1135F9136007EE106AF8EEC77A37
:10084800013227EEA57A92B2BDEEC77A17EE106A8A
:1008580027EE867A1E5377EE877A67EEA67AFDEE44
:10086800E77A17EE906A1E5216B202338E42E1DD25
:10087800504B51484D4D4E4C83ED007A002319469C
:100888001A46575B0E180F520133175B9BB27780DD
:100898001EB202320431FF2EF3DD484A484E13805F
:1008A80000F068FC474D00F073FC00F09FFC00234B
:1008B800454819461A4640F2FF1432F806C00F1888
:1008C80021F800C0013332F805C09BB2A7F802C076
:1008D8001FB202320431A742EFDD59E000223B4D3E
:1008E800324C3348134640F2FF1135F9136007EED6
:1008F800106AF8EEC77A013227EEA57A92B2BDEEF9
:10090800C77A17EE106A27EE867A1E5377EE877A33
:1009180067EEA67AFDEEE77A17EE906A1E5216B2D7
:1009280002338E42E1DD234B2348204D204C83EDDA
:10093800007A002319461A46575B0E180F520133E6
:10094800175B9BB277801EB202320431FF2EF3DDB3
:100958001A4A1B4E138000F00DFC1A4D00F018FCCB
:1009680000F044FC00231A4819461A4640F2FF14C6
:1009780032F806C00F1821F800C0013332F805C05C
:100988009BB2A7F802C01FB202320431A742EFDDC2
:100998000A4A1380F8BD00BF2027002080090020E4
:1009A800E4090020200900201C380020541A0020E7
:1009B8006A2B002044090020A4560020682B002040
:1009C800580B0020C44800201C300020904E002006
:1009D800B84000202DE9F0472DED088BA64B82B0DA
:1009E800D3E90001A0A3D3E900230AF0C9FAA34B75
:1009F800044618680D460AF06FFA02460B46204670
:100A080029460AF0E7FB9E4B9E4AC3E900019E4B2C
:100A18001C689E4B93ED00BA9D4BCDE90001D3EDC8
:100A280000BA9C499C4BDFED9D9A9FED9D9ADFEDA6
:100A38009D8A91ED00AAD2ED00AA1E6893ED018A65
:100A4800002C40F08680984FDFF86882DFF86892C3
:100A5800254640F2FF1A86A3D3E90023DDE9000109
:100A68000AF08EFA0AF026FD7AEE487A28EE098A0C
:100A780007EEA98A3618C8EE287A331103F5806381
:100A88001B051B0D013437F8232013B2A4B206EE60
:100A9800903AB8EEE67A67EE2A6A66EEA76AFDEE45
:100AA800E66A16EE903A67EE0B6A25F8083037EEDC
:100AB800267A27EE277A27EE2B7ABDEEC77A17EE2D
:100AC800103A25F8093023B202355345C3DD724B7D
:100AD80076481E601A8183ED018A83ED038A744B80
:100AE800744D754CC3ED007A744BC3ED006A002356
:100AF80019461A46575B0E180F520133175B9BB203
:100B080077801EB202320431FF2EF3DD6C4A6D4E3F
:100B1800138000F02FFB6C4D00F03AFB00F066FBF1
:100B280000236A4819461A4640F2FF1432F806C0F4
:100B38000F1821F800C0013332F805C09BB2A7F89E
:100B480002C01FB202320431A742EFDD5C4A1380B3
:100B580085E00024544FDFF85C81DFF85C9125467E
:100B680040F2FF1A42A3D3E90023DDE900010AF0AD
:100B780007FA0AF09FFC7AEE487A28EE098A07EE0F
:100B8800A98A3618C8EE287A331103F580631B0545
:100B98001B0D013437F8232013B2A4B206EE903AA5
:100BA800B8EEE67A67EE2A6A66EEA76AFDEEE66AAE
:100BB80016EE903A67EE0B6A25F8083037EE267A7B
:100BC80027EE2B7A27EE277ABDEEC77A17EE103A72
:100BD80025F8093023B202355345C3DD2E4B33487F
:100BE8001E601A8183ED018A83ED038A304B314DF3
:100BF800314CC3ED007A314BC3ED006A002319462E
:100C08001A46575B0E180F520133175B9BB2778059
:100C18001EB202320431FF2EF3DD294A294E138019
:100C280000F0A8FA284D00F0B3FA00F0DFFA00232C
:100C380027481A46194640F2FF1431F806C01F1813
:100C480023F800C0013231F805C092B2A7F802C0FB
:100C580017B202310433A742EFDD194B1A8002B0F4
:100C6800BDEC088BBDE8F087182D4454FB211940D2
:100C780039D6C56D305FC44048160020680F002083
:100C8800900900208009002020270020E409002086
:100C980020090020E04C002098080020CDCCCC3C56
:100CA8009A99793F00FCFF461C170108A4560020BA
:100CB8007C090020541A00206A2B002044090020D7
:100CC800682B0020580B0020C44800201C3000204E
:100CD800B8400020F8B56C4B2DED028BD3E900012C
:100CE80065A3D3E900230AF04BF9684B044618685A
:100CF8000D460AF0F1F80B460246294620460AF04E
:100D080069FA634B634DC3E90001634B1B68002B11
:100D180040F0A9802B8040F2FF169FED608A6BE0BF
:100D28005B4B5F4CD3E9000155A3D3E900230AF0DC
:100D380027F90AF0BFFB2369C018021102F5806287
:100D48001205120D2061574BC0F30B1053F82010F9
:100D580053F82230A182E38202F090FB52492B889B
:100D6800D1ED007AB4F9141006EE901A67EE887A7D
:100D7800B8EEE67A4D4967EE877A1AB2FDEEE77A61
:100D8800013317EE900AD1ED007AB4F916102B80D2
:100D980006EE901A67EE887AB8EEE67A67EE877AFA
:100DA800FDEEE77A17EE901A411809B207EE101A0D
:100DB8003F49F8EEC77A91ED007A27EE877A3D49E8
:100DC800BDEEC77A17EE100A21F812003A4991EDE4
:100DD800007A3A4927EE877A81ED007A384977EE2A
:100DE800877AD1ED006A67EEA67A3649FDEEE77A92
:100DF80017EE900A21F81200B5F90030B3428FDDE2
:100E0800002331482B4D2F4C19461A46575B0E18B4
:100E18000F520133175B9BB277801EB20232043146
:100E2800FF2EF3DD1B4A294E138000F0A3F9284D4D
:100E380000F0AEF900F0DAF90023264819461A4600
:100E480040F2FF1432F806C00F1821F800C0013331
:100E580032F805C09BB2A7F802C01FB202320431B3
:100E6800A742EFDDDAE000232B8040F2FF169FED6A
:100E78000B8A9DE0AFF30080182D4454FB211940E4
:100E880039D6C56D305FC44048160020680F002071
:100E980090090020682B0020202700208FC2F53CF5
:100EA800980800201C170108DC0900207809002098
:100EB80080090020541A0020E40900204409002079
:100EC800200900206A2B0020A4560020580B00207F
:100ED800C44800201C300020554B564CD3E9000173
:100EE80051A3D3E900230AF04BF80AF0E3FA236987
:100EF800C018021102F580621205120D20614E4BD6
:100F0800C0F30B1053F8201053F82230A182E3826B
:100F180002F0B4FA49492B88D1ED007AB4F91410DB
:100F280006EE901A67EE887AB8EEE67A444967EEDC
:100F3800877A1AB2FDEEE77A013317EE900AD1EDFF
:100F4800007AB4F916102B8006EE901A67EE887AAC
:100F5800B8EEE67A67EE877AFDEEE77A17EE901A32
:100F6800411809B207EE101A3649F8EEC77A91ED22
:100F7800007A27EE877A3449BDEEC77A17EE100A51
:100F880021F81200314991ED007A314927EE877A2C
:100F980081ED007A2F4977EE877AD1ED006A67EE06
:100FA800A67A2D49FDEEE77A17EE900A21F812008D
:100FB800B5F90030B3428FDD00232848224D264C76
:100FC80019461A46575B0E180F520133175B9BB22E
:100FD80077801EB202320431FF2EF3DD204A214E03
:100FE800138000F0C7F8204D00F0D2F800F0FEF8AA
:100FF80000231E4819461A4640F2FF1432F806C06C
:101008000F1821F800C0013332F805C09BB2A7F8C9
:1010180002C01FB202320431A742EFDD104A13802A
:10102800BDEC028BF8BD00BF39D6C56D305FC4403A
:1010380090090020980800201C170108DC090020EE
:101048007809002080090020541A0020E4090020B3
:1010580044090020200900206A2B0020A456002003
:10106800682B0020580B0020C4480020B8400020FE
:1010780008B5244806F0B3FC234B1860234806F053
:10108800AEFC234B4FF4805118600122214807F031
:10109800CEF8214BB3F9003013B9FFF7C5FA21E0B8
:1010A8001E4B1B88012B06D002D3022B1AD117E046
:1010B800FFF7ACFB16E04FF40071194807F0A1F8F0
:1010C800184B9FED197ADFED197A18700028184B24
:1010D80018BFF0EE477AC3ED007AFFF77BFC01E01A
:1010E800FFF7F8FD00220B484FF4805107F09FF8F6
:1010F800104B0448104901221A80BDE8084006F048
:10110800EFBC00BF1060024020270020886002402A
:1011180014300020000C0240500900204C2B002005
:1011280000080240E00900200000000000FCFF4623
:10113800E04C0020A009002020800010AFF30080C0
:1011480007B50820012107F0A5FB4FF44053009391
:1011580001238DF804300222002305488DF806305B
:1011680069468DF805208DF8073006F0EBFF0EBDB7
:10117800000C024003480449044A4FF4007308F085
:1011880077BF00BF00000020541A0020580B002031
:1011980003480449044A4FF4007308F069BF00BFCC
:1011A8000C0000206A2B0020C4480020F0B5DFF8AE
:1011B80038C0094F094E0A4D0A4C002333F80C1069
:1011C800D85B0A1A92B241189A5359531A530233E8
:1011D800B3F5806FF2D1F0BDC4480020541600204A
:1011E80024270020980F0020580B002070B50F4CC2
:1011F8000F4D104E298B00220123204609F0D2FC06
:101208000D4B187020460D4C314609F0B1FC3046A4
:10121800062122464FF4807308F0F8FD2A8B08490E
:101228002046BDE8704008F083BD00BFB46C0020C4
:1012380000000020A4560020B2670020B2630020FE
:10124800A8130020000000007FB50420012107F04A
:1012580021FB04AD01214FF4804007F04BFB4FF414
:10126800B07345F80C3D0124002629461A488DF82C
:1012780008608DF80B4006F065FF1020214607F046
:1012880009FB78232946154801938DF808608DF8E5
:101298000B4006F057FF21464FF4804007F02AFB29
:1012A8000220082107F0B4FD0D484FF48073036055
:1012B8000C2306714371847106F038FC172303A8C8
:1012C8008DF80C308DF80D408DF80E408DF80F40DC
:1012D80006F02EFA7FBD00BF000802400010024051
:1012E800706D0020104B114A11481249DFF874C084
:1012F80083E80710104A1A61104A5A61104A9A6125
:10130800104ADA61104A1A62104A5A62104A9A62FE
:10131800104ADA62104A1A63104A5A63104A9A63EA
:101328000422DA63704700BF2C6D0020203D6B005B
:10133800F0B0D60060A0360030E16B0080969800CF
:1013480090B19A00C0ACD800C0E1E400202F14018D
:10135800B0804101C03F7C01C013AD0110C1FE0245
:1013680000605B03006C6B0008B5044806F04FFF93
:10137800034BC043C0F3C300188008BD00100240EF
:101388001C6D002038B59D4C642001F0AFFE257817
:101398009B48AD00EDB2257006F039FFC0F341104F
:1013A8000543984B257005F00F05974A595D6378FA
:1013B800C918964B1B88C9B2617018B249B28142EC
:1013C80005DA4042814206DD0021117003E0012167
:1013D80011700022627094F901201BB25B429A429C
:1013E800894B04DCFF221A70844A0021517093F95A
:1013F8000030002B00F09681FFF7B6FF844BB3F95D
:1014080000300F2B00F28681DFE813F01000250072
:101418003A004F00640079008E00A300B800CD00A8
:10142800E2000C011F01320158017901794A7A4919
:10143800136809688B4280F06D81784909688B428E
:1014480040F268817049764891F90010006800FB05
:10145800013313601EE16F4A6F49536809688B4274
:1014680080F058816D4909688B4240F25381664982
:101478006B4891F90010006800FB0133536009E1E3
:10148800644A6549936809688B4280F043816349DF
:1014980009688B4240F23E815B49614891F900102E
:1014A800006800FB01339360F4E05A4A5A49D36854
:1014B80009688B4280F02E81584909688B4240F2B6
:1014C80029815149564891F90010006800FB013301
:1014D800D360DFE04F4A5049136909688B4280F0B6
:1014E80019814E4909688B4240F2148146494C489B
:1014F80091F90010006800FB01331361CAE0454A06
:101508004549536909688B4280F004814349096859
:101518008B4240F2FF803C49414891F90010006835
:1015280000FB01335361B5E03A4A3B4993690968C6
:101538008B4280F0EF80394909688B4240F2EA809B
:101548003149374891F90010006800FB0133936175
:10155800A0E0304A3049D36909688B4280F0DA80CC
:101568002E4909688B4240F2D58027492C4891F9C9
:101578000010006800FB0133D3618BE0254A26493F
:10158800136A09688B4280F0C580244909688B4238
:1015980040F2C0801C49224891F90010006800FB05
:1015A8000133136276E01B4A1B49536A09688B4270
:1015B80080F0B080194909688B4240F2AB8012492B
:1015C800174891F90010006800FB0133536261E08D
:1015D800104A1149936A09688B4280F09B800F4931
:1015E80009688B4240F2968007490D4891F900102E
:1015F800006800FB013393624CE000BFB008002094
:101608000008024038F200087C6D0020186D0020A8
:101618001C6D00202C6D0020CC6C0020286D002053
:10162800786D0020444A4549D36A09688B4271D2D3
:10163800434909688B426DD94249434891F90010E2
:10164800006800FB0133D36224E03B4A3B49136B3B
:1016580009688B425ED23A4909688B425AD939499E
:10166800394891F90010006800FB0133136311E059
:10167800314A3249536B09688B424BD23049096869
:101688008B4247D92F49304891F90010006800FB78
:10169800013353632D4A107858432D4B18602D4B56
:1016A8001B78032B01D003F065FC2B4BB3F900200A
:1016B800214B53F82220294B1A602BE0284C1AA3FF
:1016C800D3E90023D4E9000109F0C2FE18B118A338
:1016D800D3E9002302E014A3D3E90023C4E90023DB
:1016E8001C4B1B78032B01D003F0A4FBD4E90001A9
:1016F80009F008FF194B18600F4B98630AE0134A6A
:101708001378042B14BF042302231370134A1360A5
:10171800094AD363114B1868EA210022BDE8384012
:1017280004F028BD38BD00BF0000000000DB8A417E
:1017380000000000D01263412C6D0020CC6C00200A
:10174800286D00207C6D0020786D00206C6D0020D5
:10175800F86C0020106D00201C6D0020D86C002053
:10176800006D0020904BB3F9003010B58F4C0F2B53
:1017780000F29681DFE813F01000280040005800BE
:1017880070008800A000B800D000E80000013A010D
:1017980052016A0182018C01854B864C1B782068B6
:1017A8005843854B1860854B1B78032B01D003F0F9
:1017B800E1FB7D4BB3F9003054F823207B4BEA2042
:1017C8001A6014217E4A69E1794B7A4C1B7860686B
:1017D8005843794B1860794B1B78032B01D003F0E1
:1017E800C9FB714BB3F9003054F823206F4BEA2042
:1017F8001A601421734A51E16D4B6E4C1B78A06836
:1018080058436D4B18606D4B1B78032B01D003F0C8
:10181800B1FB654BB3F9003054F82320634BEA2041
:101828001A601421684A39E1614B624C1B78E06800
:101838005843614B1860614B1B78032B01D003F0B0
:1018480099FB594BB3F9003054F82320574BEA2041
:101858001A6014215D4A21E1554B564C1B782069CA
:101868005843554B1860554B1B78032B01D003F098
:1018780081FB4D4BB3F9003054F823204B4BEA2041
:101888001A601421524A09E1494B4A4C1B78606995
:101898005843494B1860494B1B78032B01D003F080
:1018A80069FB414BB3F9003054F823203F4BEA2041
:1018B8001A601421474AF1E03D4B3E4C1B78A06961
:1018C80058433D4B18603D4B1B78032B01D003F068
:1018D80051FB354BB3F9003054F82320334BEA2041
:1018E8001A6014213C4AD9E0314B324C1B78E0692C
:1018F8005843314B1860314B1B78032B01D003F050
:1019080039FB294BB3F9003054F82320274BEA2040
:101918001A601421314AC1E0254B264C1B78206AF5
:101928005843254B1860254B1B78032B01D003F037
:1019380021FB1D4BB3F9003054F823201B4BEA2040
:101948001A601421264AA9E0194B1A4C1B78606AC0
:101958005843194B1860194B1B78032B01D003F01F
:1019680009FB114BB3F9003054F823200F4BEA2040
:101978001A6014211B4A91E00D4B0E4C1B78A06A8B
:1019880058430D4B18600D4B1B78032B01D003F007
:10199800F1FA054BB3F9003054F82320034BEA2041
:1019A8001A601421104A79E01C6D0020D86C0020C0
:1019B8006C6D00202C6D0020F86C0020106D00204C
:1019C800DC6A0108E76A0108F26A0108FD6A010891
:1019D800086B0108136B01081E6B0108296B0108CD
:1019E800346B01083F6B01084A6B0108304B314CDE
:1019F8001B78E06A5843304B1860304B1B78032B38
:101A080001D003F0B7FA2E4BB3F9003054F8232075
:101A18002C4BEA201A6014212B4A3FE0244B254C1A
:101A28001B78206B5843244B1860244B1B78032BDE
:101A380001D003F09FFA224BB3F9003054F8232069
:101A4800204BEA201A601421204A27E0184B194C31
:101A58001B78606B5843184B1860184B1B78032B86
:101A680001D003F087FA164BB3F9003054F823205D
:101A7800144BEA201A601421154A0FE0154BD3E9DC
:101A8800000109F03FFD14212060134AEA2005E017
:101A9800074B124A1B78EA202360142103F07EFCCE
:101AA800084B1868EA210022BDE8104004F062BB28
:101AB8006C6D00202C6D0020F86C0020106D00204B
:101AC8001C6D0020D86C0020556B0108606B010864
:101AD8006B6B0108006D0020766B0108816B0108B3
:101AE80038B5002004F006FC40F2D244284BA0424E
:101AF800186007D0FFF7F6FB04F018FC0020214619
:101B080004F0DFFB04F022FC224B234D234CA86B8E
:101B180002221A80224A234B1A60234A234B1A6056
:101B280009F0B8F9224BC3E90001EB6B237003F00D
:101B380069F9204B1B78032B05D1EA203C211E4A6A
:101B480003F02CFC1FE003F075F9FFF70DFC1B4BAD
:101B5800B3F900300D2B02DCFFF704FE13E0237805
:101B68002868174C5843174B186003F003FA2B6882
:101B7800154A2360EA20142103F010FC2068EA21AA
:101B8800002204F0F7FA114B64221A6038BD00BF36
:101B9800DC6C0020186D00202C6D00206C6D00207E
:101BA80080841E00286D00200065CD1DCC6C0020AF
:101BB800006D0020106D00208C6B01081C6D00204A
:101BC800D86C0020F86C0020DC6A0108786D0020D1
:101BD8000E4B1A68642A10D004D8012A13D00A2A96
:101BE80013D10DE0B2F57A7F42F2107103D08A4228
:101BF8000BD1074A05E0196070474FF47A7200E08C
:101C080064221A6070470A221A607047786D0020B3
:101C1800A08601000F4B1A68B2F57A7F11D004D85C
:101C28000A2A13D0642A13D10DE042F210718A42B5
:101C380004D0094882420BD1196070474FF47A7278
:101C480002E0642200E00A221A60704701221A604A
:101C5800704700BF786D0020A0860100AFF30080B8
:101C680073B50420012106F015FE02AD01214FF4E1
:101C7800804006F03FFE01241E23002669461548D1
:101C880045F8083D8DF804608DF8074006F05AFACB
:101C98000220214606F0FEFDB02369460E48009357
:101CA8008DF804608DF8074006F04CFA21464FF491
:101CB800804006F01FFE2046072107F0A9F80748D4
:101CC800802303600C2306714371847105F02EFF95
:101CD8007CBD00BF0008024000040240706D002077
:101CE8000A4B142100225980998041F288311A80C8
:101CF800DA801A815A819981DA8119825A829A8204
:101D0800DA821A835A839A83DA837047E8090020B3
:101D18000C4B4FF6817100224FF47A701980D980EC
:101D280019814DF6F0015A809A805A819881D9819B
:101D3800188259829A82DA821A835A839A83DA83BA
:101D4800704700BFB40900200C4B30221A80502283
:101D58005A809A801D22DA801A815A8142F21072C2
:101D68009A81DA811A825A8201229A826422DA825C
:101D78001A835A839A83DA83704700BF24090020A4
:101D88000A4B04220A211A8001225A809A80DA809A
:101D98001A815A819981D981198259829A82DA8263
:101DA8001A835A839A83DA83704700BF5809002040
:101DB80008B5044806F02BFA034BC043C0F34300B0
:101DC800188008BD00080240DA09002038B5854CA3
:101DD800642001F08BF925788348AD00EDB22570B9
:101DE80006F015FAC0F301100543804B257005F085
:101DF8000F057F4A595D6378C9187E4B1B88C9B2A5
:101E0800617018B249B2814205DA4042814206DD6A
:101E18000021117003E0012111700022627094F911
:101E280001201BB25B429A42714B04DCFF221A70FC
:101E38006C4A0021517093F90030002B00F0688241
:101E4800FFF7B6FF6C4BB3F900300A2B00F2608243
:101E5800DFE813F00B00380062009700E20017017A
:101E68004C017D01AE01F8012B02614B634A1B78DE
:101E78001188D8090BD06248B0F9004008B28442F2
:101E880005DA604800885CB204FB001111805B4AE7
:101E98005BB2002B11880ADD5B48B0F9004008B23C
:101EA800844204DD5748008803FB00131380534B1A
:101EB8001888564B1880564BB3F90030002B40F069
:101EC8002782DAE04A4B4D4A1B785188D8090BD053
:101ED8004B48B0F9024008B2844205DA49484088C4
:101EE8005CB204FB00115180444A5BB2002B51885C
:101EF8000ADD4548B0F9024008B2844204DD414891
:101F0800408803FB001353803C4B58883F4B188094
:101F18003F4BB3F900302DE0354B384A1B78918898
:101F2800D8090BD03648B0F9044008B2844205DA23
:101F3800344880885CB204FB001191802F4A5BB260
:101F4800002B91880ADD3048B0F9044008B2844279
:101F580004DD2C48808803FB00139380274B988866
:101F68002A4B18802A4BB3F90030012B40F0D0815E
:101F7800284B1B88002B40F0CB8100B2FEF768FA93
:101F8800C6E11B4B1D4A1B78D188D8090BD01C48C9
:101F9800B0F9064008B2844205DA1A48C0885CB233
:101FA80004FB0011D180154A5BB2002BD1880ADDF1
:101FB8001548B0F9064008B2844204DD1148C088CB
:101FC80003FB0013D3800D4BD888104B1880104B9F
:101FD800B3F90030012B40F09B810E4B1B88012B7D
:101FE80049E000BFB20800200004024048F200089F
:101FF8007E6D0020806D0020DA090020E8090020AD
:10200800B40900205809002024090020A80900204C
:10201800500900204C2B00207E4B7F4A1B781189E9
:10202800D8090BD07D48B0F9084008B2844205DAD7
:102038007B4800895CB204FB00111181764A5BB2CF
:10204800002B11890ADD7748B0F9084008B28442AC
:1020580004DD7348008903FB001313816E4B188954
:10206800714B1880714BB3F90030012B40F050814F
:102078006F4B1B88022B40F04B8100B2FEF70CFA25
:1020880046E1644B644A1B785189D8090BD06348F0
:10209800B0F90A4008B2844205DA614840895CB266
:1020A80004FB001151815C4A5BB2002B51890ADDA7
:1020B8005C48B0F90A4008B2844204DD58484089B7
:1020C80003FB00135381544B5889574B1880574BC7
:1020D800B3F90030012B40F01B81554B1B88012BB5
:1020E80040F0168100B2FEF779F911E1494B4A4AEE
:1020F8001B789189D8090BD04848B0F90C4008B230
:10210800844205DA464880895CB204FB001191815B
:10211800414A5BB2002B91890ADD4248B0F90C4074
:1021280008B2844204DD3E48808903FB0013938192
:10213800394B3D4A9B8913801BB207EE903AB8EEA3
:10214800E77ADFED3C7A3C4BC7EE277AAAE0314BC1
:10215800314A1B78D189D8090BD03048B0F90E40E4
:1021680008B2844205DA2E48C0895CB204FB00112B
:10217800D181294A5BB2002BD1890ADD2948B0F9FF
:102188000E4008B2844204DD2548C08903FB0013D1
:10219800D381214B244ADB8913801BB207EE903A86
:1021A800B8EEE77ADFED237A244BC7EE277A79E099
:1021B800184B194A1B78118AD8090BD01748B0F95F
:1021C800104008B2844205DA1548008A5CB204FB64
:1021D80000111182104A5BB2002B118A0ADD1148E6
:1021E800B0F9104008B2844204DD0D48008A03FBB0
:1021F80000131382084B0C4A1B8A13801BB207EE8C
:10220800903AB8EEE77ADFED0B7A0D4BC7EE277AF6
:1022180048E000BF7E6D0020E8090020B4090020D6
:102228005809002024090020A8090020500900208E
:102238004C2B002000401C46B0090020D409002087
:1022480080090020374B384A1B78518AD8090BD0AF
:102258003648B0F9124008B2844205DA3448408A58
:102268005CB204FB001151822F4A5BB2002B518AE9
:102278000ADD3048B0F9124008B2844204DD2C4827
:10228800408A03FB00135382274B2B4A5B8A138037
:102298001BB207EE903AB8EEE77ADFED287AC7EE80
:1022A800277A274BC3ED007A32E01E4B1E4A1B7873
:1022B800918AD8090BD01D48B0F9144008B284425D
:1022C80005DA1B48808A5CB204FB00119182164A29
:1022D8005BB2002B918A0ADD1648B0F9144008B2A7
:1022E800844204DD1248808A03FB001393820E4A5D
:1022F8001149938A14460B800BB9FEF735F9114B37
:10230800B3F9003034F91330012B01D1FEF719F974
:10231800094B0021B3F900000A46BDE8384003F034
:10232800E9BE00BF7E6D0020E8090020B409002046
:102338005809002024090020A809002000401C4654
:10234800E4090020DA09002008B5454BB3F900205C
:10235800444B0F2A7AD8DFE802F0080F161D242B09
:10236800323940474E555C636A713F4A12880020F3
:102378001A8014213D4A67E03B4A528800201A809F
:1023880014213B4A60E0384A928800201A801421C0
:10239800384A59E0344AD28800201A801421364A33
:1023A80052E0314A128900201A801421334A4BE046
:1023B8002D4A528900201A801421314A44E02A4AC1
:1023C800928900201A8014212E4A3DE0264AD2899B
:1023D80000201A8014212C4A36E0234A128A002051
:1023E8001A801421294A2FE01F4A528A00201A8095
:1023F8001421274A28E01C4A928A00201A801421B6
:10240800244A21E0184AD28A00201A801421224A3C
:102418001AE0154A128B00201A8014211F4A13E073
:10242800114A528B00201A8014211D4A0CE00E4AD2
:10243800928B00201A8014211A4A05E00A4AD28B8E
:102448001A80194A0020142102F0A8FF054B002128
:10245800B3F900000A46BDE8084003F04BBE00BFD0
:10246800DA090020A8090020E8090020976B010874
:10247800A26B0108AD6B0108B86B0108C36B0108BA
:10248800CE6B0108D96B0108E46B0108EF6B0108FA
:10249800FA6B0108056C0108106C01081B6C010837
:1024A800266C0108316C01083C6C010810B532201B
:1024B80003F0F8FE41F22E64314BA042188007D099
:1024C800FFF70EFC03F052FF3220214603F0DCFE3A
:1024D8002C4C03F05BFFFFF71BFCFFF735FCFFF705
:1024E8004FFCB4F90C3006EE103ADFED277AB8EE5F
:1024F800C67A264B87EE277A4FF07C520020DC21E3
:1025080083ED007AB4F90E3006EE103AF8EEC66A9A
:102518001F4BC6EEA77AC3ED007A1E4B83ED007AF7
:102528001D4BC3ED007A1D4B1A601D4A02F036FFA1
:102538001C4B0022DC214FF494701A801A4A02F0D6
:102548002DFFFDF775FE194B02221A80FFF730FCAC
:10255800FFF7FAFEB4F90000FDF79EFFB4F9020098
:10256800FDF776FFB4F914300BB9FDF7FDFFB4F9A8
:102578001430012B03D1BDE81040FDF7E2BF10BDB8
:10258800D8090020E809002000401C46B0090020B6
:10259800D409002080090020E40900202009002037
:1025A800476C0108500900204B6C0108806D002021
:1025B80010B50E4CEA202821224602F0EFFEFEF765
:1025C80091FE03F0B3FEFEF7CFFEFFF7CBF8002035
:1025D8002821224602F0E2FEFFF782FB03F0C6FE46
:1025E800FFF7E6FBBDE81040AEE600BF4E6C010801
:1025F80007B50220012106F04DF9012300938DF85B
:10260800043002238DF805300448002369468DF80C
:1026180006308DF8073005F095FD0EBD0004024028
:1026280010B5084C01210022204605F000FE40F2BA
:10263800FF4000F05BFD012120460A46BDE810403E
:1026480005F0F5BD0004024008B5FFF7E9FF0021D9
:102658000A46302000F066FA012000F047FD01210B
:102668000A46302000F05EFA012000F03FFD00210C
:102678000122302000F056FA012000F037FD012138
:102688000822302000F04EFA012000F02FFD022130
:102698000122302000F046FA012000F027FD002139
:1026A8000A46302000F03EFA012000F01FFD1B21F1
:1026B800CD22302000F036FA012000F017FD042169
:1026C8000322302000F02EFA012000F00FFD062131
:1026D8000822302000F026FA012000F007FD07212B
:1026E8000A46302000F01EFA012000F0FFFC082105
:1026F8008022302000F016FA012000F0F7FC1E219D
:10270800B022302000F00EFA012000F0EFFC052185
:102718009122302000F006FA012000F0E7FC0D219C
:102728000322302000F0FEF9012000F0DFFC0E212A
:102738000022302000F0F6F9012000F0D7FC142127
:102748008022302000F0EEF9012000F0CFFC0B21B0
:102758008822302000F0E6F9012000F0C7FC302084
:102768000C21822200F0DEF9012000F0BFFC1221CA
:102778008822302000F0D6F9012000F0B7FC1321A0
:102788008C22302000F0CEF9012000F0AFFC0021AF
:102798000122302000F0C6F9012000F0A7FC0C212E
:1027A8000822302000F0BEF9012000F09FFC0D2126
:1027B8000822302000F0B6F9012000F097FC0E2125
:1027C8000822302000F0AEF9012000F08FFC0F2124
:1027D8000822302000F0A6F9012000F087FC002133
:1027E8000A46302000F09EF9012000F07FFC4021CD
:1027F8000222302000F096F9012000F077FC002238
:102808004121302000F08EF9012000F06FFC3020CB
:102818003F21D42200F086F9012000F067FC002156
:102828000122302000F07EF9012000F05FFC102129
:102838000F22302000F076F9012000F057FC11211A
:102848000F22302000F06EF9012000F04FFC122119
:102858000022302000F066F9012000F047FC132127
:102868000022302000F05EF9012000F03FFC092131
:102878003C22302000F056F9012000F037FC0021FE
:102888000122302000F04EF9012000F02FFC30200A
:102898003421024600F046F9012000F027FC3020E0
:1028A8003721024600F03EF9012000F01FFC3621D6
:1028B8000322302000F036F9012000F017FC3921FE
:1028C8000322302000F02EF9012000F00FFC3B21FC
:1028D8003C22302000F026F9012000F007FC3C21C2
:1028E8000A46302000F01EF9012000F0FFFB00210D
:1028F8000A46302000F016F9012000F0F7FB5121BC
:10290800C022302000F00EF9012000F0EFFB30204B
:102918005221002200F006F90120BDE8084000F02D
:10292800E5BB00BF2DE9F04F464D474E91B0012160
:102938004FF4001005F0AEFF284604F051FF434B5A
:102948004FF0C0628DE80C00414B00244FF48067C3
:102958004FF400694FF400584FF4807A4FF4003B6D
:1029680028466946029304970394059406970B94A6
:10297800CDF81C90CDF82080CDF824A0CDF828B053
:1029880004F0BAFF22462846324905F010F82846D6
:10299800012105F016F801210A464FF0402006F003
:1029A800E7F9304604F01CFF2B4B009401932B4BA6
:1029B800049702933046402369460393059406978B
:1029C8000B94CDF81C90CDF82080CDF824A0CDF83C
:1029D80028B004F091FF22463046214904F0E7FF71
:1029E8003046012104F0EDFF42F210770122022166
:1029F8001C4806F0BDF9384600F078FB284601214E
:102A080004F0B5FF0121304604F0B1FF384600F06C
:102A18006DFB0B238DF83D408DF83E400FA8012437
:102A28008DF83C308DF83F4004F082FE384600F0C7
:102A38005DFB28461021224605F010F811B0BDE8CC
:102A4800F08F00BF10600240886002400C400040D8
:102A5800904E00201C3800200C3C0040B84000205C
:102A68001C300020003C004002481021012204F0E4
:102A7800F5BF00BF1060024013B50220012105F028
:102A880009FF4FF410730E4C009302238DF80430A5
:102A98008DF8053001238DF806302046002369465D
:102AA8008DF8073005F04EFB20460621042205F07C
:102AB800C9FB20460921042205F0C4FB1CBD00BF48
:102AC8000004024030B5154D85B001214FF40010C7
:102AD80005F004FF284605F0CBFB0023ADF80430D1
:102AE8004BF6FF73ADF806303323ADF808304FF4DA
:102AF8008063ADF80A304FF48043ADF80C3004AC75
:102B0800074B2846012144F8103D05F053FC2846A0
:102B1800694605F0DBFB05B030BD00BF005400403E
:102B2800801A0600414B2DE9F04115464FF49612E4
:102B380007460E461A60984606E0D8F800305A1E36
:102B4800C8F80020002B61D03948384C4FF40031C8
:102B580005F048FD0028F0D13548012105F036FC84
:102B68004FF480532360A04606E0D8F800305A1E80
:102B7800C8F80020002B4CD02D482E492B4C05F0CE
:102B88001CFD0028F1D02A483946002205F036FC01
:102B98004FF48053236004E023685A1E2260002B00
:102BA8003AD023482449214F05F007FD0028F3D0E7
:102BB80031461F4805F0A5FC4FF480533B603E4664
:102BC80004E033685A1E3260002B28D018481B498D
:102BD800164C05F0F2FC0028F3D01548294605F0FC
:102BE80090FC4FF49613236003E023685A1E22607A
:102BF800C3B10F48124905F0F5FC0028F5D00C4880
:102C0800012105F0EFFB0020BDE8F0810120BDE8BF
:102C1800F0810220BDE8F0810320BDE8F0810420A6
:102C2800BDE8F0810520BDE8F08100BFC8030020A1
:102C380000540040010003008200070080000700E4
:102C4800040000102DE9F8439846434B14464FF40E
:102C5800961206460D461A60994606E0D9F80030E5
:102C68005A1EC9F80020002B67D03C483A4F4FF451
:102C7800003105F0B7FC0028F0D13848012105F0F3
:102C8800A5FB4FF480533B60B94606E0D9F8003005
:102C98005A1EC9F80020002B52D0304830492E4F18
:102CA80005F08BFC0028F1D02C483146002205F0B5
:102CB800A5FB4FF480533B6004E03B685A1E3A6022
:102CC800002B40D025482749234E05F076FC0028E4
:102CD800F3D02946214805F014FC4FF480533360A3
:102CE800354604E02B685A1E2A60002B2ED01B485C
:102CF8001D4905F062FC0028F4D00025164E12E0AC
:102D0800615D164805F0FDFB4FF49613336003E050
:102D180033685A1E3260E3B11048144905F062FC6A
:102D28000028F5D00135EBB24345E9D30B48012122
:102D380005F058FB0020BDE8F8830120BDE8F883C2
:102D48000220BDE8F8830320BDE8F8830420BDE82D
:102D5800F8830520BDE8F883C8030020005400402C
:102D68000100030082000700800007000400001033
:102D7800F8B5614C4FF4961305460E46236005E0FE
:102D880023685A1E2260002B00F0A4805B485A4F2B
:102D98004FF4003105F026FC0028F1D157480121F5
:102DA80005F014FB4FF480533B6005E03B685A1E66
:102DB8003A60002B00F09080504851494E4C05F085
:102DC800FCFB0028F2D04D482946002205F016FBEE
:102DD8004FF480532360274604E03B685A1E3A604C
:102DE800002B7BD045484749434C05F0E6FB0028BB
:102DF800F3D04248314605F084FB4FF480532360FA
:102E080004E023685A1E2260002B69D03B483E49E3
:102E1800394E05F0E7FB0028F3D03848012105F0CA
:102E2800D5FA4FF48053336004E033685A1E326099
:102E3800002B57D0314832492F4C05F0BEFB0028F3
:102E4800F3D02E482946012205F0D8FA4FF48053D2
:102E58002360264604E033685A1E3260002B43D0B4
:102E6800264D2A49244C284605F0BCFB0028F2D000
:102E78002846002105F0CAFA284601212B8B05F0C7
:102E8800B1FA4FF48053236004E023685A1E22608D
:102E9800002B2BD019481E49174D05F0A3FB00281D
:102EA800F3D0164805F02FFB4FF480532B60134ADC
:102EB80003E02B68591E2960D3B113889B05F8D409
:102EC800012104460D4805F0A1FA0C48114905F006
:102ED800A3FB0EE001240CE002240AE0032408E02E
:102EE800042406E0052404E0062402E0072400E0A8
:102EF80008242046F8BD00BFC80300200054004045
:102F08000100030082000700040000100200001006
:102F1800400000100004001070B56C4D4FF496137B
:102F280004462B6005E02B685A1E2A60002B00F02F
:102F3800BA806748654E4FF4003105F053FB00280E
:102F4800F1D16348012105F041FA4FF48053336011
:102F580005E033685A1E3260002B00F0A6805C48FA
:102F68005C495A4D05F029FB0028F2D05848A021A9
:102F7800002205F043FA4FF480532B6005E02B68DC
:102F88005A1E2A60002B00F09280514852494F4E39
:102F980005F013FB0028F2D0C4F305214C4805F0D6
:102FA800B0FA4FF48053336004E033685A1E32603D
:102FB800002B7ED046484949444D05F013FB0028B4
:102FC800F3D0E1B2424805F09CFA4FF480532B60ED
:102FD8002C4604E023685A1E2260002B6BD03C4824
:102FE8003E493A4D05F0FEFA0028F3D03848012151
:102FF80005F0ECF94FF480532B6004E02B685A1E5F
:103008002A60002B59D032483249304C05F0D5FAA5
:103018000028F3D02E48A121012205F0EFF94FF442
:1030280080532360264604E033685A1E3260002B22
:1030380045D0274D2A49254C284605F0D3FA0028C3
:10304800F2D02846002105F0E1F9284601212B8B12
:1030580005F0C8F94FF48053236004E023685A1E32
:103068002260002B2DD01A481E49184D05F0BAFAD7
:103078000028F3D0164805F046FA4FF480532B6029
:10308800134A03E02B68591E2960E3B11388990598
:10309800F8D4012104460E4805F0B8F90C48124945
:1030A80005F0BAFA10E001240EE002240CE0032433
:1030B8000AE0042408E0052406E0062404E00724C6
:1030C80002E0082400E00924204670BDC80300205F
:1030D80000540040010003008200070004000010B3
:1030E80002000010400000100004001082B000230D
:1030F80004E0019B01330193009B01330093009B83
:103108008342F6D302B07047F8B5464D4FF480536A
:1031180004460E462B6004E02B685A1E2A60002BDA
:1031280074D041483F4F4FF4003105F05BFA002856
:10313800F2D13D48012105F049F94FF480533B6035
:1031480004E03B685A1E3A60002B61D03648374984
:10315800344D05F032FA0028F3D03348A02100227C
:1031680005F04CF94FF480532B6004E02B685A1E8D
:103178002A60002B4ED02C482D492A4F05F01DFA05
:103188000028F3D0C4F30521274805F0BAF94FF415
:1031980080533B6004E03B685A1E3A60002B3BD0EA
:1031A800214824491F4D05F008FA0028F3D0E1B260
:1031B8001D4805F0A6F94FF480532B6004E02B68F6
:1031C8005A1E2A60002B29D017481A49154C05F0B9
:1031D800F4F90028F3D01448314605F092F94FF479
:1031E8009613236003E023685A1E2260C3B10E4879
:1031F800114905F0F7F90028F5D00B48012105F031
:10320800F1F80E48FFF772FF0020F8BD0120F8BD65
:103218000220F8BD0320F8BD0420F8BD0520F8BD44
:103228000620F8BDC8030020005400400100030038
:10323800820007008000070004000010A08601003B
:1032480013B50520012105F025FB184C4FF4E05378
:10325800009302238DF804308DF8053020460023B2
:1032680069468DF806308DF8073004F06BFF20466C
:103278000A21062204F0E6FF20460C21062204F06B
:10328800E1FF062220460B21A4F5006404F0DAFFD2
:103298004FF4004320466946009304F053FF20464C
:1032A8000F21062204F0CEFF1CBD00BF000802401B
:1032B8001FB50446FFF79CF9FFF704FCFFF7C4F9B4
:1032C800FFF7BEFF01214FF4004005F007FB029411
:1032D8000F4C1023ADF80230204600236946ADF8A4
:1032E8000430ADF80C30ADF80030ADF8063005F01C
:1032F80024FC69464FF0402005F0F3FC20460121EC
:1033080005F0A3FC4FF04020012105F09EFC1FBDF5
:10331800003C004008B54FF6E07001F0E1FE4FF4C4
:10332800784001F0D1FE582000210E4A02F036F80C
:10333800902000210C4A02F031F800210B4ABC20F1
:1033480002F02CF8002001F0BFFE4FF6FF7001F0EC
:10335800C7FE074B074A0020C8211880BDE808406F
:1033680002F01CB82E6B0108596C0108656B010846
:103378004C2B00205E6C01080A4B1B88012B07D0E0
:1033880002D3022B0DD107E00020C821064A06E02F
:103398000020C821054A02E0054A0020C82101F0A2
:1033A800FDBF70474C2B00205E6C01085A6C010869
:1033B800626C0108000000000F4A002313600F4AE6
:1033C80013600F4A13600F4A612302F8013F01336B
:1033D800DBB27B2BF9D10C4B012205A1D1E900010D
:1033E8001A600A4BC3E90001094B00221A80704792
:1033F8000000000000403F40540900204809002018
:103408004C090020070A0020A40900208809002090
:10341800220A0020054B06491A68885C0132192ADD
:103428001A6001DD00221A60704700BF48090020B9
:10343800080A002010B50E4C238863B90D4A11689C
:1034480009B1136005E0FFF7E5FF0B4B53F8203097
:103458002380022010BD13F4004F0CBF022000206F
:103468005B009BB2238013B9024B01221A6010BD86
:10347800220A0020A4090020D412010838B5184BEC
:10348800184C1A682068184902EB002001EB8000EC
:10349800456816480560606802EB002001EB800172
:1034A8000132486812491A60B2F5807F086016D167
:1034B80000221A60FFF7BEFFE3682072052202FBB4
:1034C80000300C4B03EB8000D0F80C3FC3F3022212
:1034D8002260C3F3021203F007036260E36038BDA1
:1034E80054090020B408002058F200087809002088
:1034F800DC0900205003010838B506EE900A1E4B7F
:10350800B8EEE67AD3ED007ADFED1C6A27EE877A0B
:103518001B4B87EE267ABDEEC77A83ED007AB8EEAC
:10352800C77A77EE877A17EE900A07F0D5FC154B25
:1035380004460D46C3E9004522462B460CA1D1E9B5
:10354800000107F047FE104BD3E9002307F018FDF0
:103558000E4B2246C3E900012B4600200C4907F018
:1035680039FE0C4BC3E9000138BD00BFAFF3008042
:10357800182D4454FB211940680F00200024744979
:10358800D44D0020602B002048160020382B002046
:1035980000003040A01300201F4B002030B51860F9
:1035A8001E4B18601E4B00240025186045EC174B75
:1035B8001C4B83ED007B1C4B4B221A601B4B3222A9
:1035C8000DA5D5E900451A60194BC3E900450CA5BE
:1035D800D5E90045174BC3E900450BA5D5E90045DA
:1035E800154BC3E900450AA5D5E90045134BC3E9C6
:1035F8000045BDE830407FE7182D4454FB21F93FD2
:10360800E0F09C762F1BA43F9F14F9CFD4C2F93F5A
:1036180091458FD82181F83FD44D00206C0F0020B0
:1036280044160020A85A002050160020081F002029
:10363800382B0020402B0020E04D0020C84D0020F2
:103648002DE9F843284B294C294D012251EC100B48
:103658001A6023A3D3E9002307F092FC254BD3E992
:10366800002307F0B7FD244B06460F460020002133
:10367800C3E9006741EC170B204B83ED007B204B1F
:103688001A68204B002A0CBF142204221A601E4B11
:10369800D3E90089304642464B46394684ED007BE3
:1036A80007F0BCFA194B4246C3E900014B463046C5
:1036B800394607F0B1FA00220023C5E9000107F0F6
:1036C800DBFE18B194ED007B85ED007B104A0023EA
:1036D8001360104A1360BDE8F88300BFAFF30080A1
:1036E800182D4454FB211940541E0020484D002039
:1036F800C84D0020602B0020382B0020384D0020BA
:10370800482B0020704D0020402B0020E04D002069
:10371800E44C0020404D00202DE9F843284B08B91F
:10372800186005E001241C6040F6B833984200D0C8
:103738000024244B244D1C6007F0BCFB1EA3D3E9D6
:10374800002307F01DFC214BD3E9002307F042FDBD
:103758001F4B06460F46C3E900671E4BD3E900011D
:103768001D4BD3E9002307F059FA32463B46804601
:10377800894607F053FA194B3246C3E900013B4624
:103788004046494607F048FA00220023C5E90001EF
:1037980007F072FE28B10022002343EC172B85EDB9
:1037A800007B00220CB10E4B00E00E4B0E49C1E924
:1037B8000023BDE8F88300BF182D4454FB211940AD
:1037C800E84C0020482B0020C84D0020602B00202A
:1037D800402B0020382B0020A85A0020E04D002064
:1037E80000003E4000005940604D0020124900236F
:1037F80001225A500433402BFBD1104B03F1A8028D
:1038080000200021E3E902019342F9D10C4B0A227E
:103818001A600C4A002313600B4A13600B4A04A178
:10382800D1E9000113600A4BC3E90001704700BFEA
:103838000000000000805640782F0020581E00200D
:10384800742F00209C130020344E0020A056002026
:10385800684D002007EE100A414B4248F8EEC77A3F
:1038680070B5C3ED007A00231D461D543E4C00225E
:10387800C61854F8041F090911F0010F4FEA510145
:10388800FAD0994208BF32700132B2F5807FF0D188
:103898000133B3F5006FE8D1FFF7A8FF0020FFF769
:1038A8002BFE324B32220020002141EC170B1A600C
:1038B8002F4B304A83ED007B002313602E4A1360A0
:1038C8002E4A13602E4A13602E4A13602E4A82ED48
:1038D800007B2E4A82ED007B2D4A13602D4A05217C
:1038E80011602D4A13602D4A82ED007B2C4A82ED2F
:1038F800007B2C4A82ED007B2B4A17A1D1E90001FD
:1039080082ED007B294AC2E900010020002141EC38
:10391800170B274A82ED007B82ED027B254A82ED58
:10392800007B82ED027B244A82ED007B234A82EDF4
:10393800007B234A1360234A1360234A1360234AF7
:1039480001211160224A234913600020224B41ECD7
:10395800170B83ED007B70BD9A9999999999D93F76
:10396800680F0020201F0020D0120108742F0020AB
:10397800D84D002018300020702F00206C2F002018
:10398800C0480020242B0020D84C0020A815002077
:10399800302B0020C04D0020D04D002020400020BA
:1039A800B8480020384E0020584D0020684D0020AF
:1039B800580F0020480B0020484D0020B040002040
:1039C8002C2B0020504D0020704D0020541E00204C
:1039D800482B002000005940604D00200C4908B5D4
:1039E800202200235A540133282BFBD1084A0023F4
:1039F80082F82730074A1360074A4FF4FA501360D9
:103A0800FFF728FFFFF7C8FDBDE80840FFF7D4BC63
:103A1800700F0020986D0020946D00202DE9F04F64
:103A2800814B1B6889B08DED000B8DED021B6BB9C6
:103A38000020002141EC170B7C4B83ED007B7C4B75
:103A480083ED007B7B4B83ED007BD1E07A4D7B4C93
:103A5800D5E902ABD4E90023DDE9000107F0DCF881
:103A680052465B4607F08CFAD5E90067D4E9022391
:103A780080468946DDE9020107F0CEF832463B462A
:103A880007F07EFA02460B464046494607F0C4F85E
:103A98009DED007B85ED007B9DED027BC4E9006711
:103AA800C4E902AB85ED027B53A3D3E9002380462A
:103AB800894607F0F5FC18B10FF23C19D9E90089DD
:103AC800404649464EA3D3E9002307F0CBFC18B182
:103AD8000FF22C19D9E90089544E4BA3D3E90023DE
:103AE800D6E9000107F04CFA49A3D3E900230446BC
:103AF8000D464046494607F043FA02460B46204623
:103B0800294607F08BF804460D46C6E90045002211
:103B18004B4B07F0C5FC30B9204629460022494BDB
:103B280007F0A0FC80B13CA3D3E900232046294636
:103B380007F026FA444E02460B46D6E9000107F084
:103B48006DF8C6E900012FE0394BD3E9006720463C
:103B580032463B46294607F013FA0022002307F0B5
:103B68009FFC08B9002600273046394622A3D3E92E
:103B7800002307F095FC38B93046394620A3D3E92D
:103B8800002307F06FFC78B125A3D3E90023304662
:103B9800394607F0F5F92C4C02460B46D4E90001EA
:103BA80007F03CF8C4E90001274C224DD4E9000194
:103BB800D5E9002307F032F8244BD3E900673246F1
:103BC8003B468046894607F06BFC48B9204BD3E951
:103BD80000674046494632463B4607F043FC38B149
:103BE8000020002141EC170BC4E9006785ED007B3C
:103BF80009B0BDE8F08F00BF333333333333D33FDD
:103C0800333333333333D3BFE5174B7EB1E4EF3F60
:103C1800555555555555C53F691D554D1075EF3EC0
:103C2800691D554D1075FF3EE84C0020484D002099
:103C3800384D0020A85A0020580F0020480B0020BB
:103C480000001840000018C0382B0020E04D00206C
:103C5800C84D00202DE9F04F8B4B1B6889B08DEDC6
:103C6800000B8DED021B6BB90020002141EC170BF6
:103C7800864B83ED007B864B83ED007B854B83ED84
:103C8800007BE2E0844D854CD5E902ABD4E9002302
:103C9800DDE9000106F0C0FF52465B4607F070F907
:103CA800D5E90089D4E9022306460F46DDE9020179
:103CB80006F0B2FF42464B4607F062F902460B4651
:103CC8003046394606F0A8FF9DED007B85ED007B68
:103CD8009DED027BC4E90089C4E902AB85ED027B56
:103CE8005BA3D3E9002306460F4607F0D9FB10B1C2
:103CF80057A7D7E900673046394657A3D3E90023C9
:103D080007F0B0FB10B154A7D7E900675F4C54A384
:103D1800D3E90023D4E9000107F032F900228046F4
:103D28008946304639465E4B07F02AF90B4602466B
:103D38004946404606F072FF5A4B1B6806460F4636
:103D4800C4E900671BB342A3D3E9002307F0A8FB2B
:103D580038B93046394640A3D3E9002307F082FB3F
:103D680078B141A3D3E900233046394607F008F972
:103D78004D4C02460B46D4E9000106F04FFFC4E95A
:103D88000001304639463AA3D3E9002334E0404BDA
:103D9800D3E9008942464B4607F0F2F80022002397
:103DA80007F07EFB18B94FF000084FF000094046B5
:103DB800494627A3D3E9002307F072FB38B94046E8
:103DC800494625A3D3E9002307F04CFB78B12AA381
:103DD800D3E900234046494607F0D2F8324C024660
:103DE8000B46D4E9000106F019FFC4E9000124A339
:103DF800D3E900234046494607F0C2F8254B2A4C30
:103E0800244DC3E90001D4E90001D5E9002306F0F7
:103E180005FF264BD3E9006732463B468046894674
:103E280007F03EFB48B9224BD3E9006740464946B4
:103E380032463B4607F016FB38B10020002141EC22
:103E4800170BC4E9006785ED007B09B0BDE8F08F6A
:103E5800333333333333D33F333333333333D3BF52
:103E6800D7A3703D0AD7EF3F54E41071732AC93EB7
:103E78002D431CEBE2363A3F54E41071732AB93EE5
:103E8800FCA9F1D24D62503FE84C0020484D00207B
:103E9800384D0020A85A0020580F0020480B002059
:103EA8000000D03F541E0020382B0020E04D002099
:103EB800C84D00202DE9F04351EC100B85B00246A7
:103EC8000B4655EC114B8DED000B8DED021B07F0E9
:103ED80057F8224606462B460F462046294607F045
:103EE8004FF802460B463046394606F097FE41EC3D
:103EF800100B07F039FD3A4ED6E9004559EC108B06
:103F08002246404649462B4607F0CAFA70B1204679
:103F180029462BA3D3E9002307F032F82AA3D3E9D3
:103F2800002304460D46404649460DE020462946F2
:103F380027A3D3E9002307F023F827A3D3E9002315
:103F480004460D464046494607F01AF802460B4615
:103F58002046294606F062FEC6E90001204BD3E957
:103F680000670022304639461E4B07F08FFA08B327
:103F78001D4C3246D4E900013B4607F02BF9324686
:103F8800C4E900013B46D4E9020107F023F9C4E97A
:103F98000201164C3246D4E900013B4607F01AF9F3
:103FA8003246C4E900013B46D4E9020107F012F9A0
:103FB800C4E9020105B0BDE8F08300BFAFF300809B
:103FC800D7A3703D0AD7EF3F7B14AE47E17A743F21
:103FD800560E2DB29DEFEF3FFCA9F1D24D62603F26
:103FE800D84C00200000F03FB0150020B00A002097
:103FF8002DE9F04F7A4B1D6885B00F2D51EC100B51
:1040080057EC116B8DED000B8DED021B5CDC02464D
:104018000B4606F0B5FF32463B4680468946304699
:10402800394606F0ADFF02460B464046494606F0C3
:10403800F5FD00226B4B06460F4607F031FA08B132
:10404800694F0026694C04EBC504D4E9000158A364
:10405800D3E9002306F094FF57A3D3E90023804651
:1040680089463046394606F08BFF0B4602464946DC
:10407800404606F0D3FD5E4B1B689D42C4E9000133
:104088005C4C0AD14EA3D3E9002306F079FF07F070
:1040980011FA44F82500012409E04BA3D3E90023D1
:1040A80006F06EFF07F006FA44F825000024524B8C
:1040B800524A1B6802EB8302D2F80024954204BFDF
:1040C8004B4A1360013500E000244D4E4D4BD6E9B4
:1040D8000001D3E9002306F0A1FD80468946C6E920
:1040E80000893BA3D3E9002307F0D0F9002858D072
:1040F80049EC108B9FED361B07F048FB0F2D86ED22
:10410800000B04D13A4B1B680F2B08BF01243A4B14
:104118003D4E1F680FF2C00BDBE900AB0025F6E946
:1041280002895246404649465B4607F0B9F910B144
:104138002F46C246CB460135102DF0D12E4B1F60BD
:10414800324B1B6813B3324A294B12681B68511C47
:104158008B4203D12F4B1A68013205E0013A934292
:1041680003D12C4B1A68013A1A602B4B1A68511C60
:10417800B2F59D7F19600FDB26490A68C8205043B5
:10418800264A106000220A601A6005E0234A13607C
:10419800204A1360204A1360154B1A681C4B0025EF
:1041A8001A600F4B20461D6005B0BDE8F08F00BFB8
:1041B8009C8FC1F9189CEF3FFA189C8FC1F9883F72
:1041C8000000000000208C400000000000708740C4
:1041D800FCA9F1D24D62A03F000000205FA002C2FE
:1041E800D04D0020000010400000F03F601E00206D
:1041F800302B0020404E0020C04D0020D412010872
:10420800D84D0020A0130020581E0020504D00203B
:104218002C2B00209C130020344E0020A056002098
:10422800894B2DE9F74F1868884B1B6855EC104BE4
:10423800002B40F0318106F03DFE00228046894681
:1042480020462946002307F021F9002866D0204699
:10425800294673A3D3E9002307F00EF900285DD09F
:1042680071A3D3E900232046294606F0D5FC0B4666
:104278000E467749774C02460546C1E90023284691
:104288006BA3D3E9002326F0004106F079FED4E9B8
:1042980000AB52465B46CDE9000107F0E3F820B1D8
:1042A80000206D4942464B4609E042464B4640468F
:1042B800494606F0B3FC0B4667490246002006F063
:1042C80089FF80468946002042464B46624906F0EF
:1042D800A3FC52465B4606F053FEDDE90023824606
:1042E8008B464046494606F04BFE02460B46504672
:1042F800594606F093FC594B1A68142AC4E9000180
:1043080007DD5749534B002041EC170B83ED007B29
:1043180001E001321A600024524B70E02046294621
:104328003FA3D3E9002307F0B1F8002800F0B480D8
:104338002046294640A3D3E9002307F09DF800282A
:1043480000F0AA803EA3D3E900232046294606F0C0
:1043580063FC0B460E463E493E4C02460546C1E903
:104368000023284632A3D3E9002326F0004106F0B3
:1043780007FED4E900AB52465B46CDE9000107F0E1
:1043880071F820B10020344942464B4609E04246C4
:104398004B464046494606F041FC0B462E4902462C
:1043A800002006F017FF80468946002042464B460B
:1043B800294906F031FC52465B4606F0E1FDDDE98D
:1043C800002382468B464046494606F0D9FD024600
:1043D8000B465046594606F021FC224B1A68142A0F
:1043E800C4E9000107DD20491A4B002041EC170BF6
:1043F80083ED007B01E001321A60184B00241C6039
:10440800002200232846314607F040F8174B184A87
:1044180080B319681460013119602FE0AFF3008090
:10442800182D4454FB210940182D4454FB21F93F11
:104438000000000000C06240182D4454FB211940C0
:10444800D221337F7CD912405016002098130020C7
:10445800B0400020684D00200000F03FC048002018
:1044680000003940242B002000005940E44C002073
:10447800404D002011681860013111601B68042B41
:104488000ADC4F4B1B68042B06DC002000214D4B37
:1044980041EC170B83ED007B4B4B4C4C1A684C4B93
:1044A800022AD4BF002201221A604A4B0022D3E913
:1044B8000001494B06F0F4FF98B1484BD3E90001DD
:1044C80006F0F8FF414BC0F1640020601A68444BC5
:1044D8001B689A42434B01DB012200E000221A606C
:1044E80003E0404A0023236013603F4B354C1B68B0
:1044F800D4E90001BBB12EA3D3E9002306F0D0FF15
:1045080020B12BA1D1E90001C4E900012D4C2AA357
:10451800D3E90023D4E9000106F0A4FFD0B126A115
:10452800D1E9000114E00022304B06F0B9FF28B1B0
:104538002E49002041EC170B84ED007B214C2C4BBD
:10454800D4E90001002206F08DFF18B128490020A7
:10455800C4E90001274B2549274CD3E9006700200F
:1045680032463B4606F036FE02460B4600201F49FF
:1045780006F052FBD4E9002306F002FD32468046DD
:1045880089463B4600201D4906F024FE0D4BD3E921
:10459800002306F0F5FC02460B464046494606F065
:1045A8003DFBC4E90001BDE8FE8F00BFAFF300800A
:1045B800333333333333E33F333333333333E3BFCB
:1045C800404D0020B0400020C0480020742F00203B
:1045D80044160020D84C002000002440684D0020DC
:1045E800081F0020504D0020981300200000F03FC5
:1045F8000000F0BF604D0020384D0020000014403E
:10460800894A8A4B8A492DE9F04FD2E90089C3E9E2
:104618000089884BD3E900AB57EC106B87B083ED6A
:10462800001B82ED000BC1E900AB32463B46404619
:10463800494655EC114B8DED041B8DED020B06F030
:104648009FFC2246CDE900012B465046594606F00C
:1046580097FC02460B46DDE9000106F0DFFA224628
:10466800CDE900012B464046494606F089FC5246F2
:1046780004460D465B463046394606F081FC024644
:104688000B462046294606F0C7FA82468B46524614
:104698005B4606F075FC04460D46DDE9000102465E
:1046A8000B4606F06DFC02460B462046294606F0EE
:1046B800B5FA41EC100B07F057F95F4B5F4C604DB2
:1046C800D3E9000100225F4B57EC106B06F0E8FEBF
:1046D80008B351A3D3E900233046394606F07AFDE2
:1046E8008046894642464B465046594606F072FD7A
:1046F80006F0E0FE2668424645F826004B46DDE90E
:10470800000106F067FD06F0D5FE771C023645F875
:104718002700266008E02368591C022245F8232058
:104728009B1845F821202360444B1A6802F00F02B9
:104738004BEC11AB1A609DED000B07F025F838A380
:10474800D3E9002351EC100B06F068FA41EC100B8A
:10475800FFF766FD354BD3E90001334BD3E900235E
:1047680006F00EFC324B04460D46D3E90001314BEE
:10477800D3E9002306F004FC02460B4620462946EE
:1047880006F04CFA0023002206F08AFE01242E4B84
:1047980068B92E4A126800244AB11A68002A35D02E
:1047A800C2F38A022A491C60885C58B92EE01A684C
:1047B80044EA42021A60254B0CB9012200E00022AB
:1047C8001A6023E0234B1B68002B1FD0224A136872
:1047D800252B04DC2149C8540133136016E01F4A15
:1047E800012399189C5C0133252B01F8014CF8DD55
:1047F8001B4A1360194B83F825001A4B1B78012BB1
:1048080004D107B0BDE8F04F02F0B2BB07B0BDE875
:10481800F08F00BFAFF300800000000000408F4021
:10482800182D4454FB210940B8480020204000209E
:10483800384E0020584D0020D84C00206C0F002026
:10484800782F00200000244018300020702F00200E
:10485800201F0020504D0020946D0020700F002074
:10486800C4080020906D00202DE9F04F984B1A687D
:104878008BB0002A40D0013A002A1A60954A41DCE0
:1048880000211960944B1160D3E90067934BD3E979
:104898000045304622462B46394606F0BFF9904B74
:1048A8002246C3E900012B463046394606F0B4F9E2
:1048B8008C4C8D4B804689461868C4E9008906F0FF
:1048C8000BFB02460B463046394606F059FB7CA3E3
:1048D800D3E9002306F07EFC844B0022C3E90001E3
:1048E80040464946002306F0C7FD28B100220023B0
:1048F80043EC172B84ED007B7D4CDFF840820027CA
:10490800A14602E001231360F6E7734B37F808501D
:10491800D3E90001774BA580D3E9002306F07EF99F
:1049280069A3D3E9002306F02BFB06F0C3FDA368B7
:10493800714AC018011101F580610905090DA060CF
:10494800C0F30B1032F8211032F82030E181A38136
:1049580015FB01F115FB03F5E36921610AA800EBDA
:104968004302C1F3CF316561C5F3CF3522F8201C6E
:1049780022F8105C5A1C614B21831340002B65837D
:1049880003DA013B63F003030133C9F81C30002B41
:1049980040F08D80226A5A4804AB03EB420202A918
:1049A800042305F0B3FA226A08A800EB42020423A4
:1049B800544806A905F0AAFA226A504B013213405E
:1049C800002B03DA013B63F0030301332362002B5E
:1049D8006DD14D484D4A4E4D4E4E04A9042305F065
:1049E80095FA4D484D4A08A9042305F08FFAA38C7F
:1049F80046492385E38C4A48638501F1080201236F
:104A080005F036FB4549474801F10802012305F046
:104A18002FFB4549454801F10802012305F028FB11
:104A28004349444801F10802012305F021FBB4F988
:104A3800300006F03FFA82468B46B4F93200C5E9E9
:104A480000AB06F037FA02460B46C5E90223B4F973
:104A58002C000192009106F02DFAC6E90001B4F984
:104A68002E0006F027FA009B019A4BEC10AB43ECA2
:104A7800112BC6E90201FFF71DFA2F4B1B6895EDB4
:104A8800000B95ED021B13B1FEF7C8FF01E0FFF71D
:104A9800E1F896ED000B96ED021B1E4DFFF7A8FA04
:104AA80028B195ED000B95ED021BFFF7A9FD023724
:104AB800B7F5806F7FF429AF0BB0BDE8F08F00BF6A
:104AC800182D4454FB21194039D6C56D305FC440B8
:104AD800704D0020541E0020382B0020402B002051
:104AE800E04D0020C84D0020680F00204816002027
:104AF800C4080020A85A00201C17010803000080E1
:104B0800700000204000002064000020E808002019
:104B1800B00A0020B015002034000020EA08002068
:104B28005800002028000020EC0800204C0000203D
:104B3800EE0800201C000020482B0020980F0020C1
:104B480010B58721AA20FEF713F940F00102D2B26E
:104B5800AA208721FDF7E6FF092401E0013C05D0E2
:104B6800AA208721FEF704F9C307F7D410BD0A234A
:104B780090FBF3F0364B98422DE9F04F4ADC354C68
:104B8800354ADFF8E090DFF8E080830094FBF3F427
:104B9800E10748BF01340B23434392FBF3F3802C16
:104BA800A8BF8024DA0748BF013B23EAE37A002341
:104BB80019461A4614E0002515F80970DFF8ACC04C
:104BC80007FB04F64643B444C44505D80BB19E42DE
:104BD80002DC3346394622460135062DECD1023C2B
:104BE8005445E8DC24E015F809C0DFF880800CFBA8
:104BF80007F64643B044D84505D80CB1A64202DCB6
:104C0800344661463A460135062DECD10133022B74
:104C18000AD10DE0DFF858A0DFF84CB000231C469D
:104C280019461A46AAF1060913F80A700025DAE7A8
:104C380007EE101A094BF8EEC77A07EE102AC3EDF3
:104C4800007AF8EEC77A064BC3ED007ABDE8F08F1C
:104C58001CC6A002C0BBCB214083E81C086D002005
:104C6800E06C0020141701088038E304C07C17E3C7
:104C78001A170108F8B52E4B2E4C0546186806F091
:104C88002BF900222C4B05F0C7FF00222B4B06F016
:104C980077F9064620680F4606F01EF90022284BD1
:104CA80005F0BAFF0022274B06F06AF902460B46C8
:104CB8003046394605F0B2FF06F024FC287020681B
:104CC800214E224C06F008F900221D4B05F0A4FFE6
:104CD80006F018FCC0B280016870D6E9000106F041
:104CE80011FC20606B7843EA10106870206806F0A9
:104CF800D1F802460B46D6E9000105F08DFF0022E7
:104D0800134B06F03DF906F0D5FB124B687118609D
:104D1800020A000CE8702A71DB7803F00F03AB700D
:104D280023681B01DBB22360AA781343AB70F8BD7C
:104D3800086D0020E06C002000001040000040409A
:104D48000000F03F0000D03FF06C0020146D002000
:104D58000000B041C86C002070B5027852090432D6
:104D680007EE102A214AF8EEC77A0346C2ED007A08
:104D7800017842781C7901F01F01920902EB810247
:104D8800013207EE102A1A4AF8EEC77AC2ED007A05
:104D98004178184A01F03F0111608078000900EB62
:104DA800011010609978144A01F00F011160DE7843
:104DB8005B7906EB012604EB062603EB0626166054
:104DC80006F068F8044630460D4606F063F80022FF
:104DD8000A4B06F0D5F80B4602462946204605F050
:104DE8001DFF074BC3E9000170BD00BF086D00201F
:104DF800E06C0020146D0020C86C00200000303EDC
:104E0800F06C002008B5AA208721FDF7B1FF014BFF
:104E1800187008BD106D002038B505460724AA2073
:104E28002146FDF7A5FF0134E4B20D2C05F8010B6E
:104E3800F5D138BD38B5134CFFF782FE2046FFF791
:104E4800EBFF2046FFF788FF0F4B186806F044F881
:104E58000E4BD3E9002306F093F80D4B044618686F
:104E68000D4606F039F802460B462046294606F05C
:104E780087F8084BD3E9002306F0ACF9064BC3E9E1
:104E8800000138BDD06C0020086D0020006D0020A6
:104E9800E06C0020F06C0020E86C0020F8B51A4B9C
:104EA800D3E90067194BD3E9004530463946224615
:104EB8002B4606F0CDFA08BB3046394622462B462B
:104EC80006F0D0FA20B12046294632463B4603E098
:104ED8003046394622462B4605F09EFE32463B4672
:104EE80006F078F906A3D3E90023012406F0C4FAF2
:104EF80000B9002484F00104E0B2F8BD0020F8BD38
:104F080079E9263108AC6C3F206D0020F06C002058
:104F180010B589210446AA20FDF72AFF40F01002A7
:104F2800D2B28921AA20FDF7FDFD224606230721DA
:104F3800AA20FDF787FE8921AA20FDF719FF8921FC
:104F480000F0EF02AA20FDF7EDFDFFF7A7FF80B103
:104F58008721AA20FDF70CFF40F04002D2B2AA2018
:104F68008721FDF7DFFDAA208721FDF701FF400615
:104F7800F9D410BDF8B580EAE075A5EBE0752846D0
:104F8800FFF7F5FD284605F095FF164B164C174D13
:104F9800064618680F4605F09FFF02460B46304646
:104FA800394605F0EDFF124B064618680F4605F026
:104FB80093FF02460B463046394605F0E1FF0D4B9C
:104FC800D3E9002306F006F9C4E900012846FFF7F3
:104FD80051FE2846FFF79CFF94ED007B064B83EDBE
:104FE800007BF8BD086D0020F06C0020D06C00201C
:104FF800E06C0020E86C0020206D00200BA1D1E9B6
:105008000001074B10B5C3E90001064C064B2360AD
:10501800FFF710FF2068BDE81040ABE7AFF3008052
:10502800006D0020F86C002040085A0300000000C2
:1050380000DB8A41AFF300804FF0C04322221A8080
:105048007047014B18807047000002604FF0C04362
:10505800188003F50033198070474FF0C0430722CA
:105068001A8003F5003302F5B6721A8070474FF0C4
:10507800C04307221A8003F5003300221A807047C4
:1050880082B0084BADF80600ADF80410BDF8062054
:1050980092B21A80BDF80420034B92B21A8002B073
:1050A800704700BFF8080020CC030020044B1B8881
:1050B8009BB20380034B1B889BB20B80704700BFD9
:1050C800F8080020CC03002082B0044BADF806009D
:1050D800BDF8062092B21A8002B07047F808002086
:1050E80082B0044BADF80600BDF8062092B21A80D3
:1050F80002B07047CC03002082B0044BADF8060024
:10510800BDF8062092B25A8002B07047CC03002046
:105118004FF0C04220231380024B188021201080BA
:105128001980704700000260B0F5A07F08B50346FB
:105138000EDAEF290CDC88B299B2FFF7E9FF4FF0DD
:10514800C04322221A80034B1A88034B92B21A805A
:1051580008BD00BFF808002000000260B0F5A07F7D
:1051680010B5034614460DDAEF290BDC88B299B264
:10517800FFF7CEFF4FF0C04322221A8003F5003319
:10518800A4B21C8010BD2DE9F04F824E73888FB0F9
:105198009BB2082B01908A4614462CD102A81146CE
:1051A800FAF7F8FF0AF10707BFB2002505F108036F
:1051B8006A46072613F802B0019B0FFA87F91FFA0F
:1051C80083F84BFA06F313F0010F14BF724B714BBF
:1051D8001A880FFA88F012B24946013EFFF7BEFF5F
:1051E80008F10108701C1FFA88F8EAD10135013F5F
:1051F800082DBFB2DAD1674E73889BB20C2B2CD125
:1052080002A82146FAF7D0FF0AF10B07BFB2002522
:1052180005F108036A46072613F802B0019B0FFA46
:1052280087F91FFA83F84BFA06F313F0010F14BF3E
:10523800594B584B1A880FFA88F0494612B2013E6A
:10524800FFF78CFF08F10108711C1FFA88F8EAD1F2
:105258000135013F0C2DBFB2DAD14E4E73889BB297
:10526800102B2CD102A82146FAF7B2FF0AF10F073A
:10527800BFB2002505F108036A46072613F802B0F5
:10528800019B0FFA87F91FFA83F84BFA06F313F01C
:10529800010F14BF404B3F4B1A880FFA88F012B227
:1052A8004946013EFFF75AFF08F10108721C1FFA30
:1052B80088F8EAD10135013F102DBFB2DAD1354E59
:1052C80073889BB20E2B2CD102A82146FAF776FFE1
:1052D8000AF10B07BFB2002505F108036A460B2641
:1052E80033F802B0019B0FFA87F91FFA83F84BFADB
:1052F80006F313F0010F14BF274B264B1A880FFA39
:1053080088F012B24946013EFFF728FF08F101086C
:10531800731C1FFA88F8EAD10235013F182DBFB275
:10532800DAD11C4D6B889BB2182B2FD1214602A8CD
:10533800FAF758FF0AF1170ADFF85CB01FFA8AFA81
:105348000024A94604F108036A46002533F80280C0
:10535800019B0FFA8AF79EB248FA05F313F0010F82
:1053680014BFBBF80020B9F8002030B212B2394699
:1053780001350136FFF7F2FE102DB6B2ECD102343A
:105388000AF1FF3A302C1FFA8AFADBD10FB0BDE8D8
:10539800F08F00BFCC030020F8080020F8B50446C1
:1053A8000D46164640F2371716F8012B20B229B2DF
:1053B800FFF7E9FEBC420FD80D4B5A8892B2182A63
:1053C80001D1103404E05B889BB20E2B02D0083464
:1053D800A4B209E00C34FBE7DF2D03D81035ADB2D9
:1053E800002401E000252C463378002BDCD1F8BDE1
:1053F800CC0300202DE9F047294BDFF8B0A02DEDB4
:10540800028BD3E9000124A3D3E9002305F004FCAF
:1054180006F098F8DFED237A08EE100A88EE278A5E
:105428002826002407EE104AF8EE477AF4EE487A68
:10543800F1EE10FA16D0AF27002504EB0A090FFA8F
:1054480086F899F808309D42404639B201D21F22A9
:1054580001E04FF0FF3201350137FFF77FFE402DA5
:10546800BFB2EED101340136F02CB6B2DAD1BDEEBE
:10547800C88AB32418EE105A28352DB221B2013447
:105488002846094AA4B2FFF769FEEF2CF6D1BDEC15
:10549800028BBDE8F08700BF0000000000405F40BD
:1054A8004816002000007A4100F8FFFFE86D002050
:1054B8002DE9F0471F4604460D461646FFF728FE1D
:1054C800FFB94FF0C04322221A80134A03F5003374
:1054D80003E0118889B219800137B742F9D3BDE8D2
:1054E800F0872223AAF80030B9F8003001349BB2C3
:1054F800A4B2A8F8003020462946FFF709FE013774
:1055080006E0DFF81490DFF8148000274FF0C04A57
:10551800B742E6D3BDE8F087F80800200000026033
:105528002DE9F74F99465B181BB205460C461646FF
:10553800804600270FFA81FB01930EE00FFA88FAE4
:1055480050465946FFF7F0FD50460199FFF7ECFD2C
:1055580008F1010801371FFA88F8BE42EEDA0FFA9F
:1055680085FA751900272DB20CE00FFA84F8504619
:105578004146FFF7D9FD28464146FFF7D5FD0134DE
:105588000137A4B2B945F0DABDE8FE8F2DE9F84F2E
:1055980002EB010A05460C461646804600270FFA1C
:1055A80081FB0FFA8AFA0EE00FFA88F94846594645
:1055B800FFF7BAFD48465146FFF7B6FD08F1010866
:1055C80001371FFA88F8BE42EEDA0FFA85F9751925
:1055D80000272DB20FFA84F848464146FFF7A4FD8C
:1055E8000137284641460134FFF79EFDBE42A4B26A
:1055F800F0DABDE8F88F2DE9F84F4FEA4208C8F114
:10560800030805460C461FFA88F81746002606EBDD
:10561800050A07EB040B0FFA8AFA0FFA8BFB5046C0
:105628005946C7EB0409FFF77FFD0FFA89F9504681
:10563800C6EB050A49460FFA8AFAFFF775FD504688
:105648005946FFF771FD06EB040B504607EB050AB8
:1056580049460FFA8AFA0FFA8BFBFFF765FDC6EB8E
:10566800040950465946FFF75FFD0FFA89F950467D
:10567800C7EB050A49460FFA8AFAFFF755FD504667
:105688005946FFF751FD50464946FFF74DFD18F4BE
:10569800004F06D008EB860808F106081FFA88F8BC
:1056A80008E0F31B08F10A0808EB8308013F1FFA1A
:1056B80088F8BFB20136B6B2BE42A8D9BDE8F88FA5
:1056C8002DE9F84F04460D4616469A46002715E080
:1056D8000FFA89F1584609F10109FFF725FD08F18C
:1056E80001081FFA89F904E0A9464FF000080FFAEB
:1056F80084FBD045ECDB01340137A4B2B742F3DBBD
:10570800BDE8F88F2DE9F04704460D46914600267E
:1057180012E0A84600270FFA84FA0FFA88F15046DB
:105728000137FFF701FD08F101084F451FFA88F816
:10573800F3DB01340136A4B24E45EADBBDE8F0875D
:105748002DE9F04FC1EB030CC0EB0209B9F1000FD2
:10575800B8BFC9F10009BCF1000FB8BFCCF1000C0B
:105768004FF6FF761FFA89F91FFA8CFC824234BF84
:10577800374601278B4234BFB0464FF001080FFA75
:105788008CF20FFA89F6964285B084B28DB24FF04A
:10579800020307DB96FBF3F63A460027B6B2E34668
:1057A8003B4608E092FBF3F643464FF00008CB4631
:1057B800B6B2E14642464FF0000A0FFA89FC20E0F3
:1057C80020B229B25E4403920293CDF804C0FFF7D9
:1057D800ABFCB1B28EB2DDF804C0039A029B30B2C2
:1057E800604506DBC9EB0106E4194544B6B2A4B22C
:1057F800ADB2A418ED180AF1010AA4B2ADB21FFAAD
:105808008AFA0FFA8AF16145DADD05B0BDE8F08F52
:105818002DE9F74F012904460D46019234D9B0F815
:105828000080B0F802A08346061D1DE0C4EB0B07FC
:1058380007EB0609BA5BB9F802301FFA88F81FFAB5
:105848008AFA4244534492B29BB240465146FFF70B
:1058580077FFBA5BB9F8023090449A441FFA88F887
:105868001FFA8AFA0BF1040B013DADB2002DDDD110
:10587800019B4BB1208861881FFA88F21FFA8AF3CE
:1058880003B0BDE8F04F5BE703B0BDE8F08F2DE94A
:10589800F0475600C6F1030607468846B6B21546D5
:1058A800002405EB0809E019C5EB080A1FFA89F975
:1058B80080B21FFA8AFA494602465346FFF740FF6C
:1058C800381B80B2494602465346FFF739FF04EBBE
:1058D8000809E819C4EB080A80B21FFA89F91FFA07
:1058E8008AFA024649465346FFF72AFF781B80B2D8
:1058F800534649460246FFF723FF330404D506EB17
:1059080084060636B6B206E0631B0A3606EB830643
:10591800013DB6B2ADB20134A4B2AC42C1D9BDE8C2
:10592800F0872DE9F3410220012102F0B3FF0026A0
:105938000125022769464E484E4C8DF804500097C1
:105948008DF805708DF806608DF8076002F0FAFB97
:105958001820294602F09EFF2846294602F0B2FF89
:10596800204631460C2202F06DFC204629460C22C6
:1059780002F068FC204604210C2202F063FC204659
:1059880005210C2202F05EFC204607210C2202F0C1
:1059980059FC204608210C2202F054FC204609211B
:1059A8000C2202F04FFC20460A210C2202F04AFC8D
:1059B80020460B210C22304D02F044FC20460E21DB
:1059C8000C2202F03FFC20460F210C2202F03AFC88
:1059D800284607210C2202F035FC284608210C2213
:1059E80002F030FC284609210C2202F02BFC284644
:1059F8000A210C2202F026FC28460B210C2202F078
:105A080021FC0C2128460A4602F01CFC28460D21E0
:105A18000C2202F017FC28460E210C2202F012FC80
:105A280028460C220F2102F00DFC4FF003084CF61B
:105A3800B3732046694600938DF804708DF805808D
:105A48008DF806608DF8076002F07CFB4FF68073D6
:105A58002846694600938DF804708DF805808DF806
:105A680006608DF8076002F06DFBBDE8FC8100BFA1
:105A780000040240000C02400010024070B596B0CD
:105A880002231193102303934FF48053002401251C
:105A980009930FAE4FF4002368460C930F941094AB
:105AA80012941395149415940094019402940494F8
:105AB8000694079408940A9405940B940D9602F0A2
:105AC800BAF8042368460F9410941193129413950E
